:020000040800F2
:10000000D008002001010008090100080B010008C8
:100010000D0100080F010008110100080000000098
:1000200000000000000000000000000013010008B4
:10003000150100080000000017010008F90A000877
:100040001B0100081B0100081B0100081B01000820
:100050001B0100081B0100081B0100081B01000810
:100060001B0100081B0100081B0100081B01000800
:100070001B0100081B0100081B0100081B010008F0
:100080001B0100081B0100081B0100081B010008E0
:100090001B0100081B0100081B0100081B010008D0
:1000A0001B0100081B0100081B0100081B010008C0
:1000B0001B0100081B0100081B0100081B010008B0
:1000C0001B0100081B0100081B0100081B010008A0
:1000D0001B010008690B00081B0100081B01000838
:1000E0001B0100081B0100081B010008DFF80CD0F1
:1000F00000F018F80048004725100008D00800203C
:100100000648804706480047FEE7FEE7FEE7FEE7B1
:10011000FEE7FEE7FEE7FEE7FEE7FEE7090B000865
:10012000ED000008064C074D06E0E06840F00103D2
:1001300094E8070098471034AC42F6D3FFF7DAFF93
:10014000C4110008E411000810B500F0D5F910BD85
:1001500010B500F023F913490968401A322800D27B
:1001600010BD00F01BF90F49086000F03BFA0E4883
:1001700000780E49C978884206D10B4840780B496F
:100180000979884200D1EBE708484178C01C00F0AB
:1001900043F90648C078044908700448007948705B
:1001A00000BFDDE78400002080000020C4040020A0
:1001B0000CB5002101910BE00B21009102E00099A8
:1001C000491E009100990029F9D10199491C01911A
:1001D00001998142F0D30CBD2DE9F0410246002582
:1001E0000026002000230024002791F803C00CF013
:1001F0000F0591F803C00CF0100CBCF1000F03D0F8
:1002000091F802C04CEA050591F800C0BCF1000F5E
:1002100031D0146800202BE04FF0010C0CFA00F3F1
:10022000B1F800C00CEA03069E4220D183004FF0D3
:100230000F0C0CFA03F7BC4305FA03FC4CEA040468
:1002400091F803C0BCF1280F06D14FF0010C0CFA55
:1002500000FCC2F814C00AE091F803C0BCF1480FDA
:1002600005D14FF0010C0CFA00FCC2F810C0401C84
:100270000828D1D31460B1F800C0BCF1FF0F34DD01
:10028000546800202EE000F1080C4FF0010808FA35
:100290000CF3B1F800C00CEA03069E4221D18300A2
:1002A0004FF00F0C0CFA03F7BC4305FA03FC4CEAC1
:1002B000040491F803C0BCF1280F05D100F1080C2B
:1002C00008FA0CF8C2F8148091F803C0BCF1480F8A
:1002D00007D100F1080C4FF0010808FA0CF8C2F839
:1002E0001080401C0828CED35460BDE8F081000087
:1002F000F0B50A46002300240021002500F0004646
:10030000B6F1004F02D11D4EF16901E01B4E71683C
:10031000C0F3034583B200F44016B6F5401F08D180
:1003200021F07061154E766826F07066134F7E607E
:1003300012E000F48016B6F5801F06D1032606FAF7
:1003400005F4A14341F0706106E0460D360103FA61
:1003500006F6B14341F0706122B1460D360103FA51
:1003600006F6314300F00046B6F1004F02D1034ECD
:10037000F16101E0014E7160F0BD0000000001403C
:100380000246002093680B400BB1012000E00020E2
:1003900070470AB1016100E041617047014800689F
:1003A000704700009400002070B5002100230F2248
:1003B000C47804B3154C246804F4E064C4F5E06424
:1003C000210AC1F10403CA40447804FA03F1847895
:1003D0001440214309010E4C0678A155047804F01D
:1003E0001F050124AC4005786D11AD0005F1E02535
:1003F000C5F8004109E0047804F01F050124AC4071
:10040000044D0678761145F8264070BD0CED00E0ED
:1004100000E400E080E100E02DE9F04106460D46F1
:100420007078317800EB01202A4908802A4800883A
:10043000098888424CD027480088284908802548E8
:10044000008825490988084022490880002439E0AD
:100450000120A0401F490988084000282FD1012011
:10046000A0401D4909880840B0B10027732D03D171
:100470001B4850F8247006E0412D03D1194850F86C
:10048000247000E01CE0394617A000F033FD4FF661
:10049000FF701149088012E00027732D03D1104826
:1004A00050F8247006E0412D03D10E4850F8247016
:1004B00000E005E039460EA000F01CFD00BF00BFC3
:1004C000601CC4B2102CC3DB0448008802490880B9
:1004D000BDE8F0818A000020880000208C00002008
:1004E0000000002040000020444F574E202573009C
:1004F000555020257300000008B501210C2000F0A4
:10050000BFF80220ADF8000028208DF8030003207A
:100510008DF8020069461548FFF75EFE8020ADF8B1
:10052000000010208DF8030069461048FFF754FEC4
:100530000120ADF8000069460D48FFF74DFE02208E
:10054000ADF8000069460A48FFF746FE0122114651
:100550000748FFF71EFF012202210548FFF719FF98
:10056000012280210148FFF714FF08BD0008014067
:10057000000C01402DE9F04105462F4600260024DD
:1005800027E00120A04000EA070280211348FFF77E
:1005900000FF012202211248FFF7FBFE0620FFF7B1
:1005A00007FE002202210E48FFF7F3FE0620FFF7A8
:1005B000FFFD012202210A48FFF7EBFE0221074856
:1005C000FFF7DEFE18B10120A0403043C6B2601C28
:1005D000C4B2082CD5DB3046BDE8F08100080140EC
:1005E000000C014010B5002201211B48FFF7D1FE8D
:1005F0000120FFF7BFFF194908704220FFF7BAFF3B
:10060000164948700878FFF7B5FF144988700878D4
:10061000FFF7B0FF1149C8700878FFF7ABFF0F492B
:1006200008710878FFF7A6FF0C4948710878FFF7B2
:10063000A1FF0A4988710878FFF79CFF0749C87134
:100640000878FFF797FF0549087201221146024812
:10065000FFF79FFE10BD0000000C0140C404002005
:1006600029B1064A12690243044B1A6104E0034AA5
:1006700012698243014B1A6170470000001002406A
:1006800029B1064A92690243044B9A6104E0034A85
:1006900092698243014B9A6170470000001002404A
:1006A00029B1064AD2680243044BDA6004E0034AE7
:1006B000D2688243014BDA607047000000100240AC
:1006C0000F48006840F001000D4908600846406886
:1006D0000C4908400A494860084600680A49084031
:1006E000074908600846006820F480200860084632
:1006F000406820F4FE0048604FF41F008860704797
:10070000001002400000FFF8FFFFF6FE30B50021A8
:100710000022002400232D4D6D6805F00C0121B14D
:10072000042905D0082923D105E0294D056022E0E0
:10073000274D05601FE0254D6D6805F47012234DAF
:100740006D6805F48034022505EB92421CB9214DF9
:10075000554305600BE01D4D6D6805F400351DB176
:100760001C4D5543056002E0194D5543056002E0FC
:10077000174D056000BF00BF144D6D6805F0F00116
:100780000909154D6B5C0568DD4045600F4D6D68CE
:1007900005F4E061090A104D6B5C4568DD40856039
:1007A0000A4D6D6805F46051C90A0B4D6B5C4568D4
:1007B000DD40C560054D6D6805F44041890B074D6E
:1007C0006B5CC568B5FBF3F5056130BD00100240F8
:1007D00000127A0000093D00AC000020BC0000209F
:1007E00010B501460022002300204A11012A02D13F
:1007F000094C236806E0022A02D1074C236A01E073
:10080000054C636A01F01F02012494401C400CB1A6
:10081000012000E0002010BD0010024002484068A6
:1008200000F00C007047000000100240014600205C
:10083000034A506820F0F000084350607047000001
:10084000001002401149096821F480310F4A1160FB
:100850001146096821F480211160B0F5803F03D072
:10086000B0F5802F0ED106E00849096841F48031C7
:10087000064A116007E00549096841F4A021034ACE
:10088000116000E000BF00BF704700000010024090
:1008900001460020034A506820F4E060084350609D
:1008A000704700000010024001460020034A5068D3
:1008B00020F4605040EAC1005060704700100240D0
:1008C00001490866704700000000424202460020CD
:1008D000044B586820F47C1042EA01031843014B92
:1008E000586070470010024001460020034A5068DB
:1008F00020F00300084350607047000000100240E1
:1009000038B5002000900024002500BF3120FFF7FB
:1009100067FF05460098401C00900098B0F5A06F56
:1009200001D0002DF2D03120FFF75AFF08B1012489
:1009300000E00024204638BD10B5FFF7C1FE4FF49B
:100940008030FFF77FFFFFF7DBFF044600BF002C7E
:10095000FDD00020FFF76AFF4FF48060FFF798FF9B
:100960000020FFF7A1FF4FF4E0114FF48030FFF7B4
:10097000ADFF0120FFF7A4FF00BF3920FFF730FFD4
:100980000028FAD00220FFF7AFFF00BFFFF746FFB5
:100990000828FBD110BD000010B501210D20FFF784
:1009A0006FFE01210148FFF7A3FC10BD00023000DB
:1009B00010B500F001F810BD0CB5002001900090BA
:1009C0003348006840F480303149086000BF304847
:1009D000006800F4003000900198401C01900098DD
:1009E00018B90198B0F5A06FF1D12948006800F45A
:1009F000003010B10120009001E00020009000982C
:100A0000012843D12348006840F0100021490860C4
:100A10000846006820F0030008600846006840F0BF
:100A2000020008601A484068194948600846406852
:100A300048600846406840F4806048600846406866
:100A400020F47C1048600846406840F4E810486094
:100A50000846006840F08070086000BF0C480068DD
:100A600000F000700028F9D00948406820F0030029
:100A7000074948600846406840F00200486000BFEF
:100A80000348406800F00C000828F9D10CBD0000B4
:100A9000001002400020024030B5144800684FF4B6
:100AA0007A72B0FBF2F1B1F1807F00D31DE021F04A
:100AB0007F40401E4FF0E022506150170F22002867
:100AC00007DA13071D0E0A4B00F00F04241F1D55F3
:100AD00003E013071C0E074B1C5400BF00204FF00F
:100AE000E02290610720106100BF30BD9800002017
:100AF00018ED00E000E400E002480068401C0149F5
:100B0000086070479400002010B51348006840F05A
:100B100001001149086008464068104908400E4924
:100B20004860084600680E4908400B4908600846BE
:100B3000006820F4802008600846406820F4FE0029
:100B400048604FF41F008860FFF732FF4FF00060ED
:100B50000449086010BD0000001002400000FFF8CA
:100B6000FFFFF6FE08ED00E010B540F225511948F0
:100B700000F0A0F8B8B140F22551164800F030F866
:100B8000144800F053F9C4B21348006840F2FF3132
:100B9000884207D2104801680068401C0E4A106065
:100BA0000E48445400BF40F224410A4800F082F845
:100BB00078B1084800F03AF900200849064A12685E
:100BC000885405480168054800F092F90020024960
:100BD000086010BD0038014090000020C4000020D3
:100BE00010B50022002340F66A14A14200D100BFD4
:100BF0000A1201249440A3B2DC43048010BD21B149
:100C0000828942F40052828104E082894DF6FF73AA
:100C10001A4082817047000010B504462048844283
:100C200009D101218803FFF73BFD00214FF48040EB
:100C3000FFF736FD32E01B48844209D10121480408
:100C4000FFF70EFD00214FF40030FFF709FD25E00E
:100C50001548844209D101218804FFF701FD0021D4
:100C60004FF48020FFF7FCFC18E01048844209D1C3
:100C70000121C804FFF7F4FC00214FF40020FFF726
:100C8000EFFC0BE00A48844208D101210805FFF778
:100C9000E7FC00214FF48010FFF7E2FC10BD0000DC
:100CA000003801400044004000480040004C004033
:100CB0000050004070B502460024002300250020AB
:100CC00040F66A16B14200D100BFC1F3421501F0EF
:100CD0001F03012606FA03F3012D02D19689334042
:100CE00006E0022D02D1168A334001E0968A334095
:100CF0000C12012606FA04F41688344013B10CB124
:100D0000012000E0002070BDF0B50346002400265D
:100D10000025002040F66A17B94200D100BF1846EE
:100D2000C1F3421401F01F06012707FA06F5012C52
:100D300001D10C3004E0022C01D1103000E014305D
:100D40001AB107682F43076002E00768AF430760E6
:100D5000F0BD00002DE9F04786B005460E460024A0
:100D6000A24600BFA1460027B08900B100BF2F46B0
:100D70002C8A4CF6FF700440F08804432C82AC8926
:100D80004EF6F3100440B088318908437189084356
:100D90000443AC81AC8A4FF6FF400440B089044361
:100DA000AC8201A8FFF7B2FC1F48874202D1DDF8F0
:100DB00010A001E0DDF80CA0A88900F4004040B1CB
:100DC0000AEBCA0000EB0A1031684900B0FBF1F8E9
:100DD00007E00AEBCA0000EB0A1031688900B0FB9B
:100DE000F1F86420B8FBF0F004012009642101FB54
:100DF0001089A88900F4004040B1322000EBC900FE
:100E0000B0FBF1F000F00700044308E0322000EBF3
:100E100009106421B0FBF1F000F00F0004432C81B5
:100E200006B0BDE8F0870000003801400146888820
:100E3000C0F308007047000010B586B004460121D9
:100E400044F20400FFF71CFC2748FFF7E5FE4FF4CF
:100E50000070ADF8040018208DF8070003208DF80D
:100E6000060001A92148FFF7B7F94FF48060ADF8FB
:100E7000040004208DF8070001A91C48FFF7ACF915
:100E800002940020ADF80C00ADF80E00ADF8100093
:100E90000C20ADF812000020ADF8140002A9124891
:100EA000FFF758FF25208DF8000001208DF8010084
:100EB00000208DF8020001208DF803006846FFF73E
:100EC00073FA012240F225510748FFF71DFF012266
:100ED00040F224410448FFF717FF01210248FFF7C1
:100EE0008EFE06B010BD0000003801400008014031
:100EF000704700000FB4054B10B503A9044A0298CF
:100F000000F017F810BC5DF814FB00000910000891
:100F1000C000002002E008C8121F08C1002AFAD150
:100F200070477047002001E001C1121F002AFBD169
:100F300070472DE9F84F99469246884605460027A6
:100F400006E025280AD051464A4690476D1C7F1C72
:100F500028780028F5D13846BDE8F88F002315F829
:100F6000011F18462E2915D115F8011F04232A291F
:100F70000DD06FF02F022978A1F13004092C09D887
:100F800000EB800002EB400008446D1CF3E758F8CA
:100F9000040B6D1C2A78002ADDD0632A07D0732A3F
:100FA0000FD0104651464A4690477F1C2AE018F859
:100FB000042B8DF8002000218DF801106E460121D0
:100FC00003E058F8046B4FF0FF315A074FF000046C
:100FD00001D409E0641C84420BDA8C42FADB325DF6
:100FE000002AF7D105E0641C8C42FCDB305D002850
:100FF000F9D1274404E016F8010B51464A469047C0
:10100000641EF8D26D1CA3E700BF054A128802F0E7
:101010008002002AF9D0C2B2014B1B1D1A80704712
:1010200000380140FFF788FCFFF7B6FCFFF734FDFE
:101030004FF4E130FFF700FFFFF786F801E0FFF71C
:1010400087F8FCE75245445F4C310D0A0000000070
:1010500047524E5F4C310D0A000000005245445F7C
:1010600052310D0A0000000047524E5F52310D0A06
:10107000000000005245445F4C320D0A00000000A1
:1010800047524E5F4C320D0A000000005245445F4B
:1010900052320D0A0000000047524E5F52320D0AD4
:1010A000000000005245445F4C440D0A000000005F
:1010B00047524E5F4C440D0A000000005245445F09
:1010C00052440D0A0000000047524E5F52440D0A80
:1010D000000000005245445F53450D0A0000000027
:1010E00047524E5F53450D0A000000005245445FD1
:1010F000414C0D0A0000000047524E5F414C0D0A62
:10110000000000005245445F4C4C0D0A00000000F6
:1011100047524E5F4C4C0D0A000000005245445FA0
:10112000524C0D0A0000000047524E5F524C0D0A0F
:10113000000000005245445F41520D0A00000000CB
:1011400047524E5F41520D0A000000005245445F75
:101150004C520D0A0000000047524E5F4C520D0ADF
:10116000000000005245445F52520D0A000000008A
:1011700047524E5F52520D0A000000005245445F34
:1011800053540D0A0000000047524E5F53540D0A9D
:10119000000000005245445F4C550D0A000000005D
:1011A00047524E5F4C550D0A000000005245445F07
:1011B00052550D0A0000000047524E5F52550D0A6D
:1011C00000000000E411000800000020C40000003E
:1011D000140F0008A8120008C40000200C0800002A
:1011E000240F0008741000088C1000084410000838
:1011F0005C100008AC11000864110008BC10000865
:101200001C110008D4100008EC100008341100086C
:101210007C110008941100084C110008A41000086B
:1012200004110008801000089810000850100008F1
:1012300068100008B811000870110008C8100008F4
:1012400028110008E0100008F810000840110008FC
:1012500088110008A011000858110008B0100008FB
:10126000101100080000000000000000FFFF000057
:1012700000000000000000000000000000A24A047E
:101280000000000000000000010203040607080936
:10129000000000000102030401020304060708091C
:0812A000020406080000000032
:04000005080000ED02
:00000001FF
