:020000040800F2
:1000000008040020050100080D0100080F01000888
:10001000110100081301000815010008000000008C
:1000200000000000000000000000000017010008B0
:1000300019010008000000001B0100082505000848
:100040001F0100081F0100081F0100081F01000810
:100050001F0100081F0100081F0100081F01000800
:100060001F0100081F0100081F0100081F010008F0
:100070001F0100081F0100081F0100081F010008E0
:100080001F0100081F0100081F0100081F010008D0
:100090001F0100081F0100081F0100081F010008C0
:1000A0001F0100081F0100081F0100081F010008B0
:1000B0001F0100081F0100081F0100081F010008A0
:1000C0001F0100081F0100081F0100081F01000890
:1000D0001F0100081F0100081F0100081F01000880
:1000E0001F0100081F0100081F010008DFF810D0E1
:1000F00000F01AF800480047B5050008AFF300808B
:10010000080400200648804706480047FEE7FEE74F
:10011000FEE7FEE7FEE7FEE7FEE7FEE7FEE7FEE7B7
:1001200035050008ED000008064C074D06E0E068C4
:1001300040F0010394E8070098471034AC42F6D32E
:10014000FFF7D8FFF00500081006000818B50446B0
:100150000020009006E04FF47A7000F007F8009855
:10016000401C00900098A042F5D318BD0CB50021AA
:1001700001910BE00B21009102E00099491E0091D2
:1001800000990029F9D10199491C019101998142F5
:10019000F0D30CBD2DE9F0410246002500260020D9
:1001A00000230024002791F803C00CF00F0591F8FC
:1001B00003C00CF0100CBCF1000F03D091F802C08A
:1001C0004CEA050591F800C0BCF1000F31D014686D
:1001D00000202BE04FF0010C0CFA00F3B1F800C046
:1001E0000CEA03069E4220D183004FF00F0C0CFA5C
:1001F00003F7BC4305FA03FC4CEA040491F803C07E
:10020000BCF1280F06D14FF0010C0CFA00FCC2F82B
:1002100014C00AE091F803C0BCF1480F05D14FF0BB
:10022000010C0CFA00FCC2F810C0401C0828D1D305
:100230001460B1F800C0BCF1FF0F34DD5468002039
:100240002EE000F1080C4FF0010808FA0CF3B1F8A9
:1002500000C00CEA03069E4221D183004FF00F0C30
:100260000CFA03F7BC4305FA03FC4CEA040491F8CA
:1002700003C0BCF1280F05D100F1080C08FA0CF8F6
:10028000C2F8148091F803C0BCF1480F07D100F107
:10029000080C4FF0010808FA0CF8C2F81080401C56
:1002A0000828CED35460BDE8F0810000F0B50A46BE
:1002B000002300240021002500F00046B6F1004F85
:1002C00002D11D4EF16901E01B4E7168C0F3034578
:1002D00083B200F44016B6F5401F08D121F07061DA
:1002E000154E766826F07066134F7E6012E000F4BB
:1002F0008016B6F5801F06D1032606FA05F4A14341
:1003000041F0706106E0460D360103FA06F6B1438E
:1003100041F0706122B1460D360103FA06F6314311
:1003200000F00046B6F1004F02D1034EF16101E04A
:10033000014E7160F0BD0000000001400246002047
:1003400093680B400BB1012000E00020704702468B
:100350000020D3680B400BB1012000E00020704763
:10036000016170470AB1016100E04161704700001E
:1003700008B50121082000F045F80420ADF8000080
:1003800028208DF8030069460148FFF703FF08BDE8
:10039000000C014010B50A4800780A490870042191
:1003A0000948FFF7CBFF0649087006480078012886
:1003B00004D10846007808B9012010BD0020FCE7F0
:1003C0000400002005000020000C014008B50121B8
:1003D000042000F017F84FF40040ADF800001020A2
:1003E0008DF8030003208DF8020069460448FFF7EA
:1003F000D1FE4FF400410248FFF7B2FF08BD0000F4
:100400000008014029B1064A92690243044B9A61EF
:1004100004E0034A92698243014B9A6170470000ED
:100420000010024010B501210D20FFF7EBFF012164
:100430000148FFF73BFF10BD0002300010B500F08F
:1004400001F810BD0CB50020019000903348006801
:1004500040F480303149086000BF3048006800F443
:10046000003000900198401C0190009818B9019844
:10047000B0F5A06FF1D12948006800F4003010B148
:100480000120009001E0002000900098012843D155
:100490002348006840F010002149086008460068C1
:1004A00020F0030008600846006840F00200086081
:1004B0001A4840681949486008464068486008463C
:1004C000406840F4806048600846406820F47C1032
:1004D00048600846406840F4E810486008460068F4
:1004E00040F08070086000BF0C48006800F00070A9
:1004F0000028F9D00948406820F003000749486007
:100500000846406840F00200486000BF0348406869
:1005100000F00C000828F9D10CBD000000100240CA
:100520000020024002480068401C014908607047F2
:100530000000002010B51348006840F00100114988
:10054000086008464068104908400E49486008465F
:1005500000680E4908400B4908600846006820F40E
:10056000802008600846406820F4FE0048604FF490
:100570001F008860FFF762FF4FF0006004490860C9
:1005800010BD0000001002400000FFF8FFFFF6FE63
:1005900008ED00E002E008C8121F08C1002AFAD1E5
:1005A00070477047002001E001C1121F002AFBD1F3
:1005B00070470000FFF736FFFFF708FFFFF7D8FE90
:1005C00013E0FFF7E7FE01280CD1C1030748FFF74E
:1005D000BEFEC0F10100C4B222464FF40041034800
:1005E000FFF7C0FE1420FFF7B1FDEAE70008014065
:1005F0001006000800000020080000009405000814
:10060000180600080800002000040000A4050008E7
:080610000000000000000000E2
:04000005080000ED02
:00000001FF
