:020000040800F2
:10000000182B0020050100080D0100080F01000851
:10001000110100081301000815010008000000008C
:1000200000000000000000000000000017010008B0
:1000300019010008000000001B010008314A0008F7
:100040001F0100081F0100081F0100081F01000810
:100050001F0100081F0100081F0100081F01000800
:100060001F0100081F0100081F0100081F010008F0
:100070001F0100081F0100081F0100081F010008E0
:100080001F0100081F0100081F0100081F010008D0
:100090001F0100081F0100081F0100081F010008C0
:1000A0001F0100081F0100081F0100081F010008B0
:1000B000094B00081F0100081F0100081F0100086C
:1000C0001F0100081F0100081F0100081F01000890
:1000D0001F010008294D00089D4D0008CD4D000866
:1000E0001F0100081F0100081F010008DFF810D0E1
:1000F00000F0C4FF0048004745730008AFF30080DC
:10010000182B00200648804706480047FEE7FEE718
:10011000FEE7FEE7FEE7FEE7FEE7FEE7FEE7FEE7B7
:10012000414A0008ED000008A0F16101192900D83A
:100130002038704740EA01039B0703D009E008C953
:10014000121F08C0042AFAD203E011F8013B00F89C
:10015000013B521EF9D27047D2B201E000F8012BE8
:10016000491EFBD270470022F6E710B513460A4637
:1001700004461946FFF7F0FF204610BDCAB2401EE4
:1001800010F8011F8A4202D00029F9D100207047DF
:10019000421C10F8011B0029FBD1801A704710B5D2
:1001A000002200E0521C835C8C5CA34201D1002B36
:1001B000F8D1D8B2E1B2401A10BD034611F8012BB4
:1001C00000F8012B002AF9D11846704730B50546D2
:1001D0000020034600E05B1C934205D2EC5CC85C47
:1001E000201A01D1002CF6D130BD00000FB400B5AB
:1001F0008DB010A909900B9000914FF0FF300A903C
:1002000000200C9005480690054807906A4609A80A
:100210000F9900F0E7FD0DB05DF814FB010E00082A
:100220001F0E00082DE9FF5F1D464FF0FF3BD5E98B
:10023000014691465F464FF00008A9697F1C01986E
:100240008847296A824688470028F6D1BAF1FF3FDD
:100250000CD024F4C064002E19DD600614D5BAF168
:100260002B0F09D0BAF12D0F0ED103E0584604B080
:10027000BDE8F09F44F48064A9697F1C0198884719
:10028000761E8246002E02DDBAF1300F03D0B9F19E
:10029000000F26D032E0A969761E44F400747F1C5A
:1002A000019888478246002E05DDBAF1780F06D006
:1002B000BAF1580F03D0B9F1000F10D01EE0B9F118
:1002C000000F02D0B9F1100F18D1A969761E24F4DD
:1002D00000747F1C019888478246102002E00820A5
:1002E00000E00A20814609E008FB0908A969761E9A
:1002F00044F400747F1C019888478246002E05DD77
:100300004946504600F059FD0028EDDAE9690198A8
:100310008847A00502D46FF00100A8E7E00725D1C7
:10032000600613D5600502D5C8F1000000E0404624
:1003300029680A1D2A600968220501D5087015E0A0
:10034000220701D5088011E008600FE02868011D30
:1003500029600068210502D580F8008006E02107A9
:1003600002D5A0F8008001E0C0F8008038467EE7A2
:100370002DE9FF5FD2E901A74FF000089169994686
:100380001446DDF838B0464601988847054659EAD4
:100390000B0005D009E0A169761C01988847054645
:1003A000216A284688470028F5D1681C03D05FEAF7
:1003B000CA7005D015E04FF0FF3004B0BDE8F09FE3
:1003C0002068011D2160D0F800800AE05FEACA7051
:1003D00001D108F8015BA169761C7F1E019888474E
:1003E0000546002F1ADD681C18D0B9F1000F0DD09A
:1003F000E81705EBD060421120F01F0059F82210D9
:100400002A1A012090400142E0D107E0BBF1000F21
:10041000DCD1216A284688470028D7D0E1690198B5
:100420008847BBF1000F07D1002E05DD5FEACA70D7
:1004300002D1002188F80010A068B84203DDBBF1AA
:10044000000F03D017B16FF00100B6E73046B4E7F4
:100450002DE9FF4F087883B09946FF2805D0491C45
:100460002D2804D00024002008E000200BE0012407
:10047000F9E700EB800003EB4000491C0B78FF2BF1
:10048000F7D104B1404200230293147819461D4667
:100490002D2C01D02B2C04D1521C2D2C13D0002438
:1004A0000294AA461478FF2C0FD00A25A3FB0578E6
:1004B00001FB05814FF0000C03FB0C11521CE319EA
:1004C0004AEB0101EEE70124EAE7814453EA010027
:1004D00002D019F5C87F06DA03980021C0E900119F
:1004E00007B0BDE8F08F0025AE4E2F46DFF8B8828A
:1004F000184600F086FDCDE90001B9F1000002DAEE
:10050000C9F1000400E004460023A74A1AEB030BDC
:1005100042EB045A12E0E00707D02A463346384639
:10052000414600F0B4FA074688462A46334610464C
:10053000194600F0ACFA05460E466410002CEAD1CC
:10054000DDE90001B9F1000F5A46534606DA00F022
:1005500010FB3A46434600F00CFB05E000F097FA2A
:100560003A46434600F093FA029A0AB181F00041FC
:10057000039AC2E90001B3E72DE9FF4F1F468DB092
:10058000D7E901464FF0FF382E2045464FF00009CD
:100590000B90B9696D1C0E988847396A8246884766
:1005A0000028F6D1BAF1FF3F0AD024F4D064002E1F
:1005B00011DDBAF12B0F08D0BAF12D0F0BD102E0EB
:1005C000404611B08DE744F48064B9696D1C0E9803
:1005D00088478246761E6946600501D52D2000E0D9
:1005E0002B208DF8000001F1010B0DF1200809E02E
:1005F000B9696D1C0E98884782460F9844F40074C0
:10060000761E0560002E02DDBAF1300FF0D00B9996
:100610008A453ED144F0800406E00F99681CA9F198
:10062000010944F400740860B9696D1C761E0E98C7
:10063000884782463028F0D02BE00B998A4505D1B7
:10064000200603D444F08004761E18E0504605F0DE
:10065000CFFB08B30DF11301761E44F400748B45F3
:1006600008D2AAF130000BF8010B200607D5A9F13A
:10067000010003E0200602D409F101008146A00533
:1006800002D50F99681C0860B9696D1C0E988847DF
:100690008246002ED1DC53E0002E51DDBAF1650F09
:1006A00002D0BAF1450F4BD1A00549D5B9696D1CEF
:1006B00024F44074761E0E9888478246002E0CDD86
:1006C0002B2804D0BAF12D0F07D144F48074B969F6
:1006D0006D1C0E9888478246761EE00501D52D21B7
:1006E00000E02B2108F8011BCDF82C8021E00DF152
:1006F0002901761E44F4007488450CD2AAF130001A
:1007000010F0FF0088F8000002D10B99884509D944
:1007100008F1010806E0E00501D5244801E042F2B5
:100720000F708146B9696D1C0E98884782460F98F4
:100730000560002E04DD504605F05AFB0028D6D196
:10074000F9690E988847FF208BF8000088F80000B0
:100750000020069007904B466A4608A906A8FFF7B6
:1007600077FEA00502D46FF001002AE714F0240FF1
:100770000AD0E00714D1DDE906123868031D3B609A
:100780000068C0E900120BE0DDE9060100F0AEFAF6
:100790000146E00704D13868021D3A600068016034
:1007A00028460EE7000014400000F03FF1D8FFFF9C
:1007B000F0B480EA0102D40F4200B2EB410F02D242
:1007C0000246084611464A0042D0C30DDDB2C1F3CD
:1007D000C752AD1A202D35DAC1F3160141F40002DB
:1007E00004B15242C5F1200602FA06F12A41104432
:1007F000B3EBD05F23D0C4B1012DA0EBC35009DC13
:10080000F0BC4FF0004202EAC352DBB200F5000038
:1008100000F01FBB400000F1807000EBC350A0F15E
:10082000807040EAD170490009E0490841EAC0718E
:10083000A0EBC35000F50000400800EBC350F0BC33
:1008400000F0FEBA6142012202EB4101001BF6E713
:10085000F0BC704781F00041AAE780F00040A7E7B4
:1008600080EA010210B502F00043400022D04A00A5
:100870001FD0010E01EB1261C0F35600C2F3560205
:1008800040F4000042F40002A0FB022000047F3983
:10089000140400D0401C50EA124001D44000491E0C
:1008A000C2B20C0604EBD010401C4008802A02D0D3
:1008B00003E0002010BD20F00100002900DA002034
:1008C000184310BD30B480EA010202F0004530F058
:1008D000004221F0004013D090B1C30DD40DC2F3FB
:1008E0001601C0F31600E41A41F4000140F40002BE
:1008F0007D34914201D3641C00E04900002C02DAEF
:1009000030BC002070474FF400000023914201D317
:10091000891A034340084FEA4101F7D151B191428E
:1009200002D14FF0004105E002D24FF0010101E099
:100930006FF0010103EBC450284430BC00F080BAD2
:100940002DE9FE4F804681EA0300C00F0C4600905F
:1009500021F0004123F00045B8EB0200A94105D287
:100960004046214690461C460B46024623F0004076
:10097000104347D0270DC7F30A00C3F30A51029072
:10098000401A019040286BDAC3F3130040F4801B37
:100990000098924620B10023D2EB030A63EB0B0BC5
:1009A00001985946C0F14002504600F0E5F906466C
:1009B0000D4650465946019A00F0EDF910EB08003B
:1009C0006141002487EA115284EAE7731A4340D058
:1009D000009A62B3019A012A4FEA075215DC001B04
:1009E00061EB02014FF0004202EA0752CDE90042FA
:1009F000001C41F5801132462B4600F0B4FA03B0DA
:100A0000BDE8F08F40462146F9E7001B61EB02018B
:100A1000001C41F5801300185B412018A2F5001757
:100A200047EB030140EAD570B6196D4111E06D083E
:100A30004FEA360645EAC0754FEA0752001B61EBE4
:100A40000201001C41F5801149084FEA30000019ED
:100A5000514132462B4603B0BDE8F04F00F074BA66
:100A60000098012240000023D0EB020263EBE07308
:100A7000009821464FEAE074B8EB000061EB0401F6
:100A8000E9E783F000435BE781F0004158E72DE997
:100A9000FE4F81EA030404F0004421F00041009479
:100AA0004FF0000B23F0004350EA01045ED052EAFD
:100AB00003045BD0C3F30A54C1F30A552C44A4F2D7
:100AC000F3340194A0FB0254C1F3130141F48011EB
:100AD000C3F3130343F4801301FB024400FB034EF2
:100AE000840A970A44EA815447EA8357A4FB0768BB
:100AF00002958D0A05FB07854FEA932C04FB0C54E5
:100B00002705029D4FEA065847EA1637B5EB080558
:100B10006EEB070C870E920E47EA811742EA8312AA
:100B2000A7FB0201B6EB0B0164EB00042B0D43EABB
:100B30000C335E1844EB1C50DA465146E7FB0201C9
:100B4000C5F313044FEA0B3343EA14534FEA04325C
:100B5000019C43EA0603A4F10C040294009CCDE935
:100B600000B400F000FA03B0BDE8F08F00200146A9
:100B7000F9E72DE9F04D81EA030404F0004B21F080
:100B8000004514464FF0000A23F0004150EA0502E8
:100B900020D054EA01021DD0C5F30A570246C5F31E
:100BA0001303C1F31300C1F30A5640F4801543F454
:100BB0008013A7EB0608101BD64608F2FD3873EB2E
:100BC000050002D308F1010801E092185B41B8F179
:100BD000000F03DA00200146BDE8F08D00204FF43D
:100BE0008011064684460EE0171B73EB050705D3FC
:100BF000121B63EB050306434CEA010C49084FEA5C
:100C0000300092185B4150EA0107EDD152EA03002F
:100C100012D082EA040083EA0501084305D0101BC4
:100C2000AB4106D20122002306E000224FF0004330
:100C300002E06FF0010253101AEB06004CEB085172
:100C400010EB0A0041EB0B01BDE8F04D00F07CB960
:100C5000C10F80EAE0700844CA079623002100F023
:100C6000F8B896230022114600F0F3B800F00042D5
:100C700020F00040C10DC0F3160040F400007F29B1
:100C800001DA00207047962903DCC1F19601C840C3
:100C900001E096398840002AF4D04042704720F0A5
:100CA0000040C10DC0F3160040F400007F2901DAB6
:100CB00000207047962903DCC1F19601C8407047B7
:100CC00096398840704700F0004230F000400AD06A
:100CD000C10D01F56071C0F3160042EA0151C2086E
:100CE00040071143704700200146704701F0004360
:100CF00030B421F0004150EA010206D00A0DA2F5FD
:100D00006072C1F31301002A02DC30BC002070477E
:100D1000440F44EAC104C100E01830BC00EBC250EB
:100D200000F08EB8002801DBC0F10040002901DB93
:100D3000C1F1004181427047002801DBC0F1004051
:100D4000002901DBC1F100418842704730B50B46F4
:100D5000014600202022012409E021FA02F59D42EB
:100D600005D303FA02F5491B04FA02F52844151EBF
:100D7000A2F10102F1DC30BD202A04DB203A00FAA6
:100D800002F1002070479140C2F1200320FA03F3E2
:100D9000194390407047202A06DBCB17203A41FACE
:100DA00002F043EAE07306E041FA02F3D040C2F1F8
:100DB000200291400843194670473A2800D2303843
:100DC00020F02002412A01D3A2F13700884201D34A
:100DD0004FF0FF3070470000026811441378016043
:100DE00018467047D16004495161044911620021DD
:100DF0001161114600F06AB9D90D0008C110000850
:100E0000426842B1016811F8013B23B1521EC0E9AA
:100E10000012184670470121C160881E7047426861
:100E20005AB1C368016843B983688B4205D0491E33
:100E3000521CC0E90012002070474FF0FF3070478D
:100E40000029A8BF7047401C490008BF20F00100DE
:100E5000704710B4B0FA80FC00FA0CF050EA0104BC
:100E600004BF10BC704749B1CCF1200421FA04F44E
:100E700011FA0CF118BF012121430843A3EB0C0127
:100E8000CB1D4FEA00614FEA102042BF002010BC8A
:100E9000704700EBC35010440029A4BF10BC70473A
:100EA000401C490008BF20F0010010BC7047F0B49E
:100EB000002802DCF0BC00207047C0F3C751C0F32B
:100EC000160040F40000CA0701D14000491E3F222D
:100ED00002EB6105002211464FF4000626FA01F3E9
:100EE0001344D418844201D8001B1A464000491C00
:100EF0001729F3DD5100814202D24FF0FF3100E0AB
:100F0000002102EBC550F0BCFFF79ABF10B54100BD
:100F10000CD0C0F3C751962908DC7E2909DC06DB1A
:100F2000410204D000F0004040F07E5010BD00208F
:100F300010BDC1F19604C4F1200100FA01F1E040B6
:100F4000FFF77EFFA04010BD10B5141E73F1000422
:100F500008DA401C41F1000192185B411A4301D1AB
:100F600020F0010010BD2DE9F04D92469B4611B1D5
:100F7000B1FA81F202E0B0FA80F220329046FFF737
:100F8000FBFE04460F4640EA0A0041EA0B015346C5
:100F90005A46084313D0114653EA010019D0C8F14C
:100FA0004002504600F07CF805460E465046594631
:100FB0004246FFF7E1FE084305D0012004E0204649
:100FC0003946BDE8F08D0020054346EAE0762C4323
:100FD00037430A986305E40AA0EB08000022FD0AE3
:100FE00044EA47540A3002D500200146E9E70105EA
:100FF00010196941DDE9084500196941BDE8F04D66
:10100000A2E70EB540F2334202920022CDE900225F
:101010001346FFF7A8FF03B000BD70B5044601F00A
:1010200000450020054304D14FF00045644265EBC4
:10103000010103F00045284305D118464FF0004355
:10104000524263EB0003101B73EB010002D24FF01E
:10105000004009E082EA040283EA01034FF00050F5
:101060001A4301D14FF0C0404FEA2062EFF30081F4
:1010700062F31F6181F3008870BD0000064C074DCC
:1010800006E0E06840F0010394E807009847103458
:10109000AC42F6D3FFF72EF8088A0008288A000829
:1010A000202A04DB203A21FA02F00021704721FABD
:1010B00002F3D040C2F12002914008431946704724
:1010C000C0B24FF4F05100F0A5B900002DE9F34F84
:1010D0008BB04FF0000801F10C000C464FF0010BF3
:1010E00046460DF1080A0190626901210198904776
:1010F000051E2DD0252D2CD0216A8847C0B16269EC
:10110000012101989047216A88470028F7D1411EA4
:1011100062690198904700E0761CA1690B988847A6
:10112000216A88470028F7D1E1690B988847DBE7F7
:10113000A1690B9888470746A84201D1761CD3E7DE
:10114000E1690B9888477F1C02D1B8F1000F6FD07E
:1011500047E1002762693D463946019890472A28B1
:1011600004D162690121019890470125DFF8889236
:101170006269012101989047A0F130010A290AD241
:101180004F45E5DC07EB870100EB4107303FDFD43B
:1011900045F01005ECE7E90601D46FF000476C2834
:1011A0000AD04C2814D0682815D06A280DD074288D
:1011B0001CD07A281AD01DE062690121019890475D
:1011C0006C2802D045F0040514E045F002050DE05E
:1011D00045F020050AE062690121019890476828DE
:1011E00002D045F0080505E045F40065626901217B
:1011F00001989047C4E9015765283DD019DC58286B
:101200007AD00CDC452837D004DC252826D04128AC
:1012100031D131E046282FD047282CD12CE05B2853
:1012200077D0612828D063287CD0642823D15AE065
:10123000D1E06F2848D008DC66281DD067281BD075
:10124000692821D06E2816D127E0702845D0732850
:1012500068D0752847D078280DD14DE0A1690B984A
:101260008847054625283FF469AFE1690B98884710
:101270006D1C3FF46AAFB4E023466A466FF001008C
:101280000B99FFF779F99FE045F040006060A807EF
:1012900023464FF0000236D43EE0E8077FF447AF24
:1012A0002068011D21600068290501D506701BE733
:1012B000290701D5068017E7A90703D5F117C0E96B
:1012C000006111E706600FE745F040006060A80785
:1012D00023464FF0080216D41EE040F60E0125EA20
:1012E0000100606016E045F040006060A8072346FA
:1012F0004FF00A0207D40FE045F040006060A807F5
:1013000008D5234610226FF001000B99AFF300803F
:101310005AE007E0234610226FF001000B99FEF718
:1013200081FF51E04FF000094F464B46632802D041
:101330005B2807D041E02079C00601D40120A060DD
:1013400001273AE062690121019890475E2805D1A2
:101350004FF001096269494601989047216939B9FE
:1013600000210A46534643F82120491C0829FADB8C
:10137000B0B3216969B9C11700EBD16253110AEB0F
:10138000830122F01F02821A01200B689040034360
:101390000B6062690121019890475D28E8D1B9F19D
:1013A000000F09D00020514651F82020D24341F8C7
:1013B0002020401C0828F7DB02AB224600976FF084
:1013C00001000B99FEF7D4FF00280CDA401C08D16D
:1013D000BBF1000F05D04FF0FF300DB0BDE8F08F2E
:1013E000FFE74046F9E7E90701D108F101080644A3
:1013F0004FF0000B78E60000CCCCCC0C420005D0BE
:10140000C0F3C7525242914201DC0020704700EB0A
:10141000C15070477F2801D9002208E0064A02EB3C
:101420005002C007127800D1120902F00F02012009
:101430009040084070470000BC86000870B58C18CA
:1014400010F8015B15F0070301D110F8013B2A11D8
:1014500006D110F8012B03E010F8016B01F8016BC5
:101460005B1EF9D12B0705D40023521E0DD401F8C1
:10147000013BFAE710F8013BCB1A921C03E013F88A
:10148000015B01F8015B521EF9D5A142D8D30020BF
:1014900070BD21B1826842F00102826003E082687F
:1014A00022F0010282607047014600208A6802F043
:1014B00004020AB1012000E0002070470146C86C18
:1014C00080B270470246002013680B400BB1012028
:1014D00000E000207047014600208A6802F0080200
:1014E0000AB1012000E000207047000030B502463C
:1014F0000020002350680F4C20400D790C6844EA0E
:1015000005242043506090680B4C2040D1E90254E0
:101510002C434D7944EA450420439060D06A20F47E
:1015200070000C7C641EE4B2234340EA0350D06296
:1015300030BD0000FFFEF0FFFDF7F1FF00B587B002
:1015400000F014FD00F0FEFC0121042002F0C2FABC
:101550000121480202F0BEFA4120ADF81800002037
:101560008DF81B0006A9194800F06AFA00200190C6
:101570008DF8080001208DF809004FF460200390D9
:101580000020049001208DF8140001A91048FFF7F5
:10159000ADFF4FF4004002F061FA01210C48FFF763
:1015A00078FF0B4800F072F800BF0948FFF793FF7F
:1015B0000028FAD1064800F079F800BF0448FFF788
:1015C00073FF0028FAD107B000BD000000080140F9
:1015D00000240140F0B504460D4600200021092DED
:1015E00011DDE068A5F10A0606EB4607072606FAB4
:1015F00007F18843A5F10A0606EB460603FA06F151
:101600000843E0600CE0206905EB4507072606FA71
:1016100007F1884305EB450603FA06F1084320610C
:10162000072A0FDA606B561E06EB86071F2606FA9E
:1016300007F18843561E06EB860605FA06F10843B5
:10164000606322E00D2A0FDA206BD61F06EB8607B7
:101650001F2606FA07F18843D61F06EB860605FA11
:1016600006F10843206310E0E06AA2F10D0606EBE4
:1016700086071F2606FA07F18843A2F10D0606EB3E
:10168000860605FA06F10843E062F0BD816841F084
:1016900008018160704721B1826842F4A002826033
:1016A00003E0826822F4A00282607047816841F002
:1016B000040181607047000010B500F06FFE15490D
:1016C0000968401A322800D210BD00F067FE1149A7
:1016D0000860012002F05CFD01F038FE00B9F3E77C
:1016E0000D4800780D49C978884205D10A484078EC
:1016F0000A49097988420BD008484178C01C01F09A
:101700006DF80648C07804490870044800794870AC
:1017100000BFD9E78C04002090040020F8160020B8
:1017200008B50121042002F0D5F90820ADF8000029
:1017300010208DF8030003208DF80200694604484C
:1017400000F07EF90821024800F060FA08BD0000B0
:101750000008014070B504460D4600260EE0082141
:10176000084800F055FAA0B200F02CF9082105480D
:1017700000F04CFAA0B200F025F9761CAE42EED390
:1017800070BD00000008014038B5054600F006FEB7
:101790001D490968401AA84200D238BD00F0FEFD7C
:1017A0001949086019480078012806D118480078BE
:1017B00000B9F2E700201549087001236A46152197
:1017C000A42000F02CFAE0B9002417E004EB441048
:1017D0001049085C9DF8001088420ED10321C820F2
:1017E000FFF7B8FF04EB44110A4A1144481C01F00A
:1017F0004BFD01200549087002E0641C032CE5D371
:1018000000BF00BFC9E70000A00400209E04002024
:101810002C0400204878000821B1026842F001023F
:10182000026004E002684FF6FE731A4002607047DF
:1018300001684FF6FE7211400160002101604160B5
:101840008160C1604B49884208D14A4908394968DA
:1018500041F00F01474A083A51608AE04549143186
:10186000884208D143490839496841F0F001414AAA
:10187000083A51607DE03F492831884208D13D490E
:101880000839496841F470613A4A083A516070E099
:1018900038493C31884208D136490839496841F411
:1018A0007041344A083A516063E03249503188420D
:1018B00008D130490839496841F470212D4A083A65
:1018C000516056E02B496431884208D129490839D2
:1018D000496841F47001274A083A516049E02549B6
:1018E0007831884208D123490839496841F070614C
:1018F000204A083A51603CE01F49884206D1011F46
:10190000096841F00F01021F116032E01A491431D9
:10191000884208D11849091F096841F0F001164AA8
:10192000121F116025E014492831884208D112495C
:10193000091F096841F470610F4A121F116018E015
:101940000D493C31884208D10B49091F096841F40F
:101950007041094A121F11600BE00749503188425B
:1019600007D10549091F096841F47021024A121F75
:1019700011607047080002400804024001464868B0
:1019800080B2704710B50022026847F6F0739A43A0
:101990000C6A8B6823430C6923434C6923438C698D
:1019A0002343CC6923434C6A23438C6A23431A4361
:1019B0000260CB6843600B6883604B68C36010BDF6
:1019C0004160704718B504460020009006E04FF4CF
:1019D0007A7000F007F80098401C00900098A04230
:1019E000F5D318BD0CB5002101910BE00B2100913E
:1019F00002E00099491E009100990029F9D101994E
:101A0000491C019101998142F0D30CBD10B50446E7
:101A10004FF480610848FEF7A6FB21024FF4807264
:101A2000054802F0F9FD044800F011F90349086087
:101A3000014800F0E3FF10BDF80A00204404002034
:101A40002DE9F04102460025002600200023002455
:101A5000002791F803C00CF00F0591F803C00CF0BB
:101A6000100CBCF1000F03D091F802C04CEA050540
:101A700091F800C0BCF1000F31D0146800202BE0B9
:101A80004FF0010C0CFA00F3B1F800C00CEA0306A9
:101A90009E4220D183004FF00F0C0CFA03F7BC4399
:101AA00005FA03FC4CEA040491F803C0BCF1280FCA
:101AB00006D14FF0010C0CFA00FCC2F814C00AE089
:101AC00091F803C0BCF1480F05D14FF0010C0CFA9E
:101AD00000FCC2F810C0401C0828D1D31460B1F833
:101AE00000C0BCF1FF0F34DD546800202EE000F18F
:101AF000080C4FF0010808FA0CF3B1F800C00CEA2A
:101B000003069E4221D183004FF00F0C0CFA03F71D
:101B1000BC4305FA03FC4CEA040491F803C0BCF191
:101B2000280F05D100F1080C08FA0CF8C2F814804F
:101B300091F803C0BCF1480F07D100F1080C4FF039
:101B4000010808FA0CF8C2F81080401C0828CED30F
:101B50005460BDE8F0810000F0B50A46002300247F
:101B60000021002500F00046B6F1004F02D11D4EC5
:101B7000F16901E01B4E7168C0F3034583B200F4C4
:101B80004016B6F5401F08D121F07061154E7668F9
:101B900026F07066134F7E6012E000F48016B6F5F2
:101BA000801F06D1032606FA05F4A14341F07061B7
:101BB00006E0460D360103FA06F6B14341F07061C6
:101BC00022B1460D360103FA06F6314300F0004615
:101BD000B6F1004F02D1034EF16101E0014E716098
:101BE000F0BD0000000001400246002093680B4059
:101BF0000BB1012000E00020704702460020D368AE
:101C00000B400BB1012000E000207047416170479C
:101C1000016170470AB1016100E0416170472DE93F
:101C2000F04104460D4616461F4660103B463246BC
:101C3000294602F059FBBDE8F08137B504460D4650
:101C4000012302AA2946204602F089FB3EBD70B559
:101C5000024600210020002323E0545C542C1ED1B6
:101C60004C1C145D303C4FF47A756C438D1C555DF3
:101C7000303D05EBC50606EB051504EB8505CC1CD0
:101C8000145D303C04EB840405EB44050C1D145D2D
:101C9000303C2B19834200DD1846091D01E0491C28
:101CA00000BF545C002CD8D170BD000070B5044654
:101CB00000250523012221460E48FFF78BFC002654
:101CC00010E001210B48FFF7E6FC00BF02210948A4
:101CD000FFF7F8FB0028F9D00648FFF7EFFB0544B3
:101CE000701CC6B21E2EECDB05F10F001E21B0FBEE
:101CF000F1F070BD002401402DE9F04704460025B5
:101D0000002624B90020FFF7D1FF054603E0062096
:101D1000FFF7CCFF05462846FEF79AFF81460749A4
:101D2000FEF7D0FD80460649FEF79AFD0746FEF70E
:101D30009DFF06463046BDE8F087000000F07F4575
:101D40000000C8422DE9F0410020FFF7D5FFC4B2E2
:101D50000120FFF7D1FFC5B20F265527552D02DB15
:101D60000320BDE8F0810F2D01DC0420F9E70F2CE2
:101D700001DC0220F5E7552C01DB0120F1E7002012
:101D8000EFE7000010B500F009FB5A490968401A56
:101D9000322800D210BD00F001FB56490860FFF761
:101DA000D1FF0446052C39D2DFE804F00304101EED
:101DB0002A0033E050480068401D4F49086008463B
:101DC0000068FA2801DDFA20086027E04A48006828
:101DD000401F494908600846006810F1FA0F02DA0E
:101DE0006FF0F900086019E044480068401D43495D
:101DF000086008460068FA2801DDFA2008600DE056
:101E00003E480068401F3D4908600846006810F1E0
:101E1000FA0F02DA6FF0F900086000BF00BF374820
:101E20000368354836A102683C4803F027FE3B486A
:101E300000F07AFF3A4800783A490978884200D1A0
:101E4000A8E73748007837490870354800780128F6
:101E500025D12A480368284833A102682F4803F097
:101E60000DFE2E4800F060FF4FF47A70FFF7AAFDD8
:101E70004FF47A724FF4C861052001F095FC4FF4DD
:101E80007A70FFF79FFD1D4803681B481CA102687C
:101E9000224803F0F3FD214800F046FF28E02048E7
:101EA0000078022824D11548036813481EA102684F
:101EB0001A4803F0E3FD194800F036FF4FF47A703A
:101EC000FFF780FD4FF47A724FF49661052001F020
:101ED0006BFC4FF47A70FFF775FD084803680648FD
:101EE00007A102680D4803F0C9FD0C4800F01CFF73
:101EF00000BF4FE7B0040020B4040020B804002065
:101F0000244B4D533A253033642C253033642C3127
:101F100030302C31303030210D0A000030050020E7
:101F20009D040020BC040020244B4D533A2530333F
:101F3000642C253033642C352C31303030210D0A9F
:101F40000000000008B50121102001F0C3FD4FF48E
:101F50000050ADF8000048208DF8030069460248A3
:101F6000FFF76EFD08BD00000010014008B501211B
:101F7000042001F0AFFD4FF40060ADF80000102028
:101F80008DF8030003208DF8020069460448FFF72E
:101F900057FD4FF400610248FFF73AFE08BD00000C
:101FA0000008014008B50121082001F093FD04203C
:101FB000ADF8000028208DF8030069460148FFF7BE
:101FC0003FFD08BD000C014008B50121042001F0CF
:101FD00081FD4FF40040ADF8000010208DF80300A3
:101FE00003208DF8020069460448FFF729FD4FF4ED
:101FF00000410248FFF70CFE08BD00000008014048
:1020000070B5044600F0CAF90C490968401AA042AC
:1020100000D270BD00F0C2F9084908604FF40041D9
:102020000748FFF7EAFDC0F10100C5B22A464FF4A8
:1020300000410348FFF7EEFD00BFEAE70C04002073
:102040000008014010B500F0A9F917490968401AC5
:102050000A2800D210BD00F0A1F913490860134806
:10206000007806281BD2DFE800F01A03080B1417CB
:102070004FF47A70FFF788FB12E0FFF783FE0FE062
:102080000B480078012803D14FF47A7003F0BEFAB0
:1020900006E002F0A9F903E002F0A6F900E000BFB3
:1020A00000BF00BFD6E70000200400200804002085
:1020B0000904002010B500F071F93A490968401A86
:1020C0000A2800D210BD00F069F936490860364888
:1020D000007836490978884200D1F3E73248007821
:1020E0003249087030480078042805DC30A005F03B
:1020F00011FB2FA005F0D6FA2B480078801F0A2884
:102100004CD2DFE800F0050C131A21282F363D448D
:102110002AA005F0FFFA29A005F0FCFA3FE02AA06A
:1021200005F0F8FA28A005F0F5FA38E02AA005F045
:10213000F1FA29A005F0EEFA31E02BA005F0EAFA59
:1021400029A005F0E7FA2AE02AA005F0E3FA29A081
:1021500005F0E0FA23E02BA005F0DCFA29A005F059
:10216000D9FA1CE02BA005F0D5FA2AA005F0D2FA86
:1021700015E02CA005F0CEFA2AA005F0CBFA0EE06F
:102180002DA005F0C7FA2CA005F0C4FA07E02DA099
:1021900005F0C0FA2BA005F0BDFA00E000BF00BFBB
:1021A00000BF8FE72404002008040020280400203A
:1021B0002352756E53746F702100000023436F6CBF
:1021C0006F72536F7274210023436F6C6F7253747C
:1021D00061636B21000000002350545A436F6C6F01
:1021E00072547261636521002346616365547261B4
:1021F000636B210023417072696C746167536F7265
:102200007421000023417072696C746167537461BA
:10221000636B210023417072696C74616754726151
:10222000636B210023417072696C7461674E756D38
:10223000536F727421000000234E756D54726163F8
:102240006B2100002347617262616765536F72748E
:10225000696E67210000000010B52F480078002843
:1022600055D100F09BF82D490968401A2C4909689E
:1022700088424FD900F092F8284908602948006840
:1022800048B12948006830B901202349087027A0C7
:1022900005F008FA10BD28480068FFF7B7FB27488B
:1022A000006827490968884218DA234800682449E9
:1022B000096888420CD1214800681F490860194804
:1022C000006820B118480068401E17490860E1E71F
:1022D00019480068401C184908601BE0164800684F
:1022E0001749096888420CD11448006812490860EF
:1022F0000C48006820B10C480068401E0A4908607C
:10230000C8E70D480068401E0B49086002E00A203B
:102310000349086000BFBDE72C04002048040020EA
:102320004404002040040020340400204047726F21
:102330007570446F6E652100300400203804002061
:102340003C04002010B51248008800B31148007802
:10235000012806D002280BD003280AD0042810D167
:102360000BE00D4800F090FF0B4800F0DDFC08E0AA
:1023700000BF094800F042FB03E0074801F0CAFD36
:1023800000BF00BF0020034908700149088010BD4C
:10239000CC040020CE040020F80A00200148006888
:1023A00070470000DC04002070B5002100230F22DC
:1023B000C47804B3154C246804F4E064C4F5E06404
:1023C000210AC1F10403CA40447804FA03F1847875
:1023D0001440214309010E4C0678A155047804F0FD
:1023E0001F050124AC4005786D11AD0005F1E02515
:1023F000C5F8004109E0047804F01F050124AC4051
:10240000044D0678761145F8264070BD0CED00E0CD
:1024100000E400E080E100E070B5002419E004F180
:10242000B001C8B2002100F05DF90021084600F0BB
:1024300059F90021102000F055F9002505E001218F
:10244000002000F04FF9681CC5B2802DF7DB601C3E
:10245000C4B2082CE3DB70BD10B56420FFF7B2FAFC
:102460000021AE2000F03EF90021084600F03AF9C4
:102470000021102000F036F90021402000F032F950
:102480000021B02000F02EF90021812000F02AF96F
:102490000021FF2000F026F90021A12000F022F900
:1024A0000021A62000F01EF90021A82000F01AF952
:1024B00000213F2000F016F90021C82000F012F999
:1024C0000021D32000F00EF90021084600F00AF99F
:1024D0000021D52000F006F90021802000F002F94B
:1024E0000021D82000F0FEF80021052000F0FAF8C5
:1024F0000021D92000F0F6F80021F12000F0F2F8D8
:102500000021DA2000F0EEF80021122000F0EAF8B5
:102510000021DB2000F0E6F80021302000F0E2F896
:1025200000218D2000F0DEF80021142000F0DAF800
:102530000021AF2000F0D6F810BD00002DE9F05FBB
:102540000746894615462846FDF722FE83460024A5
:102550005BE0285D7F2809DC2A5D10234946384668
:1025600000F070F807F10800C7B24DE0285D7F2841
:102570004ADD601C285C295D40EA012A002640E013
:1025800006EB0610234931F81000504538D1494672
:10259000384600F041F84FF000080EE006EB061157
:1025A0001C4A02EB4101891C11F80800012100F0CE
:1025B00099F808F1010000F0FF08B8F1100FEDDB09
:1025C00009F10100C1B2384600F026F84FF01008BA
:1025D0000EE006EB06110F4A02EB4101891C11F8CF
:1025E0000800012100F07EF808F1010000F0FF086A
:1025F000B8F1200FEDDB07F11000C7B2641C02E058
:10260000761C242EBCD300BF641C5C45A1D3BDE85E
:10261000F09F0000C081000870B504460D4605F12A
:10262000B001C8B2002100F05DF8102141EA141099
:10263000002100F057F804F00F00002100F052F8DC
:1026400070BD00002DE9F04107460D46144698463E
:10265000A4F12000C4B27F2F02DD0027A81CC5B260
:10266000B8F1100F25D129463846FFF7D5FF0026CF
:1026700008E006EB0411194A505C012100F032F821
:10268000701CC6B2082EF4DB681CC1B23846FFF7D6
:10269000C3FF00260AE0082101EB041131440F4A70
:1026A000505C012100F01EF8701CC6B2082EF2DB4F
:1026B00012E029463846FFF7AFFF00260AE004EB98
:1026C0004401074A02EB4101885D012100F00AF84C
:1026D000701CC6B2062EF2DBBDE8F081D07B00088C
:1026E000A879000813B50C4634B101236A4640218D
:1026F0003C2001F034FE05E001236A4600213C2025
:1027000001F02DFE1CBD000000B587B0D022274986
:10271000274801F081FF2648D0F8CC0025280BD0AF
:10272000002007E040F2DC522149AC3141F8202082
:10273000411CC8B20828F5DB1D48D0F8C8001C4968
:10274000D1F8C4101A4AD2F8C020194BD3F8BC30C3
:10275000CDE90232CDE904101548D0F8B80014498B
:10276000D1F8B410CDE900101148D0F8B03011A163
:10277000D0F8AC20184803F081F9174804F092FF14
:102780000B48D0F8A80025280ED0002006E0002233
:102790000749883141F82020411CC8B20828F6DBDF
:1027A00025210348C0F8A81007B000BD00F87F003D
:1027B00030090020696E69745F706F733A25642C6C
:1027C00025642C25642C25642C25642C25642C255B
:1027D000642C25640D0A0000300500202DE9F0412D
:1027E00007460E4600257878397800EB01207749B6
:1027F000088077480088098888427CD07348008820
:1028000074490880714800887149098808406F49F7
:1028100008800024D1E00120A0406C4909880840CC
:10282000002869D10120A040694909880840002892
:1028300071D04FF480616848FDF795FC732E0DD17F
:10284000664951F82400FDF7A3FC8046634850F820
:10285000241042466048FDF76DFC02E0412E00D096
:10286000A9E05FA15C4802F08DF8C5B21DB100215E
:10287000681E594A11545BA1574802F083F8F0B121
:10288000002240F22551584802F097FB002057499A
:10289000088051490B315648FDF78FFC54494E488A
:1028A000FDF78BFC012051490880012240F225519F
:1028B0004D4802F082FB01204E49087025E04EA1F0
:1028C000454802F05FF800B3002240F22551464827
:1028D00002F073FB0020454908803F490B31444812
:1028E000FDF76BFC42493C48FDF767FC01203F497E
:1028F0000880012201E067E05CE040F225513A489F
:1029000002F05BFB02203B4908704FF6FF70304934
:1029100008804FE0FFE74FF480612F48FDF723FC6C
:10292000732E0DD12D4951F82400FDF731FC80465E
:102930002A4850F8241042462748FDF7FBFB02E0E6
:10294000412E00D037E026A1234802F01BF8C5B283
:1029500085B32149481923A102F014F890B11E480B
:1029600041192348FDF729FC2148FDF711FC401EC1
:102970001F4900220A541848FDF71FFC164800F0B2
:10298000D3F917E0144948191BA101F0FBFF88B1E6
:10299000114841191648FDF710FC1548FDF7F8FBE2
:1029A000401E134900220A540B48FDF706FC0A4852
:1029B00000F024F800BF601CC4B2102CFFF62BAF4F
:1029C0000448008802490880BDE8F0819404002092
:1029D0009204002096040020F80A00204C040020F5
:1029E0005E0000002400000000380140CC040020FC
:1029F00030050020CE040020230000002DE9FC5FFC
:102A000004460026204602F0A3FE204604F0A4FE61
:102A1000207823287DD120795028FBD16079532854
:102A2000F8D1A0794328F5D1E0794B287FD1207BDC
:102A300021287CD16078303864214843A17830392E
:102A400001EB810100EB4101E0783038084485B2A8
:102A5000607A303864214843A17A303901EB810132
:102A600000EB4101E07A30380F1817F1640F56DBA4
:102A7000642F54DC082D52DA207A2B281CD13846DA
:102A8000FEF7E6F89949019051F82500FEF7E0F8C5
:102A90000090974800EB051041680098FDF7DDFEB7
:102AA00083460199FDF784FE914901EB05114860C9
:102AB0008E4840F825701FE0207A2D281CD138461A
:102AC000FEF7C6F88949019051F82500FEF7C0F8D5
:102AD0000090874800EB051041680098FDF7BDFEA7
:102AE00083460199FDF7B6FE814901EB0511486067
:102AF00079427E4840F825107D4901EB0511486870
:102B0000FEF7CDF87A4901EB05110880794878493C
:102B100000E00CE001EB0511886001F0A7F902204C
:102B200001F036FB214674A002F098FF23E02078E4
:102B3000232820D1207950281DD1607944281AD12A
:102B4000A079532817D1E079542814D1207A21286C
:102B500011D16078303864214843A178303901EBD5
:102B6000810100EB4101E07830380D18E8B200F047
:102B7000EDFDBDE8FC9F2046FDF70AFB8146ADE078
:102B8000A05D232813D10025701C86B208E0A05D4B
:102B900005EB850100EB4100303885B2701C86B230
:102BA000A05D0028EBD0A05D5028E8D0EFE7A05D45
:102BB00050281ED14FF0000A701C86B212E0A05DB2
:102BC000FEF74FF84D4901905046FDF749FE009041
:102BD0000199FDF7EDFD83464949FDF73BFE82462D
:102BE000701C86B2A05D002878D0A05D542875D0F6
:102BF000E5E7A05D54286FD14FF00008701C86B245
:102C000009E0A05D08EB880100EB410030381FFAB5
:102C100080F8701C86B2A05D10B1A05D2128F0D1B3
:102C2000052D0DD137495046FEF786F801D8DFF85B
:102C3000D4A035495046FEF775F801D8DFF8C8A092
:102C4000032D06D12F495046FEF776F801D8DFF85C
:102C5000B4A0022D0DD12D495046FEF76DF801D8D4
:102C6000DFF8A8A02A495046FEF75CF801D8DFF843
:102C7000A0A0012D0DD125495046FEF75DF801D8E1
:102C8000DFF888A022495046FEF74CF801D8DFF85B
:102C900080A0164951F82500FDF7DAFF834651461A
:102CA000FDF786FD82465046FDF7E0FF8346E8B219
:102CB0004246594600F078FD022001F069FA50467C
:102CC000FDF7EDFF1FFA80FB43465A46294611A047
:102CD00002F0C4FE02E0FFE7701C86B2A05D10B1F6
:102CE000B145BFF64DAF00BF43E70000B809002073
:102CF000180A00206F12833A25730000000020415B
:102D0000000040420080D444000096440040034547
:102D10000000614423253033645025303464542549
:102D20003034642100000000F0B58FB00646002466
:102D300000200E900D900C900B900A900990089036
:102D4000D8A1304601F01EFE04464CB1012001F02E
:102D50001FFAD6A002F082FEFF2000F0F7FC9FE1F0
:102D6000D5A1304601F00EFE04468CB10120D449B5
:102D7000087001F00DFAD3A002F070FED5A002F0A9
:102D8000BBFBFF2000F0E2FCFF20D549087087E183
:102D9000D4A1304601F0F6FD0446C4B10EAAD3A179
:102DA0003046FDF723FA0028D9D00E99C8B200F0BA
:102DB000CDFCD1A1D4480E9A02F060FED24802F0B8
:102DC0009BFB4FF48061D048FDF7CDF968E1CFA1BE
:102DD000304601F0D7FD044614B101F0EDFA5FE191
:102DE000CCA1304601F0CEFD04466CB10DAACBA1BA
:102DF0003046FDF7FBF90028B1D00120B04908703A
:102E00000D98FEF703FE4BE1C7A1304601F0BAFD75
:102E100004464CB3C648C74BC74AC8A100903046C9
:102E2000FDF7E4F900289AD0012001F0B1F9C7A01C
:102E300002F014FE0120A2490870BF480068BD4995
:102E4000096888420BD0BC480068C3490860B8488C
:102E50000068C249086000209949087020E1B6481E
:102E60000068FEF7D3FD1BE1BDA1304601F08AFDED
:102E700004466CB1BCA002F03FFB4FF4FA6240F292
:102E8000DC51FF2000F090FCFF209549087007E11D
:102E9000B9A1304601F076FD0446ACB10DAAB8A147
:102EA000BA48FDF7A3F9002890D08D490D98087015
:102EB0000D9810B9B6A002F01FFB0D98022885D11D
:102EC000B7A002F019FBEBE0B9A1304601F05AFDC2
:102ED000044634B1012001F05BF9B7A002F0BEFD59
:102EE000DEE0A5A1304601F04DFD044694B10DAAE7
:102EF000A3A1A648FDF77AF9002884D00D9810B94F
:102F0000A3A002F0F9FA0D980228A7D1A4A002F01C
:102F1000F3FAC5E0A9A1304601F034FD0446F4B14E
:102F20000A20FEF74FFDA9A0FFF768FD0A20FEF773
:102F300049FD012001F02CF9A7A002F08FFD02202D
:102F400001F026F9A4A002F089FD0A20FEF73AFD5F
:102F5000A9A002F083FD0A20FEF734FDA0E0A8A19D
:102F6000304601F00FFD0446002C43D0012001F053
:102F70000FF93146A4A002F071FD0AA80BA90CAB11
:102F80000DAACDE90010A2A13046FDF72FF90028C7
:102F900099D01822A34902A8FDF7CCF80D98FDF7A7
:102FA00057FE02900C98FDF753FE03900B98FDF727
:102FB0004FFE04909C4902A803F060FC0746C7B985
:102FC000002000E0401C0528FCDB03F0CFF80025C2
:102FD0000DE00A980090954850F825302A4694A1B3
:102FE000494802F04BFD4848FFF708FD6D1C052DD0
:102FF000EFDB55E093A1304601F0C4FC0446B4B1C8
:1030000008A809AB0EAA91A100903046FDF7EEF892
:10301000002845D0012001F0BBF891A002F01EFD70
:103020000E99C8B2DDE9082100F0D4FC38E028A1EF
:10303000304601F0A7FC044694BB8DA1304601F058
:10304000A1FC044664B3012001F0A2F88AA002F0BA
:1030500005FD08218B48FEF7DBFD1E20FEF7B2FCC4
:1030600008218848FEF7D2FD1E20FEF7ABFC0821A0
:103070008448FEF7CDFD1E20FEF7A4FC0821814800
:10308000FEF7C4FD1E20FEF79DFC08217D48FEF7DB
:10309000BFFD1E20FEF796FC08217A48FEF7B6FD1C
:1030A0000FB0F0BD244452532100000068656C6CE1
:1030B0006F20776F72642100244453542100000074
:1030C0002C04002050617273655F436D64204F4B88
:1030D000000000002444535421204F4B0000000006
:1030E00098040020244453543A00000024445354CC
:1030F0003A256421000000002325303364504453F6
:1031000054210D0A000000003005002024525354C1
:1031100021000000244447533A0000002444475350
:103120003A25642100000000244447543A0000007E
:10313000400400203C04002038040020244447546C
:103140003A25642D25642C25642100004447542031
:1031500020204447540D0A0030040020340400208D
:1031600024444A5221000000233235355031353095
:10317000305432303030210024534D4F444500004C
:1031800024534D4F4445256421000000F80A0020D7
:10319000233031305031353132543030303021002D
:1031A000233031305031353131543030303021001E
:1031B00024474554412100004141410024534D41E1
:1031C00052545F53544F50210000000023323535D4
:1031D00050445354210000002330303650313530F4
:1031E00030543030303021233030375031353030AA
:1031F0005430303030210000404F4B21000000009F
:10320000244B4D533A00000025730D0A00000000C6
:10321000244B4D533A25642C25642C25642C2564BD
:1032200021000000A0770008000A002014050020FB
:1032300023253033645025303464542530346421E0
:103240000A00000024416E676C653A0024416E67F5
:103250006C653A25642C25662C256621000000004B
:10326000416E676C65202020416E676C650D0A0019
:10327000244245455021000062757A7A65720D0A34
:10328000000000000008014038B50446002514A1E4
:10329000204601F077FB05460DB31348134B144A43
:1032A00014A100902046FCF7A1FFC0B101201549F0
:1032B00008700F4800680D49096888420BD00C4817
:1032C000006811490860084800681049086000203B
:1032D0000C49087003E006480068FEF797FB38BD0C
:1032E000244447543A000000400400203C040020DD
:1032F00038040020244447543A25642D25642C25A5
:10330000642100002C04002030040020340400203C
:10331000002014E040F2DC5100EB4002094B23F89E
:103320002210094900EB400203EB820251600021A8
:1033300000EB400203EB82029160411CC8B20828F6
:10334000E8DB7047980A00200080BB4410B53B487A
:10335000007820B101280DD002286CD129E000F0BE
:1033600075F828B1002036490870012033490870EB
:10337000002010BD00F06AF858B931480078401CB0
:10338000C0B22F490870032803DD00202B490870C4
:10339000EFE700F077F800F059F840B10220274934
:1033A0000870002026490870062026490870002071
:1033B000DFE700F04BF8A0B921480078401CC0B20C
:1033C0001F49087003280CDD00201C4908701E48A6
:1033D000002101604160017206201A490870002036
:1033E000C7E70120FEF7EEFA00F022F91548007851
:1033F000F8B1012200200DE0431D134CE35C803B3B
:1034000059B2082902DC11F1080F01DA002203E0A9
:10341000411CC8B20428EFDB00BF2AB1094800787C
:10342000401E0849087002E0062006490870002086
:103430009FE701209DE700209BE70000D2040020C9
:10344000D3040020D4040020F816002010B5002278
:1034500001210B48FEF7DEFB012000F039F8422085
:1034600000F036F80446012211460548FEF7D2FB6B
:10347000732C01D0412C01D1012010BD0020FCE7AC
:10348000000C014070B500241BE0002201210E4811
:10349000FEF7C0FB002508E004EB84010B4A114451
:1034A000485D00F015F8681CC5B2052DF4DB01225B
:1034B00011460548FEF7AEFB0820FEF783FA601CB4
:1034C000C4B2042CE1DB70BD000C0140888600080A
:1034D00070B504460026002526E004F00102802194
:1034E0001348FEF797FB6410012202211148FEF7F2
:1034F00091FB0820FEF776FA002202210D48FEF724
:1035000089FB0820FEF76EFA012202210948FEF726
:1035100081FB02210648FEF767FB18B10120A84095
:103520003043C6B2681CC5B2082DD6DB304670BD2C
:1035300000080140000C014038B501210C2000F0CA
:10354000C9FA0220ADF8000028208DF803000320FE
:103550008DF8020069463348FEF772FA10208DF8A4
:1035600003008020ADF8000069462E48FEF768FA97
:103570000120ADF8000069462B48FEF761FA0220F1
:10358000ADF8000069462848FEF75AFA01221146B4
:103590002548FEF73FFB012202212348FEF73AFBB4
:1035A000012280211F48FEF735FB3220FEF70AFA80
:1035B00000241BE0002201211B48FEF72BFB002505
:1035C00008E004EB8401194A1144485DFFF780FFCD
:1035D000681CC5B2052DF4DB012211461248FEF726
:1035E00019FB0A20FEF7EEF9601CC4B2042CE1DBE3
:1035F000002201210C48FEF70DFB0120FFF768FFB8
:103600004220FFF765FF002404E00020FFF760FF81
:10361000601CC4B2072CF8DB012211460248FEF7F9
:10362000F9FA38BD00080140000C01408886000806
:1036300010B5002201210F48FEF7ECFA0120FFF738
:1036400047FF0D4908704220FFF742FF0A494870C2
:10365000022406E00020FFF73BFF07490855601CE5
:10366000C4B2092CF6DB012211460248FEF7D2FA59
:1036700010BD0000000C0140F816002038B50121F3
:10368000082000F027FA03208DF8020010208DF8A2
:1036900003000820ADF8000069462848FEF7D0F97D
:1036A0001020ADF8000069462448FEF7C9F9202033
:1036B000ADF8000069462148FEF7C2F94020ADF898
:1036C000000069461D48FEF7BBF98020ADF80000F8
:1036D00069461A48FEF7B4F94FF48070ADF800005F
:1036E00069461648FEF7ACF94FF40070ADF80000DB
:1036F00069461248FEF7A4F900241CE040F2DC50B1
:103700000F4901EB041108800E480D4901EB04112B
:1037100048600D480A4901EB0411886041F2883085
:10372000074901EB041148800020054901EB041111
:10373000C860601CC4B2082CE0DB38BD000C01403E
:10374000180A00200080BB440000A04110B50446C8
:10375000082C0FDA0020134901EB0411886011498D
:1037600001EB04114868FDF79AFA0E4901EB0411C8
:10377000088016E0FF2C14D1002410E00020094935
:1037800001EB04118860074901EB04114868FDF75B
:1037900086FA044901EB04110880601CC4B2082CAD
:1037A000ECDB10BD180A00202DE9F04704460D4659
:1037B0001646082C01DBBDE8F0877DB900203749AB
:1037C00001EB04118860354901EB04114868FDF7ED
:1037D00066FA324901EB04110880ECE740F6BA10B2
:1037E000854201DD054604E0B5F5FF7F01DA4FF4BF
:1037F000FF7542F21070864200DD461E2846FDF736
:1038000027FA0746254800EB041041683846FDF7C3
:1038100089FA0AD12846FDF71BFA80462049FCF7B1
:10382000C7FF0746FDF722FA0546142E10DA1B499A
:1038300001EB04110D802846FDF70AFA174901EB48
:10384000041148600020154901EB0411886022E052
:10385000124901EB04110D80104901EB04114E8057
:103860003046FDF7F5F981460E49FDF72BF807467E
:103870002846FDF7EDF98146084800EB0410416841
:103880004846FCF7E7FF80463946FDF71BF8034939
:1038900001EB0411886000BF8DE70000180A0020CA
:1038A0004850FC3B0000A0412DE9F04704462A495E
:1038B00001EB041188680021FDF734FA01D1BDE85D
:1038C000F087254800EB0410058840F6BA108542C1
:1038D00001DD054604E0B5F5FA7F01DA4FF4FA752B
:1038E0001D4901EB041188684FF08041FCF7B8FFD7
:1038F000804602F02FFC06462846FDF7A9F98146CE
:10390000154800EB041041684846FCF7A3FF8046C9
:1039100002F020FC07463146FDF704FA0CD8284691
:10392000FDF796F90C4901EB0411486000200A49A3
:1039300001EB041188600DE0074A02EB0412916864
:10394000054A02EB04125068FCF732FF024901EB12
:103950000411486000BFB2E7180A002070B50446A1
:103960000D46072C31D2DFE804F0040A10161C22A1
:1039700029002A4608211648FEF74CF926E02A4677
:1039800010211348FEF746F920E02A46202110486E
:10399000FEF740F91AE02A4640210D48FEF73AF9B1
:1039A00014E02A4680210A48FEF734F90EE02A4640
:1039B0004FF480710648FEF72DF907E02A464FF4D0
:1039C00000710348FEF726F900E000BF00BF70BD9C
:1039D000000C01402DE9F74F84B08B4692465046CB
:1039E000FDF771F9CDE900015846FDF76CF906467F
:1039F000DDE9002302F0E5FE044622460B460020E6
:103A0000014602F0BDFE8046FDF770F9834610487E
:103A100001685846FCF724FF834651465846FCF798
:103A200051FF05460B49FCF71BFF04460A49FCF70A
:103A3000BFFE02900298FDF719F904464FF47A721E
:103A400021460498FFF7B0FE07B0BDE8F08F0000F4
:103A5000C40400200000FA440000FA43014600209C
:103A6000034A506820F4404008435060704700000B
:103A70000010024029B1064A52690243044B5A61C0
:103A800004E0034A52698243014B5A6170470000C7
:103A90000010024029B1064AD2690243044BDA61A0
:103AA00004E0034AD2698243014BDA6170470000A7
:103AB0000010024029B1064A12690243044B1A6100
:103AC00004E0034A12698243014B1A617047000007
:103AD0000010024029B1064A92690243044B9A61E0
:103AE00004E0034A92698243014B9A6170470000E7
:103AF0000010024029B1064AD2680243044BDA6042
:103B000004E0034AD2688243014BDA607047000048
:103B1000001002400F48006840F001000D490860A5
:103B2000084640680C4908400A4948600846006851
:103B30000A490840074908600846006820F48020C8
:103B400008600846406820F4FE0048604FF41F00FB
:103B500088607047001002400000FFF8FFFFF6FE8B
:103B600030B500210022002400232D4D6D6805F0A2
:103B70000C0121B1042905D0082923D105E0294DE4
:103B8000056022E0274D05601FE0254D6D6805F4B6
:103B90007012234D6D6805F48034022505EB9242C6
:103BA0001CB9214D554305600BE01D4D6D6805F4B2
:103BB00000351DB11C4D5543056002E0194D5543BC
:103BC000056002E0174D056000BF00BF144D6D6831
:103BD00005F0F0010909154D6B5C0568DD40456095
:103BE0000F4D6D6805F4E061090A104D6B5C456886
:103BF000DD4085600A4D6D6805F46051C90A0B4DC2
:103C00006B5C4568DD40C560054D6D6805F440415D
:103C1000890B074D6B5CC568B5FBF3F5056130BDDD
:103C20000010024000127A0000093D00F804002054
:103C30000805002010B501460022002300204A118B
:103C4000012A02D1094C236806E0022A02D1074C5E
:103C5000236A01E0054C636A01F01F0201249440CD
:103C60001C400CB1012000E0002010BD00100240FB
:103C70000248406800F00C0070470000001002404D
:103C800001460020034A506820F0F00008435060CD
:103C900070470000001002401149096821F480318A
:103CA0000F4A11601146096821F480211160B0F5B6
:103CB000803F03D0B0F5802F0ED106E00849096897
:103CC00041F48031064A116007E00549096841F472
:103CD000A021034A116000E000BF00BF7047000050
:103CE0000010024001460020034A506820F4E060C2
:103CF0000843506070470000001002400146002059
:103D0000034A506820F4605040EAC1005060704798
:103D1000001002400149086670470000000042425E
:103D200002460020044B586820F47C1042EA01034C
:103D30001843014B586070470010024001460020B4
:103D4000034A506820F003000843506070470000A9
:103D50000010024038B5002000900024002500BF6C
:103D60003120FFF767FF05460098401C009000983F
:103D7000B0F5A06F01D0002DF2D03120FFF75AFF2F
:103D800008B1012400E00024204638BD10B5FFF73B
:103D9000C1FE4FF48030FFF77FFFFFF7DBFF0446E3
:103DA00000BF002CFDD00020FFF76AFF4FF48060B9
:103DB000FFF798FF0020FFF7A1FF4FF4E0114FF449
:103DC0008030FFF7ADFF0120FFF7A4FF00BF3920CF
:103DD000FFF730FF0028FAD00220FFF7AFFF00BF47
:103DE000FFF746FF0828FBD110BD000038B50024BE
:103DF0004FF40040ADF8000048208DF803006946FC
:103E00001448FDF71DFE00251FE000224FF48041FD
:103E10001048FDF7FFFE0020FDF7E4FD01229103AD
:103E20000C48FDF7F7FE0020FDF7DCFD6006040EF0
:103E30004FF400410748FDF7D7FE08B144F00104F4
:103E40000020FDF7CFFD681CC5B2082DDDDB204644
:103E500038BD00000010014004E003788B4200D11F
:103E60000270401C0378002BF7D1704710B540F268
:103E7000FF7000F051FBD0220249034800F086FC9D
:103E800010BD000000F87F003009002021B1028839
:103E900042F04002028004E002884FF6BF731A40ED
:103EA000028070470246002013890B400BB10120AD
:103EB00000E0002070470146888970478181704783
:103EC00010B50022028802F441520B884C8823432B
:103ED0008C882343CC8823430C8923434C89234378
:103EE0008C892343CC8923431A430280838B4FF26E
:103EF000FF74234083830B8A038210BD10B5012118
:103F00000D20FFF7E7FD01210148FDF725FE10BD5B
:103F10000002300070B504464FF0FF356078242869
:103F20000CD1A078212809D10021374880F88410CD
:103F3000FFF79CFF35A003F0B5FB70BD6078242827
:103F40001BD181213048001DFCF70DF9611C2E4862
:103F5000001DFCF732F92046FCF71AF9801E2A49A9
:103F6000091D00220A542521274880F88410FFF7F4
:103F70007DFF2BA003F096FBDFE7A07830384FF4ED
:103F80007A714843E178303901EBC10202EB01114B
:103F900000EB81012079303800EB800001EB40011B
:103FA000607930380D18002D02DBA079232803D06A
:103FB00020A003F077FBC0E72802C11700EB1151E6
:103FC0000913A0EB013131B92E02F11706EB1151A3
:103FD000081300F0A1FA7B223C212046FFF73CFFAA
:103FE0007D223E212046FFF737FF2046FCF7D0F820
:103FF000401C86B229023246204600F06DFB0EA01E
:1040000003F050FB00BF98E73009002040434C45C7
:104010004152205052455F434D44204F4B210000F8
:1040200040534554205052455F434D44204F4B214F
:1040300000000000450000004100000038B50446C3
:104040004FF40040ADF8000014208DF80300032069
:104050008DF8020069461648FDF7F2FC002523E0C2
:1040600004F0800028B10122D1031148FDF7D2FDF0
:1040700005E000224FF400410D48FDF7CBFD012281
:1040800091030B48FDF7C6FD0020FDF7ABFC0022B5
:104090004FF480410648FDF7BDFD0020FDF7A2FC6E
:1040A0006006040E681CC5B2082DD9DB38BD0000BF
:1040B0000010014038B504464FF40040ADF8000050
:1040C00014208DF8030003208DF80200694619487A
:1040D000FDF7B6FC00224FF480411648FDF79AFD2B
:1040E00000224FF400411348FDF794FD0020FDF736
:1040F00079FC34B900224FF400410E48FDF78AFDE7
:1041000004E00122D1030B48FDF784FD0122910355
:104110000848FDF77FFD0020FDF764FC00224FF406
:1041200080410448FDF776FD0122D1030148FDF7E7
:1041300071FD38BD0010014010B5002421E0124887
:1041400030F82410243830F8240008440F4901EBDB
:10415000041108800D4901EB04110888FCF781FD6A
:104160000A4901EB041148600020084901EB0411E1
:10417000886041F28830054901EB04114880601CD9
:10418000C4B2082CDBDB10BDDC090020180A0020BB
:104190000149087070470000C804002010B500F005
:1041A00001F810BD0CB50020019000903348006864
:1041B00040F480303149086000BF3048006800F4A6
:1041C000003000900198401C0190009818B90198A7
:1041D000B0F5A06FF1D12948006800F4003010B1AB
:1041E0000120009001E0002000900098012843D1B8
:1041F0002348006840F01000214908600846006824
:1042000020F0030008600846006840F002000860E3
:104210001A4840681949486008464068486008469E
:10422000406840F4806048600846406820F47C1094
:1042300048600846406840F4E81048600846006856
:1042400040F08070086000BF0C48006800F000700B
:104250000028F9D00948406820F003000749486069
:104260000846406840F00200486000BF03484068CC
:1042700000F00C000828F9D10CBD0000001002402D
:104280000020024008B501211020FFF723FC4FF465
:104290008040ADF8000014208DF8030003208DF855
:1042A000020069460F48FDF7CBFB01211020FFF704
:1042B00011FC4FF40040ADF8000014208DF803000D
:1042C00003208DF8020069460648FDF7B9FB4FF45C
:1042D00080410448FDF79CFC4FF400410148FDF784
:1042E00097FC08BD001001402DE9F04104460F463F
:1042F00015461E4600F0E0FA6106080EFFF79EFE26
:1043000001F060FB10B10120BDE8F0813846FFF7F5
:1043100095FE01F057FB08B10220F5E700F0CCFA5A
:10432000012101EB4401C8B2FFF788FE01F04AFB0E
:1043300008B10320E8E700BFFFF758FD28706D1CA7
:10434000012E02D00020FFF7B5FE701E061EF3D12D
:104350000120FFF7AFFE00F0E7FA0020D4E72DE9D7
:10436000F04105460E4614461F4600F0A5FA6906C0
:10437000080EFFF763FE01F025FB10B10120BDE838
:10438000F0813046FFF75AFE01F01CFB08B1022015
:10439000F5E708E014F8010BFFF750FE01F012FBFF
:1043A00008B10320EBE7381EA7F10107F2D100F0B6
:1043B000BBFA0020E3E70000012080F3138800BF70
:1043C00000BF0748006800F4E06006490843001D8C
:1043D00003490860BFF34F8F00BF00BFFEE7000036
:1043E0000CED00E00000FA0570B5FDF7D7FF2F498E
:1043F0000968401A142800D270BDFDF7CFFF2B4981
:1044000008602B480078012806D12A48007800B9B6
:10441000F2E700202649087027480078042804D1D4
:1044200081022648FDF7E0FB054623480078052871
:1044300005D14FF480712148FDF7D6FB0446204892
:10444000007830B101280CD0022816D003282AD1D8
:1044500021E0012D01D0012C02D101201849087062
:1044600021E0012D01D0012C03D102201449087054
:1044700002E000201249087015E00321C820FDF772
:1044800069F910A0FEF700FF012009490870032018
:104490000B49087007E0012D04D0012C02D0002048
:1044A0000749087000BF00BF00BFA5E7A8040020AF
:1044B000A40400202C04002008040020000801406F
:1044C000AC040020244447543A33312D34302C318D
:1044D0002100000008B501210420FFF7FBFA4FF48A
:1044E0008050ADF8000028208DF803006946094887
:1044F000FDF7A6FA01210420FFF7ECFA4FF48070D3
:10450000ADF8000028208DF8030069460148FDF74A
:1045100097FA08BD0008014010B50446240300F0D6
:10452000C9F800F0BDF800224FF480510C48FDF7A7
:1045300071FB202000F096F9C4F3074000F092F9D7
:10454000C4F3072000F08EF9E0B200F08BF90122ED
:1045500011030348FDF75EFB00F0A2F810BD000058
:10456000000C014010B501210820FFF7B3FA4FF409
:104570008050254908801020C87003208870234887
:10458000FDF75EFA4FF480512048FDF741FB4FF4F0
:1045900020401D4908801820C8701C48FDF750FABB
:1045A0004FF48040184908804820C8701748FDF72C
:1045B00047FA4FF420411548FDF72AFB01218803F3
:1045C000FFF768FA0020124908804FF48270488093
:1045D000002088800220C880012008814002488194
:1045E000382088810020C881072008820948FFF709
:1045F00067FC01210748FFF749FCFF2000F032F972
:10460000002000F01DF910BDD6040020000C014070
:1046100002170020003800402DE9F04106460C4604
:10462000174600224FF480511048FDF7F3FA03209B
:1046300000F018F9C4F3074000F014F9C4F30720A0
:1046400000F010F9E0B200F00DF9002505E0FF20C0
:1046500000F008F97055681C85B2BD42F7DB0122F5
:1046600011030248FDF7D6FABDE8F081000C0140C5
:1046700010B5002400224FF480510848FDF7CAFA13
:10468000052000F0EFF8FF2000F0ECF804460122CE
:1046900011030248FDF7BEFA204610BD000C014090
:1046A00010B500BFFFF7E4FF00F001000028F9D1CA
:1046B00010BD000010B500224FF480510548FDF7F1
:1046C000A9FA062000F0CEF8012211030148FDF7F7
:1046D000A1FA10BD000C01402DE9F04107460E463D
:1046E0001446F0B2C0F58075AC4200DC254612E0FD
:1046F0002A463146384600F013F8AC4200D10BE0B0
:104700002F442E44601B84B2B4F5807F02DD4FF449
:10471000807500E02546EBE700BFBDE8F0810000B2
:104720002DE9F04107460C461646E0B2C0F5807808
:10473000464500DD4646FFF7BDFF00224FF480519D
:104740001148FDF767FA022000F08CF8C4F3074027
:1047500000F088F8C4F3072000F084F8E0B200F01D
:1047600081F8002504E0785D00F07CF8681C85B2D3
:10477000B542F8DB012211030348FDF74BFAFFF7BE
:104780008FFFBDE8F0810000000C01402DE9F047EB
:1047900081460F4616464FEA1738C7F30B0ACAF58B
:1047A0008054A64200DC344644E04FEA08314FF41E
:1047B00080522248FFF730FF002508E00AEB050091
:1047C0001E49085CFF2800D003E0681C85B2A542A2
:1047D000F4DB00BFA54216DA4046FFF79DFE002538
:1047E00007E019F8050005EB0A01144A5054681C4B
:1047F00085B2A542F5DB4FEA08314FF480520F48ED
:10480000FFF76AFF04E0224639464846FFF764FF97
:10481000A64200D10FE008F101084FF0000AA144C0
:104820002744301B86B2B6F5805F02DD4FF480541A
:1048300000E03446B9E700BFBDE8F0871417002058
:1048400010B504460548848101460548FFF738FB4A
:1048500001210348FFF71AFB10BD000002170020DA
:104860000030014070B50546002405E0601CC4B26C
:10487000C82C01DD002070BD02210E48FFF712FB9D
:104880000028F3D029460B48FFF718FB002405E069
:10489000601CC4B2C82C01DD0020ECE701210548F2
:1048A000FFF700FB0028F3D00248FFF704FBC0B27B
:1048B000E1E700000038004008B54FF40040ADF8D3
:1048C000000014208DF8030003208DF802006946D3
:1048D0001448FDF7B5F800224FF480411148FDF768
:1048E00099F90122D1030F48FDF794F901229103B0
:1048F0000C48FDF78FF90020FDF774F800224FF403
:1049000000410848FDF786F90020FDF76BF800220A
:104910004FF480410348FDF77DF90020FDF762F870
:1049200008BD00000010014008B54FF40040ADF88C
:10493000000014208DF8030003208DF80200694662
:104940000F48FDF77DF800224FF480410C48FDF739
:1049500061F900224FF400410948FDF75BF901229B
:1049600091030748FDF756F90020FDF73BF80122B7
:10497000D1030348FDF74EF90020FDF733F808BDD9
:104980000010014070B504460B4621461A4619E056
:1049900008781578A84214D10AE011F8015B12F8E2
:1049A000016BB54204D0D01A081A411C1A4602E025
:1049B00010780028F1D100BF107818B9081B80B218
:1049C00070BD491C08780028E2D100BFF8E700005C
:1049D00030B5144800684FF47A72B0FBF2F1B1F1CF
:1049E000807F00D31DE021F07F40401E4FF0E02289
:1049F000506150170F22002807DA13071D0E0A4BCB
:104A000000F00F04241F1D5503E013071C0E074B75
:104A10001C5400BF00204FF0E0229061072010617D
:104A200000BF30BDE404002018ED00E000E400E029
:104A300002480068401C014908607047DC040020FF
:104A400010B51348006840F001001149086008469D
:104A50004068104908400E494860084600680E4901
:104A600008400B4908600846006820F48020086070
:104A70000846406820F4FE0048604FF41F0088603C
:104A8000FFF78CFB4FF000600449086010BD000088
:104A9000001002400000FFF8FFFFF6FE08ED00E006
:104AA0007FB505460C460121C802FEF7F3FFADF8BD
:104AB0000850ADF804400020ADF80A00ADF806003B
:104AC00001A9104800F0DEF800210E4800F09FF820
:104AD000012211460B4800F0C9F819208DF800009A
:104AE00000208DF8010002208DF8020001208DF8D1
:104AF00003006846FDF758FC0121024800F096F8D3
:104B00007FBD0000002C014010B50121880700F096
:104B10009CF8002841D021480078082802D10020C4
:104B20001E4908701E480078A0B91E491B4A127819
:104B300001EB02114868FCF7B2F84FF0804188851C
:104B4000012116480078FEF709FF14480078FEF7A7
:104B5000ABFE16E01349114A127801EB02114868C6
:104B6000FCF79DF840F6C4110C1A09078C8500214A
:104B70000A480078FEF7F2FE08480078401C074912
:104B800008700748007808B9012000E000200449B7
:104B900008700121880700F046F810BDE2040020EB
:104BA000E1040020180A00207FB505460C460121CB
:104BB0000846FEF76FFFADF80850ADF8044000203E
:104BC000ADF80A00ADF8060001A94FF0804000F0F2
:104BD00059F800214FF0804000F019F801221146E9
:104BE000900700F043F81C208DF8000001208DF89C
:104BF000010003208DF8020001208DF803006846B3
:104C0000FDF7D2FB0121880700F010F87FBD21B12C
:104C1000028842F08002028004E002884FF67F732F
:104C20001A4002807047CA430282704721B102884D
:104C300042F00102028004E002884FF6FE731A403F
:104C4000028070470146888C704730B502460020CC
:104C500000230024158A05EA0103958905EA010469
:104C600013B10CB1012000E0002030BD1AB18389DE
:104C70000B43838102E083898B4383817047818466
:104C800070470000002202881D4B98420ED01D4B39
:104C900098420BD0B0F1804F08D01B4B984205D002
:104CA0001A4B984202D01A4B984204D14FF68F7398
:104CB0001A404B881A43174B984207D0164B98421C
:104CC00004D04FF6FF431A40CB881A4302808B88EA
:104CD00083850B8803850A4B98420BD0094B984279
:104CE00008D00E4B984205D00D4B984202D00D4B88
:104CF000984201D10B7A038601238382704700001A
:104D0000002C014000340140000400400008004035
:104D1000000C004000100040001400400040014022
:104D2000004401400048014038B540F22441184891
:104D300000F00DF950B31648008800901448001D8B
:104D40000088009000BF00211248FCF765FD114863
:104D5000FCF714FEC0F5806084B2002C0CDDB4F5C5
:104D6000806F09DC002505E00B49485D00F0DEFBA3
:104D7000681C85B2A542F7DB4FF480610548FCF75B
:104D80001FFE01210348FCF747FD00BF38BD0000AE
:104D90000038014058000240F80E002010B540F2E3
:104DA0002551094800F0D3F801280CD1064800F03D
:104DB00095F9C4B2204600F0B9FB40F225510248F3
:104DC00000F046F800BF10BD0044004038B540F286
:104DD00024411B4800F0BBF880B3194800880090BC
:104DE0001748001D0088009000BF00211548FCF7FF
:104DF00013FD1448FCF7C2FDC0F58060124908801D
:104E00000846008800280FDD08460088B0F5806F4E
:104E10000ADC002404E00D49085D00F087FB641CF7
:104E2000094800888442F6DB4FF480610548FCF7AE
:104E3000C7FD01210348FCF7EFFC00BF38BD0000AF
:104E40000048004030000240CA040020F812002050
:104E500010B50022002340F66A14A14200D100BF21
:104E60000A1201249440A3B2DC43048010BD21B196
:104E7000828942F40052828104E082894DF6FF73F8
:104E80001A40828170471AB1838A0B43838202E001
:104E9000838A8B438382704710B50446204884423E
:104EA00009D101218803FEF725FE00214FF480403F
:104EB000FEF720FE32E01B48844209D1012148045C
:104EC000FEF7F8FD00214FF40030FEF7F3FD25E07A
:104ED0001548844209D101218804FEF7EBFD002129
:104EE0004FF48020FEF7E6FD18E01048844209D117
:104EF0000121C804FEF7DEFD00214FF40020FEF77B
:104F0000D9FD0BE00A48844208D101210805FEF7CB
:104F1000D1FD00214FF48010FEF7CCFD10BD000044
:104F2000003801400044004000480040004C004070
:104F30000050004002460020B1F5007F00D100BFC4
:104F400013880B400BB1012000E00020704770B5C2
:104F50000246002400230025002040F66A16B142D4
:104F600000D100BFC1F3421501F01F03012606FA6C
:104F700003F3012D02D19689334006E0022D02D1C0
:104F8000168A334001E0968A33400C12012606FA55
:104F900004F41688344013B10CB1012000E0002065
:104FA00070BD21B1828A42F00802828204E0828AC6
:104FB0004FF6F7731A4082827047F0B5034600241B
:104FC00000260025002040F66A17B94200D100BF34
:104FD0001846C1F3421401F01F06012707FA06F52F
:104FE000012C01D10C3004E0022C01D1103000E082
:104FF00014301AB107682F43076002E00768AF4317
:105000000760F0BD2DE9F04786B005460E46002446
:10501000A24600BFA1460027B08900B100BF2F46BD
:105020002C8A4CF6FF700440F08804432C82AC8933
:105030004EF6F3100440B088318908437189084363
:105040000443AC81AC8A4FF6FF400440B08904436E
:10505000AC8201A8FEF784FD1F48874202D1DDF82B
:1050600010A001E0DDF80CA0A88900F4004040B1D8
:105070000AEBCA0000EB0A1031684900B0FBF1F8F6
:1050800007E00AEBCA0000EB0A1031688900B0FBA8
:10509000F1F86420B8FBF0F004012009642101FB61
:1050A0001089A88900F4004040B1322000EBC9000B
:1050B000B0FBF1F000F00700044308E0322000EB01
:1050C00009106421B0FBF1F000F00F0004432C81C3
:1050D00006B0BDE8F087000000380140014688882E
:1050E000C0F308007047C1F30802828070470000D7
:1050F0000EB501210420FEF7CDFC47F23050ADF88B
:1051000004004720ADF800000020ADF80600ADF81F
:10511000020069460148FFF7B5FD0EBD00080040DA
:105120002DE9F05F4FF01B0A012220212D48FCF7EA
:1051300071FD0A20FCF756FC002220212948FCF7CB
:1051400069FD01212848FFF771FDFDF727F9814628
:105150000CE0FDF723F9A0EB0900504506D900212A
:105160002148FFF763FD2148BDE8F09F10211D484D
:10517000FCF73AFD0028ECD000211B48FFF77FFD2B
:10518000FDF70CF981460BE0FDF708F9A0EB0900EB
:10519000504505D900211448FFF748FD1348E3E7BF
:1051A00010211048FCF720FD0028EDD10E48FFF734
:1051B00049FD044600210C48FFF738FD0C488442A5
:1051C0000EDA2046FBF74DFD8346FBF77CFD0746D4
:1051D000084A094BFBF75BFC0546FBF787FDC3E775
:1051E0000248C1E70008014000080040000080BFFD
:1051F000BCE893019CC420B07268913F08B50121BE
:105200000420FEF767FC2020ADF8000010208DF888
:10521000030003208DF8020069460848FCF710FCE3
:105220001020ADF8000004208DF803006946034803
:10523000FCF706FCFFF75CFF08BD0000000801401A
:1052400010B592B00446012144F20400FEF742FC7E
:1052500001210846FEF70EFC3748FFF71DFE4FF40C
:105260000070ADF8440018208DF8470003208DF839
:10527000460011A93148FCF7E3FB4FF48060ADF81C
:10528000440004208DF8470011A92C48FCF7D8FBF6
:105290000D940020ADF83800ADF83A00ADF83C00B0
:1052A0000C20ADF83E000020ADF840000DA92248CA
:1052B000FFF7A8FE2248FCF7BBFA1F48001D01902B
:1052C00020480290002003904FF48060049000205A
:1052D00005908020069000200790089020200990DB
:1052E000C0010A9000200B9001A91548FCF74AFB69
:1052F00001211348FCF790FA012240210E48FFF7E4
:10530000C2FD012240F224410B48FFF756FE252042
:105310008DF8300001208DF8310000208DF832002A
:1053200001208DF833000CA8FDF73EF8012102485A
:10533000FFF79DFD12B010BD00380140000801408C
:1053400058000240F80E002010B586B00446012136
:105350000420FEF7BFFB01214804FEF79BFB04205D
:10536000ADF8140018208DF8170003208DF81600F2
:1053700005A91D48FCF764FB01940020ADF8080066
:10538000ADF80A00ADF80C000C20ADF80E000020BE
:10539000ADF8100001A91548FFF734FE01211348AC
:1053A000FFF7FFFD26208DF8000002208DF8010098
:1053B00000208DF8020001208DF803006846FCF7FC
:1053C000F3FF012240F225510848FFF7F6FD0022C5
:1053D00040F227710548FFF7F0FD01210348FFF770
:1053E00046FD06B010BD000000080140004400402A
:1053F00010B592B0044601210820FEF76BFB012195
:105400008804FEF747FB01210846FEF733FB4FF403
:105410008060ADF8440018208DF8470003208DF817
:10542000460011A93048FCF70BFB4FF40060ADF8C3
:10543000440004208DF8470011A92B48FCF700FB1D
:105440000D940020ADF83800ADF83A00ADF83C00FE
:105450000C20ADF83E000020ADF840000DA9234817
:10546000FFF7D0FD2248FCF7E3F92048001D01902A
:1054700020480290002003904FF4806004900020A8
:105480000590802006900020079008902020099029
:10549000C0010A9000200B9001A91548FCF772FA90
:1054A00001211348FCF7B8F9012240210F48FFF70A
:1054B000EAFC012240F224410C48FFF77EFD272040
:1054C0008DF8300001208DF8310000208DF8320079
:1054D00001208DF833000CA8FCF766FF012103487A
:1054E000FFF7C5FC12B010BD000C014000480040A1
:1054F00030000240F812002010B504460120FEF7EB
:1055000047FE214608A000F0A9FA0220FEF740FE5F
:10551000214605A000F0A2FA0320FEF739FE21463D
:1055200001A000F09BFA10BD257300002C490988EA
:1055300001B170472B490988B1F5806F04DB002168
:10554000284A1180284A117027490978E9B9232887
:105550000ED0242808D03C2802D07B2810D10BE0A4
:105560000421214A11700CE001211F4A117008E04A
:1055700002211D4A117004E003211B4A117000E052
:10558000D7E700BF0021174A118016490A88098809
:10559000491C144B1980154988541349097804296A
:1055A00001D13E2811D010490978012901D12128C3
:1055B0000BD00D490978022901D1212805D00A49CB
:1055C0000978032909D17D2807D10021074A054B15
:1055D0001B88D1540121024A118000BFA9E70000B5
:1055E000CC040020D0040020CE040020F80A0020C3
:1055F00010B54FF4E130FFF723FE4FF4E130FFF731
:10560000A3FE4FF4E130FFF7F3FE10BD2DE9F047A4
:105610000546FCF7C3FE32490968401AA84201D288
:10562000BDE8F087FCF7BAFE2D4908602D480078E8
:1056300000B9F5E7FFF774FD81462B49FBF710F938
:1056400080462A49FBF7B4F80746FBF70FFB0446F0
:10565000FA2C00DDE4E70120FEF79AFD214624A0A4
:1056600000F0FCF94FF47A724FF496610520FEF7D2
:105670009BF8224621A1274800F000FA254926A0E0
:1056800000F0ECF92348FDF74FFB4FF47A70FCF77C
:1056900099F9C82C01DC052000E00A2006463346B3
:1056A000224620A11B4800F0E9F91A48FDF73CFB0F
:1056B0004FF47A70FCF786F94FF47A724FF4C861B0
:1056C0000520FEF771F84FF4FA70FCF77BF91CA087
:1056D000FDF7DAFD00200349087000BFA0E70000D5
:1056E000C00400209C040020000020410000F04283
:1056F0000A55733A25640D0A00000000244B4D53EF
:105700003A253033642C302C3130302C313030306D
:10571000210D0A00300500200A55734E756D3A259B
:10572000730D0A00244B4D533A253033642C302C32
:10573000253033642C31303030210D0A0000000058
:10574000244447543A34312D34372C3121000000A1
:1057500070B5054600245AA12846FFF713F9044600
:105760001CB101205B490870A8E05BA12846FFF747
:1057700009F904461CB10220564908709EE059A15F
:105780002846FFF7FFF804461CB103205149087072
:1057900094E058A12846FFF7F5F804461CB1042010
:1057A0004C4908708AE055A12846FFF7EBF80446FB
:1057B0001CB105204749087080E052A12846FFF738
:1057C000E1F804461CB14FA001F0A4FF76E050A11F
:1057D0002846FFF7D7F804461CB14DA001F09AFF08
:1057E0006CE04EA12846FFF7CDF804461CB100201E
:1057F0003849087062E04CA12846FFF7C3F8044618
:105800001CB106203349087058E04AA12846FFF72A
:10581000B9F804461CB107202E4908704EE049A192
:105820002846FFF7AFF804461CB108202949087044
:1058300044E048A12846FFF7A5F804461CB109201A
:10584000244908703AE046A12846FFF79BF8044631
:105850001CB10A201F49087030E045A12846FFF717
:1058600091F804461CB10B201A49087026E044A1A7
:105870002846FFF787F804461CB10C20154908702C
:105880001CE043A12846FFF77DF804461CB10D201B
:105890001049087012E043A12846FFF773F8044648
:1058A0001CB10E200B49087008E041A12846FFF703
:1058B00069F8044614B10F200649087070BD000055
:1058C0002353656E736F72436F6C6F72536F727494
:1058D0002100000008040020234A6F797374696373
:1058E0006B21000023556C747261736F6E696321C4
:1058F0000000000023546F756368210023536F7507
:105900006E6421002353746172744C65642100003D
:105910002353746F704C6564210000002352756E30
:1059200053746F702100000023436F6C6F72536FCC
:105930007274210023436F6C6F72537461636B2127
:10594000000000002350545A436F6C6F7254726110
:10595000636521002346616365547261636B2100B6
:1059600023417072696C746167536F727421000017
:1059700023417072696C746167537461636B2100B9
:1059800023417072696C746167547261636B2100AA
:1059900023417072696C7461674E756D536F7274D8
:1059A00021000000234E756D547261636B2100006D
:1059B0002347617262616765536F7274696E672114
:1059C0000000000038B500250A244FF40040ADF86F
:1059D000000048208DF8030069461F48FCF730F8A6
:1059E0000122D1031C48FCF715F90020FBF7FAFF50
:1059F000012291031848FCF70DF90020FBF7F2FF94
:105A000004E0601EC4B20020FBF7ECFF4FF400413D
:105A10001148FCF7E9F8012801D1002CF1D1002C44
:105A200003DCFEF781FF012038BD00224FF48041E6
:105A30000948FCF7EFF84FF40040ADF800001420DF
:105A40008DF8030003208DF8020069460248FBF739
:105A5000F7FF00BF2846E7E7001001400FB4054BF1
:105A600010B503A9044A029800F0CAF910BC5DF809
:105A700014FB0000056800080C0500200FB4084B5B
:105A800010B504A902AA039800F0BAF9044602A9C5
:105A9000002000F056FB204610BC5DF814FB00000F
:105AA000436100084100080218BF04200A0E18BF15
:105AB00040F001004FF07F4232EA010108BF40F0A0
:105AC0000200012808BF052070470121FBF796BCA2
:105AD000FAF76EBE00210846FAF7F4BE6FF05E01D9
