:020000040800F2
:10000000202B0020050100080D0100080F01000849
:10001000110100081301000815010008000000008C
:1000200000000000000000000000000017010008B0
:1000300019010008000000001B0100080D4B00081A
:100040001F0100081F0100081F0100081F01000810
:100050001F0100081F0100081F0100081F01000800
:100060001F0100081F0100081F0100081F010008F0
:100070001F0100081F0100081F0100081F010008E0
:100080001F0100081F0100081F0100081F010008D0
:100090001F0100081F0100081F0100081F010008C0
:1000A0001F0100081F0100081F0100081F010008B0
:1000B000E54B00081F0100081F0100081F01000890
:1000C0001F0100081F0100081F0100081F01000890
:1000D0001F010008054E0008794E0008A94E0008CF
:1000E0001F0100081F0100081F010008DFF810D0E1
:1000F00000F086FF0048004771770008AFF30080EA
:10010000202B00200648804706480047FEE7FEE710
:10011000FEE7FEE7FEE7FEE7FEE7FEE7FEE7FEE7B7
:100120001D4B0008ED00000840EA01039B0703D0C7
:1001300009E008C9121F08C0042AFAD203E011F826
:10014000013B00F8013B521EF9D27047D2B201E0E8
:1001500000F8012B491EFBD270470022F6E710B5CC
:1001600013460A4604461946FFF7F0FF204610BD25
:10017000421C10F8011B0029FBD1801A704703466E
:1001800011F8012B00F8012B002AF9D1184670470D
:100190000FB400B58DB010A909900B9000914FF0ED
:1001A000FF300A9000200C90054806900548079003
:1001B0006A4609A80F9900F0A7FD0DB05DF814FB81
:1001C000250D0008430D00082DE9FF5F1D464FF087
:1001D000FF3BD5E9014691465F464FF00008A9690B
:1001E0007F1C01988847296A824688470028F6D1F3
:1001F000BAF1FF3F0CD024F4C064002E19DD600674
:1002000014D5BAF12B0F09D0BAF12D0F0ED103E09E
:10021000584604B0BDE8F09F44F48064A9697F1C8F
:1002200001988847761E8246002E02DDBAF1300F13
:1002300003D0B9F1000F26D032E0A969761E44F44C
:1002400000747F1C019888478246002E05DDBAF1B4
:10025000780F06D0BAF1580F03D0B9F1000F10D0C3
:100260001EE0B9F1000F02D0B9F1100F18D1A96941
:10027000761E24F400747F1C019888478246102063
:1002800002E0082000E00A20814609E008FB090896
:10029000A969761E44F400747F1C01988847824641
:1002A000002E05DD4946504600F01AFD0028EDDA23
:1002B000E96901988847A00502D46FF00100A8E71A
:1002C000E00725D1600613D5600502D5C8F100000E
:1002D00000E0404629680A1D2A600968220501D508
:1002E000087015E0220701D5088011E008600FE0D2
:1002F0002868011D29600068210502D580F800806A
:1003000006E0210702D5A0F8008001E0C0F80080D7
:1003100038467EE72DE9FF4F087883B09946FF28DD
:1003200005D0491C2D2804D00024002008E000201E
:100330000BE00124F9E700EB800003EB4000491CCF
:100340000B78FF2BF7D104B14042002302931478BD
:1003500019461D462D2C01D02B2C04D1521C2D2CBE
:1003600013D000240294AA461478FF2C0FD00A253B
:10037000A3FB057801FB05814FF0000C03FB0C117A
:10038000521CE3194AEB0101EEE70124EAE781443C
:1003900053EA010002D019F5C87F06DA039800215C
:1003A000C0E9001107B0BDE8F08F0025AE4E2F4622
:1003B000DFF8B882184600F0B6FDCDE90001B9F1CA
:1003C000000002DAC9F1000400E004460023A74A55
:1003D0001AEB030B42EB045A12E0E00707D02A465F
:1003E00033463846414600F0B4FA074688462A4666
:1003F00033461046194600F0ACFA05460E46641026
:10040000002CEAD1DDE90001B9F1000F5A4653464C
:1004100006DA00F010FB3A46434600F00CFB05E01C
:1004200000F097FA3A46434600F093FA029A0AB16E
:1004300081F00041039AC2E90001B3E72DE9FF4FC3
:100440001F468DB0D7E901464FF0FF382E204546B4
:100450004FF000090B90B9696D1C0E988847396AF6
:10046000824688470028F6D1BAF1FF3F0AD024F42B
:10047000D064002E11DDBAF12B0F08D0BAF12D0F88
:100480000BD102E0404611B08DE744F48064B969B5
:100490006D1C0E9888478246761E6946600501D518
:1004A0002D2000E02B208DF8000001F1010B0DF153
:1004B000200809E0B9696D1C0E98884782460F989C
:1004C00044F40074761E0560002E02DDBAF1300F90
:1004D000F0D00B998A453ED144F0800406E00F9994
:1004E000681CA9F1010944F400740860B9696D1C25
:1004F000761E0E98884782463028F0D02BE00B9964
:100500008A4505D1200603D444F08004761E18E005
:10051000504605F0D9FC08B30DF11301761E44F4E2
:1005200000748B4508D2AAF130000BF8010B2006AD
:1005300007D5A9F1010003E0200602D409F101006A
:100540008146A00502D50F99681C0860B9696D1C29
:100550000E9888478246002ED1DC53E0002E51DDF4
:10056000BAF1650F02D0BAF1450F4BD1A00549D5BC
:10057000B9696D1C24F44074761E0E988847824633
:10058000002E0CDD2B2804D0BAF12D0F07D144F436
:100590008074B9696D1C0E9888478246761EE00506
:1005A00001D52D2100E02B2108F8011BCDF82C806E
:1005B00021E00DF12901761E44F4007488450CD227
:1005C000AAF1300010F0FF0088F8000002D10B996A
:1005D000884509D908F1010806E0E00501D524485D
:1005E00001E042F20F708146B9696D1C0E98884790
:1005F00082460F980560002E04DD504605F064FC2D
:100600000028D6D1F9690E988847FF208BF80000A2
:1006100088F800000020069007904B466A4608A91B
:1006200006A8FFF777FEA00502D46FF001002AE7C5
:1006300014F0240F0AD0E00714D1DDE9061238685F
:10064000031D3B600068C0E900120BE0DDE9060114
:1006500000F0AEFA0146E00704D13868021D3A60A6
:100660000068016028460EE7000014400000F03FDB
:10067000F1D8FFFFF0B480EA0102D40F4200B2EBE0
:10068000410F02D20246084611464A0042D0C30D2D
:10069000DDB2C1F3C752AD1A202D35DAC1F3160110
:1006A00041F4000204B15242C5F1200602FA06F1FB
:1006B0002A411044B3EBD05F23D0C4B1012DA0EB8D
:1006C000C35009DCF0BC4FF0004202EAC352DBB277
:1006D00000F5000000F04FBB400000F1807000EB1F
:1006E000C350A0F1807040EAD170490009E0490888
:1006F00041EAC071A0EBC35000F50000400800EBD8
:10070000C350F0BC00F02EBB6142012202EB41015C
:10071000001BF6E7F0BC704781F00041AAE780F0CB
:100720000040A7E780EA010210B502F00043400054
:1007300022D04A001FD0010E01EB1261C0F3560017
:10074000C2F3560240F4000042F40002A0FB022073
:1007500000047F39140400D0401C50EA124001D438
:100760004000491EC2B20C0604EBD010401C4008E9
:10077000802A02D003E0002010BD20F001000029F3
:1007800000DA0020184310BD30B480EA010202F004
:10079000004530F0004221F0004013D090B1C30D6D
:1007A000D40DC2F31601C0F31600E41A41F400019F
:1007B00040F400027D34914201D3641C00E0490002
:1007C000002C02DA30BC002070474FF400000023F8
:1007D000914201D3891A034340084FEA4101F7D1FE
:1007E00051B1914202D14FF0004105E002D24FF0E9
:1007F000010101E06FF0010103EBC450284430BC5B
:1008000000F0B0BA2DE9FE4F804681EA0300C00F28
:100810000C46009021F0004123F00045B8EB0200A7
:10082000A94105D24046214690461C460B46024649
:1008300023F00040104347D0270DC7F30A00C3F34D
:100840000A510290401A019040286BDAC3F313005A
:1008500040F4801B0098924620B10023D2EB030A9B
:1008600063EB0B0B01985946C0F14002504600F073
:1008700016FA06460D4650465946019A00F01EFAF1
:1008800010EB08006141002487EA115284EAE77303
:100890001A4340D0009A62B3019A012A4FEA0752E4
:1008A00015DC001B61EB02014FF0004202EA075227
:1008B000CDE90042001C41F5801132462B4600F084
:1008C000E4FA03B0BDE8F08F40462146F9E7001B8B
:1008D00061EB0201001C41F5801300185B412018F8
:1008E000A2F5001747EB030140EAD570B6196D4138
:1008F00011E06D084FEA360645EAC0754FEA075227
:10090000001B61EB0201001C41F5801149084FEA10
:1009100030000019514132462B4603B0BDE8F04F7C
:1009200000F0A4BA0098012240000023D0EB02029C
:1009300063EBE073009821464FEAE074B8EB0000E7
:1009400061EB0401E9E783F000435BE781F00041DC
:1009500058E72DE9FE4F81EA030404F0004421F03A
:10096000004100944FF0000B23F0004350EA0104D3
:100970005ED052EA03045BD0C3F30A54C1F30A55B4
:100980002C44A4F2F3340194A0FB0254C1F31301EC
:1009900041F48011C3F3130343F4801301FB0244B9
:1009A00000FB034E840A970A44EA815447EA8357BE
:1009B000A4FB076802958D0A05FB07854FEA932C77
:1009C00004FB0C542705029D4FEA065847EA1637E8
:1009D000B5EB08056EEB070C870E920E47EA811700
:1009E00042EA8312A7FB0201B6EB0B0164EB0004A1
:1009F0002B0D43EA0C335E1844EB1C50DA4651468B
:100A0000E7FB0201C5F313044FEA0B3343EA145327
:100A10004FEA0432019C43EA0603A4F10C04029459
:100A2000009CCDE900B400F030FA03B0BDE8F08FCF
:100A300000200146F9E72DE9F04D81EA030404F0B6
:100A4000004B21F0004514464FF0000A23F000410E
:100A500050EA050220D054EA01021DD0C5F30A571E
:100A60000246C5F31303C1F31300C1F30A5640F461
:100A7000801543F48013A7EB0608101BD64608F236
:100A8000FD3873EB050002D308F1010801E092186C
:100A90005B41B8F1000F03DA00200146BDE8F08D9C
:100AA00000204FF48011064684460EE0171B73EBBE
:100AB000050705D3121B63EB050306434CEA010C43
:100AC00049084FEA300092185B4150EA0107EDD126
:100AD00052EA030012D082EA040083EA05010843C7
:100AE00005D0101BAB4106D20122002306E00022F4
:100AF0004FF0004302E06FF0010253101AEB0600C2
:100B00004CEB085110EB0A0041EB0B01BDE8F04D36
:100B100000F0ACB9C10F80EAE0700844CA07962320
:100B2000002100F028B996230022114600F023B9D5
:100B300000F0004220F00040C10DC0F3160040F468
:100B400000007F2901DA00207047962903DCC1F1FB
:100B50009601C84001E096398840002AF4D040420E
:100B6000704720F00040C10DC0F3160040F40000B3
:100B70007F2901DA00207047962903DCC1F1960134
:100B8000C840704796398840704700F0004230F006
:100B900000400AD0C10D01F56071C0F3160042EAB1
:100BA0000151C208400711437047002001467047B9
:100BB00001F0004330B421F0004150EA010206D0B8
:100BC0000A0DA2F56072C1F31301002A02DC30BCE9
:100BD00000207047440F44EAC104C100E01830BC53
:100BE00000EBC25000F0BEB8002801DBC0F10040AD
:100BF000002901DBC1F1004181427047002801DB7F
:100C0000C0F10040002901DBC1F10041884270477A
:100C100030B50B46014600202022012409E021FACC
:100C200002F59D4205D303FA02F5491B04FA02F5C9
:100C30002844151EA2F10102F1DC30BD2DE9F05F60
:100C40000546002092469B4688460646814640243B
:100C50001BE0284641464746224600F0E3F953464A
:100C60005A46C01A914110D311461846224600F048
:100C700016F82D1A67EB01084F4622460120002185
:100C800000F00DF817EB00094E41201EA4F10104FD
:100C9000DFDC484631462A464346BDE8F09F202A1D
:100CA00004DB203A00FA02F1002070479140C2F1C3
:100CB000200320FA03F3194390407047202A06DBF3
:100CC000CB17203A41FA02F043EAE07306E041FA1A
:100CD00002F3D040C2F12002914008431946704708
:100CE0003A2800D2303820F02002412A01D3A2F164
:100CF0003700884201D34FF0FF307047026811443B
:100D00001378016018467047D16004495161044965
:100D1000116200211161114600F09AB9FD0C000822
:100D200045100008426842B1016811F8013B23B147
:100D3000521EC0E90012184670470121C160881E8A
:100D4000704742685AB1C368016843B983688B42EF
:100D500005D0491E521CC0E90012002070474FF018
:100D6000FF3070470029A8BF7047401C490008BFEA
:100D700020F00100704710B4B0FA80FC00FA0CF0CB
:100D800050EA010404BF10BC704749B1CCF1200403
:100D900021FA04F411FA0CF118BF01212143084390
:100DA000A3EB0C01CB1D4FEA00614FEA102042BFBC
:100DB000002010BC704700EBC35010440029A4BFB2
:100DC00010BC7047401C490008BF20F0010010BC57
:100DD0007047F0B4002802DCF0BC00207047C0F37C
:100DE000C751C0F3160040F40000CA0701D140000B
:100DF000491E3F2202EB6105002211464FF4000616
:100E000026FA01F31344D418844201D8001B1A4671
:100E10004000491C1729F3DD5100814202D24FF0F6
:100E2000FF3100E0002102EBC550F0BCFFF79ABF94
:100E300010B541000CD0C0F3C751962908DC7E29BB
:100E400009DC06DB410204D000F0004040F07E5097
:100E500010BD002010BDC1F19604C4F1200100FABC
:100E600001F1E040FFF77EFFA04010BD10B5141E59
:100E700073F1000408DA401C41F1000192185B4153
:100E80001A4301D120F0010010BD2DE9F04D92462A
:100E90009B4611B1B1FA81F202E0B0FA80F2203241
:100EA0009046FFF7FCFE04460F4640EA0A0041EA7E
:100EB0000B0153465A46084313D0114653EA01002A
:100EC00019D0C8F14002504600F0ACF805460E4675
:100ED000504659464246FFF7E2FE084305D001203E
:100EE00004E020463946BDE8F08D0020054346EA7F
:100EF000E0762C4337430A986305E40AA0EB080028
:100F00000022FD0A44EA47540A3002D50020014677
:100F1000E9E7010510196941DDE908450019694152
:100F2000BDE8F04DA2E70EB540F233420292002236
:100F3000CDE900221346FFF7A8FF03B000BDC1F3BF
:100F40000A52C1F3130140F2FF3341F480119A4277
:100F500002DA00200146704740F233439A42A2F27F
:100F6000334202DC524200F05DB8FFF798BE000049
:100F700030B5041E71F1000404DB4FF00044404220
:100F800064EB0101141E73F1000405DB1C464FF0F5
:100F90000043524263EB0403994208BF904230BDC4
:100FA00070B5044601F000450020054304D14FF020
:100FB0000045644265EB010103F00045284305D17B
:100FC00018464FF00043524263EB0003101B73EBD3
:100FD000010002D24FF0004009E082EA040283EAF5
:100FE00001034FF000501A4301D14FF0C0404FEAC7
:100FF0002062EFF3008162F31F6181F3008870BD0E
:10100000064C074D06E0E06840F0010394E8070055
:1010100098471034AC42F6D3FFF76CF87C8B00088D
:101020009C8B0008202A04DB203A21FA02F00021E0
:10103000704721FA02F3D040C2F1200291400843E8
:1010400019467047C0B24FF4F05100F0A5B9000046
:101050002DE9F34F8BB04FF0000801F10C000C4666
:101060004FF0010B46460DF1080A0190626901211B
:1010700001989047051E2DD0252D2CD0216A884738
:10108000C0B16269012101989047216A8847002810
:10109000F7D1411E62690198904700E0761CA16972
:1010A0000B988847216A88470028F7D1E1690B9897
:1010B0008847DBE7A1690B9888470746A84201D11A
:1010C000761CD3E7E1690B9888477F1C02D1B8F101
:1010D000000F6FD047E1002762693D46394601980D
:1010E00090472A2804D1626901210198904701257F
:1010F000DFF888926269012101989047A0F13001E0
:101100000A290AD24F45E5DC07EB870100EB4107CE
:10111000303FDFD445F01005ECE7E90601D46FF06D
:1011200000476C280AD04C2814D0682815D06A28AB
:101130000DD074281CD07A281AD01DE062690121D4
:10114000019890476C2802D045F0040514E045F062
:1011500002050DE045F020050AE0626901210198D1
:101160009047682802D045F0080505E045F4006581
:101170006269012101989047C4E9015765283DD073
:1011800019DC58287AD00CDC452837D004DC252817
:1011900026D0412831D131E046282FD047282CD104
:1011A0002CE05B2877D0612828D063287CD0642885
:1011B00023D15AE0D1E06F2848D008DC66281DD042
:1011C00067281BD0692821D06E2816D127E0702807
:1011D00045D0732868D0752847D078280DD14DE0C8
:1011E000A1690B988847054625283FF469AFE16956
:1011F0000B9888476D1C3FF46AAFB4E023466A46FB
:101200006FF001000B99FFF719F99FE045F04000DE
:101210006060A80723464FF0000236D43EE0E8079E
:101220007FF447AF2068011D21600068290501D5C2
:1012300006701BE7290701D5068017E7A90703D524
:10124000F117C0E9006111E706600FE745F04000C3
:101250006060A80723464FF0080216D41EE040F64F
:101260000E0125EA0100606016E045F04000606074
:10127000A80723464FF00A0207D40FE045F04000CC
:101280006060A80708D5234610226FF001000B9973
:10129000AFF300805AE007E0234610226FF0010010
:1012A0000B99FEF791FF51E04FF000094F464B4676
:1012B000632802D05B2807D041E02079C00601D422
:1012C0000120A06001273AE062690121019890475E
:1012D0005E2805D14FF0010962694946019890479F
:1012E000216939B900210A46534643F82120491C97
:1012F0000829FADBB0B3216969B9C11700EBD162E3
:1013000053110AEB830122F01F02821A01200B689D
:10131000904003430B6062690121019890475D286A
:10132000E8D1B9F1000F09D00020514651F8202032
:10133000D24341F82020401C0828F7DB02AB2246AC
:1013400000976FF001000B99AFF3008000280CDAD2
:10135000401C08D1BBF1000F05D04FF0FF300DB09D
:10136000BDE8F08FFFE74046F9E7E90701D108F152
:10137000010806444FF0000B78E60000CCCCCC0C02
:10138000420005D0C0F3C7525242914201DC002016
:10139000704700EBC15070477F2801D9002208E058
:1013A000064A02EB5002C007127800D1120902F07F
:1013B0000F0201209040084070470000B4880008E8
:1013C00070B58C1810F8015B15F0070301D110F807
:1013D000013B2A1106D110F8012B03E010F8016B34
:1013E00001F8016B5B1EF9D12B0705D40023521EB7
:1013F0000DD401F8013BFAE710F8013BCB1A921C1F
:1014000003E013F8015B01F8015B521EF9D5A1421C
:10141000D8D3002070BD21B1826842F00102826001
:1014200003E0826822F001028260704701460020DA
:101430008A6802F004020AB1012000E0002070472F
:101440000146C86C80B270470246002013680B400A
:101450000BB1012000E000207047014600208A689F
:1014600002F008020AB1012000E0002070470000ED
:1014700030B502460020002350680F4C20400D7903
:101480000C6844EA05242043506090680B4C2040CF
:10149000D1E902542C434D7944EA4504204390603D
:1014A000D06A20F470000C7C641EE4B2234340EA4E
:1014B0000350D06230BD0000FFFEF0FFFDF7F1FFEA
:1014C00000B587B000F0B0FD00F09AFD01210420C6
:1014D00002F076FB0121480202F072FB4120ADF8D8
:1014E000180000208DF81B0006A9194800F006FB23
:1014F000002001908DF8080001208DF809004FF4BC
:10150000602003900020049001208DF8140001A9B0
:101510001048FFF7ADFF4FF4004002F015FB01212A
:101520000C48FFF778FF0B4800F072F800BF09483D
:10153000FFF793FF0028FAD1064800F079F800BFC2
:101540000448FFF773FF0028FAD107B000BD000080
:101550000008014000240140F0B504460D4600207B
:101560000021092D11DDE068A5F10A0606EB46070A
:10157000072606FA07F18843A5F10A0606EB460698
:1015800003FA06F10843E0600CE0206905EB45072B
:10159000072606FA07F1884305EB450603FA06F12C
:1015A00008432061072A0FDA606B561E06EB860798
:1015B0001F2606FA07F18843561E06EB860605FA33
:1015C00006F10843606322E00D2A0FDA206BD61F74
:1015D00006EB86071F2606FA07F18843D61F06EB9F
:1015E000860605FA06F10843206310E0E06AA2F1DE
:1015F0000D0606EB86071F2606FA07F18843A2F1BF
:101600000D0606EB860605FA06F10843E062F0BD1A
:10161000816841F008018160704721B1826842F41D
:10162000A002826003E0826822F4A0028260704718
:10163000816841F00401816070470000F0B593B00B
:1016400000F0EAFE58490968401A322801D213B066
:10165000F0BD00F0E1FE54490860012002F00EFEEA
:1016600001F0DAFE00B9F2E7504800785049C97835
:10167000884205D14D4840784D49097988420BD0C0
:101680004B484178C01C01F0E7F84948C078474909
:101690000870474800794870002008E0411D444A1E
:1016A000515C803949B212AA1154411CC8B20428B5
:1016B000F4DB00240AE012A9085704F0A1FF08286F
:1016C00002DC002012A90855601CC4B2042CF2DB15
:1016D0009DF94B004042282190FBF1F005B29DF9A5
:1016E0004A00404290FBF1F006B29DF9490090FBA0
:1016F000F1F007B22F48006828442E4908602E48B0
:10170000006830442C4908602C48006838442B4954
:1017100008602848006810F1C80F04DA6FF0C700AD
:101720002449086006E023480068C82802DDC82074
:10173000204908602048006810F1C80F04DA6FF0F3
:10174000C7001D49086006E01B480068C82802DD84
:10175000C8201949086019480068002803DA0020E9
:101760001649086006E015480068C82802DDC82050
:101770001249086045EA0600384390B10F480068F6
:1017800000900D4803680B480DA1026802A804F000
:10179000D9F902A90FA004F0C5F902A801F000FBD5
:1017A00000BF00BF53E70000980400209C04002005
:1017B000041700204C040020500400205404002092
:1017C000244B4D533A25642C25642C25642C313050
:1017D0003030210025730D0A0000000008B50121FA
:1017E000042002F0EDF90820ADF8000010208DF87B
:1017F000030003208DF802006946044800F07EF9DA
:101800000821024800F060FA08BD0000000801400D
:1018100070B504460D4600260EE00821084800F089
:1018200055FAA0B200F02CF90821054800F04CFA56
:10183000A0B200F025F9761CAE42EED370BD0000D8
:101840000008014038B5054600F0E6FD1D4909686D
:10185000401AA84200D238BD00F0DEFD19490860E8
:1018600019480078012806D11848007800B9F2E735
:1018700000201549087001236A461521A42000F0B4
:101880002CFAE0B9002417E004EB44101049085C7E
:101890009DF8001088420ED10321C820FFF7B8FF41
:1018A00004EB44110A4A1144481C01F053FD012085
:1018B0000549087002E0641C032CE5D300BF00BF9B
:1018C000C9E70000AC040020AA0400202C0400207A
:1018D000287B000821B1026842F00102026004E0A6
:1018E00002684FF6FE731A400260704701684FF6B7
:1018F000FE72114001600021016041608160C160A1
:101900004B49884208D14A490839496841F00F01DA
:10191000474A083A51608AE045491431884208D163
:1019200043490839496841F0F001414A083A516099
:101930007DE03F492831884208D13D49083949684E
:1019400041F470613A4A083A516070E038493C31DC
:10195000884208D136490839496841F47041344A0F
:10196000083A516063E032495031884208D1304929
:101970000839496841F470212D4A083A516056E00F
:101980002B496431884208D129490839496841F412
:101990007001274A083A516049E025497831884268
:1019A00008D123490839496841F07061204A083A52
:1019B00051603CE01F49884206D1011F096841F08F
:1019C0000F01021F116032E01A491431884208D118
:1019D0001849091F096841F0F001164A121F1160E9
:1019E00025E014492831884208D11249091F0968A5
:1019F00041F470610F4A121F116018E00D493C312B
:101A0000884208D10B49091F096841F47041094A0D
:101A1000121F11600BE007495031884207D1054978
:101A2000091F096841F47021024A121F11607047B2
:101A300008000240080402400146486880B270472E
:101A400010B50022026847F6F0739A430C6A8B685F
:101A500023430C6923434C6923438C692343CC699A
:101A600023434C6A23438C6A23431A430260CB68A6
:101A700043600B6883604B68C36010BD4160704772
:101A800018B504460020009006E04FF47A7000F08C
:101A900007F80098401C00900098A042F5D318BDAC
:101AA0000CB5002101910BE00B21009102E000999F
:101AB000491E009100990029F9D10199491C019111
:101AC00001998142F0D30CBD10B504464FF48061FA
:101AD0000848FEF742FB21024FF48072054802F0ED
:101AE00009FE044800F011F903490860014800F0BC
:101AF000C3FF10BD040B0020440400202DE9F04179
:101B0000024600250026002000230024002791F82B
:101B100003C00CF00F0591F803C00CF0100CBCF1E1
:101B2000000F03D091F802C04CEA050591F800C0FF
:101B3000BCF1000F31D0146800202BE04FF0010CF5
:101B40000CFA00F3B1F800C00CEA03069E4220D163
:101B500083004FF00F0C0CFA03F7BC4305FA03FCAB
:101B60004CEA040491F803C0BCF1280F06D14FF0F1
:101B7000010C0CFA00FCC2F814C00AE091F803C092
:101B8000BCF1480F05D14FF0010C0CFA00FCC2F873
:101B900010C0401C0828D1D31460B1F800C0BCF1BB
:101BA000FF0F34DD546800202EE000F1080C4FF0E8
:101BB000010808FA0CF3B1F800C00CEA03069E42D3
:101BC00021D183004FF00F0C0CFA03F7BC4305FA48
:101BD00003FC4CEA040491F803C0BCF1280F05D1C2
:101BE00000F1080C08FA0CF8C2F8148091F803C050
:101BF000BCF1480F07D100F1080C4FF0010808FABA
:101C00000CF8C2F81080401C0828CED35460BDE800
:101C1000F0810000F0B50A460023002400210025D1
:101C200000F00046B6F1004F02D11D4EF16901E00F
:101C30001B4E7168C0F3034583B200F44016B6F53D
:101C4000401F08D121F07061154E766826F070664D
:101C5000134F7E6012E000F48016B6F5801F06D1A7
:101C6000032606FA05F4A14341F0706106E0460D33
:101C7000360103FA06F6B14341F0706122B1460D18
:101C8000360103FA06F6314300F00046B6F1004F84
:101C900002D1034EF16101E0014E7160F0BD000020
:101CA000000001400246002093680B400BB1012068
:101CB00000E00020704702460020D3680B400BB1C3
:101CC000012000E0002070474161704701617047CA
:101CD0000AB1016100E0416170472DE9F04104461D
:101CE0000D4616461F4660103B463246294602F016
:101CF00071FBBDE8F08137B504460D46012302AA09
:101D00002946204602F0A1FB3EBD70B502460021E7
:101D10000020002323E0545C542C1ED14C1C145D85
:101D2000303C4FF47A756C438D1C555D303D05EBAE
:101D3000C50606EB051504EB8505CC1C145D303C8F
:101D400004EB840405EB44050C1D145D303C2B1999
:101D5000834200DD1846091D01E0491C00BF545CA8
:101D6000002CD8D170BD000070B5044600250523B5
:101D7000012221460E48FFF7EFFB002610E001216B
:101D80000B48FFF74AFC00BF02210948FFF75CFB44
:101D90000028F9D00648FFF753FB0544701CC6B273
:101DA0001E2EECDB05F10F001E21B0FBF1F070BD23
:101DB000002401402DE9F04704460025002624B9FF
:101DC0000020FFF7D1FF054603E00620FFF7CCFF18
:101DD00005462846FEF79EFE81460749FEF7D4FCDD
:101DE00080460649FEF79EFC0746FEF7A1FE064622
:101DF0003046BDE8F087000000F07F450000C84293
:101E00002DE9F0410020FFF7D5FFC4B20120FFF714
:101E1000D1FFC5B20F265527552D02DB0320BDE8A3
:101E2000F0810F2D01DC0420F9E70F2C01DC0220EA
:101E3000F5E7552C01DB0120F1E70020EFE700007A
:101E400010B500F0E9FA5A490968401A322800D260
:101E500010BD00F0E1FA56490860FFF7D1FF0446D3
:101E6000052C39D2DFE804F00304101E2A0033E009
:101E700050480068401D4F49086008460068FA282D
:101E800001DDFA20086027E04A480068401F494900
:101E900008600846006810F1FA0F02DA6FF0F900E6
:101EA000086019E044480068401D4349086008463E
:101EB0000068FA2801DDFA2008600DE03E4800685D
:101EC000401F3D4908600846006810F1FA0F02DA29
:101ED0006FF0F900086000BF00BF3748036835485D
:101EE00036A102683C4803F02DFE3B4800F058FF45
:101EF0003A4800783A490978884200D1A8E737483B
:101F000000783749087035480078012825D12A48DB
:101F10000368284833A102682F4803F013FE2E48B7
:101F200000F03EFF4FF47A70FFF7AAFD4FF47A728B
:101F300040F2D661052001F0ADFC4FF47A70FFF756
:101F40009FFD1D4803681B481CA10268224803F03E
:101F5000F9FD214800F024FF28E0204800780228FD
:101F600024D11548036813481EA102681A4803F0DB
:101F7000E9FD194800F014FF4FF47A70FFF780FD77
:101F80004FF47A7240F21451052001F083FC4FF4B3
:101F90007A70FFF775FD08480368064807A10268D4
:101FA0000D4803F0CFFD0C4800F0FAFE00BF4FE7EC
:101FB000BC040020C0040020C4040020244B4D5366
:101FC0003A253033642C253033642C3130302C31B9
:101FD000303030210D0A00003C050020A90400200B
:101FE000C8040020244B4D533A253033642C25304F
:101FF00033642C352C31303030210D0A00000000C4
:1020000008B50121102001F0DBFD4FF40050ADF8C0
:10201000000048208DF8030069460248FFF76EFD76
:1020200008BD00000010014008B50121042001F0A6
:10203000C7FD4FF40060ADF8000010208DF80300DC
:1020400003208DF8020069460448FFF757FD4FF45E
:1020500000610248FFF73AFE08BD00000008014099
:1020600008B50121082001F0ABFD0420ADF8000007
:1020700028208DF8030069460148FFF73FFD08BDA1
:10208000000C014008B50121042001F099FD4FF436
:102090000040ADF8000010208DF8030003208DF8FB
:1020A000020069460448FFF729FD4FF40041024849
:1020B000FFF70CFE08BD00000008014070B50446A3
:1020C00000F0AAF90C490968401AA04200D270BD7C
:1020D00000F0A2F9084908604FF400410748FFF7F3
:1020E000EAFDC0F10100C5B22A464FF400410348A1
:1020F000FFF7EEFD00BFEAE70C04002000080140F6
:1021000010B500F089F916490968401A0A2800D26A
:1021100010BD00F081F912490860124800780128CA
:1021200006D0022809D003280AD0042814D110E0D0
:102130004FF47A70FFF786FB0FE0FFF781FE0CE0AB
:1021400009480078012803D14FF47A7003F0CCFAE3
:1021500003E002F0BFF900E000BF00BF00BFD7E717
:1021600020040020080400200904002010B500F01D
:1021700053F92B490968401A0A2800D210BD00F013
:102180004BF9274908602748007827490978884291
:1021900000D1F3E7234800782349087021480078EC
:1021A000042805DC21A005F049FC20A005F030FC46
:1021B0001C480078401F0A282ED2DFE800F00509ED
:1021C0000D1115191D2125291BA005F037FC24E050
:1021D0001CA005F033FC20E01EA005F02FFC1CE045
:1021E00020A005F02BFC18E021A005F027FC14E04E
:1021F00023A005F023FC10E025A005F01FFC0CE057
:1022000027A005F01BFC08E02AA005F017FC04E05D
:102210002BA005F013FC00E000BF00BF00BFADE73E
:102220002404002008040020280400202352756E96
:1022300053746F702100000023436F6C6F72536FF3
:102240007274210023436F6C6F72537461636B214E
:10225000000000002350545A436F6C6F7254726137
:10226000636521002346616365547261636B2100DD
:1022700023417072696C746167536F72742100003E
:1022800023417072696C746167537461636B2100E0
:1022900023417072696C746167547261636B2100D1
:1022A00023417072696C7461674E756D536F7274FF
:1022B00021000000234E756D547261636B21000094
:1022C0002347617262616765536F7274696E67213B
:1022D0000000000010B52F480078002855D100F00C
:1022E0009BF82D490968401A2C49096888424FD942
:1022F00000F092F8284908602948006848B1294848
:10230000006830B901202349087027A005F080FB40
:1023100010BD28480068FFF7D7FB27480068274909
:102320000968884218DA2348006824490968884205
:102330000CD1214800681F4908601948006820B185
:1023400018480068401E17490860E1E7194800680E
:10235000401C184908601BE01648006817490968C6
:1023600088420CD114480068124908600C48006883
:1023700020B10C480068401E0A490860C8E70D48B3
:102380000068401E0B49086002E00A20034908600B
:1023900000BFBDE72C0400204804002044040020B6
:1023A00040040020340400204047726F7570446F71
:1023B0006E65210030040020380400203C04002019
:1023C00010B51248008800B311480078012806D0E3
:1023D00002280BD003280AD0042810D10BE00D48A6
:1023E00000F0B8FF0B4800F0DBFC08E000BF094834
:1023F00000F042FB03E0074801F002FE00BF00BF0F
:102400000020034908700149088010BDD80400204D
:10241000DA040020040B0020014800687047000027
:10242000E804002070B5002100230F22C47804B313
:10243000154C246804F4E064C4F5E064210AC1F199
:102440000403CA40447804FA03F184781440214319
:1024500009010E4C0678A155047804F01F050124EB
:10246000AC4005786D11AD0005F1E025C5F80041DF
:1024700009E0047804F01F050124AC40044D0678FF
:10248000761145F8264070BD0CED00E000E400E058
:1024900080E100E070B5002419E004F1B001C8B299
:1024A000002100F05DF90021084600F059F90021F3
:1024B000102000F055F9002505E00121002000F072
:1024C0004FF9681CC5B2802DF7DB601CC4B2082C24
:1024D000E3DB70BD10B56420FFF7D2FA0021AE2017
:1024E00000F03EF90021084600F03AF900211020E2
:1024F00000F036F90021402000F032F90021B02030
:1025000000F02EF90021812000F02AF90021FF209F
:1025100000F026F90021A12000F022F90021A620D8
:1025200000F01EF90021A82000F01AF900213F2038
:1025300000F016F90021C82000F012F90021D32084
:1025400000F00EF90021084600F00AF90021D5201C
:1025500000F006F90021802000F002F90021D820C7
:1025600000F0FEF80021052000F0FAF80021D92043
:1025700000F0F6F80021F12000F0F2F80021DA2056
:1025800000F0EEF80021122000F0EAF80021DB2034
:1025900000F0E6F80021302000F0E2F800218D2064
:1025A00000F0DEF80021142000F0DAF80021AF205E
:1025B00000F0D6F810BD00002DE9F05F074689460F
:1025C00015462846FDF7D4FD834600245BE0285DD0
:1025D0007F2809DC2A5D10234946384600F070F850
:1025E00007F10800C7B24DE0285D7F284ADD601C76
:1025F000285C295D40EA012A002640E006EB06102F
:10260000234931F81000504538D14946384600F08A
:1026100041F84FF000080EE006EB06111C4A02EBF1
:102620004101891C11F80800012100F099F808F116
:10263000010000F0FF08B8F1100FEDDB09F1010017
:10264000C1B2384600F026F84FF010080EE006EB55
:1026500006110F4A02EB4101891C11F80800012103
:1026600000F07EF808F1010000F0FF08B8F1200F3B
:10267000EDDB07F11000C7B2641C02E0761C242ECB
:10268000BCD300BF641C5C45A1D3BDE8F09F000033
:10269000A483000870B504460D4605F1B001C8B228
:1026A000002100F05DF8102141EA1410002100F033
:1026B00057F804F00F00002100F052F870BD000040
:1026C0002DE9F04107460D4614469846A4F1200036
:1026D000C4B27F2F02DD0027A81CC5B2B8F1100FCD
:1026E00025D129463846FFF7D5FF002608E006EB3E
:1026F0000411194A505C012100F032F8701CC6B276
:10270000082EF4DB681CC1B23846FFF7C3FF002671
:102710000AE0082101EB041131440F4A505C012109
:1027200000F01EF8701CC6B2082EF2DB12E029463B
:102730003846FFF7AFFF00260AE004EB4401074AE2
:1027400002EB4101885D012100F00AF8701CC6B25D
:10275000062EF2DBBDE8F081B47D00088C7B00081A
:1027600013B50C4634B101236A4640213C2001F0E8
:102770006CFE05E001236A4600213C2001F065FE65
:102780001CBD000000B587B0D0222749274801F0C2
:10279000B1FF2648D0F8CC0025280BD0002007E058
:1027A00040F2DC522149AC3141F82020411CC8B232
:1027B0000828F5DB1D48D0F8C8001C49D1F8C41022
:1027C0001A4AD2F8C020194BD3F8BC30CDE90232F6
:1027D000CDE904101548D0F8B8001449D1F8B41068
:1027E000CDE900101148D0F8B03011A1D0F8AC20DC
:1027F000184803F0A7F9174805F00AF90B48D0F874
:10280000A80025280ED0002006E0002207498831C4
:1028100041F82020411CC8B20828F6DB25210348D6
:10282000C0F8A81007B000BD00F87F003C090020E8
:10283000696E69745F706F733A25642C25642C256A
:10284000642C25642C25642C25642C25642C25649B
:102850000D0A00003C0500202DE9F04107460E4618
:1028600000257878397800EB01207749088077488F
:102870000088098888427CD07348008874490880A1
:10288000714800887149098808406F490880002410
:10289000D1E00120A0406C4909880840002869D196
:1028A0000120A040694909880840002871D04FF4F0
:1028B00080616848FDF751FC732E0DD1664951F8CF
:1028C0002400FDF755FC8046634850F8241042462A
:1028D0006048FDF729FC02E0412E00D0A9E05FA18D
:1028E0005C4802F0BDF8C5B21DB10021681E594A0E
:1028F00011545BA1574802F0B3F8F0B1002240F246
:102900002551584802F0C7FB00205749088051491B
:102910000B315648FDF733FC54494E48FDF72FFC68
:10292000012051490880012240F225514D4802F012
:10293000B2FB01204E49087025E04EA1454802F047
:102940008FF800B3002240F22551464802F0A3FB65
:102950000020454908803F490B314448FDF70FFCF2
:1029600042493C48FDF70BFC01203F490880012209
:1029700001E067E05CE040F225513A4802F08BFB51
:1029800002203B4908704FF6FF70304908804FE045
:10299000FFE74FF480612F48FDF7DFFB732E0DD169
:1029A0002D4951F82400FDF7E3FB80462A4850F8F2
:1029B000241042462748FDF7B7FB02E0412E00D025
:1029C00037E026A1234802F04BF8C5B285B3214970
:1029D000481923A102F044F890B11E484119234838
:1029E000FDF7CDFB2148FDF7C3FB401E1F49002228
:1029F0000A541848FDF7C3FB164800F0D1F917E058
:102A0000144948191BA102F02BF888B1114841194B
:102A10001648FDF7B4FB1548FDF7AAFB401E134905
:102A200000220A540B48FDF7AAFB0A4800F024F8DC
:102A300000BF601CC4B2102CFFF62BAF0448008806
:102A400002490880BDE8F081A00400209E04002017
:102A5000A2040020040B0020580400205E000000A7
:102A60002400000000380140D80400203C0500206C
:102A7000DA040020230000002DE9FC5F0446002654
:102A8000204602F0D3FE207823287DD120795028DB
:102A9000FBD160795328F8D1A0794328F5D1E079AA
:102AA0004B287FD1207B21287CD16078303864216D
:102AB0004843A178303901EB810100EB4101E07816
:102AC0003038084485B2607A303864214843A17AAE
:102AD000303901EB810100EB4101E07A30380F1809
:102AE00017F1640F56DB642F54DC082D52DA207A7C
:102AF0002B281CD13846FEF70DF89949019051F862
:102B00002500FEF707F80090964800EB0510416895
:102B10000098FDF704FE83460199FDF7ABFD91494E
:102B200001EB051148608E4840F825701FE0207ABF
:102B30002D281CD13846FDF7EDFF8949019051F849
:102B40002500FDF7E7FF0090864800EB051041687F
:102B50000098FDF7E4FD83460199FDF7DDFD81490D
:102B600001EB0511486079427D4840F825107D4908
:102B700001EB05114868FDF7F4FF7A4901EB0511F7
:102B800008807948774900E00CE001EB0511886086
:102B900001F0E2F9022001F071FB214673A002F07E
:102BA000C1FF23E02078232820D1207950281DD18F
:102BB000607944281AD1A079532817D1E079542894
:102BC00014D1207A212811D160783038642148430B
:102BD000A178303901EB810100EB4101E078303818
:102BE0000D18E8B200F028FEBDE8FC9F2046FDF776
:102BF000BFFA8146ACE0A05D232813D10025701CEC
:102C000086B208E0A05D05EB850100EB410030389D
:102C100085B2701C86B2A05D0028EBD0A05D502864
:102C2000E8D0EFE7A05D50281ED14FF0000A701CDD
:102C300086B212E0A05DFDF776FF4D490190504647
:102C4000FDF770FD00900199FDF714FD8346494999
:102C5000FDF762FD8246701C86B2A05D002877D029
:102C6000A05D542874D0E5E7A05D54286ED14FF0E4
:102C70000008701C86B209E0A05D08EB880100EB3B
:102C8000410030381FFA80F8701C86B2A05D10B188
:102C9000A05D2128F0D1052D0DD137495046FDF713
:102CA000ADFF01D8DFF8D0A034495046FDF79CFFB6
:102CB00001D8DFF8C8A0032D06D131495046FDF7F1
:102CC0009DFF01D8DFF8B8A0022D0DD12D49504647
:102CD000FDF794FF01D8DFF8ACA02B495046FDF773
:102CE00083FF01D8DFF8A0A0012D0DD12549504662
:102CF000FDF784FF01D8DFF88CA023495046FDF78B
:102D000073FF01D8DFF880A0154951F82500FDF7C1
:102D100001FF83465146FDF7ADFC82465046FDF764
:102D200007FF8346E8B24246594600F0B3FD022051
:102D300001F0A4FA5046FDF714FF1FFA80FB43464A
:102D40005A46294611A002F0EDFE01E0701C86B241
:102D5000A05D10B1B145BFF64EAF00BF44E7000023
:102D6000C4090020240A00206F12833A2573000052
:102D700000002041000040420080ED440080A24459
:102D80000080D444004003450000614423253033D3
:102D90006450253034645425303464210000000030
:102DA000F0B58FB00746002400200E900D900C90D7
:102DB0000B900A9009900890DCA1384601F050FE73
:102DC00004464CB1012001F059FADAA002F0AAFE43
:102DD000FF2000F031FDA6E1D9A1384601F040FE08
:102DE00004468CB10120D849087001F047FAD7A0F9
:102DF00002F098FED9A002F0EDFBFF2000F01CFDD0
:102E0000FF20D94908708EE1D8A1384601F028FE8C
:102E10000446C4B10EAAD7A13846FDF7B9F9002877
:102E2000D9D00E99C8B200F007FDD5A1D8480E9AA6
:102E300002F088FED64802F0CDFB4FF48061D44802
:102E4000FDF78BF96FE1D3A1384601F009FE044686
:102E500014B101F027FB66E1D0A1384601F000FE75
:102E600004466CB10DAACFA13846FDF791F90028B0
:102E7000B1D00120B44908700D98FEF725FE52E14B
:102E8000CBA1384601F0ECFD04464CB3CA48CB4B0D
:102E9000CB4ACCA100903846FDF77AF900289AD0A9
:102EA000012001F0EBF9CBA002F03CFE0120A64985
:102EB0000870C3480068C149096888420BD0C048FF
:102EC0000068C7490860BC480068C649086000201F
:102ED0009D49087027E1BA480068FEF7F5FD22E138
:102EE000C1A1384601F0BCFD04466CB1C0A002F09F
:102EF00071FB4FF4FA6240F2DC51FF2000F0CAFC93
:102F0000FF20994908700EE1BDA1384601F0A8FDE7
:102F10000446ACB10DAABCA1BE48FDF739F90028A2
:102F200090D091490D9808700D9810B9BAA002F090
:102F300051FB0D98022885D1BBA002F04BFBF2E0BB
:102F4000BDA1384601F08CFD044634B1012001F0EA
:102F500095F9BBA002F0E6FDE5E0A9A1384601F035
:102F60007FFD044694B10DAAA7A1AA48FDF710F968
:102F7000002884D00D9810B9A7A002F02BFB0D9863
:102F80000228A7D1A8A002F025FBCCE0ADA13846CD
:102F900001F066FD0446F4B10A20FEF771FDADA014
:102FA000FFF76AFD0A20FEF76BFD012001F066F9CC
:102FB000ABA002F0B7FD022001F060F9A8A002F07A
:102FC000B1FD0A20FEF75CFDADA002F0ABFD0A20CA
:102FD000FEF756FDA7E0ACA1384601F041FD0446DE
:102FE000002C4AD00AA80BA90CAB0DAACDE9001001
:102FF000A7A13846FDF7CCF8002884D0A9A004F09A
:1030000007FD1822AD4902A8FDF78EF80D98FDF7CF
:1030100081FD02900C98FDF77DFD03900B98FDF764
:1030200079FD0490A64902A803F0E6FD0646FEB924
:10303000A4A002F077FD002503E0012001F01EF9B5
:103040006D1C052DF9DB03F0E3FA00250DE00A986D
:103050000090A14850F825302A46A0A14C4802F023
:1030600071FD4B48FFF708FD6D1C052DEFDB03E0FC
:1030700031469FA002F056FD55E0A5A1384601F06B
:10308000EFFC0446B4B108A809AB0EAAA2A10090B7
:103090003846FDF77DF8002845D0012001F0EEF814
:1030A000A2A002F03FFD0E99C8B2DDE9082100F0B0
:1030B00007FD38E028A1384601F0D2FC044694BB55
:1030C0009EA1384601F0CCFC044664B3012001F017
:1030D000D5F89CA002F026FD08219D48FEF7F6FDDC
:1030E0001E20FEF7CDFC08219948FEF7EDFD1E20BD
:1030F000FEF7C6FC08219648FEF7E8FD1E20FEF705
:10310000BFFC08219248FEF7DFFD1E20FEF7B8FC49
:1031100008218F48FEF7DAFD1E20FEF7B1FC0821DA
:103120008B48FEF7D1FD0FB0F0BD00002444525390
:103130002100000068656C6C6F20776F726421005D
:1031400024445354210000002C0400205061727369
:10315000655F436D64204F4B0000000024445354CE
:1031600021204F4B00000000A404002024445354AD
:103170003A000000244453543A2564210000000022
:10318000232530336450445354210D0A00000000BD
:103190003C0500202452535421000000244447538E
:1031A0003A000000244447533A25642100000000FF
:1031B000244447543A000000400400203C0400200E
:1031C00038040020244447543A25642D25642C25D6
:1031D000642100004447542020204447540D0A0035
:1031E000300400203404002024444A52210000000E
:1031F00023323535503135303054323030302100C3
:1032000024534D4F4445000024534D4F44452564FD
:1032100021000000040B00202330313050313531C3
:10322000325430303030210023303130503135319C
:1032300031543030303021002447455441210000C2
:103240004141410024534D4152545F53544F50214A
:103250000000000023323535504453542100000053
:103260002330303650313530305430303030212337
:10327000303037503135303054303030302100006C
:10328000404F4B2100000000244B4D533A000000FA
:10329000244B4D533A25642C25642C25642C25643D
:1032A0002100000054727920746F2066696E6420DA
:1032B0006265737420706F733A0D0A00807A00089B
:1032C0000C0A0020494B20536F6C7574696F6E2097
:1032D000666F756E643A0A0020050020232530339E
:1032E0006450253034645425303464210A000000D1
:1032F00054617267657420706F73652069732075FF
:103300006E726561636861626C653A25642E0A00BD
:1033100024416E676C653A0024416E676C653A25FE
:10332000642C25662C25662100000000416E676C28
:1033300065202020416E676C650D0A0024424545DA
:103340005021000062757A7A65720D0A0000000053
:103350000008014038B50446002514A1204601F0BC
:103360007FFB05460DB31348134B144A14A100907C
:103370002046FCF70DFFC0B10120154908700F4829
:1033800000680D49096888420BD00C480068114953
:103390000860084800681049086000200C4908705F
:1033A00003E006480068FEF78FFB38BD244447540D
:1033B0003A000000400400203C04002038040020B3
:1033C000244447543A25642D25642C2564210000AB
:1033D0002C0400203004002034040020002014E0DD
:1033E00040F2DC5100EB4002094B23F8221009495E
:1033F00000EB400203EB82025160002100EB40022F
:1034000003EB82029160411CC8B20828E8DB7047D8
:10341000A40A00200080BB4410B53B48007820B1CE
:1034200001280DD002286CD129E000F075F828B1F0
:10343000002036490870012033490870002010BD73
:1034400000F06AF858B931480078401CC0B22F49E2
:103450000870032803DD00202B490870EFE700F017
:1034600077F800F059F840B1022027490870002091
:10347000264908700620264908700020DFE700F082
:103480004BF8A0B921480078401CC0B21F49087011
:1034900003280CDD00201C4908701E480021016033
:1034A0004160017206201A4908700020C7E7012018
:1034B000FEF7E6FA00F032F915480078F8B101227B
:1034C00000200DE0431D134CE35C803B59B20829FA
:1034D00002DC11F1080F01DA002203E0411CC8B23E
:1034E0000428EFDB00BF2AB109480078401E0849D4
:1034F000087002E006200649087000209FE70120BE
:103500009DE700209BE70000DE040020DF04002090
:10351000E00400200417002010B5002201210B4810
:10352000FEF7D6FB012000F041F8422000F03EF803
:103530000446012211460548FEF7CAFB732C01D050
:10354000412C01D1012010BD0020FCE7000C0140FE
:1035500030B585B0142213496846FCF7E5FD002418
:103560001BE0002201211048FEF7B2FB002508E015
:1035700004EB84016A461144485D00F017F8681CAA
:10358000C5B2052DF4DB012211460748FEF7A0FB6A
:103590000820FEF775FA601CC4B2042CE1DB05B00C
:1035A00030BD000080880008000C014070B5044662
:1035B0000026002526E004F0010280211348FEF7D2
:1035C00087FB6410012202211148FEF781FB0820CD
:1035D000FEF766FA002202210D48FEF779FB08206B
:1035E000FEF75EFA012202210948FEF771FB022173
:1035F0000648FEF757FB18B10120A8403043C6B279
:10360000681CC5B2082DD6DB304670BD00080140ED
:10361000000C014030B587B001210C2000F0D0FA39
:103620000220ADF8180028208DF81B0003208DF82B
:103630001A0006A93648FEF761FA10208DF81B0023
:103640008020ADF8180006A93148FEF757FA01208E
:10365000ADF8180006A92F48FEF750FA0220ADF881
:10366000180006A92B48FEF749FA012211462948FD
:10367000FEF72EFB012202212648FEF729FB01223C
:1036800080212348FEF724FB3220FEF7F9F91422AB
:10369000214901A8FCF748FD00241BE0002201217C
:1036A0001C48FEF715FB002508E004EB840101AA85
:1036B0001144485DFFF77AFF681CC5B2052DF4DBA5
:1036C000012211461348FEF703FB0A20FEF7D8F942
:1036D000601CC4B2042CE1DB002201210D48FEF77E
:1036E000F7FA0120FFF762FF4220FFF75FFF002497
:1036F00004E00020FFF75AFF601CC4B2072CF8DB7F
:10370000012211460348FEF7E3FA07B030BD00007E
:1037100000080140000C01406C88000810B5002230
:1037200001210F48FEF7D4FA0120FFF73FFF0D49B2
:1037300008704220FFF73AFF0A494870022406E069
:103740000020FFF733FF07490855601CC4B2092C5D
:10375000F6DB012211460248FEF7BAFA10BD00005E
:10376000000C01400417002038B50121082000F0AA
:1037700027FA03208DF8020010208DF8030008209E
:10378000ADF8000069462848FEF7B8F91020ADF8FA
:10379000000069462448FEF7B1F92020ADF800008A
:1037A00069462148FEF7AAF94020ADF800006946B5
:1037B0001D48FEF7A3F98020ADF8000069461A48BD
:1037C000FEF79CF94FF48070ADF80000694616488A
:1037D000FEF794F94FF40070ADF800006946124806
:1037E000FEF78CF900241CE040F2DC500F4901EB9D
:1037F000041108800E480D4901EB041148600D4882
:103800000A4901EB0411886041F28830074901EB55
:10381000041148800020054901EB0411C860601CB8
:10382000C4B2082CE0DB38BD000C0140240A0020A3
:103830000080BB440000A04110B50446082C0FDAFC
:103840000020134901EB04118860114901EB0411B8
:103850004868FDF786F90E4901EB0411088016E06F
:10386000FF2C14D1002410E00020094901EB0411C1
:103870008860074901EB04114868FDF772F90449B3
:1038800001EB04110880601CC4B2082CECDB10BDF5
:10389000240A00202DE9F04704460D461646082C60
:1038A00001DBBDE8F0877DB90020374901EB041149
:1038B0008860354901EB04114868FDF752F9324937
:1038C00001EB04110880ECE740F6BA10854201DDF7
:1038D000054604E0B5F5FF7F01DA4FF4FF7542F2CB
:1038E0001070864200DD461E2846FDF713F9074694
:1038F000254800EB041041683846FDF775F90AD1F8
:103900002846FDF707F980462049FCF7B3FE074635
:10391000FDF70EF90546142E10DA1B4901EB0411D0
:103920000D802846FDF7F6F8174901EB04114860B1
:103930000020154901EB0411886022E0124901EBD7
:1039400004110D80104901EB04114E803046FDF743
:10395000E1F881460E49FCF717FF07462846FDF7B8
:10396000D9F88146084800EB041041684846FCF746
:10397000D3FE80463946FCF707FF034901EB0411EB
:10398000886000BF8DE70000240A00204850FC3BFF
:103990000000A0412DE9F04704462A4901EB04113B
:1039A00088680021FDF720F901D1BDE8F08725489E
:1039B00000EB0410058840F6BA10854201DD05468B
:1039C00004E0B5F5FA7F01DA4FF4FA751D4901EB11
:1039D000041188684FF08041FCF7A4FE804602F095
:1039E00003FE06462846FDF795F88146154800EB8C
:1039F000041041684846FCF78FFE804602F0F4FD53
:103A000007463146FDF7F0F80CD82846FDF782F856
:103A10000C4901EB0411486000200A4901EB041134
:103A200088600DE0074A02EB04129168054A02EB38
:103A300004125068FCF71EFE024901EB04114860B5
:103A400000BFB2E7240A002070B504460D46072CDB
:103A500031D2DFE804F0040A10161C2229002A469D
:103A600008211648FEF734F926E02A4610211348AB
:103A7000FEF72EF920E02A4620211048FEF728F90B
:103A80001AE02A4640210D48FEF722F914E02A46A2
:103A900080210A48FEF71CF90EE02A464FF4807197
:103AA0000648FEF715F907E02A464FF4007103486F
:103AB000FEF70EF900E000BF00BF70BD000C014032
:103AC0002DE9F74F84B08B4692465046FDF75DF8DE
:103AD000CDE900015846FDF758F80646DDE9002318
:103AE00003F02DF8044622460B460020014603F061
:103AF00005F88046FDF75CF8834610480168584693
:103B0000FCF710FE834651465846FCF73DFE05463D
:103B10000B49FCF707FE04460A49FCF7ABFD02908F
:103B20000298FDF705F804464FF47A72214604988E
:103B3000FFF7B0FE07B0BDE8F08F0000D004002012
:103B40000000FA440000FA4301460020034A50688E
:103B500020F44040084350607047000000100240CD
:103B600029B1064A52690243044B5A6104E0034AF0
:103B700052698243014B5A617047000000100240B5
:103B800029B1064AD2690243044BDA6104E0034AD0
:103B9000D2698243014BDA61704700000010024095
:103BA00029B1064A12690243044B1A6104E0034A30
:103BB00012698243014B1A617047000000100240F5
:103BC00029B1064A92690243044B9A6104E0034A10
:103BD00092698243014B9A617047000000100240D5
:103BE00029B1064AD2680243044BDA6004E0034A72
:103BF000D2688243014BDA60704700000010024037
:103C00000F48006840F001000D4908600846406810
:103C10000C4908400A494860084600680A490840BB
:103C2000074908600846006820F4802008600846BC
:103C3000406820F4FE0048604FF41F008860704721
:103C4000001002400000FFF8FFFFF6FE30B5002133
:103C50000022002400232D4D6D6805F00C0121B1D8
:103C6000042905D0082923D105E0294D056022E06B
:103C7000274D05601FE0254D6D6805F47012234D3A
:103C80006D6805F48034022505EB92421CB9214D84
:103C9000554305600BE01D4D6D6805F400351DB101
:103CA0001C4D5543056002E0194D5543056002E087
:103CB000174D056000BF00BF144D6D6805F0F001A1
:103CC0000909154D6B5C0568DD4045600F4D6D6859
:103CD00005F4E061090A104D6B5C4568DD408560C4
:103CE0000A4D6D6805F46051C90A0B4D6B5C45685F
:103CF000DD40C560054D6D6805F44041890B074DF9
:103D00006B5CC568B5FBF3F5056130BD0010024082
:103D100000127A0000093D0004050020140500206F
:103D200010B501460022002300204A11012A02D1C9
:103D3000094C236806E0022A02D1074C236A01E0FD
:103D4000054C636A01F01F02012494401C400CB131
:103D5000012000E0002010BD001002400248406831
:103D600000F00C00704700000010024001460020E7
:103D7000034A506820F0F00008435060704700008C
:103D8000001002401149096821F480310F4A116086
:103D90001146096821F480211160B0F5803F03D0FD
:103DA000B0F5802F0ED106E00849096841F4803152
:103DB000064A116007E00549096841F4A021034A59
:103DC000116000E000BF00BF70470000001002401B
:103DD00001460020034A506820F4E0600843506028
:103DE000704700000010024001460020034A50685E
:103DF00020F4605040EAC10050607047001002405B
:103E00000149086670470000000042420246002057
:103E1000044B586820F47C1042EA01031843014B1C
:103E2000586070470010024001460020034A506865
:103E300020F003000843506070470000001002406B
:103E400038B5002000900024002500BF3120FFF786
:103E500067FF05460098401C00900098B0F5A06FE1
:103E600001D0002DF2D03120FFF75AFF08B1012414
:103E700000E00024204638BD10B5FFF7C1FE4FF426
:103E80008030FFF77FFFFFF7DBFF044600BF002C09
:103E9000FDD00020FFF76AFF4FF48060FFF798FF26
:103EA0000020FFF7A1FF4FF4E0114FF48030FFF73F
:103EB000ADFF0120FFF7A4FF00BF3920FFF730FF5F
:103EC0000028FAD00220FFF7AFFF00BFFFF746FF40
:103ED0000828FBD110BD000038B500244FF4004085
:103EE000ADF8000048208DF8030069461448FDF73E
:103EF00005FE00251FE000224FF480411048FDF729
:103F0000E7FE0020FDF7CCFD012291030C48FDF7F0
:103F1000DFFE0020FDF7C4FD6006040E4FF40041F3
:103F20000748FDF7BFFE08B144F001040020FDF78B
:103F3000B7FD681CC5B2082DDDDB204638BD00008A
:103F40000010014004E003788B4200D10270401C55
:103F50000378002BF7D1704710B540F2FF7000F0E6
:103F600049FBD0220249034800F07EFC10BD00004E
:103F700000F87F003C09002021B1028842F0400295
:103F8000028004E002884FF6BF731A400280704737
:103F90000246002013890B400BB1012000E00020F5
:103FA00070470146888970478181704710B50022AB
:103FB000028802F441520B884C8823438C882343A7
:103FC000CC8823430C8923434C8923438C89234386
:103FD000CC8923431A430280838B4FF2FF74234022
:103FE00083830B8A038210BD10B501210D20FFF7DA
:103FF000E7FD01210148FDF70DFE10BD0002300074
:1040000070B504464FF0FF35607824280CD1A078B5
:10401000212809D10021374880F88410FFF79CFF40
:1040200035A003F0F5FC70BD607824281BD18121F8
:104030003048001DFCF791F8611C2E48001DFCF76C
:104040009EF82046FCF794F8801E2A49091D00229C
:104050000A542521274880F88410FFF77DFF2BA004
:1040600003F0D6FCDFE7A07830384FF47A7148438C
:10407000E178303901EBC10202EB011100EB810163
:104080002079303800EB800001EB40016079303856
:104090000D18002D02DBA079232803D020A003F007
:1040A000B7FCC0E72802C11700EB11510913A0EBC0
:1040B000013131B92E02F11706EB1151081300F04E
:1040C00099FA7B223C212046FFF73CFF7D223E21CE
:1040D0002046FFF737FF2046FCF74AF8401C86B21F
:1040E00029023246204600F065FB0EA003F090FC4A
:1040F00000BF98E73C09002040434C454152205006
:1041000052455F434D44204F4B21000040534554DE
:10411000205052455F434D44204F4B21000000008A
:10412000450000004100000038B504464FF400404F
:10413000ADF8000014208DF8030003208DF8020074
:1041400069461648FDF7DAFC002523E004F08000FC
:1041500028B10122D1031148FDF7BAFD05E0002284
:104160004FF400410D48FDF7B3FD012291030B48C8
:10417000FDF7AEFD0020FDF793FC00224FF48041D7
:104180000648FDF7A5FD0020FDF78AFC6006040E39
:10419000681CC5B2082DD9DB38BD000000100140F5
:1041A00038B504464FF40040ADF8000014208DF8F7
:1041B000030003208DF8020069461948FDF79EFCB4
:1041C00000224FF480411648FDF782FD00224FF493
:1041D00000411348FDF77CFD0020FDF761FC34B978
:1041E00000224FF400410E48FDF772FD04E0012269
:1041F000D1030B48FDF76CFD012291030848FDF740
:1042000067FD0020FDF74CFC00224FF4804104487C
:10421000FDF75EFD0122D1030148FDF759FD38BDD0
:104220000010014010B5002421E0124830F824109D
:10423000243830F8240008440F4901EB04110880A9
:104240000D4901EB04110888FCF76DFC0A4901EBEC
:10425000041148600020084901EB0411886041F214
:104260008830054901EB04114880601CC4B2082C59
:10427000DBDB10BDE8090020240A0020014908709A
:1042800070470000D404002010B500F001F810BD04
:104290000CB50020019000903348006840F4803055
:1042A0003149086000BF3048006800F400300090D9
:1042B0000198401C0190009818B90198B0F5A06FC2
:1042C000F1D12948006800F4003010B101200090BD
:1042D00001E0002000900098012843D123480068A5
:1042E00040F01000214908600846006820F00300F3
:1042F00008600846006840F0020008601A484068FC
:10430000194948600846406848600846406840F4DB
:10431000806048600846406820F47C104860084689
:10432000406840F4E81048600846006840F080703B
:10433000086000BF0C48006800F000700028F9D049
:104340000948406820F00300074948600846406873
:1043500040F00200486000BF0348406800F00C00D5
:104360000828F9D10CBD00000010024000200240D6
:1043700008B501211020FFF723FC4FF48040ADF871
:10438000000014208DF8030003208DF80200694618
:104390000F48FDF7B3FB01211020FFF711FC4FF48C
:1043A0000040ADF8000014208DF8030003208DF8C4
:1043B000020069460648FDF7A1FB4FF4804104481E
:1043C000FDF784FC4FF400410148FDF77FFC08BD78
:1043D000001001402DE9F04104460F4615461E46E7
:1043E00000F0D8FA6106080EFFF79EFE01F04EFBC2
:1043F00010B10120BDE8F0813846FFF795FE01F0CD
:1044000045FB08B10220F5E700F0C4FA012101EBF9
:104410004401C8B2FFF788FE01F038FB08B1032061
:10442000E8E700BFFFF758FD28706D1C012E02D091
:104430000020FFF7B5FE701E061EF3D10120FFF726
:10444000AFFE00F0DFFA0020D4E72DE9F041054689
:104450000E4614461F4600F09DFA6906080EFFF747
:1044600063FE01F013FB10B10120BDE8F08130467E
:10447000FFF75AFE01F00AFB08B10220F5E708E059
:1044800014F8010BFFF750FE01F000FB08B1032008
:10449000EBE7381EA7F10107F2D100F0B3FA0020D4
:1044A000E3E70000012080F3138800BF00BF074846
:1044B000006800F4E06006490843001D03490860F5
:1044C000BFF34F8F00BF00BFFEE700000CED00E020
:1044D0000000FA0570B5FDF79FFF2C490968401AE6
:1044E000142800D270BDFDF797FF284908602848BE
:1044F0000078012806D12748007800B9F2E70020AB
:10450000234908704FF480512348FDF7CBFB054643
:104510004FF480712048FDF7C5FB04461F48007822
:1045200030B101280CD0022816D003282AD121E06E
:10453000012D01D0012C02D101201849087021E081
:10454000012D01D0012C03D102201449087002E092
:1045500000201249087015E00321C820FDF758F922
:104560000FA0FEF7F7FE01200949087003200B4950
:10457000087007E0012D04D0012C02D0002007496B
:10458000087000BF00BF00BFACE70000B40400200B
:10459000B00400202C04002000080140B8040020D2
:1045A000244447543A33312D34302C31210000005B
:1045B00008B501210420FFF703FB4FF48050ADF84C
:1045C000000028208DF8030069460948FDF796FA97
:1045D00001210420FFF7F4FA4FF48070ADF80000D9
:1045E00028208DF8030069460148FDF787FA08BDC9
:1045F0000008014010B50446240300F0C9F800F09B
:10460000BDF800224FF480510C48FDF761FB2020DB
:1046100000F096F9C4F3074000F092F9C4F30720C4
:1046200000F08EF9E0B200F08BF90122110303488B
:10463000FDF74EFB00F0A2F810BD0000000C014099
:1046400010B501210820FFF7BBFA4FF4805025492F
:1046500008801020C870032088702348FDF74EFAA8
:104660004FF480512048FDF731FB4FF420401D49A5
:1046700008801820C8701C48FDF740FA4FF48040AD
:10468000184908804820C8701748FDF737FA4FF4DA
:1046900020411548FDF71AFB01218803FFF770FA46
:1046A0000020124908804FF48270488000208880E2
:1046B0000220C8800120088140024881382088817A
:1046C0000020C881072008820948FFF76FFC0121FC
:1046D0000748FFF751FCFF2000F032F9002000F0FE
:1046E0001DF910BDE2040020000C01400E1700204F
:1046F000003800402DE9F04106460C4617460022DE
:104700004FF480511048FDF7E3FA032000F018F948
:10471000C4F3074000F014F9C4F3072000F010F9C7
:10472000E0B200F00DF9002505E0FF2000F008F9E7
:104730007055681C85B2BD42F7DB012211030248A7
:10474000FDF7C6FABDE8F081000C014010B5002469
:1047500000224FF480510848FDF7BAFA052000F016
:10476000EFF8FF2000F0ECF80446012211030248A4
:10477000FDF7AEFA204610BD000C014010B500BF99
:10478000FFF7E4FF00F001000028F9D110BD0000A0
:1047900010B500224FF480510548FDF799FA062024
:1047A00000F0CEF8012211030148FDF791FA10BD87
:1047B000000C01402DE9F04107460E461446F0B2C8
:1047C000C0F58075AC4200DC254612E02A46314631
:1047D000384600F013F8AC4200D10BE02F442E44D1
:1047E000601B84B2B4F5807F02DD4FF4807500E079
:1047F0002546EBE700BFBDE8F08100002DE9F04160
:1048000007460C461646E0B2C0F58078464500DD06
:104810004646FFF7BDFF00224FF480511148FDF7D7
:1048200057FA022000F08CF8C4F3074000F088F833
:10483000C4F3072000F084F8E0B200F081F800250E
:1048400004E0785D00F07CF8681C85B2B542F8DBC6
:10485000012211030348FDF73BFAFFF78FFFBDE884
:10486000F0810000000C01402DE9F04781460F4621
:1048700016464FEA1738C7F30B0ACAF58054A6420A
:1048800000DC344644E04FEA08314FF480522248BD
:10489000FFF730FF002508E00AEB05001E49085C21
:1048A000FF2800D003E0681C85B2A542F4DB00BFFE
:1048B000A54216DA4046FFF79DFE002507E019F8ED
:1048C000050005EB0A01144A5054681C85B2A54244
:1048D000F5DB4FEA08314FF480520F48FFF76AFFCB
:1048E00004E0224639464846FFF764FFA64200D15D
:1048F0000FE008F101084FF0000AA1442744301BE3
:1049000086B2B6F5805F02DD4FF4805400E0344695
:10491000B9E700BFBDE8F0872017002010B50446B6
:104920000548848101460548FFF740FB0121034803
:10493000FFF722FB10BD00000E17002000300140E1
:1049400070B50546002405E0601CC4B2C82C01DD2A
:10495000002070BD02210E48FFF71AFB0028F3D09B
:1049600029460B48FFF720FB002405E0601CC4B279
:10497000C82C01DD0020ECE701210548FFF708FB0A
:104980000028F3D00248FFF70CFBC0B2E1E70000BB
:104990000038004008B54FF40040ADF80000142086
:1049A0008DF8030003208DF8020069461448FDF7D6
:1049B000A5F800224FF480411148FDF789F9012242
:1049C000D1030F48FDF784F9012291030C48FDF74C
:1049D0007FF90020FDF764F800224FF400410848F9
:1049E000FDF776F90020FDF75BF800224FF48041D7
:1049F0000348FDF76DF90020FDF752F808BD0000EF
:104A00000010014008B54FF40040ADF8000014203C
:104A10008DF8030003208DF8020069460F48FDF76A
:104A20006DF800224FF480410C48FDF751F9002247
:104A30004FF400410948FDF74BF901229103074863
:104A4000FDF746F90020FDF72BF80122D1030348BA
:104A5000FDF73EF90020FDF723F808BD00100140E6
:104A600070B504460B4621461A4619E008781578B9
:104A7000A84214D10AE011F8015B12F8016BB542AB
:104A800004D0D01A081A411C1A4602E010780028F7
:104A9000F1D100BF107818B9081B80B270BD491C55
:104AA00008780028E2D100BFF8E7000030B51448CC
:104AB00000684FF47A72B0FBF2F1B1F1807F00D35D
:104AC0001DE021F07F40401E4FF0E0225061501762
:104AD0000F22002807DA13071D0E0A4B00F00F04FF
:104AE000241F1D5503E013071C0E074B1C5400BF69
:104AF00000204FF0E02290610720106100BF30BD20
:104B0000F004002018ED00E000E400E00248006836
:104B1000401C014908607047E804002010B51348A4
:104B2000006840F0010011490860084640681049DB
:104B300008400E494860084600680E4908400B4985
:104B400008600846006820F4802008600846406835
:104B500020F4FE0048604FF41F008860FFF794FBCC
:104B60004FF000600449086010BD000000100240D2
:104B70000000FFF8FFFFF6FE08ED00E07FB50546F8
:104B80000C460121C802FEF7FBFFADF80850ADF856
:104B900004400020ADF80A00ADF8060001A9104855
:104BA00000F0DEF800210E4800F09FF801221146C7
:104BB0000B4800F0C9F819208DF8000000208DF88E
:104BC000010002208DF8020001208DF803006846E4
:104BD000FDF728FC0121024800F096F87FBD000097
:104BE000002C014010B50121880700F09CF8002836
:104BF00041D021480078082802D100201E490870C1
:104C00001E480078A0B91E491B4A127801EB021118
:104C10004868FBF7A6FF4FF08041888501211648C0
:104C20000078FEF711FF14480078FEF7B3FE16E097
:104C30001349114A127801EB02114868FBF791FF02
:104C400040F6C4110C1A09078C8500210A48007827
:104C5000FEF7FAFE08480078401C0749087007482C
:104C6000007808B9012000E0002004490870012103
:104C7000880700F046F810BDEE040020ED04002087
:104C8000240A00207FB505460C4601210846FEF7A0
:104C900077FFADF80850ADF804400020ADF80A00E9
:104CA000ADF8060001A94FF0804000F059F800214E
:104CB0004FF0804000F019F801221146900700F0F3
:104CC00043F81C208DF8000001208DF8010003201E
:104CD0008DF8020001208DF803006846FDF7A2FB65
:104CE0000121880700F010F87FBD21B1028842F051
:104CF0008002028004E002884FF67F731A4002802F
:104D00007047CA430282704721B1028842F0010213
:104D1000028004E002884FF6FE731A40028070475A
:104D20000146888C704730B50246002000230024DD
:104D3000158A05EA0103958905EA010413B10CB14E
:104D4000012000E0002030BD1AB183890B4383812C
:104D500002E083898B438381704781847047000020
:104D6000002202881D4B98420ED01D4B98420BD05A
:104D7000B0F1804F08D01B4B984205D01A4B984297
:104D800002D01A4B984204D14FF68F731A404B88C9
:104D90001A43174B984207D0164B984204D04FF64F
:104DA000FF431A40CB881A4302808B8883850B8887
:104DB00003850A4B98420BD0094B984208D00E4B02
:104DC000984205D00D4B984202D00D4B984201D12C
:104DD0000B7A03860123838270470000002C014078
:104DE000003401400004004000080040000C004076
:104DF0000010004000140040004001400044014009
:104E00000048014038B540F22441184800F00DF93F
:104E100050B31648008800901448001D0088009088
:104E200000BF00211248FCF755FD1148FCF704FEB5
:104E3000C0F5806084B2002C0CDDB4F5806F09DC15
:104E4000002505E00B49485D00F0DEFB681C85B2DB
:104E5000A542F7DB4FF480610548FCF70FFE012106
:104E60000348FCF737FD00BF38BD000000380140A3
:104E700058000240040F002010B540F225510948A7
:104E800000F0D3F801280CD1064800F095F9C4B21F
:104E9000204600F0B9FB40F22551024800F046F8E8
:104EA00000BF10BD0044004038B540F224411B480B
:104EB00000F0BBF880B31948008800901748001D27
:104EC0000088009000BF00211548FCF703FD14483E
:104ED000FCF7B2FDC0F580601249088008460088E2
:104EE00000280FDD08460088B0F5806F0ADC00243A
:104EF00004E00D49085D00F087FB641C0948008848
:104F00008442F6DB4FF480610548FCF7B7FD0121D0
:104F10000348FCF7DFFC00BF38BD0000004800403C
:104F200030000240D60400200413002010B50022F7
:104F3000002340F66A14A14200D100BF0A120124E6
:104F40009440A3B2DC43048010BD21B1828942F4B5
:104F50000052828104E082894DF6FF731A408281FB
:104F600070471AB1838A0B43838202E0838A8B43A2
:104F70008382704710B504462048844209D101213C
:104F80008803FEF72DFE00214FF48040FEF728FE37
:104F900032E01B48844209D101214804FEF700FE9B
:104FA00000214FF40030FEF7FBFD25E01548844258
:104FB00009D101218804FEF7F3FD00214FF4802080
:104FC000FEF7EEFD18E01048844209D10121C80423
:104FD000FEF7E6FD00214FF40020FEF7E1FD0BE0B7
:104FE0000A48844208D101210805FEF7D9FD0021B5
:104FF0004FF48010FEF7D4FD10BD000000380140D2
:105000000044004000480040004C00400050004078
:1050100002460020B1F5007F00D100BF13880B408D
:105020000BB1012000E00020704770B5024600245B
:1050300000230025002040F66A16B14200D100BFCF
:10504000C1F3421501F01F03012606FA03F3012DF7
:1050500002D19689334006E0022D02D1168A3340F0
:1050600001E0968A33400C12012606FA04F41688F1
:10507000344013B10CB1012000E0002070BD21B11B
:10508000828A42F00802828204E0828A4FF6F77335
:105090001A4082827047F0B503460024002600259E
:1050A000002040F66A17B94200D100BF1846C1F38C
:1050B000421401F01F06012707FA06F5012C01D161
:1050C0000C3004E0022C01D1103000E014301AB191
:1050D00007682F43076002E00768AF430760F0BD31
:1050E0002DE9F04786B005460E460024A24600BFD3
:1050F000A1460027B08900B100BF2F462C8A4CF68C
:10510000FF700440F08804432C82AC894EF6F31003
:105110000440B08831890843718908430443AC8155
:10512000AC8A4FF6FF400440B0890443AC8201A82A
:10513000FEF78CFD1F48874202D1DDF810A001E088
:10514000DDF80CA0A88900F4004040B10AEBCA00C9
:1051500000EB0A1031684900B0FBF1F807E00AEBF8
:10516000CA0000EB0A1031688900B0FBF1F8642036
:10517000B8FBF0F004012009642101FB1089A88923
:1051800000F4004040B1322000EBC900B0FBF1F068
:1051900000F00700044308E0322000EB091064210E
:1051A000B0FBF1F000F00F0004432C8106B0BDE825
:1051B000F08700000038014001468888C0F30800ED
:1051C0007047C1F308028280704700000EB50121CC
:1051D0000420FEF7D5FC47F23050ADF8040047201C
:1051E000ADF800000020ADF80600ADF802006946F9
:1051F0000148FFF7B5FD0EBD000800402DE9F05F46
:105200004FF01B0A012220212D48FCF761FD0A20E6
:10521000FCF746FC002220212948FCF759FD01211A
:105220002848FFF771FDFDF7F7F881460CE0FDF720
:10523000F3F8A0EB0900504506D900212148FFF7FB
:1052400063FD2148BDE8F09F10211D48FCF72AFDB1
:105250000028ECD000211B48FFF77FFDFDF7DCF8AC
:1052600081460BE0FDF7D8F8A0EB0900504505D9C1
:1052700000211448FFF748FD1348E3E710211048C8
:10528000FCF710FD0028EDD10E48FFF749FD04465C
:1052900000210C48FFF738FD0C4884420EDA204606
:1052A000FBF741FC8346FBF770FC0746084A094BB5
:1052B000FBF74FFB0546FBF77BFCC3E70248C1E762
:1052C0000008014000080040000080BFBCE89301D6
:1052D0009CC420B07268913F08B501210420FEF7FC
:1052E0006FFC2020ADF8000010208DF80300032093
:1052F0008DF8020069460848FCF700FC1020ADF864
:10530000000004208DF8030069460348FCF7F6FB13
:10531000FFF75CFF08BD00000008014010B592B027
:105320000446012144F20400FEF74AFC012108462C
:10533000FEF716FC3748FFF71DFE4FF40070ADF87E
:10534000440018208DF8470003208DF8460011A96D
:105350003148FCF7D3FB4FF48060ADF844000420E3
:105360008DF8470011A92C48FCF7C8FB0D940020CC
:10537000ADF83800ADF83A00ADF83C000C20ADF8BF
:105380003E000020ADF840000DA92248FFF7A8FE1E
:105390002248FCF7ABFA1F48001D019020480290FC
:1053A000002003904FF4806004900020059080203E
:1053B000069000200790089020200990C0010A90D4
:1053C00000200B9001A91548FCF73AFB0121134876
:1053D000FCF780FA012240210E48FFF7C2FD0122AE
:1053E00040F224410B48FFF756FE25208DF830008F
:1053F00001208DF8310000208DF8320001208DF859
:1054000033000CA8FDF70EF801210248FFF79DFDBF
:1054100012B010BD003801400008014058000240A1
:10542000040F002010B586B0044601210420FEF7C9
:10543000C7FB01214804FEF7A3FB0420ADF81400CC
:1054400018208DF8170003208DF8160005A91D48B7
:10545000FCF754FB01940020ADF80800ADF80A00F9
:10546000ADF80C000C20ADF80E000020ADF81000D7
:1054700001A91548FFF734FE01211348FFF7FFFD8E
:1054800026208DF8000002208DF8010000208DF804
:10549000020001208DF803006846FCF7C3FF0122DB
:1054A00040F225510848FFF7F6FD002240F227712F
:1054B0000548FFF7F0FD01210348FFF746FD06B060
:1054C00010BD0000000801400044004010B592B03B
:1054D000044601210820FEF773FB01218804FEF732
:1054E0004FFB01210846FEF73BFB4FF48060ADF80F
:1054F000440018208DF8470003208DF8460011A9BC
:105500003048FCF7FBFA4FF40060ADF8440004208B
:105510008DF8470011A92B48FCF7F0FA0D940020F4
:10552000ADF83800ADF83A00ADF83C000C20ADF80D
:105530003E000020ADF840000DA92348FFF7D0FD44
:105540002248FCF7D3F92048001D01902048029022
:10555000002003904FF4806004900020059080208C
:10556000069000200790089020200990C0010A9022
:1055700000200B9001A91548FCF762FA012113489D
:10558000FCF7A8F9012240210F48FFF7EAFC0122AD
:1055900040F224410C48FFF77EFD27208DF83000B3
:1055A00001208DF8310000208DF8320001208DF8A7
:1055B00033000CA8FCF736FF01210348FFF7C5FCB8
:1055C00012B010BD000C0140004800403000024005
:1055D0000413002010B504460120FEF74FFE2146BB
:1055E00008A000F09FFA0220FEF748FE214605A021
:1055F00000F098FA0320FEF741FE214601A000F0DA
:1056000091FA10BD257300002C49098801B170473B
:105610002B490988B1F5806F04DB0021284A1180ED
:10562000284A117027490978E9B923280ED024287F
:1056300008D03C2802D07B2810D10BE00421214A5D
:1056400011700CE001211F4A117008E002211D4A6F
:10565000117004E003211B4A117000E0D7E700BF7E
:105660000021174A118016490A880988491C144BE1
:1056700019801549885413490978042901D13E2815
:1056800011D010490978012901D121280BD00D49E9
:105690000978022901D1212805D00A49097803296E
:1056A00009D17D2807D10021074A054B1B88D15419
:1056B0000121024A118000BFA9E70000D8040020A0
:1056C000DC040020DA040020040B002010B54FF4A5
:1056D000E130FFF723FE4FF4E130FFF7A3FE4FF474
:1056E000E130FFF7F3FE10BD2DE9F0470546FCF76A
:1056F00093FE32490968401AA84201D2BDE8F087FA
:10570000FCF78AFE2D4908602D48007800B9F5E7BE
:10571000FFF774FD81462B49FBF704F880462A49C0
:10572000FAF7A8FF0746FBF703FA0446FA2C00DD58
:10573000E4E70120FEF7A2FD214624A000F0F2F9E3
:105740004FF47A7240F214510520FEF7A3F8224676
:1057500021A1274800F0F6F9254926A000F0E2F93A
:105760002348FDF71DFB4FF47A70FCF789F9C82C2C
:1057700001DC052000E00A2006463346224620A12F
:105780001B4800F0DFF91A48FDF70AFB4FF47A7066
:10579000FCF776F94FF47A7240F2D6610520FEF7F5
:1057A00079F84FF4FA70FCF76BF91CA0FDF7D2FD05
:1057B00000200349087000BFA0E70000CC040020CF
:1057C000A8040020000020410000F0420A55733A6E
:1057D00025640D0A00000000244B4D533A25303358
:1057E000642C302C3130302C31303030210D0A0017
:1057F0003C0500200A55734E756D3A25730D0A005D
:10580000244B4D533A253033642C302C25303364EF
:105810002C31303030210D0A000000002444475460
:105820003A34312D34372C312100000070B5054653
:10583000002455A12846FFF713F904461CB10120A6
:10584000564908709EE056A12846FFF709F904461C
:105850001CB102205149087094E054A12846FFF77A
:10586000FFF804461CB103204C4908708AE053A19C
:105870002846FFF7F5F804461CB104204749087094
:1058800080E052A12846FFF7EBF804461CB14FA078
:1058900002F0D4F876E050A12846FFF7E1F804467C
:1058A0001CB14DA002F0CAF86CE04EA12846FFF7EB
:1058B000D7F804461CB100203849087062E04CA1BA
:1058C0002846FFF7CDF804461CB10520334908707F
:1058D00058E04AA12846FFF7C3F804461CB1062049
:1058E0002E4908704EE049A12846FFF7B9F8044652
:1058F0001CB107202949087044E048A12846FFF759
:10590000AFF804461CB10820244908703AE046A1CB
:105910002846FFF7A5F804461CB109201F49087066
:1059200030E045A12846FFF79BF804461CB10A2049
:105930001A49087026E044A12846FFF791F804466A
:105940001CB10B20154908701CE043A12846FFF745
:1059500087F804461CB10C201049087012E043A1DE
:105960002846FFF77DF804461CB10D200B4908704E
:1059700008E041A12846FFF773F8044614B10E2051
:105980000649087070BD00002353656E736F724343
:105990006F6C6F72536F7274210000000804002056
:1059A000234A6F79737469636B21000023556C740B
:1059B0007261736F6E6963210000000023536F757D
:1059C0006E64546F75636821000000002353746196
:1059D00072744C65642100002353746F704C6564CD
:1059E000210000002352756E53746F702100000077
:1059F00023436F6C6F72536F7274210023436F6C7B
:105A00006F72537461636B21000000002350545A7D
:105A1000436F6C6F7254726163652100234661634A
:105A200065547261636B210023417072696C74610B
:105A300067536F727421000023417072696C746146
:105A400067537461636B210023417072696C7461E8
:105A500067547261636B210023417072696C7461D9
:105A6000674E756D536F727421000000234E756D83
:105A7000547261636B210000234761726261676544
:105A8000536F7274696E67210000000038B50025FD
:105A90000A244FF40040ADF8000048208DF80300C0
:105AA00069461F48FCF72AF80122D1031C48FCF77D
:105AB0000FF90020FBF7F4FF012291031848FCF7CF
:105AC00007F90020FBF7ECFF04E0601EC4B20020E1
:105AD000FBF7E6FF4FF400411148FCF7E3F801281B
