:020000040800F2
:10000000A004002001010008090100080B010008FC
:100010000D0100080F010008110100080000000098
:1000200000000000000000000000000013010008B4
:10003000150100080000000017010008490D000824
:100040001B0100081B0100081B0100081B01000820
:100050001B0100081B0100081B0100081B01000810
:100060001B0100081B0100081B0100081B01000800
:100070001B0100081B0100081B0100081B010008F0
:100080001B0100081B0100081B0100081B010008E0
:100090001B0100081B0100081B0100081B010008D0
:1000A0001B0100081B0100081B0100081B010008C0
:1000B000B90D00081B0100081B0100081B01000806
:1000C0001B0100081B0100081B0100081B010008A0
:1000D0001B0100081B0100081B0100081B01000890
:1000E0001B0100081B0100081B010008DFF80CD0F1
:1000F00000F062F90048004703100008A004002047
:100100000648804706480047FEE7FEE7FEE7FEE7B1
:10011000FEE7FEE7FEE7FEE7FEE7FEE7590D000813
:10012000ED000008F0B480EA0102D40F4200B2EB07
:10013000410F02D20246084611464A0042D0C30D82
:10014000DDB2C1F3C752AD1A202D35DAC1F3160165
:1001500041F4000204B15242C5F1200602FA06F150
:100160002A411044B3EBD05F23D0C4B1012DA0EBE2
:10017000C35009DCF0BC4FF0004202EAC352DBB2CC
:1001800000F5000000F0E9B8400000F1807000EBDD
:10019000C350A0F1807040EAD170490009E04908DD
:1001A00041EAC071A0EBC35000F50000400800EB2D
:1001B000C350F0BC00F0C8B86142012202EB41011B
:1001C000001BF6E7F0BC704781F00041AAE780F021
:1001D0000040A7E780EA010210B502F000434000AA
:1001E00022D04A001FD0010E01EB1261C0F356006D
:1001F000C2F3560240F4000042F40002A0FB0220C9
:1002000000047F39140400D0401C50EA124001D48D
:100210004000491EC2B20C0604EBD010401C40083E
:10022000802A02D003E0002010BD20F00100002948
:1002300000DA0020184310BD30B480EA010202F059
:10024000004530F0004221F0004013D090B1C30DC2
:10025000D40DC2F31601C0F31600E41A41F40001F4
:1002600040F400027D34914201D3641C00E0490057
:10027000002C02DA30BC002070474FF4000000234D
:10028000914201D3891A034340084FEA4101F7D153
:1002900051B1914202D14FF0004105E002D24FF03E
:1002A000010101E06FF0010103EBC450284430BCB0
:1002B00000F04AB8C10F80EAE0700844CA079623EC
:1002C000002100F04AB800F0004220F00040C10DCB
:1002D000C0F3160040F400007F2901DA00207047C7
:1002E000962903DCC1F19601C84001E096398840A7
:1002F000002AF4D04042704720F00040C10DC0F306
:10030000160040F400007F2901DA0020704796298A
:1003100003DCC1F19601C8407047963988407047A8
:10032000002801DBC0F10040002901DBC1F10041E0
:1003300081427047002801DBC0F10040002901DB49
:10034000C1F10041884270470029A8BF7047401C96
:10035000490008BF20F00100704710B4B0FA80FCDB
:1003600000FA0CF050EA010404BF10BC704749B118
:10037000CCF1200421FA04F411FA0CF118BF012188
:1003800021430843A3EB0C01CB1D4FEA00614FEA68
:10039000102042BF002010BC704700EBC350104437
:1003A0000029A4BF10BC7047401C490008BF20F0C2
:1003B000010010BC70470000064C074D06E0E068E5
:1003C00040F0010394E8070098471034AC42F6D39C
:1003D000FFF790FE58100008781000082DE9F04152
:1003E000024600250026002000230024002791F863
:1003F00003C00CF00F0591F803C00CF0100CBCF119
:10040000000F03D091F802C04CEA050591F800C036
:10041000BCF1000F31D0146800202BE04FF0010C2C
:100420000CFA00F3B1F800C00CEA03069E4220D19A
:1004300083004FF00F0C0CFA03F7BC4305FA03FCE2
:100440004CEA040491F803C0BCF1280F06D14FF028
:10045000010C0CFA00FCC2F814C00AE091F803C0C9
:10046000BCF1480F05D14FF0010C0CFA00FCC2F8AA
:1004700010C0401C0828D1D31460B1F800C0BCF1F2
:10048000FF0F34DD546800202EE000F1080C4FF01F
:10049000010808FA0CF3B1F800C00CEA03069E420A
:1004A00021D183004FF00F0C0CFA03F7BC4305FA7F
:1004B00003FC4CEA040491F803C0BCF1280F05D1F9
:1004C00000F1080C08FA0CF8C2F8148091F803C087
:1004D000BCF1480F07D100F1080C4FF0010808FAF1
:1004E0000CF8C2F81080401C0828CED35460BDE838
:1004F000F0810000F0B50A46002300240021002509
:1005000000F00046B6F1004F02D11D4EF16901E046
:100510001B4E7168C0F3034583B200F44016B6F574
:10052000401F08D121F07061154E766826F0706684
:10053000134F7E6012E000F48016B6F5801F06D1DE
:10054000032606FA05F4A14341F0706106E0460D6A
:10055000360103FA06F6B14341F0706122B1460D4F
:10056000360103FA06F6314300F00046B6F1004FBB
:1005700002D1034EF16101E0014E7160F0BD000057
:10058000000001400246002093680B400BB101209F
:1005900000E000207047016170470AB1016100E08E
:1005A0004161704708B50121042000F00BFA4FF4B7
:1005B0008050ADF8000028208DF8030069460248FD
:1005C000FFF70CFF08BD00000008014010B50B4804
:1005D00000780B4908704FF480510A48FFF7D2FFAA
:1005E000064908700648007828B9084600780128AE
:1005F00001D1002010BD0120FCE700001C000020FC
:100600001D0000200008014008B50121042000F071
:10061000D9F94FF40040ADF8000010208DF8030028
:1006200003208DF8020069460448FFF7D7FE4FF417
:1006300000410248FFF7AFFF08BD0000000801407D
:1006400070B5002100230F22C47804B3154C246830
:1006500004F4E064C4F5E064210AC1F10403CA4073
:10066000447804FA03F184781440214309010E4CC4
:100670000678A155047804F01F050124AC400578E4
:100680006D11AD0005F1E025C5F8004109E00478E1
:1006900004F01F050124AC40044D0678761145F89E
:1006A000264070BD0CED00E000E400E080E100E0D9
:1006B00038B50121082000F085F903208DF80200EB
:1006C00010208DF803000820ADF800006946264888
:1006D000FFF784FE1020ADF8000069462248FFF7BE
:1006E0007DFE2020ADF8000069461F48FFF776FE2A
:1006F0004020ADF8000069461B48FFF76FFE8020E0
:10070000ADF8000069461848FFF768FE4FF48070A6
:10071000ADF8000069461448FFF760FE4FF4007022
:10072000ADF8000069461048FFF758FE002417E0B6
:1007300040F2DC500D4901EB041108800C480B49D4
:1007400001EB041148600B48084901EB0411886073
:1007500041F28830054901EB04114880601CC4B2A5
:10076000082CE5DB38BD0000000C01402000002013
:100770000080BB440000A0412DE9F04704460D462F
:100780001646082C01DBBDE8F0877DB9002037490B
:1007900001EB04118860354901EB04114868FFF74B
:1007A000ABFD324901EB04110880ECE740F6BA10CA
:1007B000854201DD054604E0B5F5FF7F01DA4FF41F
:1007C000FF7542F21070864200DD461E2846FFF794
:1007D00071FD0746254800EB041041683846FFF7D5
:1007E0009FFD0AD12846FFF765FD80462049FFF7A7
:1007F00099FC0746FFF767FD0546142E10DA1B49E2
:1008000001EB04110D802846FFF754FD174901EB59
:10081000041148600020154901EB0411886022E0B2
:10082000124901EB04110D80104901EB04114E80B7
:100830003046FFF73FFD81460E49FFF7FDFC0746B6
:100840002846FFF737FD8146084800EB0410416851
:100850004846FFF7B9FC80463946FFF7EDFC0349EF
:1008600001EB0411886000BF8DE70000200000202C
:100870004850FC3B0000A0412DE9F04704462A49BE
:1008800001EB041188680021FFF74AFD01D1BDE8A2
:10089000F087254800EB0410058840F6BA10854221
:1008A00001DD054604E0B5F5FA7F01DA4FF4FA758B
:1008B0001D4901EB041188684FF08041FFF78AFC65
:1008C000804600F092FB06462846FFF7F3FC81467F
:1008D000154800EB041041684846FFF775FC804658
:1008E00000F083FB07463146FFF71AFD0CD8284677
:1008F000FFF7E0FC0C4901EB0411486000200A49B5
:1009000001EB041188600DE0074A02EB04129168C4
:10091000054A02EB04125068FFF704FC024901EBA0
:100920000411486000BFB2E72000002070B5044603
:100930000D46072C31D2DFE804F0040A10161C2201
:1009400029002A4608211648FFF727FE26E02A46F6
:1009500010211348FFF721FE20E02A4620211048ED
:10096000FFF71BFE1AE02A4640210D48FFF715FE4F
:1009700014E02A4680210A48FFF70FFE0EE02A46BF
:100980004FF480710648FFF708FE07E02A464FF44F
:1009900000710348FFF701FE00E000BF00BF70BD1B
:1009A000000C014029B1064AD2690243044BDA61C6
:1009B00004E0034AD2698243014BDA6170470000C8
:1009C0000010024029B1064A92690243044B9A6121
:1009D00004E0034A92698243014B9A617047000028
:1009E000001002400F48006840F001000D49086007
:1009F000084640680C4908400A49486008460068B3
:100A00000A490840074908600846006820F4802029
:100A100008600846406820F4FE0048604FF41F005C
:100A200088607047001002400000FFF8FFFFF6FEEC
:100A300010B501460022002300204A11012A02D1EC
:100A4000094C236806E0022A02D1074C236A01E020
:100A5000054C636A01F01F02012494401C400CB154
:100A6000012000E0002010BD001002400248406854
:100A700000F00C007047000000100240014600200A
:100A8000034A506820F0F0000843506070470000AF
:100A9000001002401149096821F480310F4A1160A9
:100AA0001146096821F480211160B0F5803F03D020
:100AB000B0F5802F0ED106E00849096841F4803175
:100AC000064A116007E00549096841F4A021034A7C
:100AD000116000E000BF00BF70470000001002403E
:100AE00001460020034A506820F4E060084350604B
:100AF000704700000010024001460020034A506881
:100B000020F4605040EAC10050607047001002407D
:100B1000014908667047000000004242024600207A
:100B2000044B586820F47C1042EA01031843014B3F
:100B3000586070470010024001460020034A506888
:100B400020F003000843506070470000001002408E
:100B500038B5002000900024002500BF3120FFF7A9
:100B600067FF05460098401C00900098B0F5A06F04
:100B700001D0002DF2D03120FFF75AFF08B1012437
:100B800000E00024204638BD10B5FFF72BFF4FF4DE
:100B90008030FFF77FFFFFF7DBFF044600BF002C2C
:100BA000FDD00020FFF76AFF4FF48060FFF798FF49
:100BB0000020FFF7A1FF4FF4E0114FF48030FFF762
:100BC000ADFF0120FFF7A4FF00BF3920FFF730FF82
:100BD0000028FAD00220FFF7AFFF00BFFFF746FF63
:100BE0000828FBD110BD000010B501210D20FFF732
:100BF000E9FE01210148FFF77DFC10BD0002300035
:100C000010B500F001F810BD0CB500200190009067
:100C10003348006840F480303149086000BF3048F4
:100C2000006800F4003000900198401C019000988A
:100C300018B90198B0F5A06FF1D12948006800F407
:100C4000003010B10120009001E0002000900098D9
:100C5000012843D12348006840F010002149086072
:100C60000846006820F0030008600846006840F06D
:100C7000020008601A484068194948600846406800
:100C800048600846406840F4806048600846406814
:100C900020F47C1048600846406840F4E810486042
:100CA0000846006840F08070086000BF0C4800688B
:100CB00000F000700028F9D00948406820F00300D7
:100CC000074948600846406840F00200486000BF9D
:100CD0000348406800F00C000828F9D10CBD000062
:100CE000001002400020024030B5144800684FF464
:100CF0007A72B0FBF2F1B1F1807F00D31DE021F0F8
:100D00007F40401E4FF0E022506150170F22002814
:100D100007DA13071D0E0A4B00F00F04241F1D55A0
:100D200003E013071C0E074B1C5400BF00204FF0BC
:100D3000E02290610720106100BF30BD0800002054
:100D400018ED00E000E400E002480068401C0149A2
:100D5000086070470000002010B51348006840F09C
:100D600001001149086008464068104908400E49D2
:100D70004860084600680E4908400B49086008466C
:100D8000006820F4802008600846406820F4FE00D7
:100D900048604FF41F008860FFF732FF4FF000609B
:100DA0000449086010BD0000001002400000FFF878
:100DB000FFFFF6FE08ED00E010B50121880700F006
:100DC00099F8002841D021480078082802D1002055
:100DD0001E4908701E480078A0B91E491B4A1278A7
:100DE00001EB02114868FFF787FA4FF080418885D0
:100DF000012116480078FFF799FD14480078FFF7A5
:100E00003BFD16E01349114A127801EB02114868C4
:100E1000FFF772FA40F6C4110C1A09078C850021FD
:100E20000A480078FFF782FD08480078401C07490F
:100E300008700748007808B9012000E00020044944
:100E400008700121880700F046F810BD0500002059
:100E500004000020200000207FB505460C4601213B
:100E60000846FFF79FFDADF80850ADF8044000209C
:100E7000ADF80A00ADF8060001A94FF0804000F07F
:100E800053F800214FF0804000F019F8012211467C
:100E9000900700F040F81C208DF8000001208DF82C
:100EA000010003208DF8020001208DF80300684640
:100EB000FFF7C6FB0121880700F010F87FBD21B1C4
:100EC000028842F08002028004E002884FF67F73BD
:100ED0001A4002807047CA430282704721B10288DB
:100EE00042F00102028004E002884FF6FE731A40CD
:100EF0000280704730B50246002000230024158A86
:100F000005EA0103958905EA010413B10CB101203A
:100F100000E0002030BD1AB183890B43838102E0D9
:100F200083898B4383817047002202881D4B98423E
:100F30000ED01D4B98420BD0B0F1804F08D01B4B08
:100F4000984205D01A4B984202D01A4B984204D1CD
:100F50004FF68F731A404B881A43174B984207D0AD
:100F6000164B984204D04FF6FF431A40CB881A43E1
:100F700002808B8883850B8803850A4B98420BD0AF
:100F8000094B984208D00E4B984205D00D4B984221
:100F900002D00D4B984201D10B7A03860123838244
:100FA00070470000002C0140003401400004004064
:100FB00000080040000C00400010004000140040F9
:100FC00000400140004401400048014002E008C8E0
:100FD000121F08C1002AFAD170477047002001E0B3
:100FE00001C1121F002AFBD1704710B50446002131
:100FF0002046FFF79FF901D2204610BD84F0004043
:10100000FBE7FFF7C1FDFFF7EFFDFFF76DFEFFF711
:10101000FBFAFFF7C7FAFFF74BFB472144F62060C6
:10102000FFF71AFF4FF4FA74620021460020FFF721
:10103000A3FB10E0FFF7CAFA68B904F5FA7440F6AA
:10104000C410844201DD4FF4FA744FF47A722146E1
:101050000020FFF791FBEDE778100008000000206A
:1010600020000000CC0F000898100008200000208D
:1010700080040000DC0F00080000000000000000F9
:1010800000A24A0400000000000000000102030466
:08109000060708090101000038
:04000005080000ED02
:00000001FF
