:020000040800F2
:100000002827002001010008090100080B01000851
:100010000D0100080F010008110100080000000098
:1000200000000000000000000000000013010008B4
:10003000150100080000000017010008E94200084F
:100040001B0100081B0100081B0100081B01000820
:100050001B0100081B0100081B0100081B01000810
:100060001B0100081B0100081B0100081B01000800
:100070001B0100081B0100081B0100081B010008F0
:100080001B0100081B0100081B0100081B010008E0
:100090001B0100081B0100081B0100081B010008D0
:1000A0001B0100081B0100081B0100081B010008C0
:1000B000C14300081B0100081B0100081B010008C8
:1000C0001B0100081B0100081B0100081B010008A0
:1000D0001B010008D5450008054600083546000804
:1000E0001B0100081B0100081B010008DFF80CD0F1
:1000F00000F0F2FF0048004789650008282700202B
:100100000648804706480047FEE7FEE7FEE7FEE7B1
:10011000FEE7FEE7FEE7FEE7FEE7FEE7F94200083E
:10012000ED00000840EA01039B0703D009E008C97D
:10013000121F08C0042AFAD203E011F8013B00F8AC
:10014000013B521EF9D27047D2B201E000F8012BF8
:10015000491EFBD270470022F6E710B513460A4647
:1001600004461946FFF7F0FF204610BD421C10F868
:10017000011B0029FBD1801A7047034611F8012B9F
:1001800000F8012B002AF9D1184670470FB400B5CA
:100190008DB010A909900B9000914FF0FF300A909C
:1001A00000200C9005480690054807906A4609A86B
:1001B0000F9900F013FE0DB05DF814FBF90D000867
:1001C000170E00082DE9FF5F1D464FF0FF3BD5E9F4
:1001D000014691465F464FF00008A9697F1C0198CF
:1001E0008847296A824688470028F6D1BAF1FF3F3E
:1001F0000CD024F4C064002E19DD600614D5BAF1C9
:100200002B0F09D0BAF12D0F0ED103E0584604B0E0
:10021000BDE8F09F44F48064A9697F1C0198884779
:10022000761E8246002E02DDBAF1300F03D0B9F1FE
:10023000000F26D032E0A969761E44F400747F1CBA
:10024000019888478246002E05DDBAF1780F06D066
:10025000BAF1580F03D0B9F1000F10D01EE0B9F178
:10026000000F02D0B9F1100F18D1A969761E24F43D
:1002700000747F1C019888478246102002E0082005
:1002800000E00A20814609E008FB0908A969761EFA
:1002900044F400747F1C019888478246002E05DDD7
:1002A0004946504600F086FD0028EDDAE9690198DC
:1002B0008847A00502D46FF00100A8E7E00725D128
:1002C000600613D5600502D5C8F1000000E0404685
:1002D00029680A1D2A600968220501D5087015E001
:1002E000220701D5088011E008600FE02868011D91
:1002F00029600068210502D580F8008006E021070A
:1003000002D5A0F8008001E0C0F8008038467EE702
:100310002DE9FF4F087883B09946FF2805D0491C86
:100320002D2804D00024002008E000200BE0012448
:10033000F9E700EB800003EB4000491C0B78FF2B32
:10034000F7D104B1404200230293147819461D46A8
:100350002D2C01D02B2C04D1521C2D2C13D0002479
:100360000294AA461478FF2C0FD00A25A3FB057827
:1003700001FB05814FF0000C03FB0C11521CE3192B
:100380004AEB0101EEE70124EAE7814453EA010068
:1003900002D019F5C87F06DA03980021C0E90011E0
:1003A00007B0BDE8F08F0025AE4E2F46DFF8B882CB
:1003B000184600F03DFECDE90001B9F1000002DA77
:1003C000C9F1000400E004460023A74A1AEB030B1E
:1003D00042EB045A12E0E00707D02A46334638467B
:1003E000414600F0B4FA074688462A46334610468E
:1003F000194600F0ACFA05460E466410002CEAD10E
:10040000DDE90001B9F1000F5A46534606DA00F063
:1004100010FB3A46434600F00CFB05E000F097FA6B
:100420003A46434600F093FA029A0AB181F000413D
:10043000039AC2E90001B3E72DE9FF4F1F468DB0D3
:10044000D7E901464FF0FF382E2045464FF000090E
:100450000B90B9696D1C0E988847396A82468847A7
:100460000028F6D1BAF1FF3F0AD024F4D064002E60
:1004700011DDBAF12B0F08D0BAF12D0F0BD102E02C
:10048000404611B08DE744F48064B9696D1C0E9844
:1004900088478246761E6946600501D52D2000E01A
:1004A0002B208DF8000001F1010B0DF1200809E06F
:1004B000B9696D1C0E98884782460F9844F4007401
:1004C000761E0560002E02DDBAF1300FF0D00B99D8
:1004D0008A453ED144F0800406E00F99681CA9F1DA
:1004E000010944F400740860B9696D1C761E0E9809
:1004F000884782463028F0D02BE00B998A4505D1F9
:10050000200603D444F08004761E18E0504605F01F
:10051000ADF808B30DF11301761E44F400748B4559
:1005200008D2AAF130000BF8010B200607D5A9F17B
:10053000010003E0200602D409F101008146A00574
:1005400002D50F99681C0860B9696D1C0E98884720
:100550008246002ED1DC53E0002E51DDBAF1650F4A
:1005600002D0BAF1450F4BD1A00549D5B9696D1C30
:1005700024F44074761E0E9888478246002E0CDDC7
:100580002B2804D0BAF12D0F07D144F48074B96937
:100590006D1C0E9888478246761EE00501D52D21F8
:1005A00000E02B2108F8011BCDF82C8021E00DF193
:1005B0002901761E44F4007488450CD2AAF130005B
:1005C00010F0FF0088F8000002D10B99884509D986
:1005D00008F1010806E0E00501D5244801E042F2F7
:1005E0000F708146B9696D1C0E98884782460F9836
:1005F0000560002E04DD504605F038F80028D6D1FD
:10060000F9690E988847FF208BF8000088F80000F1
:100610000020069007904B466A4608A906A8FFF7F7
:1006200077FEA00502D46FF001002AE714F0240F32
:100630000AD0E00714D1DDE906123868031D3B60DB
:100640000068C0E900120BE0DDE9060100F00AFBDA
:100650000146E00704D13868021D3A600068016075
:1006600028460EE7000014400000F03FF1D8FFFFDD
:10067000F0B480EA0102D40F4200B2EB410F02D283
:100680000246084611464A0042D0C30DDDB2C1F30E
:10069000C752AD1A202D35DAC1F3160141F400021C
:1006A00004B15242C5F1200602FA06F12A41104473
:1006B000B3EBD05F23D0C4B1012DA0EBC35009DC54
:1006C000F0BC4FF0004202EAC352DBB200F500007A
:1006D00000F0BBBB400000F1807000EBC350A0F104
:1006E000807040EAD170490009E0490841EAC071D0
:1006F000A0EBC35000F50000400800EBC350F0BC75
:1007000000F09ABB6142012202EB4101001BF6E7B7
:10071000F0BC704781F00041AAE780F00040A7E7F5
:1007200080EA010210B502F00043400022D04A00E6
:100730001FD0010E01EB1261C0F35600C2F3560246
:1007400040F4000042F40002A0FB022000047F39C4
:10075000140400D0401C50EA124001D44000491E4D
:10076000C2B20C0604EBD010401C4008802A02D014
:1007700003E0002010BD20F00100002900DA002075
:10078000184310BD30B480EA010202F0004530F099
:10079000004221F0004013D090B1C30DD40DC2F33C
:1007A0001601C0F31600E41A41F4000140F40002FF
:1007B0007D34914201D3641C00E04900002C02DA30
:1007C00030BC002070474FF400000023914201D359
:1007D000891A034340084FEA4101F7D151B19142D0
:1007E00002D14FF0004105E002D24FF0010101E0DB
:1007F0006FF0010103EBC450284430BC00F01CBB77
:100800002DE9FE4F804681EA0300C00F0C460090A0
:1008100021F0004123F00045B8EB0200A94105D2C8
:100820004046214690461C460B46024623F00040B7
:10083000104347D0270DC7F30A00C3F30A510290B3
:10084000401A019040286BDAC3F3130040F4801B78
:100850000098924620B10023D2EB030A63EB0B0B06
:1008600001985946C0F14002504600F072FA06461F
:100870000D4650465946019A00F08AFA10EB0800DE
:100880006141002487EA115284EAE7731A4340D099
:10089000009A62B3019A012A4FEA075215DC001B45
:1008A00061EB02014FF0004202EA0752CDE900423B
:1008B000001C41F5801132462B4600F003FB03B0CB
:1008C000BDE8F08F40462146F9E7001B61EB0201CD
:1008D000001C41F5801300185B412018A2F5001799
:1008E00047EB030140EAD570B6196D4111E06D0880
:1008F0004FEA360645EAC0754FEA0752001B61EB26
:100900000201001C41F5801149084FEA300000192E
:10091000514132462B4603B0BDE8F04F00F0C3BA58
:100920000098012240000023D0EB020263EBE07349
:10093000009821464FEAE074B8EB000061EB040137
:10094000E9E783F000435BE781F0004158E72DE9D8
:10095000FE4F81EA030404F0004421F000410094BA
:100960004FF0000B23F0004350EA01045ED052EA3E
:1009700003045BD0C3F30A54C1F30A552C44A4F218
:10098000F3340194A0FB0254C1F3130141F480112C
:10099000C3F3130343F4801301FB024400FB034E33
:1009A000840A970A44EA815447EA8357A4FB0768FC
:1009B00002958D0A05FB07854FEA932C04FB0C5426
:1009C0002705029D4FEA065847EA1637B5EB08059A
:1009D0006EEB070C870E920E47EA811742EA8312EC
:1009E000A7FB0201B6EB0B0164EB00042B0D43EAFD
:1009F0000C335E1844EB1C50DA465146E7FB02010B
:100A0000C5F313044FEA0B3343EA14534FEA04329D
:100A1000019C43EA0603A4F10C040294009CCDE976
:100A200000B400F04FFA03B0BDE8F08F002001469B
:100A3000F9E72DE9F04D81EA030404F0004B21F0C1
:100A4000004514464FF0000A23F0004150EA050229
:100A500020D054EA01021DD0C5F30A570246C5F35F
:100A60001303C1F31300C1F30A5640F4801543F495
:100A70008013A7EB0608101BD64608F2FD3873EB6F
:100A8000050002D308F1010801E092185B41B8F1BA
:100A9000000F03DA00200146BDE8F08D00204FF47E
:100AA0008011064684460EE0171B73EB050705D33D
:100AB000121B63EB050306434CEA010C49084FEA9D
:100AC000300092185B4150EA0107EDD152EA030071
:100AD00012D082EA040083EA0501084305D0101B06
:100AE000AB4106D20122002306E000224FF0004372
:100AF00002E06FF0010253101AEB06004CEB0851B4
:100B000010EB0A0041EB0B01BDE8F04D00F0CBB952
:100B1000C10F80EAE0700844CA079623002100F064
:100B200094B996230022114600F08FB90EB540F219
:100B3000334102910021CDE900110A460B4600F035
:100B4000C1F903B000BD00F0004220F00040C10D2B
:100B5000C0F3160040F400007F2901DA002070473E
:100B6000962903DCC1F19601C84001E0963988401E
:100B7000002AF4D04042704720F00040C10DC0F37D
:100B8000160040F400007F2901DA00207047962902
:100B900003DCC1F19601C840704796398840704720
:100BA00070B5C1F30A5201F000450024C1F31301EE
:100BB00040F2FF3341F480119A4201DA002070BD07
:100BC00040F233439A42A2F2334203DC524200F035
:100BD000CFF800E090402C43F1D0404270BD00F0CF
:100BE000004230F000400AD0C10D01F56071C0F341
:100BF000160042EA0151C208400711437047002025
:100C00000146704730B5041E71F1000404DB4FF05B
:100C10000044404264EB0101141E73F1000405DB43
:100C20001C464FF00043524263EB04038B4208BF63
:100C3000824230BD30B5041E71F1000404DB4FF078
:100C40000044404264EB0101141E73F1000405DB13
:100C50001C464FF00043524263EB0403994208BF25
:100C6000904230BD01F0004330B421F0004150EA21
:100C7000010206D00A0DA2F56072C1F31301002A29
:100C800002DC30BC00207047440F44EAC104C100BC
:100C9000E01830BC00EBC25000F0CEB8002801DBF9
:100CA000C0F10040002901DBC1F1004181427047E1
:100CB000002801DBC0F10040002901DBC1F1004147
:100CC0008842704730B50B4601460020202201249F
:100CD00009E021FA02F59D4205D303FA02F5491B0A
:100CE00004FA02F52844151EA2F10102F1DC30BD20
:100CF0002DE9F05F0546002092469B468846064651
:100D0000814640241BE0284641464746224600F0E3
:100D10002FF853465A46C01A914110D3114618462F
:100D2000224600F016F82D1A67EB01084F462246BE
:100D30000120002100F00DF817EB00094E41201EA4
:100D4000A4F10104DFDC484631462A464346BDE8AB
:100D5000F09F202A04DB203A00FA02F100207047BD
:100D60009140C2F1200320FA03F3194390407047E9
:100D7000202A04DB203A21FA02F00021704721FAF0
:100D800002F3D040C2F12002914008431946704757
:100D9000202A06DBCB17203A41FA02F043EAE0733F
:100DA00006E041FA02F3D040C2F12002914008432C
:100DB000194670473A2800D2303820F02002412AE4
:100DC00001D3A2F13700884201D34FF0FF307047C2
:100DD000026811441378016018467047D1600449D5
:100DE00051610449116200211161114600F08CB972
:100DF000D10D0008FD100008426842B1016811F8E9
:100E0000013B23B1521EC0E9001218467047012170
:100E1000C160881E704742685AB1C368016843B90F
:100E200083688B4205D0491E521CC0E90012002085
:100E300070474FF0FF3070470029A8BF7047401C33
:100E4000490008BF20F00100704710B4B0FA80FCE0
:100E500000FA0CF050EA010404BF10BC704749B11D
:100E6000CCF1200421FA04F411FA0CF118BF01218D
:100E700021430843A3EB0C01CB1D4FEA00614FEA6D
:100E8000102042BF002010BC704700EBC35010443C
:100E90000029A4BF10BC7047401C490008BF20F0C7
:100EA000010010BC704710B5141E73F1000408DA7D
:100EB000401C41F1000192185B411A4301D120F01E
:100EC000010010BD2DE9F04D92469B4611B1B1FADB
:100ED00081F202E0B0FA80F220329046FFF739FF4B
:100EE00004460F4640EA0A0041EA0B0153465A46BF
:100EF000084313D0114653EA010019D0C8F140024B
:100F00005046FFF735FF05460E46504659464246C5
:100F1000FFF71FFF084305D0012004E020463946B3
:100F2000BDE8F08D0020054346EAE0762C433743C8
:100F30000A986305E40AA0EB08000022FD0A44EACF
:100F400047540A3002D500200146E9E7010510198F
:100F50006941DDE9084500196941BDE8F04DA2E7A6
:100F600070B521F0004303430CD0C1F30A550024AF
:100F7000D5EB040564EB0403D617AD1AB34102DBCD
:100F80000020014670BD201841EB025170BD2DE9D3
:100F9000F04D00231A461B1A8A4103DB002001464C
:100FA000BDE8F08DC1F30A52C1F3130141F480157D
:100FB0004FF0000BD10702D100186D41521E0027DF
:100FC000044640F2FF11384601EB620A3E46804675
:100FD000024600204FF48011FFF7CAFEC21971418A
:100FE000BB1846EB0100B4EB030C75EB000C04D30B
:100FF000E41A65EB000517460E46241908F10100B6
:101000006D4180463428E3DDF91946EB0600091BE3
:10101000A84103D24FF0FF32134601E000221346ED
:101020001BEB070046EB0A51BDE8F04DFFF73BBF55
:101030000EB540F2334202920022CDE9002213465F
:10104000FFF740FF03B000BDC1F30A52C1F3130123
:1010500040F2FF3341F480119A4202DA0020014647
:10106000704740F233439A42A2F2334202DC5242CA
:10107000FFF77EBEFFF76DBE70B5044601F0004578
:101080000020054304D14FF00045644265EB0101A7
:1010900003F00045284305D118464FF00043524263
:1010A00063EB0003101B73EB010002D24FF0004012
:1010B00009E082EA040283EA01034FF000501A4378
:1010C00001D14FF0C0404FEA2062EFF3008162F39C
:1010D0001F6181F3008870BD064C074D06E0E06893
:1010E00040F0010394E8070098471034AC42F6D36F
:1010F000FFF700F8F06C0008106D0008C0B24FF464
:10110000F05100F0A9B900002DE9F34F8BB04FF07A
:10111000000801F10C000C464FF0010B46460DF1A2
:10112000080A01906269012101989047051E2DD09F
:10113000252D2CD0216A8847C0B162690121019810
:101140009047216A88470028F7D1411E62690198BB
:10115000904700E0761CA1690B988847216A884770
:101160000028F7D1E1690B988847DBE7A1690B9864
:1011700088470746A84201D1761CD3E7E1690B985E
:1011800088477F1C02D1B8F1000F6FD046E10027DD
:1011900062693D463946019890472A2804D1626920
:1011A0000121019890470125DFF8849262690121AD
:1011B00001989047A0F130010A290AD24F45E5DC99
:1011C00007EB870100EB4107303FDFD445F0100506
:1011D000ECE7E90601D46FF000476C280AD04C28F0
:1011E00014D0682815D06A280DD074281CD07A280D
:1011F0001AD01DE062690121019890476C2802D045
:1012000045F0040514E045F002050DE045F0200529
:101210000AE06269012101989047682802D045F0F0
:10122000080505E045F400656269012101989047D1
:10123000C4E9015765283DD019DC58287AD00CDC68
:10124000452837D004DC252826D0412831D131E08B
:1012500046282FD047282CD12CE05B2877D0612856
:1012600028D063287CD0642823D15AE0D0E06F28AE
:1012700048D008DC66281DD067281BD0692821D0FB
:101280006E2816D127E0702845D0732868D07528BD
:1012900047D078280DD14DE0A1690B9888470546C5
:1012A00025283FF469AFE1690B9888476D1C3FF42E
:1012B0006AAFB3E023466A466FF001000B99FFF76F
:1012C000BBF89EE045F040006060A80723464FF061
:1012D000000236D43EE0E8077FF447AF2068011DE6
:1012E00021600068290501D506701BE7290701D593
:1012F000068017E7A90703D5F117C0E9006111E7D8
:1013000006600FE745F040006060A80723464FF0F5
:10131000080216D41EE040F60E0125EA01006060C6
:1013200016E045F040006060A80723464FF00A022F
:1013300007D40FE045F040006060A80708D52346B9
:1013400010226FF001000B99AFF3008059E007E025
:10135000234610226FF001000B99FEF733FF50E097
:101360004FF000094F464B46632802D05B2806D059
:1013700040E0E80601D40120A06001273AE062695C
:101380000121019890475E2805D14FF0010962695B
:10139000494601989047216939B900210A465346C8
:1013A00043F82120491C0829FADBB0B3216969B947
:1013B000C11700EBD16253110AEB830122F01F0227
:1013C000821A01200B68904003430B60626901217F
:1013D000019890475D28E8D1B9F1000F09D00020AD
:1013E000514651F82020D24341F82020401C0828C3
:1013F000F7DB02AB224600976FF001000B99AFF3C9
:10140000008000280CDA401C08D1BBF1000F05D089
:101410004FF0FF300DB0BDE8F08FFFE74046F9E731
:10142000E90701D108F1010806444FF0000B79E605
:10143000CCCCCC0C0EB5C10F80EAE0700844CA07D2
:10144000002140F233438DE80E000A460B46FFF7B9
:1014500039FD03B000BD00007F2801D9002208E05B
:10146000064A02EB5002C007127800D1120902F0BE
:101470000F020120904008407047000048690008B2
:1014800070B58C1810F8015B15F0070301D110F846
:10149000013B2A1106D110F8012B03E010F8016B73
:1014A00001F8016B5B1EF9D12B0705D40023521EF6
:1014B0000DD401F8013BFAE710F8013BCB1A921C5E
:1014C00003E013F8015B01F8015B521EF9D5A1425C
:1014D000D8D3002070BD000010B500F07DFE134988
:1014E0000968401A322800D210BD00F075FE0F497D
:1014F000086001F035FE0E4800780E49C978884230
:1015000005D10B4840780B49097988420BD009482E
:101510004178C01C00F0FAFF0648C0780449087002
:1015200004480079487000BFDEE70000AC040020EA
:10153000A80400200C13002008B50121042002F0AB
:101540006DF80820ADF8000010208DF8030003208E
:101550008DF802006946044800F036F90821024877
:1015600000F018FA08BD00000008014070B50446FC
:101570000D4600260EE00821084800F00DFAA0B242
:1015800000F0E4F80821054800F004FAA0B200F0E9
:10159000DDF8761CAE42EED370BD000000080140BD
:1015A00021B1026842F00102026004E002684FF6D5
:1015B000FE731A400260704701684FF6FE721140D8
:1015C00001600021016041608160C1604B49884237
:1015D00008D14A490839496841F00F01474A083A99
:1015E00051608AE045491431884208D1434908399D
:1015F000496841F0F001414A083A51607DE03F49B5
:101600002831884208D13D490839496841F4706160
:101610003A4A083A516070E038493C31884208D172
:1016200036490839496841F47041344A083A5160F2
:1016300063E032495031884208D13049083949685D
:1016400041F470212D4A083A516056E02B4964312B
:10165000884208D129490839496841F47001274A6C
:10166000083A516049E025497831884208D1234938
:101670000839496841F07061204A083A51603CE0FD
:101680001F49884206D1011F096841F00F01021F5E
:10169000116032E01A491431884208D11849091FF3
:1016A000096841F0F001164A121F116025E0144943
:1016B0002831884208D11249091F096841F4706134
:1016C0000F4A121F116018E00D493C31884208D1C1
:1016D0000B49091F096841F47041094A121F116042
:1016E0000BE007495031884207D10549091F0968B5
:1016F00041F47021024A121F116070470800024035
:10170000080402400146486880B2704710B50022C4
:10171000026847F6F0739A430C6A8B6823430C699E
:1017200023434C6923438C692343CC6923434C6A8C
:1017300023438C6A23431A430260CB6843600B68DF
:1017400083604B68C36010BD4160704718B50446A4
:101750000020009006E04FF47A7000F007F800983F
:10176000401C00900098A042F5D318BD0CB5002194
:1017700001910BE00B21009102E00099491E0091BC
:1017800000990029F9D10199491C019101998142DF
:10179000F0D30CBD10B504464FF480610848FEF745
:1017A000DAFC21024FF48072054802F091FB0448F4
:1017B00000F0F9F803490860014800F0D5FF10BDBA
:1017C0000C0B0020200400202DE9F04102460025EA
:1017D0000026002000230024002791F803C00CF00D
:1017E0000F0591F803C00CF0100CBCF1000F03D0F2
:1017F00091F802C04CEA050591F800C0BCF1000F59
:1018000031D0146800202BE04FF0010C0CFA00F3EB
:10181000B1F800C00CEA03069E4220D183004FF0CD
:101820000F0C0CFA03F7BC4305FA03FC4CEA040462
:1018300091F803C0BCF1280F06D14FF0010C0CFA4F
:1018400000FCC2F814C00AE091F803C0BCF1480FD4
:1018500005D14FF0010C0CFA00FCC2F810C0401C7E
:101860000828D1D31460B1F800C0BCF1FF0F34DDFB
:10187000546800202EE000F1080C4FF0010808FA2F
:101880000CF3B1F800C00CEA03069E4221D183009C
:101890004FF00F0C0CFA03F7BC4305FA03FC4CEABB
:1018A000040491F803C0BCF1280F05D100F1080C25
:1018B00008FA0CF8C2F8148091F803C0BCF1480F84
:1018C00007D100F1080C4FF0010808FA0CF8C2F833
:1018D0001080401C0828CED35460BDE8F081000081
:1018E000F0B50A46002300240021002500F0004640
:1018F000B6F1004F02D11D4EF16901E01B4E716837
:10190000C0F3034583B200F44016B6F5401F08D17A
:1019100021F07061154E766826F07066134F7E6078
:1019200012E000F48016B6F5801F06D1032606FAF1
:1019300005F4A14341F0706106E0460D360103FA5B
:1019400006F6B14341F0706122B1460D360103FA4B
:1019500006F6314300F00046B6F1004F02D1034EC7
:10196000F16101E0014E7160F0BD00000000014036
:101970000246002093680B400BB1012000E00020DC
:10198000704702460020D3680B400BB1012000E0F5
:101990000020704741617047016170470AB10161E1
:1019A00000E04161704770B502460021002000232D
:1019B00023E0545C542C1ED14C1C145D303C4FF47D
:1019C0007A756C438D1C555D303D05EBC50606EB05
:1019D000051504EB8505CC1C145D303C04EB840438
:1019E00005EB44050C1D145D303C2B19834200DDD2
:1019F0001846091D01E0491C00BF545C002CD8D1D9
:101A000070BD00000FB59DB0FE491D98FEF788FE21
:101A10001D90FC491E98FEF783FE1E90F9491F9801
:101A2000FEF77EFE1F90229800681790229840686B
:101A300016902298806815902298C0681490002112
:101A40001D98FFF72BF902D1002018901BE0DDE96B
:101A50001D01FEF797FE0790FFF7C1F8CDE90801D9
:101A600004F0F2FA0022E84BCDE90A01FEF76FFF1D
:101A7000E64AE74BCDE90C01FEF7DBFFCDE90E01AD
:101A8000FFF7F0F818901E990846FEF749FE0A90F5
:101A90001D990846FEF744FE09900A99FEF7E8FDF5
:101AA0000B90FFF79CF8CDE90C0104F023FECDE983
:101AB0000E01FFF7D7F81E902098FFF790F8D34A51
:101AC000D34BCDE90001FEF742FF0022D14BCDE917
:101AD0000201FEF7AEFFCDE9040104F0C5FBCDE93C
:101AE00008011498FFF77BF8CDE90601DDE908232A
:101AF000FEF72DFFCDE90C011E98FFF770F8CDE938
:101B00000A01DDE90C23FEF71CFFCDE90E01FFF70A
:101B1000A9F81E902098FFF762F8BC4ABC4BCDE9AB
:101B20000001FEF714FF0022BA4BCDE90201FEF7D7
:101B300080FFCDE9040104F08DFDCDE90801149882
:101B4000FFF74DF8CDE90601DDE90823FEF7FFFEBA
:101B5000CDE90C0117991F98FEF7DCFD0990FFF7FE
:101B60003EF8CDE90A01DDE90C23FEF7EAFECDE9F6
:101B70000E01FFF777F81F90179880F000400F9044
:101B80001F99FFF795F802D2012021B000BDDDE9D1
:101B90001510FEF76DFD0B90FFF721F8CDE90E0152
:101BA0001F990846FEF7BCFD08901E990846FEF7EF
:101BB000B7FD07900899FEF75BFD0990FFF70FF856
:101BC000CDE90A0104F096FDCDE90C01DDE90E2313
:101BD000FFF730F801D20220D7E71F990846FEF739
:101BE0009FFD04901E990846FEF79AFD0390049904
:101BF000FEF73EFD0590FEF7F2FFCDE9060104F089
:101C000079FDCDE90A011E98FEF7E9FFCDE908014B
:101C1000DDE90A23FEF70DFFCDE90C0104F0D6F84B
:101C2000CDE90E01FFF71EF811901F990846FEF747
:101C300077FD02901E990846FEF772FD0190029909
:101C4000FEF716FD0390FEF7CAFFCDE9040104F08C
:101C500051FDCDE908014FF080401699FEF760FD77
:101C60000590FEF7BCFFCDE90601DDE90823FEF78C
:101C70006EFECDE90C0115990846FEF751FD08905E
:101C800016990846FEF74CFD06901F990846FEF788
:101C900047FD04901E990846FEF742FD0390049903
:101CA000FEF7E6FC05900699FEF7E2FC079008991E
:101CB000FEF730FD0990FEF792FFCDE90A01DDE95C
:101CC0000C23FEF7B6FECDE90E01FEF7CBFF129016
:101CD0004FF07E511298FEF7EBFF04D34E49129855
:101CE000FEF7DCFF01D205204FE700211F98FEF729
:101CF000D5FF02D24848109002E04FF07E5010907D
:101D00001298FEF76CFFCDE9080104F05FF8CDE909
:101D10000C01DDE91010FEF703FD0990FEF75FFFEF
:101D2000CDE90A01DDE90C23FEF76AFDCDE90E01DC
:101D3000FEF798FF19901998FEF751FF0022354BD6
:101D4000CDE90A01FEF703FE304A314BCDE90C0123
:101D5000FEF76FFECDE90E01FEF784FF199019988A
:101D6000FEF73DFF00222B4BCDE90E01FEF762FF8F
:101D700009D31998FEF733FF00221346CDE90E016F
:101D8000FEF740FF01D20620FFE64FF08040169993
:101D9000FEF7C6FC0D901599FEF7C2FC0F90159941
:101DA0000846FEF7BDFC0D9016990846FEF7B8FCF4
:101DB0000B901F990846FEF7B3FC09901E99084640
:101DC000FEF7AEFC08900999FEF752FC0A900B99B9
:101DD000FEF7A0FC0C900D99FEF79CFC80F00040F3
:101DE0000E900F99FEF7CEFC13904FF07E51139892
:101DF000FEF75EFF04D308491398FEF74FFF0DD29C
:101E00000320C2E60000204100E070404AD8124D95
:101E1000FB21094000806640000080BF1398FEF758
:101E2000DEFECDE90C0103F0D1FFCDE90E01FEF796
:101E300019FF1A901A98FEF7D2FE0022694BCDE9DD
:101E40000801FEF784FD684A684BCDE90A01FEF7F8
:101E5000F0FD0022634BCDE90C01FEF775FDCDE9E5
:101E60000E01FEF7FFFE1A901A98FEF7B8FE002248
:101E70005F4BCDE90E01FEF7DDFE09D31A98FEF7A0
:101E8000AEFE00225B4BCDE90E01FEF7BBFE01D298
:101E900004207AE619992098FEF73CFC0F901A99D5
:101EA000FEF7E6FB1B901B98FEF799FE0022524BB3
:101EB000CDE90E01FEF7BEFE09D31B98FEF78FFE9B
:101EC00000224E4BCDE90E01FEF79CFE01D2072009
:101ED0005BE622991898086149491998FEF71AFC9F
:101EE0000146229841611A99229881611B99229892
:101EF000C161229800690790FEF771FE0022414BF4
:101F0000CDE90801FEF723FD00223F4BCDE90A0190
:101F1000FEF78FFD00223D4BCDE90C01FEF714FDCD
:101F2000CDE90E01FEF73CFE229908642298406933
:101F30000790FEF754FE0022324BCDE90801FEF770
:101F400006FD0022304BCDE90A01FEF772FD0022AA
:101F50002E4BCDE90C01FEF7F7FCCDE90E01FEF7A3
:101F60001FFE014622984164229880690790FEF77F
:101F700036FE0022234BCDE90801FEF7E8FC0022E3
:101F8000214BCDE90A01FEF754FD00221F4BCDE99C
:101F90000C01FEF735FCCDE90E01FEF701FE01460E
:101FA000229881642298C0690790FEF718FE0022EB
:101FB000144BCDE90801FEF7CAFC0022124BCDE913
:101FC0000A01FEF736FD0022104BCDE90C01FEF7A9
:101FD000BBFCCDE90E01FEF7E3FD01462298C1648A
:101FE0000020D2E5008066404AD8124DFB2109400E
:101FF00000E0604000E060C000805640008056C0B5
:102000000000B44200409F4000E0704000709740E4
:1020100008B50121042001F001FB4FF40040ADF8A8
:10202000000010208DF8030003208DF8020069469F
:102030000448FFF7C9FB4FF400410248FFF7ACFC2E
:1020400008BD00000008014070B5044600F0C4F867
:102050000C490968401AA04200D270BD00F0BCF8DB
:10206000084908604FF400410748FFF78AFCC0F1B7
:102070000100C5B22A464FF400410348FFF78EFC29
:1020800000BFEAE7000400200008014010B52F4817
:102090000078002855D100F09FF82D490968401AB2
:1020A0002C49096888424FD900F096F82849086001
:1020B0002948006848B12948006830B901202349FF
:1020C000087027A002F0DEFC10BD28480068FFF76A
:1020D00061FB2748006827490968884218DA2348C5
:1020E00000682449096888420CD1214800681F49CA
:1020F00008601948006820B118480068401E174958
:102100000860E1E719480068401C184908601BE0B6
:10211000164800681749096888420CD114480068BD
:10212000124908600C48006820B10C480068401E45
:102130000A490860C8E70D480068401E0B4908605E
:1021400002E00A200349086000BFBDE70804002040
:1021500024040020200400201C040020100400207F
:102160004047726F7570446F6E6521000C0400204B
:10217000140400201804002010B51448008818B377
:1021800013480078012806D002280BD003280DD070
:10219000042813D10EE00F4800F006FF0D4800F0B0
:1021A00091FC0BE00B4800F0DFFA07E0094800F073
:1021B000DBFA03E0074801F01BFC00BF00BF002072
:1021C000034908700149088010BD0000C0040020C8
:1021D000C20400200C0B002001480068704700007A
:1021E000CC04002070B5002100230F22C47804B372
:1021F000154C246804F4E064C4F5E064210AC1F1DC
:102200000403CA40447804FA03F18478144021435B
:1022100009010E4C0678A155047804F01F0501242D
:10222000AC4005786D11AD0005F1E025C5F8004121
:1022300009E0047804F01F050124AC40044D067841
:10224000761145F8264070BD0CED00E000E400E09A
:1022500080E100E070B5002419E004F1B001C8B2DB
:10226000002100F0D8F80021084600F0D4F8002141
:10227000102000F0D0F8002505E00121002000F03A
:10228000CAF8681CC5B2802DF7DB601CC4B2082CEC
:10229000E3DB70BD2DE9F05F06460F4690461C4615
:1022A000DDF828A04FF0000BE11704EB5171C910C5
:1022B000A4EBC10131B92046E11704EB5171C1F320
:1022C000C70506E02046E11704EB5171C910491C0F
:1022D000CDB23D4615E02946304600F087F8B146BC
:1022E0000BE059460BF1010B1AF80100012100F037
:1022F00092F809F1010000F0FF09C145F1DB681C0B
:10230000C5B2A542E7DBBDE8F09F10B56420FFF73A
:102310001DFA0021AE2000F07EF80021084600F0F2
:102320007AF80021102000F076F80021402000F01B
:1023300072F80021B02000F06EF80021812000F03A
:102340006AF80021FF2000F066F80021A12000F0CB
:1023500062F80021A62000F05EF80021A82000F01D
:102360005AF800213F2000F056F80021C82000F064
:1023700052F80021D32000F04EF80021084600F06A
:102380004AF80021D52000F046F80021802000F016
:1023900042F80021D82000F03EF80021052000F08E
:1023A0003AF80021D92000F036F80021F12000F0A1
:1023B00032F80021DA2000F02EF80021122000F07F
:1023C0002AF80021DB2000F026F80021302000F060
:1023D00022F800218D2000F01EF80021142000F0CA
:1023E0001AF80021AF2000F016F810BD70B50446B1
:1023F0000D4605F1B001C8B2002100F00CF8102123
:1024000041EA1410002100F006F804F00F0000214A
:1024100000F001F870BD13B50C4634B101236A46D3
:1024200040213C2001F090FC05E001236A46002198
:102430003C2001F089FC1CBD00B587B0D0222749A3
:10244000274801F045FD2648D0F8CC0025280BD0C0
:10245000002007E040F2DC522149AC3141F8202055
:10246000411CC8B20828F5DB1D48D0F8C8001C493B
:10247000D1F8C4101A4AD2F8C020194BD3F8BC3096
:10248000CDE90232CDE904101548D0F8B80014495E
:10249000D1F8B410CDE900101148D0F8B03011A136
:1024A000D0F8AC20184802F0C1FC174802F0EAFA54
:1024B0000B48D0F8A80025280ED0002006E0002206
:1024C0000749883141F82020411CC8B20828F6DBB2
:1024D00025210348C0F8A81007B000BD00F87F0010
:1024E00004090020696E69745F706F733A25642C6B
:1024F00025642C25642C25642C25642C25642C252E
:10250000642C25640D0A0000040500202DE9F0412B
:1025100007460E4600257878397800EB012085497A
:10252000088085480088098888426ED081480088E4
:10253000824908807F4800887F49098808407D4992
:1025400008800024EDE00120A0407A490988084075
:1025500000287DD10120A040774909880840002843
:102560007FD04FF480617648FDF7F5FD732E0DD1D5
:10257000744951F82400FDF7F9FD8046714850F880
:10258000241042466E48FDF7CDFD10E0412E0DD1DE
:102590006D4951F82400FDF7E9FD80466A4850F87E
:1025A000241042466648FDF7BDFD00E0B7E067A194
:1025B000634801F043FEC5B21DB10021681E604AA8
:1025C000115463A15E4801F039FEF8B1002240F2D7
:1025D0002551604802F025F900205F4908805849DC
:1025E0000B315E48FDF7C9FD5C495548FDF7C5FD57
:1025F000012059490880012240F22551554802F036
:1026000010F901205649087026E091E055A14C4888
:1026100001F014FE00B3002240F225514D4802F0B3
:1026200000F900204C49088045490B314B48FDF723
:10263000A4FD4A494248FDF7A0FD01204649088013
:10264000012240F22551434802F0EBF8022001E05C
:1026500064E006E0424908704FF6FF703649088092
:102660005CE04FF480613648FDF775FD732E0DD1A7
:10267000344951F82400FDF779FD8046314850F87F
:10268000241042462E48FDF74DFD10E0412E0DD19D
:102690002D4951F82400FDF769FD80462A4850F87D
:1026A000241042462648FDF73DFD00E037E027A113
:1026B000234801F0C3FDC5B285B32149481924A1BF
:1026C00001F0BCFD90B11E4841192448FDF755FDAD
:1026D0002248FDF74BFD401E204900220A541848AD
:1026E000FDF74BFD164800F0EDF917E014494819C5
:1026F0001CA101F0A3FD88B1114841191748FDF74D
:102700003CFD1648FDF732FD401E144900220A54D4
:102710000B48FDF732FD0A4800F026F800BF601CA8
:10272000C4B2102CFFF60FAF04480088024908809D
:10273000BDE8F081B2040020B0040020B404002001
:102740000C0B002028040020680400205E0000001C
:102750002400000000380140C004002004050020CF
:10276000C2040020230000002DE9FF5F044600267C
:10277000207823287DD120795028FBD160795328F7
:10278000F8D1A0794328F5D1E0794B287DD1207B81
:1027900021287AD16078303864214843A1783039D3
:1027A00001EB810100EB4101E0783038084485B24B
:1027B000607A303864214843A17A303901EB8101D5
:1027C00000EB4101E07A30380F1817F1640F54DB49
:1027D000642F52DC082D50DA207A2B281CD1384681
:1027E000FEF796F9A049039051F82500FEF790F9FD
:1027F00002909E4800EB051041680298FDF78DFF9E
:1028000083460399FDF734FF984901EB05114860B1
:10281000954840F825701FE0207A2D281CD13846B5
:10282000FEF776F99049039051F82500FEF770F90C
:1028300002908E4800EB051041680298FDF76DFF8D
:1028400083460399FDF766FF884901EB051148604F
:102850007942854840F82510844901EB0511486804
:10286000FEF78AF9814901EB0511088080487F490C
:1028700000E00AE001EB05118860022001F0B8F9E0
:1028800021467CA002F0C2FA23E02078232820D140
:10289000207950281DD1607944281AD1A079532875
:1028A00017D1E079542814D1207A212811D16078E9
:1028B000303864214843A178303901EB810100EBC5
:1028C0004101E07830380D18E8B200F0EFFCBDE8C7
:1028D000FF9F2046FDF74AFC8146BEE0A05D23280D
:1028E00013D10025701C86B208E0A05D05EB8501C0
:1028F00000EB4100303885B2701C86B2A05D002824
:10290000EBD0A05D5028E8D0EFE7A05D50281ED1A5
:102910004FF0000A701C86B212E0A05DFEF701F9CC
:10292000554903905046FDF7FBFE02900399FDF7D1
:102930009FFE83465149FDF7EDFE8246701C86B22C
:10294000A05D0028C9D0A05D5428C6D0E5E7A05DF1
:1029500054287CD14FF00008701C86B209E0A05DBD
:1029600008EB880100EB410030381FFA80F8701C3A
:1029700086B2A05D10B1A05D2128F0D1052D0DD14A
:102980003F495046FEF794F901D8DFF8F4A03D49DD
:102990005046FEF783F901D8DFF8E8A0032D06D1F1
:1029A00039495046FEF784F901D8DFF8DCA0022D42
:1029B0000DD136495046FEF77BF901D8DFF8CCA09F
:1029C00033495046FEF76AF901D8DFF8C4A0012D5B
:1029D0000DD12E495046FEF76BF901D8DFF8ACA0B7
:1029E0002B495046FEF75AF901D8DFF8A4A01E493A
:1029F00051F82500FEF78CF883465146FDF738FE66
:102A000082465046FEF79FF88346E8B24246594652
:102A100000F07AFC012001F0EBF85046FEF7DFF8F9
:102A200002460B46CDF80080CDE90201294619A0E7
:102A300002F0ECF9022001F0DBF85046FEF79CF8BA
:102A40001FFA80FB43465A46294619A000E002E0DF
:102A500002F0DCF901E0701C86B2A05D10B1B14556
:102A6000BFF63CAF00BF32E78C0900202C0A0020E3
:102A70006F12833A2573000000002041000040429D
:102A80000000FA44000096440080D444004003450E
:102A9000000061440D0A696E6465783A25642C7003
:102AA000776D3A25672C74696D653A25640D0A00C7
:102AB0002325303364502530346454253034642168
:102AC0000000000030B58BB00546002400200A90BD
:102AD0000990089007900690059004900390BDA17E
:102AE000284601F0ABFB04464CB1012001F080F810
:102AF000BAA002F08BF9FF2000F0D8FB67E1BAA181
:102B0000284601F09BFB04468CB10120B8490870AF
:102B100001F06EF8B7A002F079F9BAA002F0A0F8BF
:102B2000FF2000F0C3FBFF20B94908704FE1B9A1B5
:102B3000284601F083FB0446C4B10AAAB7A128467F
:102B4000FDF724FB0028D9D00A99C8B200F0AEFBEB
:102B5000B5A1B9480A9A02F069F9B74802F080F8BD
:102B60004FF48061B448FDF7F6FA30E1B3A128468E
:102B700001F064FB044614B101F012F927E1B1A1A0
:102B8000284601F05BFB04466CB109AAAFA12846B8
:102B9000FDF7FCFA0028B1D001209549087009988A
:102BA000FEF7F8FD13E1ACA1284601F047FB04460F
:102BB0004CB3AB48AB4BAC4AACA100902846FDF7F8
:102BC000E5FA00289AD0012001F012F8ABA002F03B
:102BD0001DF9012086490870A3480068A1490968C9
:102BE00088420BD0A0480068A74908609C4800684C
:102BF000A649086000207E490870E8E09A4800680D
:102C0000FEF7C8FDE3E0A2A1284601F017FB044649
:102C10006CB1A1A002F024F84FF4FA6240F2DC514A
:102C2000FF2000F071FBFF2079490870CFE09EA1E2
:102C3000284601F003FB0446ACB109AA9CA19F48B9
:102C4000FDF7A4FA002890D07149099808700998F6
:102C500010B99BA002F004F80998022885D19CA025
:102C600001F0FEFFB3E09EA1284601F0E7FA04461A
:102C700034B1012000F0BCFF9BA002F0C7F8A6E031
:102C800089A1284601F0DAFA044694B109AA88A17C
:102C90008A48FDF77BFA002884D0099810B988A0EB
:102CA00001F0DEFF09980228A7D189A001F0D8FF22
:102CB0008DE08EA1284601F0C1FA0446F4B10A2045
:102CC000FEF744FD8DA0FFF74FFD0A20FEF73EFD05
:102CD000012000F08DFF8CA002F098F8022000F097
:102CE00087FF89A002F092F80A20FEF72FFD8EA040
:102CF00002F08CF80A20FEF729FD68E08CA1284636
:102D000001F09CFA0446D4B108A805A906AB07AAAD
:102D1000CDE9001088A12846FDF738FA002856D0E2
:102D2000DDE90703DDE9052103F06AFB00284ED148
:102D3000012000F05DFF85A002F068F847E089A15E
:102D4000284601F07BFA0446ACB103A804AB0AAAFA
:102D500086A100902846FDF719FAC0B3012000F0C3
:102D600047FF87A002F052F80A99C8B2DDE90321B3
:102D700000F0E0FB2BE086A1284601F05FFA044654
:102D80002CB3012000F034FF83A002F03FF80821AB
:102D90008448FEF701FE1E20FEF7D8FC082181487A
:102DA000FEF7F8FD1E20FEF7D1FC08217D48FEF756
:102DB000F3FD1E20FEF7CAFC08217A48FEF7EAFD63
:102DC0001E20FEF7C3FC08217648FEF7E5FD0BB098
:102DD00030BD0000244452532100000068656C6C33
:102DE0006F20776F72642100244453542100000047
:102DF0000804002050617273655F436D64204F4B7F
:102E0000000000002444535421204F4B00000000D8
:102E1000B6040020244453543A0000002444535480
:102E20003A256421000000002325303364504453C8
:102E300054210D0A000000000405002024525354C0
:102E400021000000244447533A0000002444475323
:102E50003A25642100000000244447543A00000051
:102E60001C040020180400201404002024444754AB
:102E70003A25642D25642C25642100004447542004
:102E800020204447540D0A000C04002010040020A8
:102E900024444A5221000000233235355031353068
:102EA000305432303030210024534D4F444500001F
:102EB00024534D4F44452564210000000C0B002095
:102EC0002330313050313531325430303030210000
:102ED00023303130503135313154303030302100F1
:102EE00024474554412100004141410024534D41B4
:102EF00052545F53544F50210000000023323535A7
:102F000050445354210000002330303650313530C6
:102F1000305430303030212330303750313530307C
:102F20005430303030210000404F4B210000000071
:102F3000244B4D533A000000244B4D533A25662C48
:102F400025662C25662C25642100000043616E2730
:102F5000742066696E64206265737420706F7321DB
:102F60002121000024416E676C653A0024416E67A0
:102F70006C653A25642C25662C256621000000002E
:102F8000416E676C65202020416E676C650D0A00FC
:102F9000244245455021000062757A7A65720D0A17
:102FA000000000000008014038B50446002514A1C7
:102FB000204601F043F905460DB31348134B144A5C
:102FC00014A100902046FDF7E1F8C0B10120154999
:102FD00008700F4800680D49096888420BD00C48FA
:102FE000006811490860084800681049086000201E
:102FF0000C49087003E006480068FEF7CBFB38BDBB
:10300000244447543A0000001C0400201804002007
:1030100014040020244447543A25642D25642C25AB
:1030200064210000080400200C040020100400208B
:10303000002014E040F2DC5100EB4002094B23F881
:103040002210094900EB400203EB8202516000218B
:1030500000EB400203EB82029160411CC8B20828D9
:10306000E8DB7047AC0A00200080BB4408B50121B2
:103070000C2000F0D3FA0220ADF8000028208DF8D3
:10308000030003208DF8020069461748FEF79CFBF9
:103090008020ADF8000010208DF8030003208DF88B
:1030A000020069461048FEF78FFB0120ADF80000D2
:1030B00069460E48FEF788FB0220ADF8000069461D
:1030C0000A48FEF781FB012211460848FEF766FC1C
:1030D000012202210548FEF761FC012280210248FD
:1030E000FEF75CFC08BD000000080140000C014038
:1030F0002DE9F04105462F460026002427E0012057
:10310000A04000EA070280211348FEF747FC012295
:1031100002211248FEF742FC0620FEF727FB0022A0
:1031200002210E48FEF73AFC0620FEF71FFB0122A3
:1031300002210A48FEF732FC02210748FEF718FC7C
:1031400018B10120A0403043C6B2601CC4B2082CA4
:10315000D5DB3046BDE8F08100080140000C01409D
:1031600010B5002201211B48FEF718FC0120FFF7D3
:10317000BFFF194908704220FFF7BAFF164948708F
:103180000878FFF7B5FF144988700878FFF7B0FF9B
:103190001149C8700878FFF7ABFF0F49087108782C
:1031A000FFF7A6FF0C4948710878FFF7A1FF0A490D
:1031B00088710878FFF79CFF0749C8710878FFF706
:1031C00097FF05490872012211460248FEF7E6FB07
:1031D00010BD0000000C01400C13002038B5012187
:1031E000082000F01BFA03208DF8020010208DF853
:1031F00003000820ADF8000069462848FEF7E4FA0D
:103200001020ADF8000069462448FEF7DDFA2020C2
:10321000ADF8000069462148FEF7D6FA4020ADF827
:10322000000069461D48FEF7CFFA8020ADF8000087
:1032300069461A48FEF7C8FA4FF48070ADF80000EE
:1032400069461648FEF7C0FA4FF40070ADF800006A
:1032500069461248FEF7B8FA00241CE040F2DC5040
:103260000F4901EB041108800E480D4901EB0411D0
:1032700048600D480A4901EB0411886041F288302A
:10328000074901EB041148800020054901EB0411B6
:10329000C860601CC4B2082CE0DB38BD000C0140E3
:1032A0002C0A00200080BB440000A04110B5044659
:1032B000082C0FDA0020134901EB04118860114932
:1032C00001EB04114868FDF757FC0E4901EB0411AE
:1032D000088016E0FF2C14D1002410E000200949DA
:1032E00001EB04118860074901EB04114868FDF700
:1032F00043FC044901EB04110880601CC4B2082C93
:10330000ECDB10BD2C0A00202DE9F04704460D46E9
:103310001646082C01DBBDE8F0877DB9002037494F
:1033200001EB04118860354901EB04114868FDF791
:1033300023FC324901EB04110880ECE740F6BA1097
:10334000854201DD054604E0B5F5FF7F01DA4FF463
:10335000FF7542F21070864200DD461E2846FDF7DA
:10336000D7FB0746254800EB041041683846FDF7B7
:1033700095FC0AD12846FDF7CBFB80462049FDF796
:1033800077F90746FDF7DFFB0546142E10DA1B49D7
:1033900001EB04110D802846FDF7BAFB174901EB3C
:1033A000041148600020154901EB0411886022E0F7
:1033B000124901EB04110D80104901EB04114E80FC
:1033C0003046FDF7A5FB81460E49FDF7DBF90746C0
:1033D0002846FDF79DFB8146084800EB0410416834
:1033E0004846FDF797F980463946FDF7CBF9034982
:1033F00001EB0411886000BF8DE700002C0A00205B
:103400004850FC3B0000A0412DE9F04704462A4902
:1034100001EB041188680021FDF740FC01D1BDE8F3
:10342000F087254800EB0410058840F6BA10854265
:1034300001DD054604E0B5F5FA7F01DA4FF4FA75CF
:103440001D4901EB041188684FF08041FDF768F9D0
:10345000804602F0AFFC06462846FDF759FB814640
:10346000154800EB041041684846FDF753F98046C3
:1034700002F0A0FC07463146FDF710FC0CD82846A8
:10348000FDF746FB0C4901EB0411486000200A4996
:1034900001EB041188600DE0074A02EB0412916809
:1034A000054A02EB04125068FDF7E2F8024901EB0D
:1034B0000411486000BFB2E72C0A002070B5044632
:1034C0000D46072C31D2DFE804F0040A10161C2246
:1034D00029002A4608211648FEF760FA26E02A4607
:1034E00010211348FEF75AFA20E02A4620211048FE
:1034F000FEF754FA1AE02A4640210D48FEF74EFA2C
:1035000014E02A4680210A48FEF748FA0EE02A46CF
:103510004FF480710648FEF741FA07E02A464FF45F
:1035200000710348FEF73AFA00E000BF00BF70BD2B
:10353000000C01402DE9F74F84B08B46924650466F
:10354000FDF74DFBCDE900015846FDF748FB064667
:10355000DDE9002302F0F7FE044622460B46002078
:10356000014602F0CFFE8046FDF77CFB8346104803
:1035700001685846FDF7D4F8834651465846FDF792
:1035800001F905460B49FDF7CBF804460A49FDF75A
:103590006FF802900298FDF7D6FA04464FF47A725B
:1035A00021460498FFF7B0FE07B0BDE8F08F000099
:1035B000B80400200000FA440000FA4329B1064A8A
:1035C00052690243044B5A6104E0034A5269824340
:1035D000014B5A61704700000010024029B1064AB1
:1035E000D2690243044BDA6104E0034AD2698243A0
:1035F000014BDA61704700000010024029B1064A11
:1036000012690243044B1A6104E0034A12698243BF
:10361000014B1A61704700000010024029B1064AB0
:1036200092690243044B9A6104E0034A926982431F
:10363000014B9A61704700000010024029B1064A10
:10364000D2680243044BDA6004E0034AD268824342
:10365000014BDA6070470000001002400F4800681C
:1036600040F001000D490860084640680C490840D8
:103670000A494860084600680A4908400749086046
:103680000846006820F4802008600846406820F45E
:10369000FE0048604FF41F00886070470010024031
:1036A0000000FFF8FFFFF6FE30B5002100220024E5
:1036B00000232D4D6D6805F00C0121B1042905D0C2
:1036C000082923D105E0294D056022E0274D05603A
:1036D0001FE0254D6D6805F47012234D6D6805F4EB
:1036E0008034022505EB92421CB9214D55430560FB
:1036F0000BE01D4D6D6805F400351DB11C4D5543A3
:10370000056002E0194D5543056002E0174D056064
:1037100000BF00BF144D6D6805F0F0010909154D9B
:103720006B5C0568DD4045600F4D6D6805F4E06138
:10373000090A104D6B5C4568DD4085600A4D6D6877
:1037400005F46051C90A0B4D6B5C4568DD40C560EE
:10375000054D6D6805F44041890B074D6B5CC568EC
:10376000B5FBF3F5056130BD0010024000127A0090
:1037700000093D00E8040020F804002010B50146CF
:103780000022002300204A11012A02D1094C23689B
:1037900006E0022A02D1074C236A01E0054C636A65
:1037A00001F01F02012494401C400CB1012000E0F4
:1037B000002010BD001002400248406800F00C00DC
:1037C000704700000010024001460020034A506884
:1037D00020F0F000084350607047000000100240E5
:1037E0001149096821F480310F4A116011460968B6
:1037F00021F480211160B0F5803F03D0B0F5802F17
:103800000ED106E00849096841F48031064A11608A
:1038100007E00549096841F4A021034A116000E06E
:1038200000BF00BF704700000010024001460020AA
:10383000034A506820F4E06008435060704700007D
:103840000010024001460020034A506820F46050F6
:1038500040EAC1005060704700100240014908660C
:10386000704700000000424202460020044B5868A6
:1038700020F47C1042EA01031843014B5860704762
:103880000010024001460020034A506820F0030067
:1038900008435060704700000010024038B5002017
:1038A00000900024002500BF3120FFF767FF054688
:1038B0000098401C00900098B0F5A06F01D0002D3A
:1038C000F2D03120FFF75AFF08B1012400E00024B4
:1038D000204638BD10B5FFF7C1FE4FF48030FFF72A
:1038E0007FFFFFF7DBFF044600BF002CFDD0002068
:1038F000FFF76AFF4FF48060FFF798FF0020FFF7A3
:10390000A1FF4FF4E0114FF48030FFF7ADFF01202D
:10391000FFF7A4FF00BF3920FFF730FF0028FAD0DF
:103920000220FFF7AFFF00BFFFF746FF0828FBD1DB
:1039300010BD04E003788B4200D10270401C037874
:10394000002BF7D17047000010B540F2FF7000F077
:103950003FFAD0220249034800F074FB10BD00007A
:1039600000F87F000409002021B1028842F04002E3
:10397000028004E002884FF6BF731A40028070474D
:103980000246002013890B400BB1012000E000200B
:1039900070470146888970478181704710B50022C1
:1039A000028802F441520B884C8823438C882343BD
:1039B000CC8823430C8923434C8923438C8923439C
:1039C000CC8923431A430280838B4FF2FF74234038
:1039D00083830B8A038210BD10B501210D20FFF7F0
:1039E0001DFE01210148FDF77BFF10BD00023000E4
:1039F00070B504464FF0FF35607824280CD1A078CC
:103A0000212809D10021374880F88410FFF79CFF56
:103A100035A001F037F870BD607824281BD18121D2
:103A20003048001DFCF797FB611C2E48001DFCF779
:103A3000A4FB2046FCF79AFB801E2A49091D0022A0
:103A40000A542521274880F88410FFF77DFF2BA01A
:103A500001F018F8DFE7A07830384FF47A71484366
:103A6000E178303901EBC10202EB011100EB810179
:103A70002079303800EB800001EB4001607930386C
:103A80000D18002D02DBA079232803D020A000F020
:103A9000F9FFC0E72802C11700EB11510913A0EB91
:103AA000013131B92E02F11706EB1151081300F064
:103AB0008FF97B223C212046FFF73BFF7D223E21F0
:103AC0002046FFF736FF2046FCF750FB401C86B22D
:103AD00029023246204600F05BFA0EA000F0D2FF29
:103AE00000BF98E70409002040434C454152205054
:103AF00052455F434D44204F4B21000040534554F5
:103B0000205052455F434D44204F4B2100000000A0
:103B1000450000004100000038B504464FF4004065
:103B2000ADF8000014208DF8030003208DF802008A
:103B300069461648FDF748FE002523E004F08000A2
:103B400028B10122D1031148FDF728FF05E000222A
:103B50004FF400410D48FDF721FF012291030B486E
:103B6000FDF71CFF0020FDF701FE00224FF480410D
:103B70000648FDF713FF0020FDF7F8FD6006040E70
:103B8000681CC5B2082DD9DB38BD0000001001400B
:103B900010B5002424E0144830F82410243830F8FC
:103BA00024000844114901EB041108800E4951F822
:103BB0002420243951F824105018FCF7A9FF0B4990
:103BC00001EB041148600020084901EB04118860F2
:103BD00041F28830054901EB04114880601CC4B2F1
:103BE000082CD8DB10BD0000B00900202C0A0020F2
:103BF0000149087070470000BC04002010B500F0B7
:103C000001F810BD0CB50020019000903348006809
:103C100040F480303149086000BF3048006800F44B
:103C2000003000900198401C0190009818B901984C
:103C3000B0F5A06FF1D12948006800F4003010B150
:103C40000120009001E0002000900098012843D15D
:103C50002348006840F010002149086008460068C9
:103C600020F0030008600846006840F00200086089
:103C70001A48406819494860084640684860084644
:103C8000406840F4806048600846406820F47C103A
:103C900048600846406840F4E810486008460068FC
:103CA00040F08070086000BF0C48006800F00070B1
:103CB0000028F9D00948406820F00300074948600F
:103CC0000846406840F00200486000BF0348406872
:103CD00000F00C000828F9D10CBD000000100240D3
:103CE0000020024008B501211020FFF797FC4FF497
:103CF0008040ADF8000014208DF8030003208DF8FB
:103D0000020069460F48FDF75FFD01211020FFF713
:103D100085FC4FF40040ADF8000014208DF803003E
:103D200003208DF8020069460648FDF74DFD4FF46B
:103D300080410448FDF730FE4FF400410148FDF793
:103D40002BFE08BD001001402DE9F04105460E464E
:103D500014461F4600F00CFA6906080EFFF7DCFE59
:103D600001F008F810B10120BDE8F0813046FFF7FE
:103D7000D3FE00F0FFFF08B10220F5E708E014F8D9
:103D8000010BFFF7C9FE00F0F5FF08B10320EBE7D8
:103D9000381EA7F10107F2D100F022FA0020E3E774
:103DA000012080F3138800BF00BF0748006800F4BB
:103DB000E06006490843001D03490860BFF34F8FC8
:103DC00000BF00BFFEE700000CED00E00000FA05B8
:103DD00010B50446240300F0C9F800F0BDF8002235
:103DE0004FF480510C48FDF7D9FD202000F096F9E2
:103DF000C4F3074000F092F9C4F3072000F08EF9F5
:103E0000E0B200F08BF9012211030348FDF7C6FD73
:103E100000F0A2F810BD0000000C014010B5012117
:103E20000820FFF7FBFB4FF4805025490880102045
:103E3000C870032088702348FDF7C6FC4FF48051FA
:103E40002048FDF7A9FD4FF420401D4908801820A7
:103E5000C8701C48FDF7B8FC4FF480401849088032
:103E60004820C8701748FDF7AFFC4FF420411548B3
:103E7000FDF792FD01218803FFF7B0FB00201249F6
:103E800008804FF482704880002088800220C8801B
:103E90000120088140024881382088810020C881A3
:103EA000072008820948FFF779FD01210748FFF73D
:103EB0005BFDFF2000F032F9002000F01DF910BD7D
:103EC000C6040020000C01401613002000380040FA
:103ED0002DE9F04106460C46174600224FF480516A
:103EE0001048FDF75BFD032000F018F9C4F307400C
:103EF00000F014F9C4F3072000F010F9E0B200F06C
:103F00000DF9002505E0FF2000F008F97055681C48
:103F100085B2BD42F7DB012211030248FDF73EFDE9
:103F2000BDE8F081000C014010B5002400224FF4E0
:103F300080510848FDF732FD052000F0EFF8FF2022
:103F400000F0ECF80446012211030248FDF726FDBB
:103F5000204610BD000C014010B500BFFFF7E4FF84
:103F600000F001000028F9D110BD000010B50022BA
:103F70004FF480510548FDF711FD062000F0CEF802
:103F8000012211030148FDF709FD10BD000C01409D
:103F90002DE9F04107460E461446F0B2C0F5807593
:103FA000AC4200DC254612E02A463146384600F095
:103FB00013F8AC4200D10BE02F442E44601B84B2B6
:103FC000B4F5807F02DD4FF4807500E02546EBE715
:103FD00000BFBDE8F08100002DE9F04107460C4626
:103FE0001646E0B2C0F58078464500DD4646FFF74C
:103FF000BDFF00224FF480511148FDF7CFFC022095
:1040000000F08CF8C4F3074000F088F8C4F30720F0
:1040100000F084F8E0B200F081F8002504E0785D5B
:1040200000F07CF8681C85B2B542F8DB0122110370
:104030000348FDF7B3FCFFF78FFFBDE8F0810000F8
:10404000000C01402DE9F04781460F4616464FEA25
:104050001738C7F30B0ACAF58054A64200DC344671
:1040600044E04FEA08314FF480522248FFF730FF16
:10407000002508E00AEB05001E49085CFF2800D077
:1040800003E0681C85B2A542F4DB00BFA54216DA46
:104090004046FFF79DFE002507E019F8050005EBF7
:1040A0000A01144A5054681C85B2A542F5DB4FEA58
:1040B00008314FF480520F48FFF76AFF04E02246B0
:1040C00039464846FFF764FFA64200D10FE008F1E9
:1040D00001084FF0000AA1442744301B86B2B6F510
:1040E000805F02DD4FF4805400E03446B9E700BF42
:1040F000BDE8F0872813002010B5044605488481E8
:1041000001460548FFF74AFC01210348FFF72CFC54
:1041100010BD0000161300200030014070B50546A8
:10412000002405E0601CC4B2C82C01DD002070BD75
:1041300002210E48FFF724FC0028F3D029460B4843
:10414000FFF72AFC002405E0601CC4B2C82C01DD86
:104150000020ECE701210548FFF712FC0028F3D00E
:104160000248FFF716FCC0B2E1E70000003800404B
:1041700008B54FF40040ADF8000014208DF803009E
:1041800003208DF8020069461448FDF71DFB00224C
:104190004FF480411148FDF701FC0122D1030F4883
:1041A000FDF7FCFB012291030C48FDF7F7FB002013
:1041B000FDF7DCFA00224FF400410848FDF7EEFB62
:1041C0000020FDF7D3FA00224FF480410348FDF7A9
:1041D000E5FB0020FDF7CAFA08BD00000010014011
:1041E00008B54FF40040ADF8000014208DF803002E
:1041F00003208DF8020069460F48FDF7E5FA00221A
:104200004FF480410C48FDF7C9FB00224FF40041F8
:104210000948FDF7C3FB012291030748FDF7BEFBE8
:104220000020FDF7A3FA0122D1030348FDF7B6FBF6
:104230000020FDF79BFA08BD0010014070B5044650
:104240000B4621461A4619E008781578A84214D181
:104250000AE011F8015B12F8016BB54204D0D01AE4
:10426000081A411C1A4602E010780028F1D100BF5C
:10427000107818B9081B80B270BD491C0878002856
:10428000E2D100BFF8E7000030B5144800684FF4F1
:104290007A72B0FBF2F1B1F1807F00D31DE021F022
:1042A0007F40401E4FF0E022506150170F2200283F
:1042B00007DA13071D0E0A4B00F00F04241F1D55CB
:1042C00003E013071C0E074B1C5400BF00204FF0E7
:1042D000E02290610720106100BF30BDD4040020AF
:1042E00018ED00E000E400E002480068401C0149CD
:1042F00008607047CC04002010B51348006840F0F7
:1043000001001149086008464068104908400E49FC
:104310004860084600680E4908400B490860084696
:10432000006820F4802008600846406820F4FE0001
:1043300048604FF41F008860FFF760FC4FF000609A
:104340000449086010BD0000001002400000FFF8A2
:10435000FFFFF6FE08ED00E07FB505460C460121A3
:10436000C802FFF73BF9ADF80850ADF80440002053
:10437000ADF80A00ADF8060001A9104800F0D8F821
:1043800000210E4800F09FF8012211460B4800F072
:10439000C6F819208DF8000000208DF801000220D9
:1043A0008DF8020001208DF803006846FDF71AFF22
:1043B0000121024800F096F87FBD0000002C01406A
:1043C00010B50121880700F099F8002841D0214854
:1043D0000078082802D100201E4908701E48007885
:1043E000A0B91E491B4A127801EB02114868FCF77C
:1043F000C3FB4FF080418885012116480078FFF704
:104400005DF814480078FEF7FFFF16E01349114AE3
:10441000127801EB02114868FCF7AEFB40F6C411BC
:104420000C1A09078C8500210A480078FFF746F826
:1044300008480078401C074908700748007808B908
:10444000012000E00020044908700121880700F0E5
:1044500046F810BDD2040020D10400202C0A002010
:104460007FB505460C4601210846FFF7B7F8ADF8C1
:104470000850ADF804400020ADF80A00ADF8060081
:1044800001A94FF0804000F053F800214FF0804028
:1044900000F019F801221146900700F040F81C20A6
:1044A0008DF8000001208DF8010003208DF8020036
:1044B00001208DF803006846FDF794FE012188076E
:1044C00000F010F87FBD21B1028842F08002028026
:1044D00004E002884FF67F731A4002807047CA4397
:1044E0000282704721B1028842F00102028004E09A
:1044F00002884FF6FE731A400280704730B50246BC
:10450000002000230024158A05EA0103958905EAA5
:10451000010413B10CB1012000E0002030BD1AB13C
:1045200083890B43838102E083898B4383817047B6
:10453000002202881D4B98420ED01D4B98420BD092
:10454000B0F1804F08D01B4B984205D01A4B9842CF
:1045500002D01A4B984204D14FF68F731A404B8801
:104560001A43174B984207D0164B984204D04FF687
:10457000FF431A40CB881A4302808B8883850B88BF
:1045800003850A4B98420BD0094B984208D00E4B3A
:10459000984205D00D4B984202D00D4B984201D164
:1045A0000B7A03860123838270470000002C0140B0
:1045B000003401400004004000080040000C0040AE
:1045C0000010004000140040004001400044014041
:1045D0000048014010B540F22551094800F0DEF8CE
:1045E00001280CD1064800F0ADF9C4B2204600F015
:1045F00051FB40F22551024800F05EF800BF10BDAB
:104600000038014010B540F22551094800F0C6F8C5
:1046100001280CD1064800F095F9C4B2204600F0FC
:1046200039FB40F22551024800F046F800BF10BDAA
:104630000044004038B540F224411B4800F0BBF86C
:1046400080B31948008800901748001D008800902A
:1046500000BF00211548FCF7A3FF1448FDF752F8EE
:10466000C0F58060124908800846008800280FDDE8
:1046700008460088B0F5806F0ADC002404E00D498C
:10468000085D00F007FB641C094800888442F6DBE3
:104690004FF480610548FDF757F801210348FCF706
:1046A0007FFF00BF38BD00000048004030000240DE
:1046B000BE0400200C0F002010B50022002340F69D
:1046C0006A14A14200D100BF0A1201249440A3B28F
:1046D000DC43048010BD21B1828942F40052828102
:1046E00004E082894DF6FF731A40828170471AB147
:1046F000838A0B43838202E0838A8B4383827047E1
:1047000010B504462048844209D101218803FEF7F0
:1047100095FF00214FF48040FEF790FF32E01B48E8
:10472000844209D101214804FEF768FF00214FF4BB
:104730000030FEF763FF25E01548844209D10121CE
:104740008804FEF75BFF00214FF48020FEF756FF40
:1047500018E01048844209D10121C804FEF74EFF39
:1047600000214FF40020FEF749FF0BE00A48844285
:1047700008D101210805FEF741FF00214FF4801008
:10478000FEF73CFF10BD000000380140004400402F
:1047900000480040004C004000500040024600200D
:1047A000B1F5007F00D100BF13880B400BB1012091
:1047B00000E00020704770B5024600240023002569
:1047C000002040F66A16B14200D100BFC1F3421585
:1047D00001F01F03012606FA03F3012D02D1968989
:1047E000334006E0022D02D1168A334001E0968A5A
:1047F00033400C12012606FA04F41688344013B133
:104800000CB1012000E0002070BD21B1828A42F08D
:104810000802828204E0828A4FF6F7731A4082828D
:104820007047F0B50346002400260025002040F61E
:104830006A17B94200D100BF1846C1F3421401F013
:104840001F06012707FA06F5012C01D10C3004E000
:10485000022C01D1103000E014301AB107682F4348
:10486000076002E00768AF430760F0BD2DE9F0473D
:1048700086B005460E460024A24600BFA14600278A
:10488000B08900B100BF2F462C8A4CF6FF7004405F
:10489000F08804432C82AC894EF6F3100440B088B3
:1048A00031890843718908430443AC81AC8A4FF6CF
:1048B000FF400440B0890443AC8201A8FEF7F4FE37
:1048C0001F48874202D1DDF810A001E0DDF80CA0FE
:1048D000A88900F4004040B10AEBCA0000EB0A10BE
:1048E00031684900B0FBF1F807E00AEBCA0000EBC1
:1048F0000A1031688900B0FBF1F86420B8FBF0F0D1
:1049000004012009642101FB1089A88900F40040FA
:1049100040B1322000EBC900B0FBF1F000F007001D
:10492000044308E0322000EB09106421B0FBF1F0F1
:1049300000F00F0004432C8106B0BDE8F0870000B2
:104940000038014001468888C0F308007047C1F371
:1049500008028280704700000EB501210420FEF796
:104960003DFE47F23050ADF804004720ADF800009E
:104970000020ADF80600ADF8020069460148FFF7D7
:10498000D7FD0EBD0008004008B501210420FEF748
:1049900045FE2020ADF8000010208DF80300032014
:1049A0008DF8020069460848FCF70EFF1020ADF8AC
:1049B000000004208DF8030069460348FCF704FF5B
:1049C000FFF7CAFF08BD00000008014010B586B01F
:1049D0000446012144F20400FEF720FE2748FFF7B9
:1049E0008FFE4FF40070ADF8040018208DF807001A
:1049F00003208DF8060001A92148FCF7E5FE4FF4DD
:104A00008060ADF8040004208DF8070001A91C485F
:104A1000FCF7DAFE02940020ADF80C00ADF80E00B1
:104A2000ADF810000C20ADF812000020ADF8140015
:104A300002A91248FFF71AFF25208DF80000012077
:104A40008DF8010000208DF8020001208DF8030090
:104A50006846FDF7C7FB012240F225510748FFF7E2
:104A6000E0FE002240F227710448FFF7DAFE012140
:104A70000248FFF730FE06B010BD000000380140CC
:104A80000008014010B504460BE014F8011B07486C
:104A9000FFF75DFF00BF80210448FFF77FFE00287D
:104AA000F9D020780028F0D110BD00000038014076
:104AB00010B586B0044601210420FEF7AFFD0121A8
:104AC0004804FEF78BFD0420ADF8140018208DF883
:104AD000170003208DF8160005A91D48FCF774FE89
:104AE00001940020ADF80800ADF80A00ADF80C0004
:104AF0000C20ADF80E000020ADF8100001A91548FB
:104B0000FFF7B4FE01211348FFF77FFE26208DF842
:104B1000000001208DF8010000208DF80200012026
:104B20008DF803006846FDF75DFB012240F2255138
:104B30000848FFF776FE002240F227710548FFF78C
:104B400070FE01210348FFF7C6FD06B010BD00004E
:104B5000000801400044004010B592B00446012115
:104B60000820FEF75BFD01218804FEF737FD0121D7
:104B70000846FEF723FD4FF48060ADF8440018208E
:104B80008DF8470003208DF8460011A93048FCF746
:104B90001BFE4FF40060ADF8440004208DF8470080
:104BA00011A92B48FCF710FE0D940020ADF8380039
:104BB000ADF83A00ADF83C000C20ADF83E00002006
:104BC000ADF840000DA92348FFF750FE2248FCF73E
:104BD000F3FC2048001D0190204802900020039023
:104BE0004FF4806004900020059080200690002003
:104BF0000790089020200990C0010A9000200B9097
:104C000001A91548FCF782FD01211348FCF7C8FCF7
:104C1000012240210F48FFF76AFD012240F22441A2
:104C20000C48FFF7FEFD27208DF8300001208DF89D
:104C3000310000208DF8320001208DF833000CA8DF
:104C4000FDF7D0FA01210348FFF745FD12B010BD72
:104C5000000C014000480040300002400C0F0020D2
:104C600010B504460120FEF7C3FF214608A000F05E
:104C7000CDF80220FEF7BCFF214605A000F0C6F8E3
:104C80000320FEF7B5FF214601A000F0BFF810BDDC
:104C9000257300002C49098801B170472B49098808
:104CA000B1F5806F04DB0021284A1180284A117079
:104CB00027490978E9B923280ED0242808D03C28B0
:104CC00002D07B2810D10BE00421214A11700CE0A6
:104CD00001211F4A117008E002211D4A117004E0F1
:104CE00003211B4A117000E0D7E700BF0021174ADB
:104CF000118016490A880988491C144B19801549E6
:104D0000885413490978042901D13E2811D010494B
:104D10000978012901D121280BD00D4909780229F0
:104D200001D1212805D00A490978032909D17D2814
:104D300007D10021074A054B1B88D1540121024AA3
:104D4000118000BFA9E70000C0040020C4040020B7
:104D5000C20400200C0B002010B54FF4E130FFF727
:104D600035FE4FF4E130FFF7A3FE4FF4E130FFF7DB
:104D7000F3FE10BD38B500250A244FF40040ADF80D
:104D8000000048208DF8030069461F48FCF71CFD11
:104D90000122D1031C48FCF701FE0020FCF7E6FCD1
:104DA000012291031848FCF7F9FD0020FCF7DEFC16
:104DB00004E0601EC4B20020FCF7D8FC4FF40041B0
:104DC0001148FCF7D5FD012801D1002CF1D1002CB0
:104DD00003DCFFF705FA012038BD00224FF48041C3
:104DE0000948FCF7DBFD4FF40040ADF8000014204B
:104DF0008DF8030003208DF8020069460248FCF795
:104E0000E3FC00BF2846E7E7001001400FB4054B64
:104E100010B503A9044A029800F030FC10BC5DF8FC
:104E200014FB000089630008FC0400200FB4084B49
:104E300010B504A902AA039800F020FC044602A9B8
:104E4000002000F0B2FF204610BC5DF814FB00000B
:104E5000AB5D0008490050EAC12018BF04204A0D8C
:104E600018BF40F0010040F2FF72B2EB515F08BF83
:104E700040F00200012808BF052070472DE9F74FD8
:104E8000144694B00021C4E902111599079121F04C
:104E90000045C9498D4206DC1599C4E9000117B0E7
:104EA0000020BDE8F08FC549DFF814A3A9423CDD1E
:104EB0000799C44E0029C44FC44A1599534619DDB9
:104EC000FBF73FFD554506D0C14AC24BFBF739FD04
:104ED000C4E900010AE04FF0D352BE4BFBF731FDAD
:104EE00032463B46FBF72DFDC4E9000117B0012017
:104EF000BDE8F08FFBF784FC554506D0B44AB54BAE
:104F0000FBF77EFCC4E900010AE04FF0D352B14B3D
:104F1000FBF776FC32463B46FBF772FCC4E9000126
:104F200017B04FF0FF30BDE8F08FAB49A94215999B
:104F300078DB21F0004183468846A84AA84BFBF75E
:104F400006FD0022A74BFBF75BFCFBF729FE09904F
:104F5000FCF770FA06460F469C4A5346FBF7F7FCEF
:104F600043465A46FBF7F0FC80468A46984A994BDE
:104F700030463946FBF7EBFC2A0D01250B924246E1
:104F80005346FBF7E1FC032DC4E9000139D00B982F
:104F9000C1F30A51401A05EB45111139814230DA4B
:104FA0009148C346784400EB0510CDF80CA00C9056
:104FB000D0E9002330463946FBF7C9FC02460B46D0
:104FC0000491069058460399FBF7BBFC80468A463D
:104FD00002460B4658460399FBF7B3FC049B069A1E
:104FE000FBF7AFFC83460C9803913946D0E90223C6
:104FF0003046FBF7ACFC5A46039BFBF7A2FC6D1C4A
:10500000BDE707980028A2BF099817B0BDE8F08F48
:10501000616881F000416160099817B04042BDE8C5
:10502000F08FFFE784461598C1F31301C0F30A50CF
:10503000A0F2F5304FEA601800F01F06C6F120001C
:10504000139000200690079041F4801E05206D46C5
:1050500076B1664A08EB00017A4452F8213002EB3F
:105060008101B3404A68139922FA01F1194305E01E
:105070005F4908EB0002794451F82210A1FB0E278A
:10508000A1FB0C131A449A4234BF0123002303EB03
:10509000070A05EB8003D3E901B70F448F4234BF01
:1050A0000121002193448B4411B1934502D903E0BF
:1050B000934501D2012100E00021C3E901B7514429
:1050C00045F82010011EA0F10100C1DC0298059FE7
:1050D00000F10050800F12900298DDE90356800025
:1050E000FCF7A8F9834628460D91FBF71FFD6FF0EA
:1050F0001D02FBF735FFCDE90E013046FBF716FD2B
:105100006FF03D02FBF72CFF80468A463846FBF7DE
:105110000DFD6FF05D02FBF723FF07464246534645
:105120001191FBF76DFBDDE90E23FBF769FB5A4696
:105130000D9BFBF765FB00250E465A4628460D9B46
:10514000FBF7FFFBDDE90E23FBF7FBFB4246534673
:10515000FBF7F7FB3A46119BFBF7F6FBDFF898A04D
:10516000244A5346FBF7F3FB07468846234A244B61
:1051700031462846FBF7EBFB3A464346FBF740FB3C
:10518000074688464FF0A842534631462846FBF76B
:10519000DEFB3A464346FBF733FB159A12F0004F0D
:1051A00004D0129A81F0004152421292C4E90001E7
:1051B000129817B0BDE8F08FFB21E93F7CD902407F
:1051C000FB21F93F7370032E8A19A33B0000405462
:1051D0003163621A61B4D03DFB21394183C8C96D86
:1051E000305FE43F0000E03FB01800002C180000E2
:1051F0000E180000182D4454FB21F93D3326A6114A
:10520000460B113C2DE9FF4D21F0004807460C46A6
:10521000B8F1795F08DAFBF7C3FC002801BF002072
:10522000324904B0BDE8F08D3A462346104619468F
:10523000FBF78DFB054602462D480E460B46062120
:10524000784400F05DF82A463346FBF780FBDDE941
:10525000022382468B4638462146FBF778FB0446FC
:105260000F4652465B4628463146FBF770FB224606
:105270003B46FBF766FB07468A464FF0FF3228465F
:105280003146FBF76DFE1B4A90450ADA3A46534613
:10529000FBF757FB04B00022BDE8F04D134BFBF7C2
:1052A00053BB154A4245A8BFA8F500154FF00004AE
:1052B000B8BF124D22462B46FBF743FB06468846F5
:1052C00022462B4600200949FBF73BFB04460D46CE
:1052D0003A46534630464146FBF733FB04B022467C
:1052E0002B46BDE8F04DFBF72FBB00000000F03F60
:1052F000E41500003333D33F0000E93F0000D23F04
:105300002DE9F0414F1E00EBC7010446D1E9000131
:1053100015461E4637F006020DD02A463346FBF7E7
:1053200016FB7F1E04EBC703D3E90023FBF768FAE3
:1053300037F00602F1D1022F25D0042F13D0062F0B
:1053400018BFBDE8F0812A463346FBF700FBD4E9DD
:105350000A23FBF755FA2A463346FBF7F8FAD4E955
:105360000823FBF74DFA2A463346FBF7F0FAD4E957
:105370000623FBF745FA2A463346FBF7E8FAD4E959
:105380000423FBF73DFA2A463346FBF7E0FAD4E95B
:105390000223FBF735FA2A463346FBF7D8FAD4E95D
:1053A0000023BDE8F041FBF72BBA00002DE9FF4DCB
:1053B000054621F0004084B00C46B0F1795F0BDA6D
:1053C0002846FFF747FD042808BF00F06FF828467D
:1053D00008B02146BDE8F08D2A460B461046FBF783
:1053E000B6FA06460F462A462346FBF7B0FA804631
:1053F00026488A4632463B4605217844FFF780FF1F
:1054000083461098029160B3214A224B4046514690
:10541000FBF79DFACDE900015A4640465146029BF2
:10542000FBF795FA82468846DDE906014FF0FF3228
:10543000FBF796FD52464346FBF783FA32463B465E
:10544000FBF785FADDE90623FBF77BFADDE90023AC
:10545000FBF777FA08B02A462346BDE8F04DFBF784
:1054600073BA0B465A4630463946FBF770FA084A7B
:10547000084BFBF7C5F942465346FBF768FA08B0FC
:105480002A462346BDE8F04DFBF7BAB922150000C5
:10549000495555555555C5BF0122FBF761BD002241
:1054A000134610461146FBF7C4BA0000024A00201A
:1054B0001107FBF755BD000001FDFFFF02E008C822
:1054C000121F08C1002AFAD170477047002001E07E
:1054D00001C1121F002AFBD170470000014908607A
:1054E00070470000000500202DE9FF5F82B0002119
:1054F000DDE90430020DDDF840B0034318D044F676
:105500001050A2F2FF3242431514119801281FD007
:10551000A5EB0B00401C5FEA000A4FF000064E4F5F
:10552000DFF83891B046504615D5CAF1000413E0B3
:10553000119801244AA3012801D16FEA0B010298B6
:10554000119AC0E90031C0E9024206B0BDE8F09FFF
:10555000CBF10000DFE704460021404A491842EB46
:105560000450CDE9001012E0E00707D032463B4678
:1055700040464946FBF7EBF98046894632463B46B2
:1055800010461946FBF7E3F906460F466410002C57
:10559000EAD1DDE90401DDE90023BAF1000F06DA02
:1055A000FBF7D5F942464B46FBF7D1F905E0FBF78F
:1055B00040FA42464B46FBF73CFA04460E460022B0
:1055C000284BFBF737FB03D84FF0FF30014607E0CD
:1055D0000022254B20463146FBF712F9FBF734FD3C
:1055E000102409E0002C0ADB0A220023FBF780FBD1
:1055F000039B30321A55641E50EA0102F2D1641C3A
:10560000039AC4F111031444119A012A03D0012210
:1056100008430DD10AE0084304D000204FF0110BDD
:10562000119072E7A3EB0B056D1E0DE05B4504DDE9
:105630004FF0000205F1010504E003DA4FF000022B
:10564000A5F10105002AECD002981199C0E90231B8
:10565000C0E9004579E70000000014400000F03F79
:10566000300000000000F0430000E03F30380A281E
:1056700001D2012070470020704700002DE9FF4F44
:1056800095B09B468946064600250FE2252877D12E
:1056900000242746F84A0121059400E0044316F847
:1056A000013F203B01FA03F01042F7D130782A285D
:1056B00011D06FF02F033078A0F13002092A16D8EC
:1056C000059A44F0020402EB820203EB420210440A
:1056D000761C0590EFE759F8042B0592002A03DAAF
:1056E000504244F40054059044F00204761C307893
:1056F0002E2816D116F8010F44F004042A280DD0E4
:105700006FF02F023078A0F13003092B09D807EB96
:10571000870302EB4303C718761CF3E759F8047BB1
:10572000761C30786C280FD006DC4C2817D06828FF
:105730000DD06A2814D104E0742810D07A280FD133
:105740000DE044F400140AE044F4801401E044F451
:1057500040147278824202D104F58014761C761CC3
:10576000307866280BD013DC582877D009DC002865
:1057700075D04528F6D04628F4D047281AD19DE1A7
:1057800018E0632835D0642879D0652812D195E1D6
:10579000702873D008DC6728F1D069286FD06E2894
:1057A0000DD06F2806D1B5E073282CD0752875D0A0
:1057B000782874D05A46179990476D1C75E1C4F348
:1057C0000250022809D003280DD0D9F8001004286F
:1057D0000DD00D6009F1040967E1D9F80010EA174E
:1057E000C1E90052F6E7D9F800100D80F2E70D701C
:1057F000F0E719F8041B8DF8001000208DF8010067
:10580000EA46012003E059F804AB4FF0FF3061078E
:105810004FF0000102D40DE008F101018846B942C1
:105820000FDA8045F8DB1AF808100029F4D108E0F7
:1058300008F1010188468142FADB1AF808100029B4
:10584000F6D105985B46A0EB080721463846179A23
:1058500000F094FA284400EB080507E04DE029E148
:105860000DE01AF8010B5A4617999047B8F1010854
:10587000F7D25B4621463846179A13E142E00A22E6
:105880000092C4F302524FF0000A022A08D059F8DD
:1058900004CB032A4FEAEC710AD00DE029E02AE09C
:1058A00009F1070121F00702F2E802C1914609E07F
:1058B0000FFA8CFC4FEAEC71042A03D14FFA8CFCEE
:1058C0004FEAEC71002907DA0A460021DCF1000CEE
:1058D00061EB02012D2202E0220504D52B228DF876
:1058E0000420012203E0E20701D02022F7E79046DE
:1058F00059E00A2102E010220DE010214FF0000AC9
:1059000000910BE010224FF0000A44F00404082735
:10591000009203E008224FF0000A0092C4F3025202
:10592000022A05D059F804CB0021032A08D009E047
:1059300009F1070121F00702F2E802C1914605E0F2
:105940001FFA8CFC042A01D10CF0FF0C4FF0000868
:10595000220728D5702806D0009B83F0100353EA55
:105960000A0305D00EE040228DF80420012208E051
:105970005CEA010206D030228DF804208DF8050083
:1059800002229046009B83F0080353EA0A030AD1DF
:105990005CEA010201D1620705D530228DF80420AE
:1059A0004FF001087F1E582804D034A003900EA8A1
:1059B00002900DE036A0F9E753466046009AFBF7E7
:1059C00097F984460398825C0298401E0290027008
:1059D0005CEA0100F0D1029806A9081A00F1200A39
:1059E000600702D524F4803400E00127574502DD2A
:1059F000A7EB0A0000E0002000EB0A0100900598E8
:105A00004144401A0590E00306D45B462146179AAC
:105A1000059800F0B3F90544002706E001A85A46AE
:105A2000C05D179990476D1C7F1C4745F6DBE0036E
:105A30000CD55B462146179A059800F09FF905445E
:105A400004E030205A46179990476D1C0099481E73
:105A500000900029F5DC08E0029802995A46007887
:105A6000491C0291179990476D1CBAF10001AAF1E7
:105A7000010AF1DC65E10000092801003031323310
:105A8000343536373839616263646566000000007A
:105A90003031323334353637383941424344454664
:105AA0000000000000F058F90544761C307800280A
:105AB0007FF4ECAD19B02846BDE8F08F620700D442
:105AC000062709F1070222F0070CFCE80223E14651
:105AD00003F000485FEA080C02D00FF2702C0DE0D2
