:020000040800F2
:100000001808002001010008090100080B01000880
:100010000D0100080F010008110100080000000098
:1000200000000000000000000000000013010008B4
:100030001501000800000000170100086D0A000803
:100040001B0100081B0100081B0100081B01000820
:100050001B0100081B0100081B0100081B01000810
:100060001B0100081B0100081B0100081B01000800
:100070001B0100081B0100081B0100081B010008F0
:100080001B0100081B0100081B0100081B010008E0
:100090001B0100081B0100081B0100081B010008D0
:1000A0001B0100081B0100081B0100081B010008C0
:1000B0001B0100081B0100081B0100081B010008B0
:1000C0001B0100081B0100081B0100081B010008A0
:1000D0001B0100081B0100081B0100081B01000890
:1000E0001B0100081B0100081B010008DFF80CD0F1
:1000F00000F018F800480047FD0A00081808002022
:100100000648804706480047FEE7FEE7FEE7FEE7B1
:10011000FEE7FEE7FEE7FEE7FEE7FEE77D0A0008F2
:10012000ED000008064C074D06E0E06840F00103D2
:1001300094E8070098471034AC42F6D3FFF7DAFF93
:100140002C0B00084C0B000870B58C1810F8015BE4
:1001500015F0070301D110F8013B2A1106D110F860
:10016000012B03E010F8016B01F8016B5B1EF9D164
:100170002B0705D40023521E0DD401F8013BFAE7EA
:1001800010F8013BCB1A921C03E013F8015B01F855
:10019000015B521EF9D5A142D8D3002070BD18B51D
:1001A00004460020009006E04FF47A7000F007F853
:1001B0000098401C00900098A042F5D318BD0CB5E3
:1001C000002101910BE00B21009102E00099491EF2
:1001D000009100990029F9D10199491C01910199D7
:1001E0008142F0D30CBD2DE9F041024600250026E6
:1001F000002000230024002791F803C00CF00F0515
:1002000091F803C00CF0100CBCF1000F03D091F872
:1002100002C04CEA050591F800C0BCF1000F31D0D6
:10022000146800202BE04FF0010C0CFA00F3B1F839
:1002300000C00CEA03069E4220D183004FF00F0C51
:100240000CFA03F7BC4305FA03FC4CEA040491F8EA
:1002500003C0BCF1280F06D14FF0010C0CFA00FCD2
:10026000C2F814C00AE091F803C0BCF1480F05D1F0
:100270004FF0010C0CFA00FCC2F810C0401C08281A
:10028000D1D31460B1F800C0BCF1FF0F34DD546865
:1002900000202EE000F1080C4FF0010808FA0CF3E2
:1002A000B1F800C00CEA03069E4221D183004FF052
:1002B0000F0C0CFA03F7BC4305FA03FC4CEA0404E8
:1002C00091F803C0BCF1280F05D100F1080C08FA21
:1002D0000CF8C2F8148091F803C0BCF1480F07D1A4
:1002E00000F1080C4FF0010808FA0CF8C2F8108071
:1002F000401C0828CED35460BDE8F081F0B50A4612
:10030000002300240021002500F00046B6F1004F34
:1003100002D11D4EF16901E01B4E7168C0F3034527
:1003200083B200F44016B6F5401F08D121F0706189
:10033000154E766826F07066134F7E6012E000F46A
:100340008016B6F5801F06D1032606FA05F4A143F0
:1003500041F0706106E0460D360103FA06F6B1433E
:1003600041F0706122B1460D360103FA06F63143C1
:1003700000F00046B6F1004F02D1034EF16101E0FA
:10038000014E7160F0BD0000000001404161704706
:100390000161704710B54FF480410948FFF7F8FF3D
:1003A0004FF400410648FFF7F3FF4FF400410448C3
:1003B000FFF7ECFF4FF480410148FFF7E7FF10BD66
:1003C0000010014010B54FF480410748FFF7E0FFEF
:1003D0004FF400410448FFF7D9FF4FF400410248B1
:1003E000FFF7D6FF10BD00000010014010B54FF41C
:1003F00080410448FFF7CCFF4FF480410148FFF7EC
:10040000C5FF10BD001001402DE9F04105462C4606
:100410004FF480411248FFF7B9FF00261CE0274641
:1004200007F08007802F04D139020D48FFF7B0FF95
:1004300004E04FF400410A48FFF7A8FF6006040EED
:100440004FF480410648FFF7A3FF4FF48041044872
:10045000FFF79CFF701CC6B2082EE0DBBDE8F08100
:100460000010014010B50446FFF794FF7820FFF715
:10047000CBFFFFF7BBFF0020FFF7C6FFFFF7B6FF7C
:100480002046FFF7C1FFFFF7B1FFFFF79BFF10BD4D
:1004900010B50446FFF77EFF7820FFF7B5FFFFF7A2
:1004A000A5FF4020FFF7B0FFFFF7A0FF2046FFF7B2
:1004B000ABFFFFF79BFFFFF785FF10BD70B5002472
:1004C00019E004F1B001C8B2002100F000F90021E8
:1004D000084600F0FCF80021102000F0F8F8002594
:1004E00005E00121002000F0F2F8681CC5B2802D63
:1004F000F7DB601CC4B2082CE3DB70BD2DE9F05FB4
:1005000006460F4690461C46DDF828A04FF0000B2B
:10051000E11704EB5171C910A4EBC10131B92046B8
:10052000E11704EB5171C1F3C70506E02046E1175E
:1005300004EB5171C910491CCDB23D4615E0294666
:10054000304600F0AFF8B1460BE059460BF1010B15
:100550001AF80100012100F0BAF809F1010000F0D9
:10056000FF09C145F1DB681CC5B2A542E7DBBDE868
:10057000F09F000008B50121102000F0B5F8102010
:100580008DF8030003208DF802004FF48040ADF891
:10059000000069464248FFF726FE4FF40040ADF8E0
:1005A000000069463E48FFF71EFE4FF480413C487C
:1005B000FFF7EEFE10213A48FFF7EAFE4FF44870CD
:1005C000FFF7EDFD0021AE2000F081F80021084684
:1005D00000F07DF80021102000F079F80021402083
:1005E00000F075F80021B02000F071F800218120A2
:1005F00000F06DF80021FF2000F069F80021A12033
:1006000000F065F80021A62000F061F80021A82084
:1006100000F05DF800213F2000F059F80021C820CB
:1006200000F055F80021D32000F051F800210846D1
:1006300000F04DF80021D52000F049F8002180207D
:1006400000F045F80021D82000F041F800210520F5
:1006500000F03DF80021D92000F039F80021F12008
:1006600000F035F80021DA2000F031F800211220E6
:1006700000F02DF80021DB2000F029F800213020C7
:1006800000F025F800218D2000F021F80021142031
:1006900000F01DF80021AF2000F019F808BD00009F
:1006A0000010014070B504460D4605F1B001C8B216
:1006B000002100F00CF8102141EA1410002100F094
:1006C00006F804F00F00002100F001F870BD70B5CD
:1006D00005460C461CB12846FFF7DAFE02E0284624
:1006E000FFF7C0FE70BD000029B1064A92690243BF
:1006F000044B9A6104E0034A92698243014B9A6178
:1007000070470000001002400F48006840F00100F0
:100710000D490860084640680C4908400A4948608D
:10072000084600680A49084007490860084600680A
:1007300020F4802008600846406820F4FE004860ED
:100740004FF41F0088607047001002400000FFF85F
:10075000FFFFF6FE10B501460022002300204A11DB
:10076000012A02D1094C236806E0022A02D1074C73
:10077000236A01E0054C636A01F01F0201249440E2
:100780001C400CB1012000E0002010BD0010024010
:100790000248406800F00C00704700000010024062
:1007A00001460020034A506820F0F00008435060E2
:1007B00070470000001002401149096821F480319F
:1007C0000F4A11601146096821F480211160B0F5CB
:1007D000803F03D0B0F5802F0ED106E008490968AC
:1007E00041F48031064A116007E00549096841F487
:1007F000A021034A116000E000BF00BF7047000065
:100800000010024001460020034A506820F4E060D6
:10081000084350607047000000100240014600206D
:10082000034A506820F4605040EAC10050607047AD
:100830000010024001490866704700000000424273
:1008400002460020044B586820F47C1042EA010361
:100850001843014B586070470010024001460020C9
:10086000034A506820F003000843506070470000BE
:100870000010024038B5002000900024002500BF81
:100880003120FFF767FF05460098401C0090009854
:10089000B0F5A06F01D0002DF2D03120FFF75AFF44
:1008A00008B1012400E00024204638BD10B5FFF750
:1008B0002BFF4FF48030FFF77FFFFFF7DBFF04468D
:1008C00000BF002CFDD00020FFF76AFF4FF48060CE
:1008D000FFF798FF0020FFF7A1FF4FF4E0114FF45E
:1008E0008030FFF7ADFF0120FFF7A4FF00BF3920E4
:1008F000FFF730FF0028FAD00220FFF7AFFF00BF5C
:10090000FFF746FF0828FBD110BD000010B50121FC
:100910000D20FFF7E9FE01210148FFF7EFFC10BDB4
:100920000002300010B500F001F810BD0CB5002039
:10093000019000903348006840F4803031490860ED
:1009400000BF3048006800F4003000900198401C5F
:100950000190009818B90198B0F5A06FF1D129481D
:10096000006800F4003010B10120009001E0002088
:1009700000900098012843D12348006840F01000FF
:10098000214908600846006820F003000860084616
:10099000006840F0020008601A4840681949486041
:1009A0000846406848600846406840F480604860F7
:1009B0000846406820F47C1048600846406840F4CF
:1009C000E81048600846006840F08070086000BF8A
:1009D0000C48006800F000700028F9D00948406811
:1009E00020F00300074948600846406840F00200D4
:1009F000486000BF0348406800F00C000828F9D1A7
:100A00000CBD0000001002400020024030B5144828
:100A100000684FF47A72B0FBF2F1B1F1807F00D33D
:100A20001DE021F07F40401E4FF0E0225061501742
:100A30000F22002807DA13071D0E0A4B00F00F04DF
:100A4000241F1D5503E013071C0E074B1C5400BF49
:100A500000204FF0E02290610720106100BF30BD00
:100A60000404002018ED00E000E400E00248006803
:100A7000401C0149086070470004002010B513486D
:100A8000006840F0010011490860084640681049BC
:100A900008400E494860084600680E4908400B4966
:100AA00008600846006820F4802008600846406816
:100AB00020F4FE0048604FF41F008860FFF732FF0B
:100AC0004FF000600449086010BD000000100240B3
:100AD0000000FFF8FFFFF6FE08ED00E002E008C8A6
:100AE000121F08C1002AFAD170477047002001E0A8
:100AF00001C1121F002AFBD17047000008B5FFF7A3
:100B0000D5FEFFF703FFFFF781FFFFF733FDFFF788
:100B1000D5FC054808238022002100900846FFF7F5
:100B2000EDFC00BFFEE70000000000204C0B0008B9
:100B3000000000201804000048010008400C0008D4
:100B40001804002000040000EC0A00081116060A30
:100B5000FE0AC612E012F062F84EFE7DBBC7EF013E
:100B6000053EC7BB7DFE300D080CFEFE0C08206064
:100B7000FEFE60208F7848FE82BABA0309135EAA8F
:100B80000101017E6CFEFF0301CBFFFF0F39BBECBF
:100B9000C0C0C0271918F92701392975990B6CFFB6
:100BA000FF0C01491A0C22E1E1E12701396C0F1F0A
:100BB0001801FB1F0F0F092E270136168C42221237
:100BC0000C26FC020202FC3304FE16205844FE40B0
:100BD0002A10015912491E4912A92A0123300A2458
:100BE000A42E24E4242EA424C00AF84A4C48F84831
:100BF0004C4AF82A01013907490D5915991F9918CE
:100C0000091412712BC020A1AB20C00A11300A12A6
:100C10000A07027F02070A121E0B0A0A0A7F040251
:100C2000560B980A1F2040404050205F800A517C9C
:100C3000A24A04BD000800020304060708090000D8
:04000005080000ED02
:00000001FF
