:020000040800F2
:10000000082B0020050100080D0100080F01000861
:10001000110100081301000815010008000000008C
:1000200000000000000000000000000017010008B0
:1000300019010008000000001B010008393E0008FB
:100040001F0100081F0100081F0100081F01000810
:100050001F0100081F0100081F0100081F01000800
:100060001F0100081F0100081F0100081F010008F0
:100070001F0100081F0100081F0100081F010008E0
:100080001F0100081F0100081F0100081F010008D0
:100090001F0100081F0100081F0100081F010008C0
:1000A0001F0100081F0100081F0100081F010008B0
:1000B000113F00081F0100081F0100081F01000870
:1000C0001F0100081F0100081F0100081F01000890
:1000D0001F0100082541000899410008C941000896
:1000E0001F0100081F0100081F010008DFF810D0E1
:1000F00000F0E4FF00480047956A0008AFF3008075
:10010000082B00200648804706480047FEE7FEE728
:10011000FEE7FEE7FEE7FEE7FEE7FEE7FEE7FEE7B7
:10012000493E0008ED00000840EA01039B0703D0A8
:1001300009E008C9121F08C0042AFAD203E011F826
:10014000013B00F8013B521EF9D27047D2B201E0E8
:1001500000F8012B491EFBD270470022F6E710B5CC
:1001600013460A4604461946FFF7F0FF204610BD25
:10017000421C10F8011B0029FBD1801A704703466E
:1001800011F8012B00F8012B002AF9D1184670470D
:100190000FB400B58DB010A909900B9000914FF0ED
:1001A000FF300A9000200C90054806900548079003
:1001B0006A4609A80F9900F0B5FD0DB05DF814FB73
:1001C000410D00085F0D00082DE9FF5F1D464FF04F
:1001D000FF3BD5E9014691465F464FF00008A9690B
:1001E0007F1C01988847296A824688470028F6D1F3
:1001F000BAF1FF3F0CD024F4C064002E19DD600674
:1002000014D5BAF12B0F09D0BAF12D0F0ED103E09E
:10021000584604B0BDE8F09F44F48064A9697F1C8F
:1002200001988847761E8246002E02DDBAF1300F13
:1002300003D0B9F1000F26D032E0A969761E44F44C
:1002400000747F1C019888478246002E05DDBAF1B4
:10025000780F06D0BAF1580F03D0B9F1000F10D0C3
:100260001EE0B9F1000F02D0B9F1100F18D1A96941
:10027000761E24F400747F1C019888478246102063
:1002800002E0082000E00A20814609E008FB090896
:10029000A969761E44F400747F1C01988847824641
:1002A000002E05DD4946504600F028FD0028EDDA15
:1002B000E96901988847A00502D46FF00100A8E71A
:1002C000E00725D1600613D5600502D5C8F100000E
:1002D00000E0404629680A1D2A600968220501D508
:1002E000087015E0220701D5088011E008600FE0D2
:1002F0002868011D29600068210502D580F800806A
:1003000006E0210702D5A0F8008001E0C0F80080D7
:1003100038467EE72DE9FF4F087883B09946FF28DD
:1003200005D0491C2D2804D00024002008E000201E
:100330000BE00124F9E700EB800003EB4000491CCF
:100340000B78FF2BF7D104B14042002302931478BD
:1003500019461D462D2C01D02B2C04D1521C2D2CBE
:1003600013D000240294AA461478FF2C0FD00A253B
:10037000A3FB057801FB05814FF0000C03FB0C117A
:10038000521CE3194AEB0101EEE70124EAE781443C
:1003900053EA010002D019F5C87F06DA039800215C
:1003A000C0E9001107B0BDE8F08F0025AE4E2F4622
:1003B000DFF8B882184600F015FECDE90001B9F16A
:1003C000000002DAC9F1000400E004460023A74A55
:1003D0001AEB030B42EB045A12E0E00707D02A465F
:1003E00033463846414600F0B4FA074688462A4666
:1003F00033461046194600F0ACFA05460E46641026
:10040000002CEAD1DDE90001B9F1000F5A4653464C
:1004100006DA00F010FB3A46434600F00CFB05E01C
:1004200000F097FA3A46434600F093FA029A0AB16E
:1004300081F00041039AC2E90001B3E72DE9FF4FC3
:100440001F468DB0D7E901464FF0FF382E204546B4
:100450004FF000090B90B9696D1C0E988847396AF6
:10046000824688470028F6D1BAF1FF3F0AD024F42B
:10047000D064002E11DDBAF12B0F08D0BAF12D0F88
:100480000BD102E0404611B08DE744F48064B969B5
:100490006D1C0E9888478246761E6946600501D518
:1004A0002D2000E02B208DF8000001F1010B0DF153
:1004B000200809E0B9696D1C0E98884782460F989C
:1004C00044F40074761E0560002E02DDBAF1300F90
:1004D000F0D00B998A453ED144F0800406E00F9994
:1004E000681CA9F1010944F400740860B9696D1C25
:1004F000761E0E98884782463028F0D02BE00B9964
:100500008A4505D1200603D444F08004761E18E005
:10051000504604F077FF08B30DF11301761E44F442
:1005200000748B4508D2AAF130000BF8010B2006AD
:1005300007D5A9F1010003E0200602D409F101006A
:100540008146A00502D50F99681C0860B9696D1C29
:100550000E9888478246002ED1DC53E0002E51DDF4
:10056000BAF1650F02D0BAF1450F4BD1A00549D5BC
:10057000B9696D1C24F44074761E0E988847824633
:10058000002E0CDD2B2804D0BAF12D0F07D144F436
:100590008074B9696D1C0E9888478246761EE00506
:1005A00001D52D2100E02B2108F8011BCDF82C806E
:1005B00021E00DF12901761E44F4007488450CD227
:1005C000AAF1300010F0FF0088F8000002D10B996A
:1005D000884509D908F1010806E0E00501D524485D
:1005E00001E042F20F708146B9696D1C0E98884790
:1005F00082460F980560002E04DD504604F002FF8D
:100600000028D6D1F9690E988847FF208BF80000A2
:1006100088F800000020069007904B466A4608A91B
:1006200006A8FFF777FEA00502D46FF001002AE7C5
:1006300014F0240F0AD0E00714D1DDE9061238685F
:10064000031D3B600068C0E900120BE0DDE9060114
:1006500000F0BBFA0146E00704D13868021D3A6099
:100660000068016028460EE7000014400000F03FDB
:10067000F1D8FFFFF0B480EA0102D40F4200B2EBE0
:10068000410F02D20246084611464A0042D0C30D2D
:10069000DDB2C1F3C752AD1A202D35DAC1F3160110
:1006A00041F4000204B15242C5F1200602FA06F1FB
:1006B0002A411044B3EBD05F23D0C4B1012DA0EB8D
:1006C000C35009DCF0BC4FF0004202EAC352DBB277
:1006D00000F5000000F05DBB400000F1807000EB11
:1006E000C350A0F1807040EAD170490009E0490888
:1006F00041EAC071A0EBC35000F50000400800EBD8
:10070000C350F0BC00F03CBB6142012202EB41014E
:10071000001BF6E7F0BC704781F00041AAE780F0CB
:100720000040A7E780EA010210B502F00043400054
:1007300022D04A001FD0010E01EB1261C0F3560017
:10074000C2F3560240F4000042F40002A0FB022073
:1007500000047F39140400D0401C50EA124001D438
:100760004000491EC2B20C0604EBD010401C4008E9
:10077000802A02D003E0002010BD20F001000029F3
:1007800000DA0020184310BD30B480EA010202F004
:10079000004530F0004221F0004013D090B1C30D6D
:1007A000D40DC2F31601C0F31600E41A41F400019F
:1007B00040F400027D34914201D3641C00E0490002
:1007C000002C02DA30BC002070474FF400000023F8
:1007D000914201D3891A034340084FEA4101F7D1FE
:1007E00051B1914202D14FF0004105E002D24FF0E9
:1007F000010101E06FF0010103EBC450284430BC5B
:1008000000F0BEBA2DE9FE4F804681EA0300C00F1A
:100810000C46009021F0004123F00045B8EB0200A7
:10082000A94105D24046214690461C460B46024649
:1008300023F00040104347D0270DC7F30A00C3F34D
:100840000A510290401A019040286BDAC3F313005A
:1008500040F4801B0098924620B10023D2EB030A9B
:1008600063EB0B0B01985946C0F14002504600F073
:1008700024FA06460D4650465946019A00F02CFAD5
:1008800010EB08006141002487EA115284EAE77303
:100890001A4340D0009A62B3019A012A4FEA0752E4
:1008A00015DC001B61EB02014FF0004202EA075227
:1008B000CDE90042001C41F5801132462B4600F084
:1008C000F2FA03B0BDE8F08F40462146F9E7001B7D
:1008D00061EB0201001C41F5801300185B412018F8
:1008E000A2F5001747EB030140EAD570B6196D4138
:1008F00011E06D084FEA360645EAC0754FEA075227
:10090000001B61EB0201001C41F5801149084FEA10
:1009100030000019514132462B4603B0BDE8F04F7C
:1009200000F0B2BA0098012240000023D0EB02028E
:1009300063EBE073009821464FEAE074B8EB0000E7
:1009400061EB0401E9E783F000435BE781F00041DC
:1009500058E72DE9FE4F81EA030404F0004421F03A
:10096000004100944FF0000B23F0004350EA0104D3
:100970005ED052EA03045BD0C3F30A54C1F30A55B4
:100980002C44A4F2F3340194A0FB0254C1F31301EC
:1009900041F48011C3F3130343F4801301FB0244B9
:1009A00000FB034E840A970A44EA815447EA8357BE
:1009B000A4FB076802958D0A05FB07854FEA932C77
:1009C00004FB0C542705029D4FEA065847EA1637E8
:1009D000B5EB08056EEB070C870E920E47EA811700
:1009E00042EA8312A7FB0201B6EB0B0164EB0004A1
:1009F0002B0D43EA0C335E1844EB1C50DA4651468B
:100A0000E7FB0201C5F313044FEA0B3343EA145327
:100A10004FEA0432019C43EA0603A4F10C04029459
:100A2000009CCDE900B400F03EFA03B0BDE8F08FC1
:100A300000200146F9E72DE9F04D81EA030404F0B6
:100A4000004B21F0004514464FF0000A23F000410E
:100A500050EA050220D054EA01021DD0C5F30A571E
:100A60000246C5F31303C1F31300C1F30A5640F461
:100A7000801543F48013A7EB0608101BD64608F236
:100A8000FD3873EB050002D308F1010801E092186C
:100A90005B41B8F1000F03DA00200146BDE8F08D9C
:100AA00000204FF48011064684460EE0171B73EBBE
:100AB000050705D3121B63EB050306434CEA010C43
:100AC00049084FEA300092185B4150EA0107EDD126
:100AD00052EA030012D082EA040083EA05010843C7
:100AE00005D0101BAB4106D20122002306E00022F4
:100AF0004FF0004302E06FF0010253101AEB0600C2
:100B00004CEB085110EB0A0041EB0B01BDE8F04D36
:100B100000F0BAB9C10F80EAE0700844CA07962312
:100B2000002100F036B996230022114600F031B9B9
:100B30000EB540F2334102910021CDE900110A4681
:100B40000B4600F0B0F903B000BD00F0004220F009
:100B50000040C10DC0F3160040F400007F2901DA07
:100B600000207047962903DCC1F19601C84001E0DE
:100B700096398840002AF4D04042704720F0004067
:100B8000C10DC0F3160040F400007F2901DA0020F7
:100B90007047962903DCC1F19601C8407047963929
:100BA0008840704700F0004230F000400AD0C10D8C
:100BB00001F56071C0F3160042EA0151C208400716
:100BC0001143704700200146704701F0004330B4E4
:100BD00021F0004150EA010206D00A0DA2F5607230
:100BE000C1F31301002A02DC30BC00207047440F1F
:100BF00044EAC104C100E01830BC00EBC25000F070
:100C0000BFB80000002801DBC0F10040002901DB73
:100C1000C1F1004181427047002801DBC0F1004072
:100C2000002901DBC1F100418842704730B50B4615
:100C3000014600202022012409E021FA02F59D420C
:100C400005D303FA02F5491B04FA02F52844151EE0
:100C5000A2F10102F1DC30BD2DE9F05F0546002074
:100C600092469B4688460646814640241BE028461D
:100C700041464746224600F033FA53465A46C01AC8
:100C8000914110D311461846224600F016F82D1A4D
:100C900067EB01084F4622460120002100F00DF8C5
:100CA00017EB00094E41201EA4F10104DFDC484689
:100CB00031462A464346BDE8F09F202A04DB203A0D
:100CC00000FA02F1002070479140C2F1200320FA9F
:100CD00003F3194390407047202A06DBCB17203AD4
:100CE00041FA02F043EAE07306E041FA02F3D04031
:100CF000C2F1200291400843194670473A2800D2B9
:100D0000303820F02002412A01D3A2F13700884276
:100D100001D34FF0FF30704702681144137801602F
:100D200018467047D160044951610449116200219D
:100D30001161114600F0EAB9190D0008011100080F
:100D4000426842B1016811F8013B23B1521EC0E96B
:100D50000012184670470121C160881E7047426822
:100D60005AB1C368016843B983688B4205D0491EF4
:100D7000521CC0E90012002070474FF0FF3070474E
:100D80000029A8BF7047401C490008BF20F001009F
:100D9000704710B4B0FA80FC00FA0CF050EA01047D
:100DA00004BF10BC704749B1CCF1200421FA04F40F
:100DB00011FA0CF118BF012121430843A3EB0C01E8
:100DC000CB1D4FEA00614FEA102042BF002010BC4B
:100DD000704700EBC35010440029A4BF10BC7047FB
:100DE000401C490008BF20F0010010BC7047F0B45F
:100DF000002802DCF0BC00207047C0F3C751C0F3EC
:100E0000160040F40000CA0701D14000491E3F22ED
:100E100002EB6105002211464FF4000626FA01F3A9
:100E20001344D418844201D8001B1A464000491CC0
:100E30001729F3DD5100814202D24FF0FF3100E06B
:100E4000002102EBC550F0BCFFF79ABF10B541007E
:100E50000CD0C0F3C751962908DC7E2909DC06DBDB
:100E6000410204D000F0004040F07E5010BD002050
:100E700010BDC1F19604C4F1200100FA01F1E04077
:100E8000FFF77EFFA04010BD10B5141E73F10004E3
:100E900008DA401C41F1000192185B411A4301D16C
:100EA00020F0010010BD2DE9F04D92469B4611B196
:100EB000B1FA81F202E0B0FA80F220329046FFF7F8
:100EC000FCFE04460F4640EA0A0041EA0B01534685
:100ED0005A46084313D0114653EA010019D0C8F10D
:100EE0004002504600F0FCF805460E465046594672
:100EF0004246FFF7E2FE084305D0012004E0204609
:100F00003946BDE8F08D0020054346EAE0762C43E3
:100F100037430A986305E40AA0EB08000022FD0AA3
:100F200044EA47540A3002D500200146E9E70105AA
:100F300010196941DDE9084500196941BDE8F04D26
:100F4000A2E72DE9F04D00231A461B1A8A4103DB64
:100F500000200146BDE8F08DC1F30A52C1F3130130
:100F600041F480154FF0000BD10702D100186D41FC
:100F7000521E0027044640F2FF11384601EB620A78
:100F80003E468046024600204FF4801100F0A8F84B
:100F9000C2197141BB1846EB0100B4EB030C75EBB1
:100FA000000C04D3E41A65EB000517460E4624191D
:100FB00008F101006D4180463428E3DDF91946EB64
:100FC0000600091BA84103D24FF0FF32134601E08F
:100FD000002213461BEB070046EB0A51BDE8F04D1B
:100FE000FFF752BF0EB540F2334202920022CDE924
:100FF00000221346FFF757FF03B000BDC1F30A52AA
:10100000C1F3130140F2FF3341F480119A4202DA36
:1010100000200146704740F233439A42A2F2334225
:1010200002DC524200F05CB8FFF747BE30B5041E48
:1010300071F1000404DB4FF00044404264EB010115
:10104000141E73F1000405DB1C464FF000435242AE
:1010500063EB0403994208BF904230BD70B504466B
:1010600001F000450020054304D14FF000456442E3
:1010700065EB010103F00045284305D118464FF008
:101080000043524263EB0003101B73EB010002D2DA
:101090004FF0004009E082EA040283EA01034FF0C6
:1010A00000501A4301D14FF0C0404FEA2062EFF3E5
:1010B000008162F31F6181F3008870BD064C074D0B
:1010C00006E0E06840F0010394E807009847103418
:1010D000AC42F6D3FFF70EF8607400088074000885
:1010E000202A04DB203A21FA02F00021704721FA7D
:1010F00002F3D040C2F120029140084319467047E4
:10110000C0B24FF4F05100F0EDB900002DE9F34FFB
:101110008BB04FF0000801F10C000C464FF0010BB2
:1011200046460DF1080A0190626901210198904735
:10113000051E2DD0252D2CD0216A8847C0B16269AB
:10114000012101989047216A88470028F7D1411E64
:1011500062690198904700E0761CA1690B98884766
:10116000216A88470028F7D1E1690B988847DBE7B7
:10117000A1690B9888470746A84201D1761CD3E79E
:10118000E1690B9888477F1C02D1B8F1000F6FD03E
:1011900047E1002762693D463946019890472A2871
:1011A00004D162690121019890470125DFF88892F6
:1011B0006269012101989047A0F130010A290AD201
:1011C0004F45E5DC07EB870100EB4107303FDFD4FB
:1011D00045F01005ECE7E90601D46FF000476C28F4
:1011E0000AD04C2814D0682815D06A280DD074284D
:1011F0001CD07A281AD01DE062690121019890471D
:101200006C2802D045F0040514E045F002050DE01D
:1012100045F020050AE0626901210198904768289D
:1012200002D045F0080505E045F40065626901213A
:1012300001989047C4E9015765283DD019DC58282A
:101240007AD00CDC452837D004DC252826D041286C
:1012500031D131E046282FD047282CD12CE05B2813
:1012600077D0612828D063287CD0642823D15AE025
:10127000D1E06F2848D008DC66281DD067281BD035
:10128000692821D06E2816D127E0702845D0732810
:1012900068D0752847D078280DD14DE0A1690B980A
:1012A0008847054625283FF469AFE1690B988847D0
:1012B0006D1C3FF46AAFB4E023466A466FF001004C
:1012C0000B99FFF7BBF89FE045F040006060A8076E
:1012D00023464FF0000236D43EE0E8077FF447AFE4
:1012E0002068011D21600068290501D506701BE7F3
:1012F000290701D5068017E7A90703D5F117C0E92B
:10130000006111E706600FE745F040006060A80744
:1013100023464FF0080216D41EE040F60E0125EADF
:101320000100606016E045F040006060A8072346B9
:101330004FF00A0207D40FE045F040006060A807B4
:1013400008D5234610226FF001000B99AFF30080FF
:101350005AE007E0234610226FF001000B99FEF7D8
:1013600033FF51E04FF000094F464B46632802D04F
:101370005B2807D041E02079C00601D40120A0609D
:1013800001273AE062690121019890475E2805D162
:101390004FF001096269494601989047216939B9BE
:1013A00000210A46534643F82120491C0829FADB4C
:1013B000B0B3216969B9C11700EBD16253110AEBCF
:1013C000830122F01F02821A01200B689040034320
:1013D0000B6062690121019890475D28E8D1B9F15D
:1013E000000F09D00020514651F82020D24341F887
:1013F0002020401C0828F7DB02AB224600976FF044
:1014000001000B99AFF3008000280CDA401C08D1D2
:10141000BBF1000F05D04FF0FF300DB0BDE8F08FED
:10142000FFE74046F9E7E90701D108F10108064462
:101430004FF0000B78E60000CCCCCC0C420005D07D
:10144000C0F3C7525242914201DC0020704700EBCA
:10145000C150704770B521F0004303430CD0C1F375
:101460000A550024D5EB040564EB0403D617AD1A26
:10147000B34102DB0020014670BD201841EB025150
:1014800070BD0EB5C10F80EAE0700844CA070021A4
:1014900040F233438DE80E000A460B46FFF703FD8A
:1014A00003B000BD70B5C1F30A5201F0004500243D
:1014B000C1F3130140F2FF3341F480119A4201DA83
:1014C000002070BD40F233439A42A2F2334203DC63
:1014D0005242FFF705FE00E090402C43F1D040421D
:1014E00070BD00007F2801D9002208E0064A02EB07
:1014F0005002C007127800D1120902F00F02012039
:101500009040084070470000B870000870B58C1813
:1015100010F8015B15F0070301D110F8013B2A1107
:1015200006D110F8012B03E010F8016B01F8016BF4
:101530005B1EF9D12B0705D40023521E0DD401F8F0
:10154000013BFAE710F8013BCB1A921C03E013F8B9
:10155000015B01F8015B521EF9D5A142D8D30020EE
:1015600070BD000010B500F077FB13490968401A00
:10157000322800D210BD00F06FFB0F49086001F067
:1015800097FB0E4800780E49C978884205D10B4870
:1015900040780B49097988420BD009484178C01C32
:1015A00000F0F4FC0648C07804490870044800794B
:1015B000487000BFDEE70000AC040020A804002053
:1015C000E816002008B50121042001F0CFFD082015
:1015D000ADF8000010208DF8030003208DF8020004
:1015E0006946044800F036F90821024800F018FA6C
:1015F00008BD00000008014070B504460D460026F5
:101600000EE00821084800F00DFAA0B200F0E4F85E
:101610000821054800F004FAA0B200F0DDF8761CBD
:10162000AE42EED370BD00000008014021B1026857
:1016300042F00102026004E002684FF6FE731A40B5
:101640000260704701684FF6FE7211400160002190
:10165000016041608160C1604B49884208D14A49BC
:101660000839496841F00F01474A083A51608AE059
:1016700045491431884208D143490839496841F045
:10168000F001414A083A51607DE03F4928318842E3
:1016900008D13D490839496841F470613A4A083A2D
:1016A000516070E038493C31884208D136490839E8
:1016B000496841F47041344A083A516063E0324964
:1016C0005031884208D130490839496841F47021C5
:1016D0002D4A083A516056E02B496431884208D1BE
:1016E00029490839496841F47001274A083A51608C
:1016F00049E025497831884208D1234908394968A9
:1017000041F07061204A083A51603CE01F4988422C
:1017100006D1011F096841F00F01021F116032E07C
:101720001A491431884208D11849091F096841F043
:10173000F001164A121F116025E014492831884231
:1017400008D11249091F096841F470610F4A121F3C
:10175000116018E00D493C31884208D10B49091F3E
:10176000096841F47041094A121F11600BE00749F2
:101770005031884207D10549091F096841F4702199
:10178000024A121F1160704708000240080402401C
:101790000146486880B2704710B50022026847F6DB
:1017A000F0739A430C6A8B6823430C6923434C699A
:1017B00023438C692343CC6923434C6A23438C6ABB
:1017C00023431A430260CB6843600B6883604B6815
:1017D000C36010BD4160704718B5044600200090FA
:1017E00006E04FF47A7000F007F80098401C009073
:1017F0000098A042F5D318BD0CB5002101910BE073
:101800000B21009102E00099491E009100990029E6
:10181000F9D10199491C019101998142F0D30CBD84
:1018200010B504464FF480610848FEF796FC21028B
:101830004FF48072054802F0F3F8044800F0F9F81C
:1018400003490860014800F0CFFC10BDE80A002001
:10185000200400202DE9F04102460025002600204A
:1018600000230024002791F803C00CF00F0591F825
:1018700003C00CF0100CBCF1000F03D091F802C0B3
:101880004CEA050591F800C0BCF1000F31D0146896
:1018900000202BE04FF0010C0CFA00F3B1F800C06F
:1018A0000CEA03069E4220D183004FF00F0C0CFA85
:1018B00003F7BC4305FA03FC4CEA040491F803C0A7
:1018C000BCF1280F06D14FF0010C0CFA00FCC2F855
:1018D00014C00AE091F803C0BCF1480F05D14FF0E5
:1018E000010C0CFA00FCC2F810C0401C0828D1D32F
:1018F0001460B1F800C0BCF1FF0F34DD5468002063
:101900002EE000F1080C4FF0010808FA0CF3B1F8D2
:1019100000C00CEA03069E4221D183004FF00F0C59
:101920000CFA03F7BC4305FA03FC4CEA040491F8F3
:1019300003C0BCF1280F05D100F1080C08FA0CF81F
:10194000C2F8148091F803C0BCF1480F07D100F130
:10195000080C4FF0010808FA0CF8C2F81080401C7F
:101960000828CED35460BDE8F0810000F0B50A46E7
:10197000002300240021002500F00046B6F1004FAE
:1019800002D11D4EF16901E01B4E7168C0F30345A1
:1019900083B200F44016B6F5401F08D121F0706103
:1019A000154E766826F07066134F7E6012E000F4E4
:1019B0008016B6F5801F06D1032606FA05F4A1436A
:1019C00041F0706106E0460D360103FA06F6B143B8
:1019D00041F0706122B1460D360103FA06F631433B
:1019E00000F00046B6F1004F02D1034EF16101E074
:1019F000014E7160F0BD0000000001400246002071
:101A000093680B400BB1012000E0002070470246B4
:101A10000020D3680B400BB1012000E0002070478C
:101A200041617047016170470AB1016100E04161A5
:101A3000704770B5024600210020002323E0545C6B
:101A4000542C1ED14C1C145D303C4FF47A756C4301
:101A50008D1C555D303D05EBC50606EB051504EB09
:101A60008505CC1C145D303C04EB840405EB440577
:101A70000C1D145D303C2B19834200DD1846091DF6
:101A800001E0491C00BF545C002CD8D170BD00009F
:101A900008B50121042001F069FB4FF40040ADF8C6
:101AA000000010208DF8030003208DF80200694625
:101AB0000448FFF7CFFE4FF400410248FFF7B2FFA2
:101AC00008BD00000008014070B5044600F0C4F8ED
:101AD0000C490968401AA04200D270BD00F0BCF861
:101AE000084908604FF400410748FFF790FFC0F134
:101AF0000100C5B22A464FF400410348FFF794FFA6
:101B000000BFEAE7000400200008014010B52F489C
:101B10000078002855D100F09FF82D490968401A37
:101B20002C49096888424FD900F096F82849086086
:101B30002948006848B12948006830B90120234984
:101B4000087027A002F090FD10BD28480068FFF73C
:101B500067FE2748006827490968884218DA234841
:101B600000682449096888420CD1214800681F494F
:101B700008601948006820B118480068401E1749DD
:101B80000860E1E719480068401C184908601BE03C
:101B9000164800681749096888420CD11448006843
:101BA000124908600C48006820B10C480068401ECB
:101BB0000A490860C8E70D480068401E0B490860E4
:101BC00002E00A200349086000BFBDE708040020C6
:101BD00024040020200400201C0400201004002005
:101BE0004047726F7570446F6E6521000C040020D1
:101BF000140400201804002010B51448008818B3FD
:101C000013480078012806D002280BD003280DD0F5
:101C1000042813D10EE00F4800F06EFF0D4800F0CD
:101C200079FC0BE00B4800F0DFFA07E0094800F010
:101C3000DBFA03E0074801F083FC00BF00BF00208F
:101C4000034908700149088010BD0000C00400204D
:101C5000C2040020E80A0020014800687047000024
:101C6000CC04002070B5002100230F22C47804B3F7
:101C7000154C246804F4E064C4F5E064210AC1F161
:101C80000403CA40447804FA03F1847814402143E1
:101C900009010E4C0678A155047804F01F050124B3
:101CA000AC4005786D11AD0005F1E025C5F80041A7
:101CB00009E0047804F01F050124AC40044D0678C7
:101CC000761145F8264070BD0CED00E000E400E020
:101CD00080E100E070B5002419E004F1B001C8B261
:101CE000002100F0D8F80021084600F0D4F80021C7
:101CF000102000F0D0F8002505E00121002000F0C0
:101D0000CAF8681CC5B2802DF7DB601CC4B2082C71
:101D1000E3DB70BD2DE9F05F06460F4690461C469A
:101D2000DDF828A04FF0000BE11704EB5171C9104A
:101D3000A4EBC10131B92046E11704EB5171C1F3A5
:101D4000C70506E02046E11704EB5171C910491C94
:101D5000CDB23D4615E02946304600F087F8B14641
:101D60000BE059460BF1010B1AF80100012100F0BC
:101D700092F809F1010000F0FF09C145F1DB681C90
:101D8000C5B2A542E7DBBDE8F09F10B56420FFF7C0
:101D900023FD0021AE2000F07EF80021084600F06F
:101DA0007AF80021102000F076F80021402000F0A1
:101DB00072F80021B02000F06EF80021812000F0C0
:101DC0006AF80021FF2000F066F80021A12000F051
:101DD00062F80021A62000F05EF80021A82000F0A3
:101DE0005AF800213F2000F056F80021C82000F0EA
:101DF00052F80021D32000F04EF80021084600F0F0
:101E00004AF80021D52000F046F80021802000F09B
:101E100042F80021D82000F03EF80021052000F013
:101E20003AF80021D92000F036F80021F12000F026
:101E300032F80021DA2000F02EF80021122000F004
:101E40002AF80021DB2000F026F80021302000F0E5
:101E500022F800218D2000F01EF80021142000F04F
:101E60001AF80021AF2000F016F810BD70B5044636
:101E70000D4605F1B001C8B2002100F00CF81021A8
:101E800041EA1410002100F006F804F00F000021D0
:101E900000F001F870BD13B50C4634B101236A4659
:101EA00040213C2001F0F8FC05E001236A460021B6
:101EB0003C2001F0F1FC1CBD00B587B0D0222749C1
:101EC000274801F0ADFD2648D0F8CC0025280BD0DE
:101ED000002007E040F2DC522149AC3141F82020DB
:101EE000411CC8B20828F5DB1D48D0F8C8001C49C1
:101EF000D1F8C4101A4AD2F8C020194BD3F8BC301C
:101F0000CDE90232CDE904101548D0F8B8001449E3
:101F1000D1F8B410CDE900101148D0F8B03011A1BB
:101F2000D0F8AC20184802F077FD174802F09CFB6F
:101F30000B48D0F8A80025280ED0002006E000228B
:101F40000749883141F82020411CC8B20828F6DB37
:101F500025210348C0F8A81007B000BD00F87F0095
:101F600020090020696E69745F706F733A25642CD4
:101F700025642C25642C25642C25642C25642C25B3
:101F8000642C25640D0A0000200500202DE9F04195
:101F900007460E4600257878397800EB0120854900
:101FA000088085480088098888426ED0814800886A
:101FB000824908807F4800887F49098808407D4918
:101FC00008800024EDE00120A0407A4909880840FB
:101FD00000287DD10120A0407749098808400028C9
:101FE0007FD04FF480617648FEF7B7F8732E0DD19D
:101FF000744951F82400FEF7BBF88046714850F848
:10200000241042466E48FEF78FF810E0412E0DD1A5
:102010006D4951F82400FEF7ABF880466A4850F845
:10202000241042466648FEF77FF800E0B7E067A15B
:10203000634801F0ABFEC5B21DB10021681E604AC5
:10204000115463A15E4801F0A1FEF8B1002240F2F4
:102050002551604802F0AFF900205F4908805849D7
:102060000B315E48FEF78BF85C495548FEF787F860
:10207000012059490880012240F22551554802F0BB
:102080009AF901205649087026E091E055A14C4884
:1020900001F07CFE00B3002240F225514D4802F0D1
:1020A0008AF900204C49088045490B314B48FEF71E
:1020B00066F84A494248FEF762F80120464908801E
:1020C000012240F22551434802F075F9022001E057
:1020D00064E006E0424908704FF6FF703649088018
:1020E0005CE04FF480613648FEF737F8732E0DD16F
:1020F000344951F82400FEF73BF88046314850F847
:10210000241042462E48FEF70FF810E0412E0DD164
:102110002D4951F82400FEF72BF880462A4850F844
:10212000241042462648FDF7FFFF00E037E027A1D4
:10213000234801F02BFEC5B285B32149481924A1DB
:1021400001F024FE90B11E4841192448FEF717F80B
:102150002248FEF70DF8401E204900220A54184874
:10216000FEF70DF8164800F0D5F917E014494819A4
:102170001CA101F00BFE88B1114841191748FDF769
:10218000FEFF1648FDF7F4FF401E144900220A54D2
:102190000B48FDF7F4FF0A4800F026F800BF601C6A
:1021A000C4B2102CFFF60FAF044800880249088023
:1021B000BDE8F081B2040020B0040020B404002087
:1021C000E80A002028040020680400205E000000C7
:1021D0002400000000380140C00400202005002039
:1021E000C2040020230000002DE9FC5F0446002605
:1021F000022001F0A5FA2146B6A002F0FDFB2078EE
:1022000023287DD120795028FBD160795328F8D13B
:10221000A0794328F5D1E0794B287DD1207B212876
:102220007AD16078303864214843A178303901EBA5
:10223000810100EB4101E0783038084485B2607AD2
:10224000303864214843A17A303901EB810100EB39
:102250004101E07A30380F1817F1640F54DB642F16
:1022600052DC082D50DA207A2B281CD13846FEF794
:1022700051FC9949019051F82500FEF74BFC009064
:10228000964800EB051041680098FEF748FA83462F
:102290000199FEF7EFF9914901EB051148608E486D
:1022A00040F825701FE0207A2D281CD13846FEF713
:1022B00031FC8949019051F82500FEF72BFC009074
:1022C000864800EB051041680098FEF728FA83461F
:1022D0000199FEF721FA814901EB05114860794225
:1022E0007D4840F825107D4901EB05114868FEF74F
:1022F00045FC7A4901EB051108807948774900E0EF
:102300000AE001EB05118860022001F019FA21466C
:1023100070A002F071FB23E02078232820D12079DF
:1023200050281DD1607944281AD1A079532817D19B
:10233000E079542814D1207A212811D160783038DE
:1023400064214843A178303901EB810100EB410160
:10235000E07830380D18E8B200F050FDBDE8FC9F81
:102360002046FDF705FF8146ACE0A05D232813D190
:102370000025701C86B208E0A05D05EB850100EB2E
:102380004100303885B2701C86B2A05D0028EBD0C9
:10239000A05D5028E8D0EFE7A05D50281ED14FF097
:1023A000000A701C86B212E0A05DFEF7BCFB4D492E
:1023B00001905046FEF7B6F900900199FEF75AF9E0
:1023C00083464949FEF7A8F98246701C86B2A05D93
:1023D000002877D0A05D542874D0E5E7A05D54288C
:1023E0006ED14FF00008701C86B209E0A05D08EBCA
:1023F000880100EB410030381FFA80F8701C86B26B
:10240000A05D10B1A05D2128F0D1052D0DD1374977
:102410005046FEF701FC01D8DFF8D0A03449504601
:10242000FEF7F0FB01D8DFF8C8A0032D06D1314933
:102430005046FEF7F1FB01D8DFF8B8A0022D0DD110
:102440002D495046FEF7E8FB01D8DFF8ACA02B4938
:102450005046FEF7D7FB01D8DFF8A0A0012D0DD123
:1024600025495046FEF7D8FB01D8DFF88CA0234958
:102470005046FEF7C7FB01D8DFF880A0164951F897
:102480002500FEF747FB83465146FEF7F3F88246E8
:102490005046FEF75AFB8346E8B24246594600F0E2
:1024A000DBFC022001F04CF95046FEF767FB1FFAF7
:1024B00080FB43465A46294611A002F09DFA01E0EE
:1024C000701C86B2A05D10B1B145BFF64EAF00BF23
:1024D00044E7000025730000A8090020080A002036
:1024E0006F12833A00002041000040420000E144A6
:1024F000008089440080D4440040034500006144CA
:10250000232530336450253034645425303464211D
:10251000000000002DE9F0438FB081460024002028
:102520000E900D900C900B900A9009900890E2A1EB
:10253000484601F02BFC04464CB1012001F000F9A3
:10254000DFA002F059FAFF2000F058FCB1E1DFA152
:10255000484601F01BFC04468CB10120DD4908709F
:1025600001F0EEF8DCA002F047FADFA002F06AF911
:10257000FF2000F043FCFF20DE49087099E1DEA156
:10258000484601F003FC0446C4B10EAADCA148464B
:10259000FDF7FEFD0028D9D00E99C8B200F02EFC40
:1025A000DAA1DE480E9A02F037FADC4802F04AF966
:1025B0004FF48061D948FDF7D0FD7AE1D8A14846B3
:1025C00001F0E4FB044614B101F092F971E1D6A1E7
:1025D000484601F0DBFB04466CB10DAAD4A1484685
:1025E000FDF7D6FD0028B1D00120BA4908700D983A
:1025F000FFF716F95DE1D1A1484601F0C7FB04469B
:102600004CB3D048D04BD14AD1A100904846FDF7F9
:10261000BFFD00289AD0012001F092F8D0A002F06E
:10262000EBF90120AB490870C8480068C649096841
:1026300088420BD0C5480068CC490860C148006892
:10264000CB4908600020A349087032E1BF48006808
:10265000FFF7E6F82DE1C7A1484601F097FB0446D5
:102660006CB1C6A002F0EEF84FF4FA6240F2DC5111
:10267000FF2000F0F1FBFF209E49087019E1C3A183
:10268000484601F083FB0446ACB10DAAC1A1C44881
:10269000FDF77EFD002890D096490D9808700D98A2
:1026A00010B9C0A002F0CEF80D98022885D1C1A0C3
:1026B00002F0C8F8FDE0C3A1484601F067FB0446FC
:1026C00034B1012001F03CF8C0A002F095F9F0E02F
:1026D000AEA1484601F05AFB044694B10DAAADA143
:1026E000AF48FDF755FD002884D00D9810B9ADA076
:1026F00002F0A8F80D980228A7D1AEA002F0A2F827
:10270000D7E0B3A1484601F041FB0446F4B10A20EA
:10271000FFF762F8B2A0FFF767FD0A20FFF75CF849
:10272000012001F00DF8B1A002F066F9022001F0DD
:1027300007F8AEA002F060F90A20FFF74DF8B3A049
:1027400002F05AF90A20FFF747F8B2E0B1A1484673
:1027500001F01CFB0446002C5AD00AA80BA90CABB4
:102760000DAACDE90010ADA14846FDF711FD0028E6
:1027700084D0AFA001F078FF1822B34902A8FDF77A
:10278000D3FC0D98FEF7C6F902900C98FEF7C2F93B
:1027900003900B98FEF7BEF90490AC4902A803F031
:1027A00021FD0646002E2ED1A9A002F025F9002514
:1027B0000FE0012000F0C4FFA44951F82500FEF706
:1027C000F1F907463A460B462946A6A002F014F94D
:1027D0006D1C062DEDDB03F0B1F9002510E00A9821
:1027E0000090A64850F825302A46A5A14B4802F093
:1027F00013F94A4801F038FF4848FFF7F5FC6D1C13
:10280000062DECDB03E03146A2A002F0F5F850E023
:10281000A8A1484601F0BAFA0446ACB108A809AB31
:102820000EAAA6A100904846FDF7B2FCF0B3012025
:1028300000F086FFA6A002F0DFF80E99C8B2DDE92D
:10284000082100F01FFC34E0A5A1484601F09EFAE3
:1028500004465CB3012000F073FFA3A002F0CCF8A3
:102860000821A448FFF7DEF81E20FEF7B5FF082177
:10287000A048FFF7D5F81E20FEF7AEFF08219D48BF
:10288000FFF7D0F81E20FEF7A7FF08219948FFF7B1
:10289000C7F81E20FEF7A0FF08219648FFF7C2F8F0
:1028A0001E20FEF799FF0821924800E001E0FFF7A3
:1028B000B7F80FB0BDE8F083244452532100000064
:1028C00068656C6C6F20776F7264210024445354E8
:1028D000210000000804002050617273655F436DA1
:1028E00064204F4B000000002444535421204F4BE0
:1028F00000000000B6040020244453543A000000B5
:10290000244453543A256421000000002325303329
:102910006450445354210D0A00000000200500209B
:102920002452535421000000244447533A0000002D
:10293000244447533A2564210000000024444754AE
:102940003A0000001C040020180400201404002099
:10295000244447543A25642D25642C256421000025
:102960004447542020204447540D0A000C04002002
:102970001004002024444A5221000000233235353F
:1029800050313530305432303030210024534D4FE7
:102990004445000024534D4F444525642100000068
:1029A000E80A002023303130503135313254303094
:1029B0003030210023303130503135313154303016
:1029C000303021002447455441210000414141005D
:1029D00024534D4152545F53544F50210000000086
:1029E0002332353550445354210000002330303613
:1029F0005031353030543030303021233030375082
:102A0000313530305430303030210000404F4B21D0
:102A100000000000244B4D533A000000244B4D535E
:102A20003A25642C25642C25642C256421000000A3
:102A300054727920746F2066696E642062657374C5
:102A400020706F733A0D0A00CC6E0008F009002068
:102A5000494B20536F6C7574696F6E20666F756E8D
:102A6000643A0A004A6F696E742025643A20252E64
:102A7000326620646567726565730A00040500208C
:102A80002325303364502530346454253034642198
:102A90000A00000054617267657420706F736520CE
:102AA000697320756E726561636861626C653A2551
:102AB000642E0A0024416E676C653A0024416E67FB
:102AC0006C653A25642C25662C25662100000000E3
:102AD000416E676C65202020416E676C650D0A00B1
:102AE000244245455021000062757A7A65720D0ACC
:102AF000000000000008014038B50446002514A17C
:102B0000204601F043F905460DB31348134B144A10
:102B100014A100902046FDF73BFBC0B101201549F0
:102B200008700F4800680D49096888420BD00C48AE
:102B300000681149086008480068104908600020D2
:102B40000C49087003E006480068FEF769FE38BDCE
:102B5000244447543A0000001C04002018040020BC
:102B600014040020244447543A25642D25642C2560
:102B700064210000080400200C0400201004002040
:102B8000002014E040F2DC5100EB4002094B23F836
:102B90002210094900EB400203EB82025160002140
:102BA00000EB400203EB82029160411CC8B208288E
:102BB000E8DB7047880A00200080BB4408B501218B
:102BC0000C2000F0D3FA0220ADF8000028208DF888
:102BD000030003208DF8020069461748FEF73AFE0D
:102BE0008020ADF8000010208DF8030003208DF840
:102BF000020069461048FEF72DFE0120ADF80000E6
:102C000069460E48FEF726FE0220ADF80000694630
:102C10000A48FEF71FFE012211460848FEF704FF8E
:102C2000012202210548FEF7FFFE01228021024811
:102C3000FEF7FAFE08BD000000080140000C01404C
:102C40002DE9F04105462F460026002427E001200B
:102C5000A04000EA070280211348FEF7E5FE0122AA
:102C600002211248FEF7E0FE0620FEF7C5FD002215
:102C700002210E48FEF7D8FE0620FEF7BDFD012218
:102C800002210A48FEF7D0FE02210748FEF7B6FEF1
:102C900018B10120A0403043C6B2601CC4B2082C59
:102CA000D5DB3046BDE8F08100080140000C014052
:102CB00010B5002201211B48FEF7B6FE0120FFF7E8
:102CC000BFFF194908704220FFF7BAFF1649487044
:102CD0000878FFF7B5FF144988700878FFF7B0FF50
:102CE0001149C8700878FFF7ABFF0F4908710878E1
:102CF000FFF7A6FF0C4948710878FFF7A1FF0A49C2
:102D000088710878FFF79CFF0749C8710878FFF7BA
:102D100097FF05490872012211460248FEF784FE1A
:102D200010BD0000000C0140E816002038B501215C
:102D3000082000F01BFA03208DF8020010208DF807
:102D400003000820ADF8000069462848FEF782FD20
:102D50001020ADF8000069462448FEF77BFD2020D6
:102D6000ADF8000069462148FEF774FD4020ADF83B
:102D7000000069461D48FEF76DFD8020ADF800009B
:102D800069461A48FEF766FD4FF48070ADF8000002
:102D900069461648FEF75EFD4FF40070ADF800007E
:102DA00069461248FEF756FD00241CE040F2DC5054
:102DB0000F4901EB041108800E480D4901EB041185
:102DC00048600D480A4901EB0411886041F28830DF
:102DD000074901EB041148800020054901EB04116B
:102DE000C860601CC4B2082CE0DB38BD000C014098
:102DF000080A00200080BB440000A04110B5044632
:102E0000082C0FDA0020134901EB041188601149E6
:102E100001EB04114868FDF7B1FE0E4901EB041106
:102E2000088016E0FF2C14D1002410E0002009498E
:102E300001EB04118860074901EB04114868FDF7B4
:102E40009DFE044901EB04110880601CC4B2082CEB
:102E5000ECDB10BD080A00202DE9F04704460D46C2
:102E60001646082C01DBBDE8F0877DB90020374904
:102E700001EB04118860354901EB04114868FDF746
:102E80007DFE324901EB04110880ECE740F6BA10F0
:102E9000854201DD054604E0B5F5FF7F01DA4FF418
:102EA000FF7542F21070864200DD461E2846FDF78F
:102EB00031FE0746254800EB041041683846FDF70F
:102EC000A1FE0AD12846FDF725FE80462049FDF7E0
:102ED000D1FB0746FDF739FE0546142E10DA1B49D3
:102EE00001EB04110D802846FDF714FE174901EB94
:102EF000041148600020154901EB0411886022E0AC
:102F0000124901EB04110D80104901EB04114E80B0
:102F10003046FDF7FFFD81460E49FDF735FC0746BB
:102F20002846FDF7F7FD8146084800EB041041688C
:102F30004846FDF7F1FB80463946FDF725FC03497D
:102F400001EB0411886000BF8DE70000080A002033
:102F50004850FC3B0000A0412DE9F04704462A49B7
:102F600001EB041188680021FDF74CFE01D1BDE89A
:102F7000F087254800EB0410058840F6BA1085421A
:102F800001DD054604E0B5F5FA7F01DA4FF4FA7584
:102F90001D4901EB041188684FF08041FDF7C2FB29
:102FA000804602F0BFFD06462846FDF7B3FD814688
:102FB000154800EB041041684846FDF7ADFB80461C
:102FC00002F0B0FD07463146FDF71CFE0CD828463E
:102FD000FDF7A0FD0C4901EB0411486000200A49EF
:102FE00001EB041188600DE0074A02EB04129168BE
:102FF000054A02EB04125068FDF73CFB024901EB65
:103000000411486000BFB2E7080A002070B504460A
:103010000D46072C31D2DFE804F0040A10161C22FA
:1030200029002A4608211648FEF7FEFC26E02A461B
:1030300010211348FEF7F8FC20E02A462021104812
:10304000FEF7F2FC1AE02A4640210D48FEF7ECFCA0
:1030500014E02A4680210A48FEF7E6FC0EE02A46E4
:103060004FF480710648FEF7DFFC07E02A464FF474
:1030700000710348FEF7D8FC00E000BF00BF70BD40
:10308000000C01402DE9F74F84B08B469246504624
:10309000FDF788FDCDE900015846FDF783FD0646A2
:1030A000DDE9002303F041F8044622460B460020E8
:1030B000014603F019F88046FDF787FD8346104866
:1030C00001685846FDF72EFB834651465846FDF7EA
:1030D0005BFB05460B49FDF725FB04460A49FDF756
:1030E000C9FA02900298FDF730FD04464FF47A7257
:1030F00021460498FFF7B0FE07B0BDE8F08F00004E
:10310000B80400200000FA440000FA4329B1064A3E
:1031100052690243044B5A6104E0034A52698243F4
:10312000014B5A61704700000010024029B1064A65
:10313000D2690243044BDA6104E0034AD269824354
:10314000014BDA61704700000010024029B1064AC5
:1031500012690243044B1A6104E0034A1269824374
:10316000014B1A61704700000010024029B1064A65
:1031700092690243044B9A6104E0034A92698243D4
:10318000014B9A61704700000010024029B1064AC5
:10319000D2680243044BDA6004E0034AD2688243F7
:1031A000014BDA6070470000001002400F480068D1
:1031B00040F001000D490860084640680C4908408D
:1031C0000A494860084600680A49084007490860FB
:1031D0000846006820F4802008600846406820F413
:1031E000FE0048604FF41F008860704700100240E6
:1031F0000000FFF8FFFFF6FE30B50021002200249A
:1032000000232D4D6D6805F00C0121B1042905D076
:10321000082923D105E0294D056022E0274D0560EE
:103220001FE0254D6D6805F47012234D6D6805F49F
:103230008034022505EB92421CB9214D55430560AF
:103240000BE01D4D6D6805F400351DB11C4D554357
:10325000056002E0194D5543056002E0174D056019
:1032600000BF00BF144D6D6805F0F0010909154D50
:103270006B5C0568DD4045600F4D6D6805F4E061ED
:10328000090A104D6B5C4568DD4085600A4D6D682C
:1032900005F46051C90A0B4D6B5C4568DD40C560A3
:1032A000054D6D6805F44041890B074D6B5CC568A1
:1032B000B5FBF3F5056130BD0010024000127A0045
:1032C00000093D00E8040020F804002010B5014684
:1032D0000022002300204A11012A02D1094C236850
:1032E00006E0022A02D1074C236A01E0054C636A1A
:1032F00001F01F02012494401C400CB1012000E0A9
:10330000002010BD001002400248406800F00C0090
:10331000704700000010024001460020034A506838
:1033200020F0F00008435060704700000010024099
:103330001149096821F480310F4A1160114609686A
:1033400021F480211160B0F5803F03D0B0F5802FCB
:103350000ED106E00849096841F48031064A11603F
:1033600007E00549096841F4A021034A116000E023
:1033700000BF00BF7047000000100240014600205F
:10338000034A506820F4E060084350607047000032
:103390000010024001460020034A506820F46050AB
:1033A00040EAC100506070470010024001490866C1
:1033B000704700000000424202460020044B58685B
:1033C00020F47C1042EA01031843014B5860704717
:1033D0000010024001460020034A506820F003001C
:1033E00008435060704700000010024038B50020CC
:1033F00000900024002500BF3120FFF767FF05463D
:103400000098401C00900098B0F5A06F01D0002DEE
:10341000F2D03120FFF75AFF08B1012400E0002468
:10342000204638BD10B5FFF7C1FE4FF48030FFF7DE
:103430007FFFFFF7DBFF044600BF002CFDD000201C
:10344000FFF76AFF4FF48060FFF798FF0020FFF757
:10345000A1FF4FF4E0114FF48030FFF7ADFF0120E2
:10346000FFF7A4FF00BF3920FFF730FF0028FAD094
:103470000220FFF7AFFF00BFFFF746FF0828FBD190
:1034800010BD04E003788B4200D10270401C037829
:10349000002BF7D17047000010B540F2FF7000F02C
:1034A0003FFAD0220249034800F074FB10BD00002F
:1034B00000F87F002009002021B1028842F040027C
:1034C000028004E002884FF6BF731A400280704702
:1034D0000246002013890B400BB1012000E00020C0
:1034E00070470146888970478181704710B5002276
:1034F000028802F441520B884C8823438C88234372
:10350000CC8823430C8923434C8923438C89234350
:10351000CC8923431A430280838B4FF2FF742340EC
:1035200083830B8A038210BD10B501210D20FFF7A4
:103530001DFE01210148FEF719FA10BD00023000FE
:1035400070B504464FF0FF35607824280CD1A07880
:10355000212809D10021374880F88410FFF79CFF0B
:1035600035A001F081F870BD607824281BD181213D
:103570003048001DFCF7F1FD611C2E48001DFCF7D2
:10358000FEFD2046FCF7F4FD801E2A49091D00229D
:103590000A542521274880F88410FFF77DFF2BA0CF
:1035A00001F062F8DFE7A07830384FF47A714843D1
:1035B000E178303901EBC10202EB011100EB81012E
:1035C0002079303800EB800001EB40016079303821
:1035D0000D18002D02DBA079232803D020A001F0D4
:1035E00043F8C0E72802C11700EB11510913A0EB03
:1035F000013131B92E02F11706EB1151081300F019
:103600008FF97B223C212046FFF73BFF7D223E21A4
:103610002046FFF736FF2046FCF7AAFD401C86B285
:1036200029023246204600F05BFA0EA001F01CF899
:1036300000BF98E72009002040434C4541522050EC
:1036400052455F434D44204F4B21000040534554A9
:10365000205052455F434D44204F4B210000000055
:10366000450000004100000038B504464FF400401A
:10367000ADF8000014208DF8030003208DF802003F
:1036800069461648FEF7E6F8002523E004F08000BE
:1036900028B10122D1031148FEF7C6F905E0002246
:1036A0004FF400410D48FEF7BFF9012291030B488A
:1036B000FEF7BAF90020FEF79FF800224FF4804190
:1036C0000648FEF7B1F90020FEF796F86006040EF2
:1036D000681CC5B2082DD9DB38BD000000100140C0
:1036E00010B5002424E0144830F82410243830F8B1
:1036F00024000844114901EB041108800E4951F8D7
:103700002420243951F824105018FDF703FA0B49EE
:1037100001EB041148600020084901EB04118860A6
:1037200041F28830054901EB04114880601CC4B2A5
:10373000082CD8DB10BD0000CC090020080A0020AE
:103740000149087070470000BC04002010B500F06B
:1037500001F810BD0CB500200190009033480068BE
:1037600040F480303149086000BF3048006800F400
:10377000003000900198401C0190009818B9019801
:10378000B0F5A06FF1D12948006800F4003010B105
:103790000120009001E0002000900098012843D112
:1037A0002348006840F0100021490860084600687E
:1037B00020F0030008600846006840F0020008603E
:1037C0001A484068194948600846406848600846F9
:1037D000406840F4806048600846406820F47C10EF
:1037E00048600846406840F4E810486008460068B1
:1037F00040F08070086000BF0C48006800F0007066
:103800000028F9D00948406820F0030007494860C3
:103810000846406840F00200486000BF0348406826
:1038200000F00C000828F9D10CBD00000010024087
:103830000020024008B501211020FFF797FC4FF44B
:103840008040ADF8000014208DF8030003208DF8AF
:10385000020069460F48FDF7FDFF01211020FFF728
:1038600085FC4FF40040ADF8000014208DF80300F3
:1038700003208DF8020069460648FDF7EBFF4FF480
:1038800080410448FEF7CEF84FF400410148FEF7AE
:10389000C9F808BD001001402DE9F04105460E466B
:1038A00014461F4600F00CFA6906080EFFF7DCFE0E
:1038B00001F056F810B10120BDE8F0813046FFF765
:1038C000D3FE01F04DF808B10220F5E708E014F846
:1038D000010BFFF7C9FE01F043F808B10320EBE745
:1038E000381EA7F10107F2D100F022FA0020E3E729
:1038F000012080F3138800BF00BF0748006800F470
:10390000E06006490843001D03490860BFF34F8F7C
:1039100000BF00BFFEE700000CED00E00000FA056C
:1039200010B50446240300F0C9F800F0BDF80022E9
:103930004FF480510C48FEF777F8202000F096F9FC
:10394000C4F3074000F092F9C4F3072000F08EF9A9
:10395000E0B200F08BF9012211030348FEF764F88E
:1039600000F0A2F810BD0000000C014010B50121CC
:103970000820FFF7FBFB4FF48050254908801020FA
:10398000C870032088702348FDF764FF4FF480510E
:103990002048FEF747F84FF420401D4908801820C2
:1039A000C8701C48FDF756FF4FF480401849088046
:1039B0004820C8701748FDF74DFF4FF420411548C7
:1039C000FEF730F801218803FFF7B0FB0020124911
:1039D00008804FF482704880002088800220C880D0
:1039E0000120088140024881382088810020C88158
:1039F000072008820948FFF779FD01210748FFF7F2
:103A00005BFDFF2000F032F9002000F01DF910BD31
:103A1000C6040020000C0140F216002000380040CF
:103A20002DE9F04106460C46174600224FF480511E
:103A30001048FDF7F9FF032000F018F9C4F3074020
:103A400000F014F9C4F3072000F010F9E0B200F020
:103A50000DF9002505E0FF2000F008F97055681CFD
:103A600085B2BD42F7DB012211030248FDF7DCFFFE
:103A7000BDE8F081000C014010B5002400224FF495
:103A800080510848FDF7D0FF052000F0EFF8FF2037
:103A900000F0ECF80446012211030248FDF7C4FFD0
:103AA000204610BD000C014010B500BFFFF7E4FF39
:103AB00000F001000028F9D110BD000010B500226F
:103AC0004FF480510548FDF7AFFF062000F0CEF817
:103AD000012211030148FDF7A7FF10BD000C0140B2
:103AE0002DE9F04107460E461446F0B2C0F5807548
:103AF000AC4200DC254612E02A463146384600F04A
:103B000013F8AC4200D10BE02F442E44601B84B26A
:103B1000B4F5807F02DD4FF4807500E02546EBE7C9
:103B200000BFBDE8F08100002DE9F04107460C46DA
:103B30001646E0B2C0F58078464500DD4646FFF700
:103B4000BDFF00224FF480511148FDF76DFF0220A8
:103B500000F08CF8C4F3074000F088F8C4F30720A5
:103B600000F084F8E0B200F081F8002504E0785D10
:103B700000F07CF8681C85B2B542F8DB0122110325
:103B80000348FDF751FFFFF78FFFBDE8F08100000C
:103B9000000C01402DE9F04781460F4616464FEADA
:103BA0001738C7F30B0ACAF58054A64200DC344626
:103BB00044E04FEA08314FF480522248FFF730FFCB
:103BC000002508E00AEB05001E49085CFF2800D02C
:103BD00003E0681C85B2A542F4DB00BFA54216DAFB
:103BE0004046FFF79DFE002507E019F8050005EBAC
:103BF0000A01144A5054681C85B2A542F5DB4FEA0D
:103C000008314FF480520F48FFF76AFF04E0224664
:103C100039464846FFF764FFA64200D10FE008F19D
:103C200001084FF0000AA1442744301B86B2B6F5C4
:103C3000805F02DD4FF4805400E03446B9E700BFF6
:103C4000BDE8F0870417002010B5044605488481BC
:103C500001460548FFF74AFC01210348FFF72CFC09
:103C600010BD0000F21600200030014070B505467E
:103C7000002405E0601CC4B2C82C01DD002070BD2A
:103C800002210E48FFF724FC0028F3D029460B48F8
:103C9000FFF72AFC002405E0601CC4B2C82C01DD3B
:103CA0000020ECE701210548FFF712FC0028F3D0C3
:103CB0000248FFF716FCC0B2E1E700000038004000
:103CC00008B54FF40040ADF8000014208DF8030053
:103CD00003208DF8020069461448FDF7BBFD002261
:103CE0004FF480411148FDF79FFE0122D1030F4898
:103CF000FDF79AFE012291030C48FDF795FE002086
:103D0000FDF77AFD00224FF400410848FDF78CFED4
:103D10000020FDF771FD00224FF480410348FDF7BC
:103D200083FE0020FDF768FD08BD00000010014083
:103D300008B54FF40040ADF8000014208DF80300E2
:103D400003208DF8020069460F48FDF783FD00222D
:103D50004FF480410C48FDF767FE00224FF400410C
:103D60000948FDF761FE012291030748FDF75CFE5B
:103D70000020FDF741FD0122D1030348FDF754FE69
:103D80000020FDF739FD08BD0010014070B5044664
:103D90000B4621461A4619E008781578A84214D136
:103DA0000AE011F8015B12F8016BB54204D0D01A99
:103DB000081A411C1A4602E010780028F1D100BF11
:103DC000107818B9081B80B270BD491C087800280B
:103DD000E2D100BFF8E7000030B5144800684FF4A6
:103DE0007A72B0FBF2F1B1F1807F00D31DE021F0D7
:103DF0007F40401E4FF0E022506150170F220028F4
:103E000007DA13071D0E0A4B00F00F04241F1D557F
:103E100003E013071C0E074B1C5400BF00204FF09B
:103E2000E02290610720106100BF30BDD404002063
:103E300018ED00E000E400E002480068401C014981
:103E400008607047CC04002010B51348006840F0AB
:103E500001001149086008464068104908400E49B1
:103E60004860084600680E4908400B49086008464B
:103E7000006820F4802008600846406820F4FE00B6
:103E800048604FF41F008860FFF760FC4FF000604F
:103E90000449086010BD0000001002400000FFF857
:103EA000FFFFF6FE08ED00E07FB505460C46012158
:103EB000C802FFF73BF9ADF80850ADF80440002008
:103EC000ADF80A00ADF8060001A9104800F0D8F8D6
:103ED00000210E4800F09FF8012211460B4800F027
:103EE000C6F819208DF8000000208DF8010002208E
:103EF0008DF8020001208DF803006846FDF7B2FE40
:103F00000121024800F096F87FBD0000002C01401E
:103F100010B50121880700F099F8002841D0214808
:103F20000078082802D100201E4908701E48007839
:103F3000A0B91E491B4A127801EB02114868FCF730
:103F40001DFE4FF080418885012116480078FFF75B
:103F50005DF814480078FEF7FFFF16E01349114A98
:103F6000127801EB02114868FCF708FE40F6C41114
:103F70000C1A09078C8500210A480078FFF746F8DB
:103F800008480078401C074908700748007808B9BD
:103F9000012000E00020044908700121880700F09A
:103FA00046F810BDD2040020D1040020080A0020E9
:103FB0007FB505460C4601210846FFF7B7F8ADF876
:103FC0000850ADF804400020ADF80A00ADF8060036
:103FD00001A94FF0804000F053F800214FF08040DD
:103FE00000F019F801221146900700F040F81C205B
:103FF0008DF8000001208DF8010003208DF80200EB
:1040000001208DF803006846FDF72CFE012188078A
:1040100000F010F87FBD21B1028842F080020280DA
:1040200004E002884FF67F731A4002807047CA434B
:104030000282704721B1028842F00102028004E04E
:1040400002884FF6FE731A400280704730B5024670
:10405000002000230024158A05EA0103958905EA5A
:10406000010413B10CB1012000E0002030BD1AB1F1
:1040700083890B43838102E083898B43838170476B
:10408000002202881D4B98420ED01D4B98420BD047
:10409000B0F1804F08D01B4B984205D01A4B984284
:1040A00002D01A4B984204D14FF68F731A404B88B6
:1040B0001A43174B984207D0164B984204D04FF63C
:1040C000FF431A40CB881A4302808B8883850B8874
:1040D00003850A4B98420BD0094B984208D00E4BEF
:1040E000984205D00D4B984202D00D4B984201D119
:1040F0000B7A03860123838270470000002C014065
:10410000003401400004004000080040000C004062
:1041100000100040001400400040014000440140F5
:104120000048014038B540F22441184800F00DF92C
:1041300050B31648008800901448001D0088009075
:1041400000BF00211248FDF771FA1148FDF720FB6E
:10415000C0F5806084B2002C0CDDB4F5806F09DC02
:10416000002505E00B49485D00F086FB681C85B220
:10417000A542F7DB4FF480610548FDF72BFB0121D9
:104180000348FDF753FA00BF38BD00000038014076
:1041900058000240E80E002010B540F225510948B1
:1041A00000F0C6F801280CD1064800F095F9C4B219
:1041B000204600F061FB40F22551024800F046F82D
:1041C00000BF10BD0044004038B540F224411B48F8
:1041D00000F0BBF880B31948008800901748001D14
:1041E0000088009000BF00211548FDF71FFA144811
:1041F000FDF7CEFAC0F580601249088008460088B5
:1042000000280FDD08460088B0F5806F0ADC002426
:1042100004E00D49085D00F02FFB641C094800888C
:104220008442F6DB4FF480610548FDF7D3FA0121A3
:104230000348FDF7FBF900BF38BD0000004800400F
:1042400030000240BE040020E812002010B5002219
:10425000002340F66A14A14200D100BF0A120124D3
:104260009440A3B2DC43048010BD21B1828942F4A2
:104270000052828104E082894DF6FF731A408281E8
:1042800070471AB1838A0B43838202E0838A8B438F
:104290008382704710B504462048844209D1012129
:1042A0008803FEF773FF00214FF48040FEF76EFF96
:1042B00032E01B48844209D101214804FEF746FF41
:1042C00000214FF40030FEF741FF25E015488442FD
:1042D00009D101218804FEF739FF00214FF4802025
:1042E000FEF734FF18E01048844209D10121C804C8
:1042F000FEF72CFF00214FF40020FEF727FF0BE014
:104300000A48844208D101210805FEF71FFF002159
:104310004FF48010FEF71AFF10BD00000038014076
:104320000044004000480040004C00400050004065
:1043300002460020B1F5007F00D100BF13880B407A
:104340000BB1012000E00020704770B50246002448
:1043500000230025002040F66A16B14200D100BFBC
:10436000C1F3421501F01F03012606FA03F3012DE4
:1043700002D19689334006E0022D02D1168A3340DD
:1043800001E0968A33400C12012606FA04F41688DE
:10439000344013B10CB1012000E0002070BD21B108
:1043A000828A42F00802828204E0828A4FF6F77322
:1043B0001A4082827047F0B503460024002600258B
:1043C000002040F66A17B94200D100BF1846C1F379
:1043D000421401F01F06012707FA06F5012C01D14E
:1043E0000C3004E0022C01D1103000E014301AB17E
:1043F00007682F43076002E00768AF430760F0BD1E
:104400002DE9F04786B005460E460024A24600BFBF
:10441000A1460027B08900B100BF2F462C8A4CF678
:10442000FF700440F08804432C82AC894EF6F310F0
:104430000440B08831890843718908430443AC8142
:10444000AC8A4FF6FF400440B0890443AC8201A817
:10445000FEF7D2FE1F48874202D1DDF810A001E02E
:10446000DDF80CA0A88900F4004040B10AEBCA00B6
:1044700000EB0A1031684900B0FBF1F807E00AEBE5
:10448000CA0000EB0A1031688900B0FBF1F8642023
:10449000B8FBF0F004012009642101FB1089A88910
:1044A00000F4004040B1322000EBC900B0FBF1F055
:1044B00000F00700044308E0322000EB09106421FB
:1044C000B0FBF1F000F00F0004432C8106B0BDE812
:1044D000F08700000038014001468888C0F30800DA
:1044E0007047C1F308028280704700000EB50121B9
:1044F0000420FEF71BFE47F23050ADF804004720C1
:10450000ADF800000020ADF80600ADF802006946E5
:104510000148FFF7B5FD0EBD0008004008B50121B8
:104520000420FEF723FE2020ADF8000010208DF8B7
:10453000030003208DF8020069460848FDF78AF958
:104540001020ADF8000004208DF8030069460348F0
:10455000FDF780F9FFF7CAFF08BD00000008014021
:1045600010B592B00446012144F20400FEF7FEFDAE
:1045700001210846FEF7CAFD3748FFF78BFE4FF4CE
:104580000070ADF8440018208DF8470003208DF826
:10459000460011A93148FDF75DF94FF48060ADF890
:1045A000440004208DF8470011A92C48FDF752F96A
:1045B0000D940020ADF83800ADF83A00ADF83C009D
:1045C0000C20ADF83E000020ADF840000DA92248B7
:1045D000FFF716FF2248FDF735F81F48001D019030
:1045E00020480290002003904FF480600490002047
:1045F00005908020069000200790089020200990C8
:10460000C0010A9000200B9001A91548FDF7C4F8DD
:1046100001211348FDF70AF8012240210E48FFF757
:1046200030FE012240F224410B48FFF7C4FE252052
:104630008DF8300001208DF8310000208DF8320017
:1046400001208DF833000CA8FDF70CFB0121024876
:10465000FFF70BFE12B010BD00380140000801400A
:1046600058000240E80E002010B504460BE014F894
:10467000011B0748FFF735FF00BF80210448FFF703
:1046800057FE0028F9D020780028F0D110BD000096
:104690000038014010B586B0044601210420FEF721
:1046A00065FD01214804FEF741FD0420ADF814002A
:1046B00018208DF8170003208DF8160005A91D4855
:1046C000FDF7C8F801940020ADF80800ADF80A0025
:1046D000ADF80C000C20ADF80E000020ADF8100075
:1046E00001A91548FFF78CFE01211348FFF757FE7B
:1046F00026208DF8000001208DF8010000208DF8A3
:10470000020001208DF803006846FDF7ABFA012294
:1047100040F225510848FFF74EFE002240F2277173
:104720000548FFF748FE01210348FFF79EFD06B04C
:1047300010BD0000000801400044004010B592B0D8
:10474000044601210820FEF711FD01218804FEF72F
:10475000EDFC01210846FEF7D9FC4FF48060ADF86E
:10476000440018208DF8470003208DF8460011A959
:104770003048FDF76FF84FF40060ADF844000420B6
:104780008DF8470011A92B48FDF764F80D9400201F
:10479000ADF83800ADF83A00ADF83C000C20ADF8AB
:1047A0003E000020ADF840000DA92348FFF728FE89
:1047B0002248FCF747FF2048001D01902048029046
:1047C000002003904FF4806004900020059080202A
:1047D000069000200790089020200990C0010A90C0
:1047E00000200B9001A91548FCF7D6FF01211348C2
:1047F000FCF71CFF012240210F48FFF742FD012278
:1048000040F224410C48FFF7D6FD27208DF83000F8
:1048100001208DF8310000208DF8320001208DF844
:1048200033000CA8FDF71EFA01210348FFF71DFD18
:1048300012B010BD000C01400048004030000240A2
:10484000E812002010B504460120FEF779FF21464A
:1048500008A000F0D1F80220FEF772FF214605A063
:1048600000F0CAF80320FEF76BFF214601A000F01C
:10487000C3F810BD2573000010B504462D4800880C
:1048800000B110BD2C480088B0F5806F04DB00201B
:10489000294908802949087028480078E8B9232C5C
:1048A0000ED0242C08D03C2C02D07B2C10D10BE055
:1048B0000420224908700CE001202049087008E01B
:1048C00002201E49087004E003201C49087000E023
:1048D000D7E700BF002018490880174801880088E2
:1048E000401C154A10801648445414480078042887
:1048F00001D13E2C11D011480078012801D1212C82
:104900000BD00E480078022801D1212C05D00B488D
:104910000078032809D17D2C07D100200849064AD8
:10492000128888540120034908800548FFF78AFF50
:1049300000BFA6E7C0040020C4040020C204002079
:10494000E80A002010B54FF4E130FFF709FE4FF4FC
:10495000E130FFF79FFE4FF4E130FFF7EFFE10BDAF
:1049600038B500250A244FF40040ADF80000482077
:104970008DF8030069461F48FCF76CFF0122D10344
:104980001C48FDF751F80020FCF736FF0122910387
:104990001848FDF749F80020FCF72EFF04E0601EE0
:1049A000C4B20020FCF728FF4FF400411148FDF786
:1049B00025F8012801D1002CF1D1002C03DCFFF7F0
:1049C000B7F9012038BD00224FF480410948FDF7B6
:1049D0002BF84FF40040ADF8000014208DF80300D0
:1049E00003208DF8020069460248FCF733FF00BF40
:1049F0002846E7E7001001400FB4054B10B503A9A6
:104A0000044A029800F006FD10BC5DF814FB00009B
:104A10006D610008FC0400200FB4084B10B504A918
:104A200002AA039800F0F6FC044602A9002001F057
:104A300074F8204610BC5DF814FB00001B5B0008F6
:104A4000490050EAC12018BF04204A0D18BF40F0A9
:104A5000010040F2FF72B2EB515F08BF40F002006C
:104A6000012808BF052070474100080218BF042034
:104A70000A0E18BF40F001004FF07F4232EA0101F8
:104A800008BF40F00200012808BF05207047000061
:104A90002DE9F74F144694B00021C4E9021115998D
:104AA000079121F00045C9498D4206DC1599C4E9FA
:104AB000000117B00020BDE8F08FC549DFF814A34E
:104AC000A9423CDD0799C44E0029C44FC44A159938
:104AD000534619DDFBF737FF554506D0C14AC24B97
:104AE000FBF731FFC4E900010AE04FF0D352BE4B9F
:104AF000FBF729FF32463B46FBF725FFC4E90001DF
:104B000017B00120BDE8F08FFBF77CFE554506D0BD
:104B1000B44AB54BFBF776FEC4E900010AE04FF05A
:104B2000D352B14BFBF76EFE32463B46FBF76AFEB3
:104B3000C4E9000117B04FF0FF30BDE8F08FAB497A
:104B4000A942159978DB21F0004183468846A84A9E
:104B5000A84BFBF7FEFE0022A74BFBF753FEFCF72A
:104B6000A1FC0990FCF78DFC06460F469C4A534673
:104B7000FBF7EFFE43465A46FBF7E8FE80468A46BF
:104B8000984A994B30463946FBF7E3FE2A0D01253A
:104B90000B9242465346FBF7D9FE032DC4E90001B0
:104BA00039D00B98C1F30A51401A05EB4511113960
:104BB000814230DA9148C346784400EB0510CDF8C5
:104BC0000CA00C90D0E9002330463946FBF7C1FE1B
:104BD00002460B460491069058460399FBF7B3FE34
:104BE00080468A4602460B4658460399FBF7ABFEC1
:104BF000049B069AFBF7A7FE83460C98039139465F
:104C0000D0E902233046FBF7A4FE5A46039BFBF78C
:104C10009AFE6D1CBDE707980028A2BF099817B03F
:104C2000BDE8F08F616881F000416160099817B0BC
:104C30004042BDE8F08FFFE784461598C1F31301A9
:104C4000C0F30A50A0F2F5304FEA601800F01F06DA
:104C5000C6F12000139000200690079041F4801EBA
:104C600005206D4676B1664A08EB00017A4452F899
:104C7000213002EB8101B3404A68139922FA01F115
:104C8000194305E05F4908EB0002794451F822100E
:104C9000A1FB0E27A1FB0C131A449A4234BF012337
:104CA000002303EB070A05EB8003D3E901B70F44A8
:104CB0008F4234BF0121002193448B4411B19345AD
:104CC00002D903E0934501D2012100E00021C3E9AC
:104CD00001B7514445F82010011EA0F10100C1DCCC
:104CE0000298059F00F10050800F12900298DDE9B4
:104CF00003568000FCF7C5FB834628460D91FBF761
:104D000017FF6FF01D02FCF7A5FBCDE90E01304641
:104D1000FBF70EFF6FF03D02FCF79CFB80468A46D6
:104D20003846FBF705FF6FF05D02FCF793FB074683
:104D3000424653461191FBF765FDDDE90E23FBF773
:104D400061FD5A460D9BFBF75DFD00250E465A4658
:104D500028460D9BFBF7F7FDDDE90E23FBF7F3FD7E
:104D600042465346FBF7EFFD3A46119BFBF7EEFD3B
:104D7000DFF898A0244A5346FBF7EBFD0746884628
:104D8000234A244B31462846FBF7E3FD3A46434687
:104D9000FBF738FD074688464FF0A8425346314698
:104DA0002846FBF7D6FD3A464346FBF72BFD159AFE
:104DB00012F0004F04D0129A81F000415242129238
:104DC000C4E90001129817B0BDE8F08FFB21E93F5C
:104DD0007CD90240FB21F93F7370032E8A19A33B53
:104DE000000040543163621A61B4D03DFB21394167
:104DF00083C8C96D305FE43F0000E03FEC23000052
:104E0000682300004A230000182D4454FB21F93D7B
:104E10003326A611460B113C2DE9FF4D21F0004829
:104E200007460C46B8F1795F08DAFCF73BFB00282F
:104E300001BF0020324904B0BDE8F08D3A46234658
:104E400010461946FBF785FD054602462D480E46DD
:104E50000B460621784400F05DF82A463346FBF7FE
:104E600078FDDDE9022382468B4638462146FBF772
:104E700070FD04460F4652465B4628463146FBF716
:104E800068FD22463B46FBF75EFD07468A464FF02B
:104E9000FF3228463146FCF7DDFA1B4A90450ADA14
:104EA0003A465346FBF74FFD04B00022BDE8F04DF3
:104EB000134BFBF74BBD154A4245A8BFA8F500159B
:104EC0004FF00004B8BF124D22462B46FBF73BFDC6
:104ED0000646884622462B4600200949FBF733FD4B
:104EE00004460D463A46534630464146FBF72BFDF5
:104EF00004B022462B46BDE8F04DFBF727BD00006D
:104F00000000F03F202100003333D33F0000E93F91
:104F10000000D23F2DE9F0414F1E00EBC7010446CF
:104F2000D1E9000115461E4637F006020DD02A468B
:104F30003346FBF70EFD7F1E04EBC703D3E90023C6
:104F4000FBF760FC37F00602F1D1022F25D0042FC9
:104F500013D0062F18BFBDE8F0812A463346FBF771
:104F6000F8FCD4E90A23FBF74DFC2A463346FBF74D
:104F7000F0FCD4E90823FBF745FC2A463346FBF74F
:104F8000E8FCD4E90623FBF73DFC2A463346FBF751
:104F9000E0FCD4E90423FBF735FC2A463346FBF753
:104FA000D8FCD4E90223FBF72DFC2A463346FBF755
:104FB000D0FCD4E90023BDE8F041FBF723BC00009E
:104FC0002DE9FF4D054621F0004084B00C46B0F1BC
:104FD000795F0BDA2846FFF733FD042808BF00F09D
:104FE0006FF8284608B02146BDE8F08D2A460B46EA
:104FF0001046FBF7AEFC06460F462A462346FBF753
:10500000A8FC804626488A4632463B46052178441D
:10501000FFF780FF83461098029160B3214A224B2C
:1050200040465146FBF795FCCDE900015A46404603
:105030005146029BFBF78DFC82468846DDE906015E
:105040004FF0FF32FCF706FA52464346FBF77BFC73
:1050500032463B46FBF77DFCDDE90623FBF773FC9C
:10506000DDE90023FBF76FFC08B02A462346BDE8C4
:10507000F04DFBF76BBC0B465A4630463946FBF702
:1050800068FC084A084BFBF7BDFB42465346FBF75A
:1050900060FC08B02A462346BDE8F04DFBF7B2BBE2
:1050A0007E200000495555555555C5BF0122FCF7D6
:1050B000D1B90022134610461146FBF7BCBC0000D4
:1050C000024A00201107FCF7C5B9000001FDFFFFEF
:1050D0000121FCF7B3B9FBF7CDBA00210846FBF775
:1050E00053BB6FF05E010807FCF7A8B92DE9F04D3E
:1050F0000D4614464FF07F41B1EB440F9EBF4FF079
:10510000FF312960BDE8F08D4FF0004040EA0421F6
:10511000C4F3C750783810F01F024A4B4FEA601CA6
:10512000C2F120067B44C4F3C750A0F178004FEAD7
:10513000601003EB800053F82C3008BFD0E901C6A3
:1051400012D0D0F804C093402CFA06F73B4387688E
:105150000CFA02FC27FA06F8C06807FA02F2F040DF
:105160004CEA080C42EA0006A3FB0132ACFB01C08A
:10517000A6FB016101EB0C068E4234BF4FF0010C1F
:105180004FF0000CC1186144BCF1000F02D0814205
:1051900002D903E0814201D2012000E00020104446
:1051A00000F120024FEA92188006CA0C40EA423011
:1051B0004F03C5F80080FBF7ADFC82463846FBF78D
:1051C000B2FC6FF01201FCF739F907463046FBF7E5
:1051D000AAFC6FF02501FCF731F9834639465046A9
:1051E000FBF748FA5946FBF745FA00F500666FF3FE
:1051F0000B0651463046FBF78FFA3946FBF78CFA1F
:105200005946FBF78CFA1049FBF78CFA07460F4911
:105210003046FBF787FA3946FBF72CFA07460C496C
:105220003046FBF77FFA3946FBF724FA14F0004FBB
:1052300008BFBDE8F08DC8F1805180F000402960C2
:10524000BDE8F08D481F0000DB0FC92F22AAFD2901
:105250000000C92F02E008C8121F08C1002AFAD1B5
:1052600070477047002001E001C1121F002AFBD1E6
:1052700070470000014908607047000000050020E9
:105280002DE9FF5F82B00021DDE90430020DDDF879
:1052900040B0034318D044F61050A2F2FF3242430C
:1052A0001514119801281FD0A5EB0B00401C5FEAD4
:1052B000000A4FF000064E4FDFF83891B0465046D6
:1052C00015D5CAF1000413E0119801244AA301285E
:1052D00001D16FEA0B010298119AC0E90031C0E9CF
:1052E000024206B0BDE8F09FCBF10000DFE70446C4
:1052F0000021404A491842EB0450CDE9001012E069
:10530000E00707D032463B4640464946FBF721FBC3
:105310008046894632463B4610461946FBF719FB44
:1053200006460F466410002CEAD1DDE90401DDE9F0
:105330000023BAF1000F06DAFBF70BFB42464B469F
:10534000FBF707FB05E0FBF776FB42464B46FBF716
:1053500072FB04460E460022284BFBF767FE03D87B
:105360004FF0FF30014607E00022254B2046314632
:10537000FBF748FAFBF742FE102409E0002C0ADB99
:105380000A220023FBF768FC039B30321A55641E87
:1053900050EA0102F2D1641C039AC4F111031444CF
:1053A000119A012A03D0012208430DD10AE00843D3
:1053B00004D000204FF0110B119072E7A3EB0B0506
:1053C0006D1E0DE05B4504DD4FF0000205F10105A7
:1053D00004E003DA4FF00002A5F10105002AECD049
:1053E00002981199C0E90231C0E9004579E700004F
:1053F000000014400000F03F300000000000F043C7
:105400000000E03F30380A2801D201207047002018
:10541000704700002DE9FF4F95B09A468846064632
:105420000025EEE1252877D100242746F94A0121FD
:10543000039400E0044316F8013F203B01FA03F017
:105440001042F7D130782A2811D06FF02F0330782E
:10545000A0F13002092A16D8039A44F0020402EBA4
:10546000820203EB42021044761C0390EFE758F8E7
:10547000042B0392002A03DA504244F400540390B0
:1054800044F00204761C30782E2816D116F8010F4D
:1054900044F004042A280DD06FF02F023078A0F1D8
:1054A0003003092B09D807EB870302EB4303C71826
:1054B000761CF3E758F8047B761C30786C280FD004
:1054C00006DC4C2817D068280DD06A2814D104E0D7
:1054D000742810D07A280FD10DE044F400140AE0AB
:1054E00044F4801401E044F440147278824202D102
:1054F00004F58014761C761C307866280BD013DCFB
:10550000582877D009DC002875D04528F6D04628E1
:10551000F4D047281AD193E118E0632835D06428E5
:1055200079D0652812D18BE1702873D008DC672808
:10553000F1D069286FD06E280DD06F2806D1ACE06D
:1055400073282CD0752874D0782853D052461799D8
:1055500090476D1C54E1C4F30250022809D003287F
:105560000DD0D8F8001004280DD00D6008F1040803
:1055700046E1D8F80010EA17C1E90052F6E7D8F87A
:1055800000100D80F2E70D70F0E718F8041B8DF89D
:10559000001000208DF80100EB46012003E058F8D0
:1055A00004BB4FF0FF3061074FF0000102D40DE063
:1055B00009F101018946B9420FDA8145F8DB1BF890
:1055C00009100029F4D108E009F10101894681425E
:1055D000FADB1BF809100029F6D103985346A0EB1B
:1055E000090721463846179A00F080FA284400EB54
:1055F000090507E044E008E10DE01BF8010B524605
:1056000017999047B9F10109F7D253462146384618
:10561000179AF2E039E00A21C4F302524FF0000B6E
:105620000091022A06D058F8040BC117032A09D0AA
:105630000AE023E008F1070020F00702F2E8020187
:10564000904605E000B2C117042A01D140B2C1174B
:10565000002906DA0A460021404261EB02012D22B0
:1056600002E0220504D52B228DF80420012203E05C
:10567000E20701D02022F7E7914657E00A2100E037
:1056800010214FF0000B00910BE010214FF0000BA8
:1056900044F004040827009103E008204FF0000BB9
:1056A0000090C4F30252022A05D058F8040B0021DE
:1056B000032A08D008E008F1070020F00702F2E80A
:1056C0000201904603E080B2042A00D1C0B24FF03C
:1056D000000922072AD53278702A07D0DDF800C0E9
:1056E0008CF0100C5CEA0B0C05D00EE040228DF81B
:1056F0000420012208E050EA010306D030238DF88F
:1057000004308DF8052002229146009B83F00803A7
:1057100053EA0B030AD150EA010201D1620705D511
:1057200030228DF804204FF001097F1E3278582A6C
:1057300004D039A20C920CAA02920BE03BA2F9E72A
:105740005B46009AFBF788FA0C9B9B5C029A521E00
:105750000292137050EA0102F2D1029804A9081AC9
:1057600000F1200B600702D524F4803400E001270B
:105770005F4502DDA7EB0B0000E0002000EB0B0112
:10578000009003984944401A0390E00306D453461E
:105790002146179A039800F0A9F90544002706E06E
:1057A00001A85246C05D179990476D1C7F1C4F455C
:1057B000F6DBE0030CD553462146179A039800F018
:1057C00095F9054404E030205246179990476D1C26
:1057D0000099481E00900029F5DC08E00298029923
:1057E00052460078491C0291179990476D1CBBF1F5
:1057F0000001ABF1010BF1DC5BE100F065F9054460
:10580000761C307800287FF40DAE19B02846BDE82C
:10581000F08F00000928010030313233343536373B
:1058200038396162636465660000000030313233EC
:10583000343536373839414243444546000000008C
:10584000600700D4062708F1070020F00700F0E801
:105850000223804603F0004C5FEA0C0001D097A0C1
:1058600009E0200501D596A005E0E00701D095A04C
:1058700001E0AFF24C001390307823F0004365282C
:105880000CD006DC452809D046281DD047287FD1FA
:105890003BE0662818D067287AD136E00021112F26
:1058A00001DB112000E0781CCDE9000104A90CA85F
:1058B000FFF7E6FCDDE90D010C9A4FF0000B07F154
:1058C0000109109200914EE04FF000400097CDE9A1
:1058D000011004A90CA8FFF7D3FCDDE90D020C9B15
:1058E0000F994FF0000B91461093009211B9791C5B
:1058F00000EB0109B7EB090003D4C0F1FF3B07F14E
:105900000109A9EB0700019042E0012F00DA01270D
:105910000021112F01DD112000E03846CDE9000102
:1059200004A90CA8FFF7ACFCDDE90D010C9A00916D
:105930004FF0000BB946109221070FD4009A4A4548
:1059400003DA914601E0A9F10109B9F1010F05DD82
:10595000109AA9F10101515C3029F4D0B84202DA61
:1059600010F1040F03DA0121CDE9011010E0002845
:1059700003DC8344A9EB000102E0411C494500DD42
:105980008946A0EB0B00401C01904FF000400290B4
:10599000200705D40198484502DB4FF0FF30019005
:1059A00000208DF84B0002980DF14B07B0F1004F2D
:1059B00025D002200C902B200D90029800280CDAA4
:1059C000404202902D200D9007E00A210298FBF73B
:1059D0002DF93031029007F8011D0C99481E0C90EA
:1059E0000029F2DC02980028EFD1791E0D9808708A
:1059F000307800F0200040F0450007F8020D11A8B3
:105A0000C01BC01D02901398007800B1012000EB6C
:105A10000901019801EBE071029801440398401AD2
:105A2000401E0390E00306D453462146179A03987C
:105A300000F05CF805441398007818B152461799A5
:105A400090476D1CE00323D553462146179A0398CF
:105A500000F04CF805441BE0BBF1000F07DB009899
:105A6000584504DD1098179910F80B0001E01799BC
:105A700030205246904701980BF1010B401E05F172
:105A80000105019004D12E205246179990476D1CB4
:105A9000B9F10001A9F10109DEDC05E017F8010BFD
:105AA0005246179990476D1C0299481E0290002992
:105AB000F4DC53462146179A03989EE62D00000019
:105AC0002B000000200000002DE9F04104460025D5
:105AD0001E461746880404D405E039462020B04706
