:020000040800F2
:100000000004002001010008090100080B0100089C
:100010000D0100080F010008110100080000000098
:1000200000000000000000000000000013010008B4
:100030001501000800000000170100081901000860
:100040001B0100081B0100081B0100081B01000820
:100050001B0100081B0100081B0100081B01000810
:100060001B0100081B0100081B0100081B01000800
:100070001B0100081B0100081B0100081B010008F0
:100080001B0100081B0100081B0100081B010008E0
:100090001B0100081B0100081B0100081B010008D0
:1000A0001B0100081B0100081B0100081B010008C0
:1000B0001B0100081B0100081B0100081B010008B0
:1000C0001B0100081B0100081B0100081B010008A0
:1000D0001B0100081B0100081B0100081B01000890
:1000E0001B0100081B0100081B010008DFF80CD0F1
:1000F00000F018F800480047AF0200080004002094
:100100000648804706480047FEE7FEE7FEE7FEE7B1
:10011000FEE7FEE7FEE7FEE7FEE7FEE73102000846
:10012000ED000008064C074D06E0E06840F00103D2
:1001300094E8070098471034AC42F6D3FFF7DAFF93
:10014000B4020008C402000810B500F001F810BDA8
:100150000CB50020019000903348006840F48030D6
:100160003149086000BF3048006800F4003000905A
:100170000198401C0190009818B90198B0F5A06F43
:10018000F1D12948006800F4003010B1012000903E
:1001900001E0002000900098012843D12348006826
:1001A00040F01000214908600846006820F0030074
:1001B00008600846006840F0020008601A4840687D
:1001C000194948600846406848600846406840F45D
:1001D000806048600846406820F47C10486008460B
:1001E000406840F4E81048600846006840F08070BD
:1001F000086000BF0C48006800F000700028F9D0CB
:100200000948406820F003000749486008464068F4
:1002100040F00200486000BF0348406800F00C0056
:100220000828F9D10CBD0000001002400020024057
:1002300010B51348006840F00100114908600846F5
:100240004068104908400E494860084600680E4959
:1002500008400B4908600846006820F480200860C8
:100260000846406820F4FE0048604FF41F00886094
:10027000FFF76AFF4FF000600449086010BD0000FE
:10028000001002400000FFF8FFFFF6FE08ED00E05E
:1002900002E008C8121F08C1002AFAD1704770474F
:1002A000002001E001C1121F002AFBD1704700BFEE
:1002B000FEE70000C4020008000000200004000067
:0402C000A002000890
:04000005080000ED02
:00000001FF
