:020000040800F2
:100000006823002001010008090100080B01000815
:100010000D0100080F010008110100080000000098
:1000200000000000000000000000000013010008B4
:10003000150100080000000017010008BD4A000873
:100040001B0100081B0100081B0100081B01000820
:100050001B0100081B0100081B0100081B01000810
:100060001B0100081B0100081B0100081B01000800
:100070001B0100081B0100081B0100081B010008F0
:100080001B0100081B0100081B0100081B010008E0
:100090001B0100081B0100081B0100081B010008D0
:1000A0001B0100081B0100081B0100081B010008C0
:1000B000954B00081B0100081B0100081B010008EC
:1000C0001B0100081B0100081B0100081B010008A0
:1000D0001B010008A94D0008CD4E0008F14F000893
:1000E0001B0100081B0100081B010008DFF80CD0F1
:1000F00000F0F2FF00480047257100086823002047
:100100000648804706480047FEE7FEE7FEE7FEE7B1
:10011000FEE7FEE7FEE7FEE7FEE7FEE7CD4A000862
:10012000ED00000840EA01039B0703D009E008C97D
:10013000121F08C0042AFAD203E011F8013B00F8AC
:10014000013B521EF9D27047D2B201E000F8012BF8
:10015000491EFBD270470022F6E710B513460A4647
:1001600004461946FFF7F0FF204610BD421C10F868
:10017000011B0029FBD1801A7047034611F8012B9F
:1001800000F8012B002AF9D1184670470FB400B5CA
:100190008DB010A909900B9000914FF0FF300A909C
:1001A00000200C9005480690054807906A4609A86B
:1001B0000F9900F013FE0DB05DF814FBF90D000867
:1001C000170E00082DE9FF5F1D464FF0FF3BD5E9F4
:1001D000014691465F464FF00008A9697F1C0198CF
:1001E0008847296A824688470028F6D1BAF1FF3F3E
:1001F0000CD024F4C064002E19DD600614D5BAF1C9
:100200002B0F09D0BAF12D0F0ED103E0584604B0E0
:10021000BDE8F09F44F48064A9697F1C0198884779
:10022000761E8246002E02DDBAF1300F03D0B9F1FE
:10023000000F26D032E0A969761E44F400747F1CBA
:10024000019888478246002E05DDBAF1780F06D066
:10025000BAF1580F03D0B9F1000F10D01EE0B9F178
:10026000000F02D0B9F1100F18D1A969761E24F43D
:1002700000747F1C019888478246102002E0082005
:1002800000E00A20814609E008FB0908A969761EFA
:1002900044F400747F1C019888478246002E05DDD7
:1002A0004946504600F086FD0028EDDAE9690198DC
:1002B0008847A00502D46FF00100A8E7E00725D128
:1002C000600613D5600502D5C8F1000000E0404685
:1002D00029680A1D2A600968220501D5087015E001
:1002E000220701D5088011E008600FE02868011D91
:1002F00029600068210502D580F8008006E021070A
:1003000002D5A0F8008001E0C0F8008038467EE702
:100310002DE9FF4F087883B09946FF2805D0491C86
:100320002D2804D00024002008E000200BE0012448
:10033000F9E700EB800003EB4000491C0B78FF2B32
:10034000F7D104B1404200230293147819461D46A8
:100350002D2C01D02B2C04D1521C2D2C13D0002479
:100360000294AA461478FF2C0FD00A25A3FB057827
:1003700001FB05814FF0000C03FB0C11521CE3192B
:100380004AEB0101EEE70124EAE7814453EA010068
:1003900002D019F5C87F06DA03980021C0E90011E0
:1003A00007B0BDE8F08F0025AE4E2F46DFF8B882CB
:1003B000184600F03DFECDE90001B9F1000002DA77
:1003C000C9F1000400E004460023A74A1AEB030B1E
:1003D00042EB045A12E0E00707D02A46334638467B
:1003E000414600F0B4FA074688462A46334610468E
:1003F000194600F0ACFA05460E466410002CEAD10E
:10040000DDE90001B9F1000F5A46534606DA00F063
:1004100010FB3A46434600F00CFB05E000F097FA6B
:100420003A46434600F093FA029A0AB181F000413D
:10043000039AC2E90001B3E72DE9FF4F1F468DB0D3
:10044000D7E901464FF0FF382E2045464FF000090E
:100450000B90B9696D1C0E988847396A82468847A7
:100460000028F6D1BAF1FF3F0AD024F4D064002E60
:1004700011DDBAF12B0F08D0BAF12D0F0BD102E02C
:10048000404611B08DE744F48064B9696D1C0E9844
:1004900088478246761E6946600501D52D2000E01A
:1004A0002B208DF8000001F1010B0DF1200809E06F
:1004B000B9696D1C0E98884782460F9844F4007401
:1004C000761E0560002E02DDBAF1300FF0D00B99D8
:1004D0008A453ED144F0800406E00F99681CA9F1DA
:1004E000010944F400740860B9696D1C761E0E9809
:1004F000884782463028F0D02BE00B998A4505D1F9
:10050000200603D444F08004761E18E0504605F01F
:1005100025FD08B30DF11301761E44F400748B45DC
:1005200008D2AAF130000BF8010B200607D5A9F17B
:10053000010003E0200602D409F101008146A00574
:1005400002D50F99681C0860B9696D1C0E98884720
:100550008246002ED1DC53E0002E51DDBAF1650F4A
:1005600002D0BAF1450F4BD1A00549D5B9696D1C30
:1005700024F44074761E0E9888478246002E0CDDC7
:100580002B2804D0BAF12D0F07D144F48074B96937
:100590006D1C0E9888478246761EE00501D52D21F8
:1005A00000E02B2108F8011BCDF82C8021E00DF193
:1005B0002901761E44F4007488450CD2AAF130005B
:1005C00010F0FF0088F8000002D10B99884509D986
:1005D00008F1010806E0E00501D5244801E042F2F7
:1005E0000F708146B9696D1C0E98884782460F9836
:1005F0000560002E04DD504605F0B0FC0028D6D181
:10060000F9690E988847FF208BF8000088F80000F1
:100610000020069007904B466A4608A906A8FFF7F7
:1006200077FEA00502D46FF001002AE714F0240F32
:100630000AD0E00714D1DDE906123868031D3B60DB
:100640000068C0E900120BE0DDE9060100F00AFBDA
:100650000146E00704D13868021D3A600068016075
:1006600028460EE7000014400000F03FF1D8FFFFDD
:10067000F0B480EA0102D40F4200B2EB410F02D283
:100680000246084611464A0042D0C30DDDB2C1F30E
:10069000C752AD1A202D35DAC1F3160141F400021C
:1006A00004B15242C5F1200602FA06F12A41104473
:1006B000B3EBD05F23D0C4B1012DA0EBC35009DC54
:1006C000F0BC4FF0004202EAC352DBB200F500007A
:1006D00000F0BBBB400000F1807000EBC350A0F104
:1006E000807040EAD170490009E0490841EAC071D0
:1006F000A0EBC35000F50000400800EBC350F0BC75
:1007000000F09ABB6142012202EB4101001BF6E7B7
:10071000F0BC704781F00041AAE780F00040A7E7F5
:1007200080EA010210B502F00043400022D04A00E6
:100730001FD0010E01EB1261C0F35600C2F3560246
:1007400040F4000042F40002A0FB022000047F39C4
:10075000140400D0401C50EA124001D44000491E4D
:10076000C2B20C0604EBD010401C4008802A02D014
:1007700003E0002010BD20F00100002900DA002075
:10078000184310BD30B480EA010202F0004530F099
:10079000004221F0004013D090B1C30DD40DC2F33C
:1007A0001601C0F31600E41A41F4000140F40002FF
:1007B0007D34914201D3641C00E04900002C02DA30
:1007C00030BC002070474FF400000023914201D359
:1007D000891A034340084FEA4101F7D151B19142D0
:1007E00002D14FF0004105E002D24FF0010101E0DB
:1007F0006FF0010103EBC450284430BC00F01CBB77
:100800002DE9FE4F804681EA0300C00F0C460090A0
:1008100021F0004123F00045B8EB0200A94105D2C8
:100820004046214690461C460B46024623F00040B7
:10083000104347D0270DC7F30A00C3F30A510290B3
:10084000401A019040286BDAC3F3130040F4801B78
:100850000098924620B10023D2EB030A63EB0B0B06
:1008600001985946C0F14002504600F072FA06461F
:100870000D4650465946019A00F08AFA10EB0800DE
:100880006141002487EA115284EAE7731A4340D099
:10089000009A62B3019A012A4FEA075215DC001B45
:1008A00061EB02014FF0004202EA0752CDE900423B
:1008B000001C41F5801132462B4600F003FB03B0CB
:1008C000BDE8F08F40462146F9E7001B61EB0201CD
:1008D000001C41F5801300185B412018A2F5001799
:1008E00047EB030140EAD570B6196D4111E06D0880
:1008F0004FEA360645EAC0754FEA0752001B61EB26
:100900000201001C41F5801149084FEA300000192E
:10091000514132462B4603B0BDE8F04F00F0C3BA58
:100920000098012240000023D0EB020263EBE07349
:10093000009821464FEAE074B8EB000061EB040137
:10094000E9E783F000435BE781F0004158E72DE9D8
:10095000FE4F81EA030404F0004421F000410094BA
:100960004FF0000B23F0004350EA01045ED052EA3E
:1009700003045BD0C3F30A54C1F30A552C44A4F218
:10098000F3340194A0FB0254C1F3130141F480112C
:10099000C3F3130343F4801301FB024400FB034E33
:1009A000840A970A44EA815447EA8357A4FB0768FC
:1009B00002958D0A05FB07854FEA932C04FB0C5426
:1009C0002705029D4FEA065847EA1637B5EB08059A
:1009D0006EEB070C870E920E47EA811742EA8312EC
:1009E000A7FB0201B6EB0B0164EB00042B0D43EAFD
:1009F0000C335E1844EB1C50DA465146E7FB02010B
:100A0000C5F313044FEA0B3343EA14534FEA04329D
:100A1000019C43EA0603A4F10C040294009CCDE976
:100A200000B400F04FFA03B0BDE8F08F002001469B
:100A3000F9E72DE9F04D81EA030404F0004B21F0C1
:100A4000004514464FF0000A23F0004150EA050229
:100A500020D054EA01021DD0C5F30A570246C5F35F
:100A60001303C1F31300C1F30A5640F4801543F495
:100A70008013A7EB0608101BD64608F2FD3873EB6F
:100A8000050002D308F1010801E092185B41B8F1BA
:100A9000000F03DA00200146BDE8F08D00204FF47E
:100AA0008011064684460EE0171B73EB050705D33D
:100AB000121B63EB050306434CEA010C49084FEA9D
:100AC000300092185B4150EA0107EDD152EA030071
:100AD00012D082EA040083EA0501084305D0101B06
:100AE000AB4106D20122002306E000224FF0004372
:100AF00002E06FF0010253101AEB06004CEB0851B4
:100B000010EB0A0041EB0B01BDE8F04D00F0CBB952
:100B1000C10F80EAE0700844CA079623002100F064
:100B200094B996230022114600F08FB90EB540F219
:100B3000334102910021CDE900110A460B4600F035
:100B4000C1F903B000BD00F0004220F00040C10D2B
:100B5000C0F3160040F400007F2901DA002070473E
:100B6000962903DCC1F19601C84001E0963988401E
:100B7000002AF4D04042704720F00040C10DC0F37D
:100B8000160040F400007F2901DA00207047962902
:100B900003DCC1F19601C840704796398840704720
:100BA00070B5C1F30A5201F000450024C1F31301EE
:100BB00040F2FF3341F480119A4201DA002070BD07
:100BC00040F233439A42A2F2334203DC524200F035
:100BD000CFF800E090402C43F1D0404270BD00F0CF
:100BE000004230F000400AD0C10D01F56071C0F341
:100BF000160042EA0151C208400711437047002025
:100C00000146704730B5041E71F1000404DB4FF05B
:100C10000044404264EB0101141E73F1000405DB43
:100C20001C464FF00043524263EB04038B4208BF63
:100C3000824230BD30B5041E71F1000404DB4FF078
:100C40000044404264EB0101141E73F1000405DB13
:100C50001C464FF00043524263EB0403994208BF25
:100C6000904230BD01F0004330B421F0004150EA21
:100C7000010206D00A0DA2F56072C1F31301002A29
:100C800002DC30BC00207047440F44EAC104C100BC
:100C9000E01830BC00EBC25000F0CEB8002801DBF9
:100CA000C0F10040002901DBC1F1004181427047E1
:100CB000002801DBC0F10040002901DBC1F1004147
:100CC0008842704730B50B4601460020202201249F
:100CD00009E021FA02F59D4205D303FA02F5491B0A
:100CE00004FA02F52844151EA2F10102F1DC30BD20
:100CF0002DE9F05F0546002092469B468846064651
:100D0000814640241BE0284641464746224600F0E3
:100D10002FF853465A46C01A914110D3114618462F
:100D2000224600F016F82D1A67EB01084F462246BE
:100D30000120002100F00DF817EB00094E41201EA4
:100D4000A4F10104DFDC484631462A464346BDE8AB
:100D5000F09F202A04DB203A00FA02F100207047BD
:100D60009140C2F1200320FA03F3194390407047E9
:100D7000202A04DB203A21FA02F00021704721FAF0
:100D800002F3D040C2F12002914008431946704757
:100D9000202A06DBCB17203A41FA02F043EAE0733F
:100DA00006E041FA02F3D040C2F12002914008432C
:100DB000194670473A2800D2303820F02002412AE4
:100DC00001D3A2F13700884201D34FF0FF307047C2
:100DD000026811441378016018467047D1600449D5
:100DE00051610449116200211161114600F08CB972
:100DF000D10D0008FD100008426842B1016811F8E9
:100E0000013B23B1521EC0E9001218467047012170
:100E1000C160881E704742685AB1C368016843B90F
:100E200083688B4205D0491E521CC0E90012002085
:100E300070474FF0FF3070470029A8BF7047401C33
:100E4000490008BF20F00100704710B4B0FA80FCE0
:100E500000FA0CF050EA010404BF10BC704749B11D
:100E6000CCF1200421FA04F411FA0CF118BF01218D
:100E700021430843A3EB0C01CB1D4FEA00614FEA6D
:100E8000102042BF002010BC704700EBC35010443C
:100E90000029A4BF10BC7047401C490008BF20F0C7
:100EA000010010BC704710B5141E73F1000408DA7D
:100EB000401C41F1000192185B411A4301D120F01E
:100EC000010010BD2DE9F04D92469B4611B1B1FADB
:100ED00081F202E0B0FA80F220329046FFF739FF4B
:100EE00004460F4640EA0A0041EA0B0153465A46BF
:100EF000084313D0114653EA010019D0C8F140024B
:100F00005046FFF735FF05460E46504659464246C5
:100F1000FFF71FFF084305D0012004E020463946B3
:100F2000BDE8F08D0020054346EAE0762C433743C8
:100F30000A986305E40AA0EB08000022FD0A44EACF
:100F400047540A3002D500200146E9E7010510198F
:100F50006941DDE9084500196941BDE8F04DA2E7A6
:100F600070B521F0004303430CD0C1F30A550024AF
:100F7000D5EB040564EB0403D617AD1AB34102DBCD
:100F80000020014670BD201841EB025170BD2DE9D3
:100F9000F04D00231A461B1A8A4103DB002001464C
:100FA000BDE8F08DC1F30A52C1F3130141F480157D
:100FB0004FF0000BD10702D100186D41521E0027DF
:100FC000044640F2FF11384601EB620A3E46804675
:100FD000024600204FF48011FFF7CAFEC21971418A
:100FE000BB1846EB0100B4EB030C75EB000C04D30B
:100FF000E41A65EB000517460E46241908F10100B6
:101000006D4180463428E3DDF91946EB0600091BE3
:10101000A84103D24FF0FF32134601E000221346ED
:101020001BEB070046EB0A51BDE8F04DFFF73BBF55
:101030000EB540F2334202920022CDE9002213465F
:10104000FFF740FF03B000BDC1F30A52C1F3130123
:1010500040F2FF3341F480119A4202DA0020014647
:10106000704740F233439A42A2F2334202DC5242CA
:10107000FFF77EBEFFF76DBE70B5044601F0004578
:101080000020054304D14FF00045644265EB0101A7
:1010900003F00045284305D118464FF00043524263
:1010A00063EB0003101B73EB010002D24FF0004012
:1010B00009E082EA040283EA01034FF000501A4378
:1010C00001D14FF0C0404FEA2062EFF3008162F39C
:1010D0001F6181F3008870BD064C074D06E0E06893
:1010E00040F0010394E8070098471034AC42F6D36F
:1010F000FFF700F85083000870830008C0B24FF477
:10110000F05100F0A9B900002DE9F34F8BB04FF07A
:10111000000801F10C000C464FF0010B46460DF1A2
:10112000080A01906269012101989047051E2DD09F
:10113000252D2CD0216A8847C0B162690121019810
:101140009047216A88470028F7D1411E62690198BB
:10115000904700E0761CA1690B988847216A884770
:101160000028F7D1E1690B988847DBE7A1690B9864
:1011700088470746A84201D1761CD3E7E1690B985E
:1011800088477F1C02D1B8F1000F6FD046E10027DD
:1011900062693D463946019890472A2804D1626920
:1011A0000121019890470125DFF8849262690121AD
:1011B00001989047A0F130010A290AD24F45E5DC99
:1011C00007EB870100EB4107303FDFD445F0100506
:1011D000ECE7E90601D46FF000476C280AD04C28F0
:1011E00014D0682815D06A280DD074281CD07A280D
:1011F0001AD01DE062690121019890476C2802D045
:1012000045F0040514E045F002050DE045F0200529
:101210000AE06269012101989047682802D045F0F0
:10122000080505E045F400656269012101989047D1
:10123000C4E9015765283DD019DC58287AD00CDC68
:10124000452837D004DC252826D0412831D131E08B
:1012500046282FD047282CD12CE05B2877D0612856
:1012600028D063287CD0642823D15AE0D0E06F28AE
:1012700048D008DC66281DD067281BD0692821D0FB
:101280006E2816D127E0702845D0732868D07528BD
:1012900047D078280DD14DE0A1690B9888470546C5
:1012A00025283FF469AFE1690B9888476D1C3FF42E
:1012B0006AAFB3E023466A466FF001000B99FFF76F
:1012C000BBF89EE045F040006060A80723464FF061
:1012D000000236D43EE0E8077FF447AF2068011DE6
:1012E00021600068290501D506701BE7290701D593
:1012F000068017E7A90703D5F117C0E9006111E7D8
:1013000006600FE745F040006060A80723464FF0F5
:10131000080216D41EE040F60E0125EA01006060C6
:1013200016E045F040006060A80723464FF00A022F
:1013300007D40FE045F040006060A80708D52346B9
:1013400010226FF001000B99AFF3008059E007E025
:10135000234610226FF001000B99FEF733FF50E097
:101360004FF000094F464B46632802D05B2806D059
:1013700040E0E80601D40120A06001273AE062695C
:101380000121019890475E2805D14FF0010962695B
:10139000494601989047216939B900210A465346C8
:1013A00043F82120491C0829FADBB0B3216969B947
:1013B000C11700EBD16253110AEB830122F01F0227
:1013C000821A01200B68904003430B60626901217F
:1013D000019890475D28E8D1B9F1000F09D00020AD
:1013E000514651F82020D24341F82020401C0828C3
:1013F000F7DB02AB224600976FF001000B99AFF3C9
:10140000008000280CDA401C08D1BBF1000F05D089
:101410004FF0FF300DB0BDE8F08FFFE74046F9E731
:10142000E90701D108F1010806444FF0000B79E605
:10143000CCCCCC0C0EB5C10F80EAE0700844CA07D2
:10144000002140F233438DE80E000A460B46FFF7B9
:1014500039FD03B000BD00007F2801D9002208E05B
:10146000064A02EB5002C007127800D1120902F0BE
:101470000F0201209040084070470000A87F00083C
:1014800070B58C1810F8015B15F0070301D110F846
:10149000013B2A1106D110F8012B03E010F8016B73
:1014A00001F8016B5B1EF9D12B0705D40023521EF6
:1014B0000DD401F8013BFAE710F8013BCB1A921C5E
:1014C00003E013F8015B01F8015B521EF9D5A1425C
:1014D000D8D3002070BD21B1826842F00102826041
:1014E00003E0826822F0010282607047014600201A
:1014F0008A6802F004020AB1012000E0002070476F
:101500000146C86C80B270470246002013680B4049
:101510000BB1012000E000207047014600208A68DE
:1015200002F008020AB1012000E00020704700002C
:1015300030B502460020002350680F4C20400D7942
:101540000C6844EA05242043506090680B4C20400E
:10155000D1E902542C434D7944EA4504204390607C
:10156000D06A20F470000C7C641EE4B2234340EA8D
:101570000350D06230BD0000FFFEF0FFFDF7F1FF29
:1015800000B587B000F008FC00F0F2FB0121042058
:1015900002F0EAFA0121480202F0E6FA4120ADF831
:1015A000180000208DF81B0006A9194800F08CF9DE
:1015B000002001908DF8080001208DF809004FF4FB
:1015C000602003900020049001208DF8140001A9F0
:1015D0001048FFF7ADFF4FF4004002F099FA0121E7
:1015E0000C48FFF778FF0B4800F072F800BF09487D
:1015F000FFF793FF0028FAD1064800F079F800BF02
:101600000448FFF773FF0028FAD107B000BD0000BF
:101610000008014000240140F0B504460D460020BA
:101620000021092D11DDE068A5F10A0606EB460749
:10163000072606FA07F18843A5F10A0606EB4606D7
:1016400003FA06F10843E0600CE0206905EB45076A
:10165000072606FA07F1884305EB450603FA06F16B
:1016600008432061072A0FDA606B561E06EB8607D7
:101670001F2606FA07F18843561E06EB860605FA72
:1016800006F10843606322E00D2A0FDA206BD61FB3
:1016900006EB86071F2606FA07F18843D61F06EBDE
:1016A000860605FA06F10843206310E0E06AA2F11D
:1016B0000D0606EB86071F2606FA07F18843A2F1FE
:1016C0000D0606EB860605FA06F10843E062F0BD5A
:1016D000816841F008018160704721B1826842F45D
:1016E000A002826003E0826822F4A0028260704758
:1016F000816841F0040181607047000010B500F07E
:1017000091FF13490968401A322800D210BD00F039
:1017100089FF0F49086001F0CDFF0E4800780E499F
:10172000C978884205D10B4840780B49097988422D
:101730000BD009484178C01C01F092F90648C078E6
:101740000449087004480079487000BFDEE70000D3
:10175000C8040020C40400204C0F002008B501215B
:10176000042002F001FA0820ADF8000010208DF8E6
:10177000030003208DF802006946044800F0A4F835
:101780000821024800F086F908BD00000008014069
:1017900070B504460D4600260EE00821084800F00A
:1017A0007BF9A0B200F052F80821054800F072F968
:1017B000A0B200F04BF8761CAE42EED370BD000034
:1017C0000008014038B5054600F02CFF1B490968A8
:1017D000401AA84200D238BD00F024FF1749086023
:1017E00017480078012806D11648007800B9F2E7BA
:1017F00000201349087001236A461521A42000F037
:1018000052F9C0B9002413E004EB44100E49085CFF
:101810009DF8001088420AD104EB44110A4A114491
:10182000481C01F06BFE01200549087002E0641CB1
:10183000032CE9D300BF00BFCDE70000D80400208F
:10184000D404002024040020DC72000818B50446EB
:101850000020009006E04FF47A7000F007F800983E
:10186000401C00900098A042F5D318BD0CB5002193
:1018700001910BE00B21009102E00099491E0091BB
:1018800000990029F9D10199491C019101998142DE
:10189000F0D30CBD10B504464FF480610848FEF744
:1018A0005AFC21024FF48072054802F0FBFE044806
:1018B00000F011F903490860014801F0FFF910BD7B
:1018C0004C0B00203C0400202DE9F041024600258D
:1018D0000026002000230024002791F803C00CF00C
:1018E0000F0591F803C00CF0100CBCF1000F03D0F1
:1018F00091F802C04CEA050591F800C0BCF1000F58
:1019000031D0146800202BE04FF0010C0CFA00F3EA
:10191000B1F800C00CEA03069E4220D183004FF0CC
:101920000F0C0CFA03F7BC4305FA03FC4CEA040461
:1019300091F803C0BCF1280F06D14FF0010C0CFA4E
:1019400000FCC2F814C00AE091F803C0BCF1480FD3
:1019500005D14FF0010C0CFA00FCC2F810C0401C7D
:101960000828D1D31460B1F800C0BCF1FF0F34DDFA
:10197000546800202EE000F1080C4FF0010808FA2E
:101980000CF3B1F800C00CEA03069E4221D183009B
:101990004FF00F0C0CFA03F7BC4305FA03FC4CEABA
:1019A000040491F803C0BCF1280F05D100F1080C24
:1019B00008FA0CF8C2F8148091F803C0BCF1480F83
:1019C00007D100F1080C4FF0010808FA0CF8C2F832
:1019D0001080401C0828CED35460BDE8F081000080
:1019E000F0B50A46002300240021002500F000463F
:1019F000B6F1004F02D11D4EF16901E01B4E716836
:101A0000C0F3034583B200F44016B6F5401F08D179
:101A100021F07061154E766826F07066134F7E6077
:101A200012E000F48016B6F5801F06D1032606FAF0
:101A300005F4A14341F0706106E0460D360103FA5A
:101A400006F6B14341F0706122B1460D360103FA4A
:101A500006F6314300F00046B6F1004F02D1034EC6
:101A6000F16101E0014E7160F0BD00000000014035
:101A70000246002093680B400BB1012000E00020DB
:101A8000704702460020D3680B400BB1012000E0F4
:101A90000020704741617047016170470AB10161E0
:101AA00000E0416170472DE9F04104460D461646BD
:101AB0001F4660103B463246294602F063FCBDE8F3
:101AC000F08137B504460D46012302AA2946204677
:101AD00002F093FC3EBD70B50246002100200023B9
:101AE00023E0545C542C1ED14C1C145D303C4FF44C
:101AF0007A756C438D1C555D303D05EBC50606EBD4
:101B0000051504EB8505CC1C145D303C04EB840406
:101B100005EB44050C1D145D303C2B19834200DDA0
:101B20001846091D01E0491C00BF545C002CD8D1A7
:101B300070BD000070B50446002505230122214632
:101B40000E48FFF769FD002610E001210B48FFF762
:101B5000C4FD00BF02210948FFF7D6FC0028F9D0D8
:101B60000648FFF7CDFC0544701CC6B21E2EECDB08
:101B700005F10F001E21B0FBF1F070BD0024014003
:101B80002DE9F04704460025002624B90020FFF780
:101B9000D1FF054603E00620FFF7CCFF05462846A7
:101BA000FEF7B6FF81460749FEF7ECFD8046064981
:101BB000FEF7B6FD0746FEF7C6FF06463046BDE80F
:101BC000F087000000F07F450000C8422DE9F04199
:101BD0000020FFF7D5FFC4B20120FFF7D1FFC5B247
:101BE0000F265527552D02DB0320BDE8F0810F2D70
:101BF00001DC0420F9E70F2C01DC0220F5E7552C6D
:101C000001DB0120F1E70020EFE7000010B500F054
:101C100009FD4A490968401A322800D210BD00F077
:101C200001FD46490860FFF7D1FF0446052C07D2A5
:101C3000DFE804F003072E556B0041A003F05EFDC2
:101C400078E041A003F05AFD4048008840F6340196
:101C5000884204DA3D4800880A303C4908804FF445
:101C60007A723A480188012001F0F8FD384800886E
:101C7000B0F5FA7F04DD364800881438344908800E
:101C80004FF47A7232480188032001F0E7FD51E0F9
:101C900030A003F033FD2D480088B0F5617F04DDEE
:101CA0002A4800880A38294908804FF47A72274860
:101CB0000188012001F0D2FD2548008840F2A4618E
:101CC000884204DA224800881430214908804FF401
:101CD0007A721F480188032001F0C0FD2AE01FA08E
:101CE00003F00CFD1F48008840F6C411884204DA56
:101CF0001C4800880A301B4908804FF47A72194842
:101D00000188002001F0AAFD14E017A003F0F6FC02
:101D100014480088B0F5FA7F04DD124800880A38BC
:101D2000104908804FF47A720E480188002001F0B3
:101D300095FD00BF00BF00BF70E70000E804002071
:101D400043656E7465720A0055700A00EE04002047
:101D5000F0040020446F776E0A0000004C65667442
:101D60000A000000EC04002052696768740A000051
:101D700008B50121102001F0F7FE4FF40050ADF836
:101D8000000048208DF8030069460248FFF79CFDDB
:101D900008BD00000010014008B50121042001F039
:101DA000E3FE4FF40060ADF8000010208DF8030052
:101DB00003208DF8020069460448FFF785FD4FF4C3
:101DC00000610248FFF768FE08BD000000080140FE
:101DD00008B50121082001F0C7FE0420ADF800007D
:101DE00028208DF8030069460148FFF76DFD08BD06
:101DF000000C01400FB59DB0FE491D98FEF790FC08
:101E00001D90FC491E98FEF78BFC1E90F9491F9807
:101E1000FEF786FC1F902298006817902298406871
:101E200016902298806815902298C068149000211E
:101E30001D98FEF733FF02D1002018901BE0DDE96A
:101E40001D01FEF79FFC0790FEF7C9FECDE90801D2
:101E500004F072FD0022E84BCDE90A01FEF777FDA0
:101E6000E64AE74BCDE90C01FEF7E3FDCDE90E01B3
:101E7000FEF7F8FE18901E990846FEF751FC0A90EE
:101E80001D990846FEF74CFC09900A99FEF7F0FBF5
:101E90000B90FEF7A4FECDE90C0105F0F9F9CDE9B0
:101EA0000E01FEF7DFFE1E902098FEF798FED34A43
:101EB000D34BCDE90001FEF74AFD0022D14BCDE91D
:101EC0000201FEF7B6FDCDE9040104F045FECDE9BF
:101ED00008011498FEF783FECDE90601DDE9082329
:101EE000FEF735FDCDE90C011E98FEF778FECDE931
:101EF0000A01DDE90C23FEF724FDCDE90E01FEF712
:101F0000B1FE1E902098FEF76AFEBC4ABC4BCDE99C
:101F10000001FEF71CFD0022BA4BCDE90201FEF7DD
:101F200088FDCDE9040105F063F9CDE908011498B5
:101F3000FEF755FECDE90601DDE90823FEF707FDB2
:101F4000CDE90C0117991F98FEF7E4FB0990FEF705
:101F500046FECDE90A01DDE90C23FEF7F2FCCDE9EE
:101F60000E01FEF77FFE1F90179880F000400F9043
:101F70001F99FEF79DFE02D2012021B000BDDDE9D0
:101F80001510FEF775FB0B90FEF729FECDE90E014B
:101F90001F990846FEF7C4FB08901E990846FEF7F5
:101FA000BFFB07900899FEF763FB0990FEF717FE49
:101FB000CDE90A0105F06CF9CDE90C01DDE90E234C
:101FC000FEF738FE01D20220D7E71F990846FEF738
:101FD000A7FB04901E990846FEF7A2FB0390049904
:101FE000FEF746FB0590FEF7FAFDCDE9060105F088
:101FF0004FF9CDE90A011E98FEF7F1FDCDE9080180
:10200000DDE90A23FEF715FDCDE90C0104F056FBCE
:10201000CDE90E01FEF726FE11901F990846FEF746
:102020007FFB02901E990846FEF77AFB0190029909
:10203000FEF71EFB0390FEF7D2FDCDE9040105F08B
:1020400027F9CDE908014FF080401699FEF768FBAB
:102050000590FEF7C4FDCDE90601DDE90823FEF792
:1020600076FCCDE90C0115990846FEF759FB08905E
:1020700016990846FEF754FB06901F990846FEF78E
:102080004FFB04901E990846FEF74AFB0390049903
:10209000FEF7EEFA05900699FEF7EAFA079008991E
:1020A000FEF738FB0990FEF79AFDCDE90A01DDE95C
:1020B0000C23FEF7BEFCCDE90E01FEF7D3FD129016
:1020C0004FF07E511298FEF7F3FD04D34E4912985B
:1020D000FEF7E4FD01D205204FE700211F98FEF72F
:1020E000DDFD02D24848109002E04FF07E50109083
:1020F0001298FEF774FDCDE9080104F0DFFACDE98E
:102100000C01DDE91010FEF70BFB0990FEF767FDEF
:10211000CDE90A01DDE90C23FEF772FBCDE90E01E2
:10212000FEF7A0FD19901998FEF759FD0022354BD6
:10213000CDE90A01FEF70BFC304A314BCDE90C0129
:10214000FEF777FCCDE90E01FEF78CFD199019988A
:10215000FEF745FD00222B4BCDE90E01FEF76AFD8F
:1021600009D31998FEF73BFD00221346CDE90E0175
:10217000FEF748FD01D20620FFE64FF08040169999
:10218000FEF7CEFA0D901599FEF7CAFA0F90159941
:102190000846FEF7C5FA0D9016990846FEF7C0FAF4
:1021A0000B901F990846FEF7BBFA09901E99084646
:1021B000FEF7B6FA08900999FEF75AFA0A900B99B9
:1021C000FEF7A8FA0C900D99FEF7A4FA80F00040F3
:1021D0000E900F99FEF7D6FA13904FF07E51139898
:1021E000FEF766FD04D308491398FEF757FD0DD29C
:1021F0000320C2E60000204100E070404AD8124DA2
:10220000FB21094000806640000080BF1398FEF764
:10221000E6FCCDE90C0104F051FACDE90E01FEF720
:1022200021FD1A901A98FEF7DAFC0022694BCDE9DD
:102230000801FEF78CFB684A684BCDE90A01FEF7FE
:10224000F8FB0022634BCDE90C01FEF77DFBCDE9E5
:102250000E01FEF707FD1A901A98FEF7C0FC002247
:102260005F4BCDE90E01FEF7E5FC09D31A98FEF7A6
:10227000B6FC00225B4BCDE90E01FEF7C3FC01D298
:1022800004207AE619992098FEF744FA0F901A99DB
:10229000FEF7EEF91B901B98FEF7A1FC0022524BB3
:1022A000CDE90E01FEF7C6FC09D31B98FEF797FC9B
:1022B00000224E4BCDE90E01FEF7A4FC01D207200F
:1022C0005BE622991898086149491998FEF722FAA5
:1022D0000146229841611A99229881611B9922989E
:1022E000C161229800690790FEF779FC0022414BFA
:1022F000CDE90801FEF72BFB00223F4BCDE90A0197
:10230000FEF797FB00223D4BCDE90C01FEF71CFBCD
:10231000CDE90E01FEF744FC229908642298406939
:102320000790FEF75CFC0022324BCDE90801FEF776
:102330000EFB0022304BCDE90A01FEF77AFB0022AA
:102340002E4BCDE90C01FEF7FFFACDE90E01FEF7A9
:1023500027FC014622984164229880690790FEF785
:102360003EFC0022234BCDE90801FEF7F0FA0022E3
:10237000214BCDE90A01FEF75CFB00221F4BCDE9A2
:102380000C01FEF73DFACDE90E01FEF709FC01460E
:10239000229881642298C0690790FEF720FC0022F1
:1023A000144BCDE90801FEF7D2FA0022124BCDE919
:1023B0000A01FEF73EFB0022104BCDE90C01FEF7AF
:1023C000C3FACDE90E01FEF7EBFB01462298C1648A
:1023D0000020D2E5008066404AD8124DFB2109401A
:1023E00000E0604000E060C000805640008056C0C1
:1023F0000000B44200409F4000E0704000709740F1
:1024000008B50121042001F0AFFB4FF40040ADF806
:10241000000010208DF8030003208DF802006946AB
:102420000448FFF751FA4FF400410248FFF734FB2C
:1024300008BD00000008014070B5044600F0F2F845
:102440000C490968401AA04200D270BD00F0EAF8B9
:10245000084908604FF400410748FFF712FBC0F13C
:102460000100C5B22A464FF400410348FFF716FBAE
:1024700000BFEAE70C0400200008014010B500F09E
:10248000D1F812490968401A0A2800D210BD00F09C
:10249000C9F80E4908600E480078012806D00228C5
:1024A00009D0032808D004280CD108E04FF47A7032
:1024B000FFF788F907E006E001F0E4FF03E0FFF72B
:1024C000A5FB00E000BF00BF00BFDFE72004002045
:1024D0000804002010B52F480078002855D100F0DE
:1024E000A1F82D490968401A2C49096888424FD93A
:1024F00000F098F8284908602948006848B1294840
:10250000006830B901202349087027A002F0C0FFFD
:1025100010BD28480068FFF7BDF927480068274923
:102520000968884218DA2348006824490968884203
:102530000CD1214800681F4908601948006820B183
:1025400018480068401E17490860E1E7194800680C
:10255000401C184908601BE01648006817490968C4
:1025600088420CD114480068124908600C48006881
:1025700020B10C480068401E0A490860C8E70D48B1
:102580000068401E0B49086002E00A200349086009
:1025900000BFBDE724040020400400203C040020CC
:1025A000380400202C0400204047726F7570446F7F
:1025B0006E6521002804002030040020340400202F
:1025C00010B51548008830B314480078012806D1AA
:1025D000134800F093FF124800F01EFD16E00F486C
:1025E0000078022803D10E4800F068FB0EE00B488B
:1025F0000078032803D10A4800F060FB06E0074892
:102600000078042802D1064801F0CEFC00200349DE
:1026100008700149088010BDFA040020FC04002065
:102620004C0B002001480068704700000C0500209A
:1026300070B5002100230F22C47804B3154C246820
:1026400004F4E064C4F5E064210AC1F10403CA4063
:10265000447804FA03F184781440214309010E4CB4
:102660000678A155047804F01F050124AC400578D4
:102670006D11AD0005F1E025C5F8004109E00478D1
:1026800004F01F050124AC40044D0678761145F88E
:10269000264070BD0CED00E000E400E080E100E0C9
:1026A00070B5002419E004F1B001C8B2002100F0B7
:1026B0005BF90021084600F057F90021102000F0D6
:1026C00053F9002505E00121002000F04DF9681CB8
:1026D000C5B2802DF7DB601CC4B2082CE3DB70BDF3
:1026E00010B56420FFF7B2F80021AE2000F03CF9ED
:1026F0000021084600F038F90021102000F034F9DC
:102700000021402000F030F90021B02000F02CF929
:102710000021812000F028F90021FF2000F024F999
:102720000021A12000F020F90021A62000F01CF9D2
:102730000021A82000F018F900213F2000F014F932
:102740000021C82000F010F90021D32000F00CF97E
:102750000021084600F008F90021D52000F004F916
:102760000021802000F000F90021D82000F0FCF8C2
:102770000021052000F0F8F80021D92000F0F4F83D
:102780000021F12000F0F0F80021DA2000F0ECF850
:102790000021122000F0E8F80021DB2000F0E4F82E
:1027A0000021302000F0E0F800218D2000F0DCF85E
:1027B0000021142000F0D8F80021AF2000F0D4F858
:1027C00010BD00002DE9F05F8046894615464FF0A8
:1027D000000B2846FDF7CAFC00F0FF0A002454E075
:1027E000285D7F280ADC2A5D10234946404600F018
:1027F00069F808F1080000F0FF0844E0285D7F2830
:1028000041DD28194078295D40EA012B002738E096
:1028100007EB07101F4931F8100058452FD14946E2
:10282000404600F039F800260BE007EB0711194A83
:1028300002EB4101891C885D012100F095F8701CB4
:10284000C6B2102EF1DB09F10100C1B2404600F022
:1028500023F810260BE007EB07110E4A02EB4101AB
:10286000891C885D012100F07FF8701CC6B2202E03
:10287000F1DB08F1100000F0FF08601CC4B2781C06
:10288000C7B2112FC4D3601CC4B25445A8DBBDE845
:10289000F09F0000587B000870B504460D4605F116
:1028A000B001C8B2002100F05FF8102141EA141015
:1028B000002100F059F804F00F00002100F054F856
:1028C00070BD00002DE9F04707460E469046994638
:1028D00000250024A8F12000C5B27F2F02DD0027CB
:1028E000B01CC6B2B9F1100F24D131463846FFF7FB
:1028F000D3FF002408E004EB0511194A505C0121C4
:1029000000F032F8601CC4B2082CF4DB701CC1B2B9
:102910003846FFF7C1FF002409E004EB0511083138
:102920000F4A505C012100F01FF8601CC4B2082C53
:10293000F3DB12E031463846FFF7AEFF00240AE031
:1029400005EB4501074A02EB4101085D012100F05A
:102950000BF8601CC4B2062CF2DBBDE8F087000067
:10296000687500084073000813B50C4634B10123A4
:102970006A4640213C2001F040FD05E001236A4603
:1029800000213C2001F039FD1CBD000000B587B0DE
:10299000D0222749274801F085FE2648D0F8CC00F0
:1029A00025280BD0002007E040F2DC522149AC3151
:1029B00041F82020411CC8B20828F5DB1D48D0F89A
:1029C000C8001C49D1F8C4101A4AD2F8C020194BCB
:1029D000D3F8BC30CDE90232CDE904101548D0F867
:1029E000B8001449D1F8B410CDE900101148D0F85E
:1029F000B03011A1D0F8AC20184802F08FFE174873
:102A000002F046FD0B48D0F8A80025280ED0002083
:102A100006E000220749883141F82020411CC8B255
:102A20000828F6DB25210348C0F8A81007B000BD30
:102A300000F87F0044090020696E69745F706F734D
:102A40003A25642C25642C25642C25642C25642CC3
:102A500025642C25642C25640D0A00004405002003
:102A60002DE9F04107460E4600257878397800EBCD
:102A700001208549088085480088098888426ED0F1
:102A800081480088824908807F4800887F490988FA
:102A900008407D4908800024EDE00120A0407A49EB
:102AA0000988084000287DD10120A0407749098885
:102AB000084000287FD04FF480617648FDF74BFB3B
:102AC000732E0DD1744951F82400FDF74FFB804659
:102AD000714850F8241042466E48FDF723FB10E081
:102AE000412E0DD16D4951F82400FDF73FFB804682
:102AF0006A4850F8241042466648FDF713FB00E090
:102B0000B7E067A1634801F083FFC5B21DB10021A2
:102B1000681E604A115463A15E4801F079FFF8B164
:102B2000002240F22551604802F07FFB00205F49FF
:102B3000088058490B315E48FDF71FFB5C4955483A
:102B4000FDF71BFB012059490880012240F2255165
:102B5000554802F06AFB01205649087026E091E0D2
:102B600055A14C4801F054FF00B3002240F225511A
:102B70004D4802F05AFB00204C49088045490B3172
:102B80004B48FDF7FAFA4A494248FDF7F6FA0120A8
:102B900046490880012240F22551434802F045FB96
:102BA000022001E064E006E0424908704FF6FF7041
:102BB000364908805CE04FF480613648FDF7CBFA77
:102BC000732E0DD1344951F82400FDF7CFFA804619
:102BD000314850F8241042462E48FDF7A3FA10E081
:102BE000412E0DD12D4951F82400FDF7BFFA804642
:102BF0002A4850F8241042462648FDF793FA00E090
:102C000037E027A1234801F003FFC5B285B321496E
:102C1000481924A101F0FCFE90B11E484119244836
:102C2000FDF7ABFA2248FDF7A1FA401E2049002229
:102C30000A541848FDF7A1FA164800F0EDF917E01C
:102C4000144948191CA101F0E3FE88B1114841194B
:102C50001748FDF792FA1648FDF788FA401E144906
:102C600000220A540B48FDF788FA0A4800F026F8BB
:102C700000BF601CC4B2102CFFF60FAF04480088E0
:102C800002490880BDE8F081CE040020CC04002079
:102C9000D00400204C0B00204404002084040020B9
:102CA0005E0000002400000000380140FA0400200B
:102CB00044050020FC040020230000002DE9FF5FF4
:102CC00004460026207823287DD120795028FBD186
:102CD00060795328F8D1A0794328F5D1E0794B28C1
:102CE0007DD1207B21287AD1607830386421484317
:102CF000A178303901EB810100EB4101E0783038F7
:102D0000084485B2607A303864214843A17A30396A
:102D100001EB810100EB4101E07A30380F1817F127
:102D2000640F54DB642F52DC082D50DA207A2B28F4
:102D30001CD13846FDF7ECFEA049039051F8250060
:102D4000FDF7E6FE02909E4800EB051041680298F0
:102D5000FDF7E3FC83460399FDF78AFC984901EBF4
:102D600005114860954840F825701FE0207A2D280D
:102D70001CD13846FDF7CCFE9049039051F8250050
:102D8000FDF7C6FE02908E4800EB051041680298E0
:102D9000FDF7C3FC83460399FDF7BCFC884901EBB2
:102DA000051148607942854840F82510844901EBB7
:102DB00005114868FDF7E0FE814901EB0511088027
:102DC00080487F4900E00AE001EB0511886002209D
:102DD00001F02CFA21467CA002F090FC23E0207840
:102DE000232820D1207950281DD1607944281AD178
:102DF000A079532817D1E079542814D1207A2128BA
:102E000011D16078303864214843A178303901EB22
:102E1000810100EB4101E07830380D18E8B200F094
:102E2000EFFCBDE8FF9F2046FDF7A0F98146BEE01C
:102E3000A05D232813D10025701C86B208E0A05D98
:102E400005EB850100EB4100303885B2701C86B27D
:102E5000A05D0028EBD0A05D5028E8D0EFE7A05D92
:102E600050281ED14FF0000A701C86B212E0A05DFF
:102E7000FDF757FE554903905046FDF751FC02906F
:102E80000399FDF7F5FB83465149FDF743FC824664
:102E9000701C86B2A05D0028C9D0A05D5428C6D0A1
:102EA000E5E7A05D54287CD14FF00008701C86B285
:102EB00009E0A05D08EB880100EB410030381FFA03
:102EC00080F8701C86B2A05D10B1A05D2128F0D101
:102ED000052D0DD13F495046FDF7EAFE01D8DFF838
:102EE000F4A03D495046FDF7D9FE01D8DFF8E8A02F
:102EF000032D06D139495046FDF7DAFE01D8DFF837
:102F0000DCA0022D0DD136495046FDF7D1FE01D887
:102F1000DFF8CCA033495046FDF7C0FE01D8DFF8FA
:102F2000C4A0012D0DD12E495046FDF7C1FE01D898
:102F3000DFF8ACA02B495046FDF7B0FE01D8DFF812
:102F4000A4A01E4951F82500FDF7E2FD8346514635
:102F5000FDF78EFB82465046FDF7F5FD8346E8B24D
:102F60004246594600F07AFC012001F05FF95046D4
:102F7000FDF735FE02460B46CDF80080CDE9020193
:102F8000294619A002F0BAFB022001F04FF9504681
:102F9000FDF7F2FD1FFA80FB43465A46294619A069
:102FA00000E002E002F0AAFB01E0701C86B2A05D26
:102FB00010B1B145BFF63CAF00BF32E7CC090020ED
:102FC0006C0A00206F12833A257300000000204134
:102FD000000040420000FA44000096440080D444BF
:102FE00000400345000061440D0A696E6465783A4B
:102FF00025642C70776D3A25672C74696D653A25C8
:10300000640D0A0023253033645025303464542580
:10301000303464210000000030B58BB00546002438
:1030200000200A900990089007900690059004905F
:103030000390BDA1284601F0EBFC04464CB10120F1
:1030400001F0F4F8BAA002F059FBFF2000F0D8FB21
:1030500067E1BAA1284601F0DBFC04468CB10120EF
:10306000B849087001F0E2F8B7A002F047FBBAA037
:1030700002F0D0FAFF2000F0C3FBFF20B94908702E
:103080004FE1B9A1284601F0C3FC0446C4B10AAA25
:10309000B7A12846FDF77AF80028D9D00A99C8B216
:1030A00000F0AEFBB5A1B9480A9A02F037FBB74869
:1030B00002F0B0FA4FF48061B448FDF74CF830E10B
:1030C000B3A1284601F0A4FC044614B101F0C2F9F2
:1030D00027E1B1A1284601F09BFC04466CB109AA86
:1030E000AFA12846FDF752F80028B1D0012095493C
:1030F00008700998FEF7CEFB13E1ACA1284601F059
:1031000087FC04464CB3AB48AB4BAC4AACA1009037
:103110002846FDF73BF800289AD0012001F086F8F8
:10312000ABA002F0EBFA012086490870A3480068C2
:10313000A149096888420BD0A0480068A7490860E7
:103140009C480068A649086000207E490870E8E0B5
:103150009A480068FEF79EFBE3E0A2A1284601F032
:1031600057FC04466CB1A1A002F054FA4FF4FA6285
:1031700040F2DC51FF2000F071FBFF20794908701C
:10318000CFE09EA1284601F043FC0446ACB109AA59
:103190009CA19F48FCF7FAFF002890D0714909983C
:1031A0000870099810B99BA002F034FA0998022817
:1031B00085D19CA002F02EFAB3E09EA1284601F032
:1031C00027FC044634B1012001F030F89BA002F046
:1031D00095FAA6E089A1284601F01AFC044694B1AC
:1031E00009AA88A18A48FCF7D1FF002884D0099851
:1031F00010B988A002F00EFA09980228A7D189A078
:1032000002F008FA8DE08EA1284601F001FC044688
:10321000F4B10A20FEF71AFB8DA0FFF74FFD0A203C
:10322000FEF714FB012001F001F88CA002F066FA11
:10323000022000F0FBFF89A002F060FA0A20FEF7EE
:1032400005FB8EA002F05AFA0A20FEF7FFFA68E0AA
:103250008CA1284601F0DCFB0446D4B108A805A9DE
:1032600006AB07AACDE9001088A12846FCF78EFF1F
:10327000002856D0DDE90703DDE9052103F03AFD1A
:1032800000284ED1012000F0D1FF85A002F036FACF
:1032900047E089A1284601F0BBFB0446ACB103A876
:1032A00004AB0AAA86A100902846FCF76FFFC0B3C2
:1032B000012000F0BBFF87A002F020FA0A99C8B2F3
:1032C000DDE9032100F0E0FB2BE086A1284601F0B8
:1032D0009FFB04462CB3012000F0A8FF83A002F05E
:1032E0000DFA08218448FEF7D7FB1E20FEF7AEFA40
:1032F00008218148FEF7CEFB1E20FEF7A7FA082121
:103300007D48FEF7C9FB1E20FEF7A0FA08217A4887
:10331000FEF7C0FB1E20FEF799FA08217648FEF75B
:10332000BBFB0BB030BD0000244452532100000011
:1033300068656C6C6F20776F72642100244453546D
:10334000210000002404002050617273655F436D0A
:1033500064204F4B000000002444535421204F4B65
:1033600000000000D2040020244453543A0000001E
:10337000244453543A2564210000000023253033AF
:103380006450445354210D0A0000000044050020FD
:103390002452535421000000244447533A000000B3
:1033A000244447533A256421000000002444475434
:1033B0003A000000380400203404002030040020CB
:1033C000244447543A25642D25642C2564210000AB
:1033D0004447542020204447540D0A00280400206C
:1033E0002C04002024444A522100000023323535A9
:1033F00050313530305432303030210024534D4F6D
:103400004445000024534D4F4445256421000000ED
:103410004C0B0020233031305031353132543030B4
:10342000303021002330313050313531315430309B
:1034300030302100244745544121000041414100E2
:1034400024534D4152545F53544F5021000000000B
:103450002332353550445354210000002330303698
:103460005031353030543030303021233030375007
:10347000313530305430303030210000404F4B2156
:1034800000000000244B4D533A000000244B4D53E4
:103490003A25662C25662C25662C25642100000023
:1034A00043616E27742066696E64206265737420C0
:1034B000706F73212121000024416E676C653A0012
:1034C00024416E676C653A25642C25662C2566219F
:1034D00000000000416E676C65202020416E676C23
:1034E000650D0A00244245455021000062757A7A34
:1034F00065720D0A000000000008014038B504465E
:10350000002514A1204601F083FA05460DB31348A7
:10351000134B144A14A100902046FCF737FEC0B1AB
:103520000120154908700F4800680D490968884254
:103530000BD00C4800681149086008480068104921
:10354000086000200C49087003E006480068FEF798
:10355000A1F938BD244447543A0000003804002043
:103560003404002030040020244447543A25642DBC
:1035700025642C2564210000240400202804002058
:103580002C040020002014E040F2DC5100EB40024B
:10359000094B23F82210094900EB400203EB820299
:1035A0005160002100EB400203EB82029160411C5C
:1035B000C8B20828E8DB7047EC0A00200080BB4452
:1035C00008B501210C2000F0CFFA0220ADF8000070
:1035D00028208DF8030003208DF802006946174863
:1035E000FEF772F98020ADF8000010208DF803007E
:1035F00003208DF8020069461048FEF765F90120A6
:10360000ADF8000069460E48FEF75EF90220ADF8FD
:10361000000069460A48FEF757F90122114608489A
:10362000FEF73CFA012202210548FEF737FA012293
:1036300080210248FEF732FA08BD00000008014070
:10364000000C01402DE9F04105462F4600260024DC
:1036500027E00120A04000EA070280211348FEF77E
:103660001DFA012202211248FEF718FA0620FEF781
:10367000FDF8002202210E48FEF710FA0620FEF7A0
:10368000F5F8012202210A48FEF708FA022107484C
:10369000FEF7EEF918B10120A0403043C6B2601C1D
:1036A000C4B2082CD5DB3046BDE8F08100080140EB
:1036B000000C014010B5002201211B48FEF7EEF975
:1036C0000120FFF7BFFF194908704220FFF7BAFF3A
:1036D000164948700878FFF7B5FF144988700878D4
:1036E000FFF7B0FF1149C8700878FFF7ABFF0F492B
:1036F00008710878FFF7A6FF0C4948710878FFF7B2
:10370000A1FF0A4988710878FFF79CFF0749C87133
:103710000878FFF797FF0549087201221146024811
:10372000FEF7BCF910BD0000000C01404C0F00205A
:1037300038B50121082000F017FA03208DF80200A7
:1037400010208DF803000820ADF8000069462848D5
:10375000FEF7BAF81020ADF8000069462448FEF7DD
:10376000B3F82020ADF8000069462148FEF7ACF818
:103770004020ADF8000069461D48FEF7A5F88020FE
:10378000ADF8000069461A48FEF79EF84FF48070C5
:10379000ADF8000069461648FEF796F84FF4007041
:1037A000ADF8000069461248FEF78EF800241CE0D0
:1037B00040F2DC500F4901EB041108800E480D491E
:1037C00001EB041148600D480A4901EB04118860BF
:1037D00041F28830074901EB041148800020054977
:1037E00001EB0411C860601CC4B2082CE0DB38BDDA
:1037F000000C01406C0A00200080BB440000A04186
:1038000010B50446082C0FDA0020134901EB04110F
:103810008860114901EB04114868FDF7ADF90E49C4
:1038200001EB0411088016E0FF2C14D1002410E0F5
:103830000020094901EB04118860074901EB0411DC
:103840004868FDF799F9044901EB04110880601CF0
:10385000C4B2082CECDB10BD6C0A00202DE9F04747
:1038600004460D461646082C01DBBDE8F0877DB9FD
:103870000020374901EB04118860354901EB041140
:103880004868FDF779F9324901EB04110880ECE74B
:1038900040F6BA10854201DD054604E0B5F5FF7F2C
:1038A00001DA4FF4FF7542F21070864200DD461EC9
:1038B0002846FDF72DF90746254800EB041041681E
:1038C0003846FDF7EBF90AD12846FDF721F9804685
:1038D0002049FCF7CDFE0746FDF735F90546142EC5
:1038E00010DA1B4901EB04110D802846FDF710F991
:1038F000174901EB041148600020154901EB041140
:10390000886022E0124901EB04110D80104901EB9F
:1039100004114E803046FDF7FBF881460E49FCF756
:1039200031FF07462846FDF7F3F88146084800EBCB
:10393000041041684846FCF7EDFE80463946FCF726
:1039400021FF034901EB0411886000BF8DE70000EF
:103950006C0A00204850FC3B0000A0412DE9F047D4
:1039600004462A4901EB041188680021FDF796F905
:1039700001D1BDE8F087254800EB0410058840F62A
:10398000BA10854201DD054604E0B5F5FA7F01DA9B
:103990004FF4FA751D4901EB041188684FF080411E
:1039A000FCF7BEFE804602F07DFE06462846FDF787
:1039B000AFF88146154800EB041041684846FCF713
:1039C000A9FE804602F06EFE07463146FDF766F915
:1039D0000CD82846FDF79CF80C4901EB041148600F
:1039E00000200A4901EB041188600DE0074A02EB50
:1039F00004129168054A02EB04125068FCF738FE85
:103A0000024901EB0411486000BFB2E76C0A0020D4
:103A100070B504460D46072C31D2DFE804F0040AE5
:103A200010161C2229002A4608211648FEF736F8EF
:103A300026E02A4610211348FEF730F820E02A46F7
:103A400020211048FEF72AF81AE02A4640210D48A6
:103A5000FEF724F814E02A4680210A48FEF71EF8F3
:103A60000EE02A464FF480710648FEF717F807E08B
:103A70002A464FF400710348FEF710F800E000BF3B
:103A800000BF70BD000C01402DE9F74F84B08B469C
:103A900092465046FDF7A3F8CDE900015846FDF7E0
:103AA0009EF80646DDE9002303F0C5F804462246E9
:103AB0000B460020014603F09DF88046FDF7D2F842
:103AC0008346104801685846FCF72AFE8346514653
:103AD0005846FCF757FE05460B49FCF721FE044605
:103AE0000A49FCF7C5FD02900298FDF72CF8044640
:103AF0004FF47A7221460498FFF7B0FE07B0BDE894
:103B0000F08F0000F40400200000FA440000FA43A3
:103B100001460020034A506820F4404008435060AA
:103B2000704700000010024029B1064AD2690243E2
:103B3000044BDA6104E0034AD2698243014BDA6143
:103B4000704700000010024029B1064A1269024382
:103B5000044B1A6104E0034A12698243014B1A6163
:103B6000704700000010024029B1064A92690243E2
:103B7000044B9A6104E0034A92698243014B9A61C3
:103B8000704700000010024029B1064AD268024383
:103B9000044BDA6004E0034AD2688243014BDA60E6
:103BA00070470000001002400F48006840F001001C
:103BB0000D490860084640680C4908400A494860B9
:103BC000084600680A490840074908600846006836
:103BD00020F4802008600846406820F4FE00486019
:103BE0004FF41F0088607047001002400000FFF88B
:103BF000FFFFF6FE30B500210022002400232D4DEA
:103C00006D6805F00C0121B1042905D0082923D1E4
:103C100005E0294D056022E0274D05601FE0254D98
:103C20006D6805F47012234D6D6805F4803402252B
:103C300005EB92421CB9214D554305600BE01D4D2B
:103C40006D6805F400351DB11C4D5543056002E05B
:103C5000194D5543056002E0174D056000BF00BFD8
:103C6000144D6D6805F0F0010909154D6B5C056890
:103C7000DD4045600F4D6D6805F4E061090A104DA7
:103C80006B5C4568DD4085600A4D6D6805F46051E8
:103C9000C90A0B4D6B5C4568DD40C560054D6D681C
:103CA00005F44041890B074D6B5CC568B5FBF3F526
:103CB000056130BD0010024000127A0000093D008D
:103CC000280500203805002010B5014600220023F9
:103CD00000204A11012A02D1094C236806E0022A79
:103CE00002D1074C236A01E0054C636A01F01F0210
:103CF000012494401C400CB1012000E0002010BDC4
:103D0000001002400248406800F00C0070470000BC
:103D10000010024001460020034A506820F0F000E5
:103D200008435060704700000010024011490968C4
:103D300021F480310F4A11601146096821F4802175
:103D40001160B0F5803F03D0B0F5802F0ED106E0B2
:103D50000849096841F48031064A116007E00549C5
:103D6000096841F4A021034A116000E000BF00BFD0
:103D7000704700000010024001460020034A5068CE
:103D800020F4E060084350607047000000100240DB
:103D900001460020034A506820F4605040EAC10008
:103DA00050607047001002400149086670470000EB
:103DB0000000424202460020044B586820F47C1068
:103DC00042EA01031843014B58607047001002405B
:103DD00001460020034A506820F003000843506069
:103DE000704700000010024038B500200090002409
:103DF000002500BF3120FFF767FF05460098401CF3
:103E000000900098B0F5A06F01D0002DF2D03120C5
:103E1000FFF75AFF08B1012400E00024204638BD16
:103E200010B5FFF7C1FE4FF48030FFF77FFFFFF7BB
:103E3000DBFF044600BF002CFDD00020FFF76AFF27
:103E40004FF48060FFF798FF0020FFF7A1FF4FF4C9
:103E5000E0114FF48030FFF7ADFF0120FFF7A4FF22
:103E600000BF3920FFF730FF0028FAD00220FFF70B
:103E7000AFFF00BFFFF746FF0828FBD110BD0000D1
:103E800038B500244FF40040ADF8000048208DF80C
:103E9000030069461448FDF717FD00251FE00022C6
:103EA0004FF480411048FDF7F9FD0020FDF7DEFCDE
:103EB000012291030C48FDF7F1FD0020FDF7D6FC2F
:103EC0006006040E4FF400410748FDF7D1FD08B12C
:103ED00044F001040020FDF7C9FC681CC5B2082DA0
:103EE000DDDB204638BD00000010014004E003780F
:103EF0008B4200D10270401C0378002BF7D1704731
:103F000010B540F2FF7000F04DFBD022024903488B
:103F100000F082FC10BD000000F87F004409002082
:103F200021B1028842F04002028004E002884FF68C
:103F3000BF731A40028070470246002013890B406D
:103F40000BB1012000E000207047014688897047CE
:103F50008181704710B50022028802F441520B881B
:103F60004C8823438C882343CC8823430C892343E8
:103F70004C8923438C892343CC8923431A430280F1
:103F8000838B4FF2FF74234083830B8A038210BD1F
:103F900010B501210D20FFF7E7FD01210148FDF7D4
:103FA0001FFD10BD0002300070B504464FF0FF3514
:103FB000607824280CD1A078212809D10021374825
:103FC00080F88410FFF79CFF35A001F061FA70BD06
:103FD000607824281BD181213048001DFCF7BBF8F4
:103FE000611C2E48001DFCF7C8F82046FCF7BEF8FF
:103FF000801E2A49091D00220A542521274880F8DD
:104000008410FFF77DFF2BA001F042FADFE7A078D4
:1040100030384FF47A714843E178303901EBC1020E
:1040200002EB011100EB81012079303800EB8000B8
:1040300001EB4001607930380D18002D02DBA079CA
:10404000232803D020A001F023FAC0E72802C117DB
:1040500000EB11510913A0EB013131B92E02F11718
:1040600006EB1151081300F09DFA7B223C212046FB
:10407000FFF73CFF7D223E212046FFF737FF204619
:10408000FCF774F8401C86B229023246204600F044
:1040900069FB0EA001F0FCF900BF98E7440900207D
:1040A00040434C454152205052455F434D44204FC0
:1040B0004B21000040534554205052455F434D442E
:1040C000204F4B210000000045000000410000008F
:1040D00038B504464FF40040ADF8000014208DF8C8
:1040E000030003208DF8020069461648FDF7ECFB3B
:1040F000002523E004F0800028B10122D1031148FB
:10410000FDF7CCFC05E000224FF400410D48FDF71F
:10411000C5FC012291030B48FDF7C0FC0020FDF710
:10412000A5FB00224FF480410648FDF7B7FC0020B4
:10413000FDF79CFB6006040E681CC5B2082DD9DB98
:1041400038BD00000010014038B504464FF400406F
:10415000ADF8000014208DF8030003208DF8020054
:1041600069461948FDF7B0FB00224FF4804116481C
:10417000FDF794FC00224FF400411348FDF78EFC3C
:104180000020FDF773FB34B900224FF400410E48C4
:10419000FDF784FC04E00122D1030B48FDF77EFC0F
:1041A000012291030848FDF779FC0020FDF75EFB32
:1041B00000224FF480410448FDF770FC0122D10336
:1041C0000148FDF76BFC38BD0010014010B500241C
:1041D00024E0144830F82410243830F8240008442F
:1041E000114901EB041108800E4951F824202439AB
:1041F00051F824105018FCF78BFC0B4901EB04110B
:1042000048600020084901EB0411886041F28830C1
:10421000054901EB04114880601CC4B2082CD8DBAE
:1042200010BD0000F00900206C0A00200149087050
:1042300070470000F804002010B500F001F810BD30
:104240000CB50020019000903348006840F48030A5
:104250003149086000BF3048006800F40030009029
:104260000198401C0190009818B90198B0F5A06F12
:10427000F1D12948006800F4003010B1012000900D
:1042800001E0002000900098012843D123480068F5
:1042900040F01000214908600846006820F0030043
:1042A00008600846006840F0020008601A4840684C
:1042B000194948600846406848600846406840F42C
:1042C000806048600846406820F47C1048600846DA
:1042D000406840F4E81048600846006840F080708C
:1042E000086000BF0C48006800F000700028F9D09A
:1042F0000948406820F003000749486008464068C4
:1043000040F00200486000BF0348406800F00C0025
:104310000828F9D10CBD0000001002400020024026
:1043200008B501211020FFF71FFC4FF48040ADF8C5
:10433000000014208DF8030003208DF80200694668
:104340000F48FDF7C1FA01211020FFF70DFC4FF4D3
:104350000040ADF8000014208DF8030003208DF814
:10436000020069460648FDF7AFFA4FF48041044861
:10437000FDF792FB4FF400410148FDF78DFB08BDAE
:10438000001001402DE9F04104460F4615461E4637
:1043900000F0D8FA6106080EFFF79AFE01F062F904
:1043A00010B10120BDE8F0813846FFF791FE01F021
:1043B00059F908B10220F5E700F0C4FA012101EB38
:1043C0004401C8B2FFF784FE01F04CF908B10320A4
:1043D000E8E700BFFFF754FD28706D1C012E02D0E6
:1043E0000020FFF7B1FE701E061EF3D10120FFF77B
:1043F000ABFE00F0DFFA0020D4E72DE9F0410546DE
:104400000E4614461F4600F09DFA6906080EFFF797
:104410005FFE01F027F910B10120BDE8F0813046C0
:10442000FFF756FE01F01EF908B10220F5E708E09B
:1044300014F8010BFFF74CFE01F014F908B103204A
:10444000EBE7381EA7F10107F2D100F0B3FA002024
:10445000E3E70000012080F3138800BF00BF074896
:10446000006800F4E06006490843001D0349086045
:10447000BFF34F8F00BF00BFFEE700000CED00E070
:104480000000FA0570B5FEF7CDF82C490968401A0E
:10449000142800D270BDFEF7C5F8284908602848E6
:1044A0000078012806D12748007800B9F2E70020FB
:1044B000234908704FF480512348FDF7D9FA054687
:1044C0004FF480712048FDF7D3FA04461F48007866
:1044D00030B101280CD0022816D003282AD121E0BF
:1044E000012D01D0012C02D101201849087021E0D2
:1044F000012D01D0012C03D102201449087002E0E3
:1045000000201249087015E00321C820FDF740F98A
:104510000FA0FEF7F3FF01200949087003200B49A3
:10452000087007E0012D04D0012C02D000200749BB
:10453000087000BF00BF00BFACE70000E00400202F
:10454000DC0400202404002000080140E4040020D2
:10455000244447543A32352D33312C3121000000A8
:1045600008B501210420FFF7FFFA4FF48050ADF8A1
:10457000000028208DF8030069460948FDF7A4F9DA
:1045800001210420FFF7F0FA4FF48070ADF800002D
:1045900028208DF8030069460148FDF795F908BD0C
:1045A0000008014010B50446240300F0C9F800F0EB
:1045B000BDF800224FF480510C48FDF76FFA20201F
:1045C00000F096F9C4F3074000F092F9C4F3072015
:1045D00000F08EF9E0B200F08BF9012211030348DC
:1045E000FDF75CFA00F0A2F810BD0000000C0140DD
:1045F00010B501210820FFF7B7FA4FF48050254984
:1046000008801020C870032088702348FDF75CF9EB
:104610004FF480512048FDF73FFA4FF420401D49E8
:1046200008801820C8701C48FDF74EF94FF48040F0
:10463000184908804820C8701748FDF745F94FF41D
:1046400020411548FDF728FA01218803FFF76CFA8D
:104650000020124908804FF4827048800020888032
:104660000220C880012008814002488138208881CA
:104670000020C881072008820948FFF76BFC012150
:104680000748FFF74DFCFF2000F032F9002000F052
:104690001DF910BD06050020000C0140560F00203A
:1046A000003800402DE9F04106460C46174600222E
:1046B0004FF480511048FDF7F1F9032000F018F98C
:1046C000C4F3074000F014F9C4F3072000F010F918
:1046D000E0B200F00DF9002505E0FF2000F008F938
:1046E0007055681C85B2BD42F7DB012211030248F8
:1046F000FDF7D4F9BDE8F081000C014010B50024AD
:1047000000224FF480510848FDF7C8F9052000F059
:10471000EFF8FF2000F0ECF80446012211030248F4
:10472000FDF7BCF9204610BD000C014010B500BFDC
:10473000FFF7E4FF00F001000028F9D110BD0000F0
:1047400010B500224FF480510548FDF7A7F9062067
:1047500000F0CEF8012211030148FDF79FF910BDCA
:10476000000C01402DE9F04107460E461446F0B218
:10477000C0F58075AC4200DC254612E02A46314681
:10478000384600F013F8AC4200D10BE02F442E4421
:10479000601B84B2B4F5807F02DD4FF4807500E0C9
:1047A0002546EBE700BFBDE8F08100002DE9F041B0
:1047B00007460C461646E0B2C0F58078464500DD57
:1047C0004646FFF7BDFF00224FF480511148FDF728
:1047D00065F9022000F08CF8C4F3074000F088F877
:1047E000C4F3072000F084F8E0B200F081F800255F
:1047F00004E0785D00F07CF8681C85B2B542F8DB17
:10480000012211030348FDF749F9FFF78FFFBDE8C7
:10481000F0810000000C01402DE9F04781460F4671
:1048200016464FEA1738C7F30B0ACAF58054A6425A
:1048300000DC344644E04FEA08314FF4805222480D
:10484000FFF730FF002508E00AEB05001E49085C71
:10485000FF2800D003E0681C85B2A542F4DB00BF4E
:10486000A54216DA4046FFF79DFE002507E019F83D
:10487000050005EB0A01144A5054681C85B2A54294
:10488000F5DB4FEA08314FF480520F48FFF76AFF1B
:1048900004E0224639464846FFF764FFA64200D1AD
:1048A0000FE008F101084FF0000AA1442744301B33
:1048B00086B2B6F5805F02DD4FF4805400E03446E6
:1048C000B9E700BFBDE8F087680F002010B50446C7
:1048D0000548848101460548FFF73CFB0121034858
:1048E000FFF71EFB10BD0000560F002000300140F6
:1048F00070B50546002405E0601CC4B2C82C01DD7B
:10490000002070BD02210E48FFF716FB0028F3D0EF
:1049100029460B48FFF71CFB002405E0601CC4B2CD
:10492000C82C01DD0020ECE701210548FFF704FB5E
:104930000028F3D00248FFF708FBC0B2E1E700000F
:104940000038004008B54FF40040ADF800001420D6
:104950008DF8030003208DF8020069461448FCF727
:10496000B3FF00224FF480411148FDF797F8012270
:10497000D1030F48FDF792F8012291030C48FDF78F
:104980008DF80020FCF772FF00224FF40041084828
:10499000FDF784F80020FCF769FF00224FF4804106
:1049A0000348FDF77BF80020FCF760FF08BD00001E
:1049B0000010014008B54FF40040ADF8000014208D
:1049C0008DF8030003208DF8020069460F48FCF7BC
:1049D0007BFF00224FF480410C48FDF75FF8002276
:1049E0004FF400410948FDF759F8012291030748A7
:1049F000FDF754F80020FCF739FF0122D1030348EA
:104A0000FDF74CF80020FCF731FF08BD0010014015
:104A100070B504460B4621461A4619E00878157809
:104A2000A84214D10AE011F8015B12F8016BB542FB
:104A300004D0D01A081A411C1A4602E01078002847
:104A4000F1D100BF107818B9081B80B270BD491CA5
:104A500008780028E2D100BFF8E7000030B514481C
:104A600000684FF47A72B0FBF2F1B1F1807F00D3AD
:104A70001DE021F07F40401E4FF0E02250615017B2
:104A80000F22002807DA13071D0E0A4B00F00F044F
:104A9000241F1D5503E013071C0E074B1C5400BFB9
:104AA00000204FF0E02290610720106100BF30BD70
:104AB0001405002018ED00E000E400E00248006862
:104AC000401C0149086070470C05002010B51348D0
:104AD000006840F00100114908600846406810492C
:104AE00008400E494860084600680E4908400B49D6
:104AF00008600846006820F4802008600846406886
:104B000020F4FE0048604FF41F008860FFF794FB1C
:104B10004FF000600449086010BD00000010024022
:104B20000000FFF8FFFFF6FE08ED00E07FB5054648
:104B30000C460121C802FEF7F7FFADF80850ADF8AA
:104B400004400020ADF80A00ADF8060001A91048A5
:104B500000F0D8F800210E4800F09FF8012211461D
:104B60000B4800F0C6F819208DF8000000208DF8E1
:104B7000010002208DF8020001208DF80300684634
:104B8000FDF756FD0121024800F096F87FBD0000B8
:104B9000002C014010B50121880700F099F8002889
:104BA00041D021480078082802D100201E49087011
:104BB0001E480078A0B91E491B4A127801EB021169
:104BC0004868FBF7D9FF4FF08041888501211648DE
:104BD0000078FEF71DFF14480078FEF7BFFE16E0D0
:104BE0001349114A127801EB02114868FBF7C4FF20
:104BF00040F6C4110C1A09078C8500210A48007878
:104C0000FEF706FF08480078401C0749087007486F
:104C1000007808B9012000E0002004490870012153
:104C2000880700F046F810BD12050020110500208D
:104C30006C0A00207FB505460C4601210846FEF7A8
:104C400073FFADF80850ADF804400020ADF80A003D
:104C5000ADF8060001A94FF0804000F053F80021A4
:104C60004FF0804000F019F801221146900700F043
:104C700040F81C208DF8000001208DF80100032071
:104C80008DF8020001208DF803006846FDF7D0FC86
:104C90000121880700F010F87FBD21B1028842F0A1
:104CA0008002028004E002884FF67F731A4002807F
:104CB0007047CA430282704721B1028842F0010264
:104CC000028004E002884FF6FE731A4002807047AB
:104CD00030B50246002000230024158A05EA0103AE
:104CE000958905EA010413B10CB1012000E0002010
:104CF00030BD1AB183890B43838102E083898B43E2
:104D000083817047002202881D4B98420ED01D4BB4
:104D100098420BD0B0F1804F08D01B4B984205D081
:104D20001A4B984202D01A4B984204D14FF68F7317
:104D30001A404B881A43174B984207D0164B98429B
:104D400004D04FF6FF431A40CB881A4302808B8869
:104D500083850B8803850A4B98420BD0094B9842F8
:104D600008D00E4B984205D00D4B984202D00D4B07
:104D7000984201D10B7A0386012383827047000099
:104D8000002C0140003401400004004000080040B5
:104D9000000C0040001000400014004000400140A2
:104DA000004401400048014010B540F225514248FE
:104DB00000F022FA01287CD13F4800F0C7FAC4B2C3
:104DC0003E48008800B110BD3C2C06D104203C496F
:104DD000087000203B4908801CE039480078C8B9B9
:104DE000242C03D101203649087010E0232C03D174
:104DF0000220334908700AE07B2C03D1032030499C
:104E0000087004E03C2C02D104202D4908700020D9
:104E10002C4908802B4801880088401C294A1080B2
:104E20002948445426480078042809D13E2C07D14B
:104E300000202549128888540120204908802BE051
:104E40001F48007801280AD1212C08D100201E49D2
:104E50001C4A128888540120184908801CE0184810
:104E6000007802280AD1212C08D100211648154AC1
:104E7000128881540120114908800DE01048007803
:104E8000032809D17D2C07D100200F490D4A128833
:104E900088540120094908800A480088B0F5806FCD
:104EA00002DB00200749088040F22551024800F04B
:104EB00039F900BF87E7000000380140FA040020FC
:104EC000FC040020FE0400204C0B002010B540F232
:104ED0002551424800F090F901287CD13F4800F06C
:104EE00035FAC4B23E48008800B110BD3C2C06D152
:104EF00004203C49087000203B4908801CE03948E8
:104F00000078C8B9242C03D101203649087010E07C
:104F1000232C03D10220334908700AE07B2C03D1F3
:104F200003203049087004E03C2C02D104202D49B4
:104F3000087000202C4908802B4801880088401CFC
:104F4000294A10802948445426480078042809D169
:104F50003E2C07D100202549128888540120204981
:104F600008802BE01F48007801280AD1212C08D1A5
:104F700000201E491C4A12888854012018490880C4
:104F80001CE01848007802280AD1212C08D1002101
:104F90001648154A128881540120114908800DE0F5
:104FA00010480078032809D17D2C07D100200F4933
:104FB0000D4A128888540120094908800A4800884F
:104FC000B0F5806F02DB00200749088040F22551D0
:104FD000024800F0A7F800BF87E700000044004047
:104FE000FA040020FC040020000500204C0B0020E7
:104FF00010B540F22551454800F0FEF801287DD15A
:1050000040F22551414800F08DF8404800F09EF9EB
:10501000C4B221463E4800F09EF93E48008800B1E7
:1050200010BD3C2C06D104203B49087000203B49B0
:1050300008801CE038480078C8B9242C03D101202E
:105040003549087010E0232C03D102203249087042
:105050000AE07B2C03D103202F49087004E03C2C8C
:1050600002D104202C49087000202C4908802B48CC
:1050700001880088401C294A108029484454264849
:105080000078042809D13E2C07D100202449128839
:10509000885401201F4908802BE01F480078012810
:1050A0000AD1212C08D100201D491C4A128888549D
:1050B0000120184908801CE01748007802280AD10E
:1050C000212C08D100211648144A1288815401204D
:1050D000104908800DE010480078032809D17D2C84
:1050E00007D100200E490D4A128888540120094931
:1050F00008800A480088B0F5806F00E003E002DB1A
:1051000000200649088000BF8AE7000000480040F0
:1051100000380140FA040020FC04002002050020B1
:105120004C0B002010B50022002340F66A14A14267
:1051300000D100BF0A1201249440A3B2DC430480D2
:1051400010BD21B1828942F40052828104E082893B
:105150004DF6FF731A4082817047000010B5044677
:105160002048844209D101218803FEF70DFD00216A
:105170004FF48040FEF708FD32E01B48844209D11D
:1051800001214804FEF7E0FC00214FF40030FEF757
:10519000DBFC25E01548844209D101218804FEF793
:1051A000D3FC00214FF48020FEF7CEFC18E010481D
:1051B000844209D10121C804FEF7C6FC00214FF446
:1051C0000020FEF7C1FC0BE00A48844208D101210F
:1051D0000805FEF7B9FC00214FF48010FEF7B4FC7F
:1051E00010BD00000038014000440040004800406D
:1051F000004C00400050004002460020B1F5007F06
:1052000000D100BF13880B400BB1012000E000204B
:10521000704721B1828A42F00802828204E0828AC9
:105220004FF6F7731A4082827047F0B503460024A8
:1052300000260025002040F66A17B94200D100BFC1
:105240001846C1F3421401F01F06012707FA06F5BC
:10525000012C01D10C3004E0022C01D1103000E00F
:1052600014301AB107682F43076002E00768AF43A4
:105270000760F0BD2DE9F04786B005460E460024D4
:10528000A24600BFA1460027B08900B100BF2F464B
:105290002C8A4CF6FF700440F08804432C82AC89C1
:1052A0004EF6F3100440B0883189084371890843F1
:1052B0000443AC81AC8A4FF6FF400440B0890443FC
:1052C000AC8201A8FEF796FC1F48874202D1DDF8A8
:1052D00010A001E0DDF80CA0A88900F4004040B166
:1052E0000AEBCA0000EB0A1031684900B0FBF1F884
:1052F00007E00AEBCA0000EB0A1031688900B0FB36
:10530000F1F86420B8FBF0F004012009642101FBEE
:105310001089A88900F4004040B1322000EBC90098
:10532000B0FBF1F000F00700044308E0322000EB8E
:1053300009106421B0FBF1F000F00F0004432C8150
:1053400006B0BDE8F08700000038014001468888BB
:10535000C0F308007047C1F3080282807047000064
:105360000EB501210420FEF7DFFB47F23050ADF807
:1053700004004720ADF800000020ADF80600ADF8AD
:10538000020069460148FFF7BDFC0EBD0008004061
:1053900008B501210420FEF7E7FB2020ADF800004E
:1053A00010208DF8030003208DF80200694608489C
:1053B000FCF78AFA1020ADF8000004208DF80300F5
:1053C00069460348FCF780FAFFF7CAFF08BD0000F2
:1053D0000008014010B586B00446012144F20400E3
:1053E000FEF7C2FB2848FFF7B9FE4FF40070ADF896
:1053F000040018208DF8070003208DF8060001A98D
:105400002248FCF761FA4FF48060ADF804000420F4
:105410008DF8070003208DF8060001A91B48FCF752
:1054200053FA02940020ADF80C00ADF80E00ADF870
:1054300010000C20ADF812000020ADF8140002A9F5
:105440001148FFF717FF25208DF8000001208DF887
:10545000010000208DF8020001208DF8030068464D
:10546000FDF7E6F8012240F225510748FFF7DDFE7F
:10547000002240F227710448FFF7D7FE01210248BD
:10548000FFF75FFE06B010BD003801400008014084
:1054900010B504460BE014F8011B0748FFF75BFF4B
:1054A00000BF80210448FFF7A7FE0028F9D020782C
:1054B0000028F0D110BD00000038014010B586B0C2
:1054C000044601210420FEF74FFB01214804FEF7AA
:1054D0002BFB0420ADF8140018208DF817000320D2
:1054E0008DF8160005A91C48FCF7EEF90194002080
:1054F000ADF80800ADF80A00ADF80C00ADF81000EA
:105500000C20ADF80E0001A91448FFF7B3FE0121ED
:105510001248FFF77EFE26208DF8000001208DF84E
:10552000010000208DF8020001208DF8030068467C
:10553000FDF77EF8012240F225510848FFF775FE7D
:10554000002240F227710548FFF76FFE0121034852
:10555000FFF7F7FD06B010BD000801400044004011
:1055600010B586B0044601210820FEF7FDFA01219E
:105570008804FEF7D9FA4FF48060ADF814001820C3
:105580008DF8170003208DF8160005A91F48FCF7B9
:105590009BF94FF40060ADF8140004208DF817005B
:1055A00005A91A48FCF790F901940020ADF808000D
:1055B000ADF80A00ADF80C00ADF810000C20ADF805
:1055C0000E0001A91248FFF755FE27208DF80000B4
:1055D00001208DF8010000208DF8020001208DF8D7
:1055E00003006846FDF724F8012240F225510848DF
:1055F000FFF71BFE002240F227710548FFF715FE5A
:1056000001210348FFF79DFD06B010BD000C0140CD
:105610000048004010B504460120FEF707FE214671
:1056200008A000F06BF80220FEF700FE214605A05E
:1056300000F064F80320FEF7F9FD214601A000F018
:105640005DF810BD2573000010B54FF4E130FFF791
:10565000C1FE4FF4E130FFF731FF4FF4E130FFF7C7
:105660007FFF10BD38B500250A244FF40040ADF887
:10567000000048208DF8030069461F48FCF724F914
:105680000122D1031C48FCF709FA0020FCF7EEF8D0
:10569000012291031848FCF701FA0020FCF7E6F814
:1056A00004E0601EC4B20020FCF7E0F84FF40041B3
:1056B0001148FCF7DDF9012801D1002CF1D1002CB3
:1056C00003DCFFF777F9012038BD00224FF4804159
:1056D0000948FCF7E3F94FF40040ADF8000014204E
:1056E0008DF8030003208DF8020069460248FCF79C
:1056F000EBF800BF2846E7E7001001400FB4054B68
:1057000010B503A9044A029800F030FC10BC5DF803
:1057100014FB0000796C00083C0500200FB4084B16
:1057200010B504A902AA039800F020FC044602A9BF
:10573000002000F0B2FF204610BC5DF814FB000012
:105740009B660008490050EAC12018BF04204A0D9A
:1057500018BF40F0010040F2FF72B2EB515F08BF8A
:1057600040F00200012808BF052070472DE9F74FDF
:10577000144694B00021C4E902111599079121F053
:105780000045C9498D4206DC1599C4E9000117B0EE
:105790000020BDE8F08FC549DFF814A3A9423CDD25
:1057A0000799C44E0029C44FC44A1599534619DDC0
:1057B000FBF7C7F8554506D0C14AC24BFBF7C1F805
:1057C000C4E900010AE04FF0D352BE4BFBF7B9F831
:1057D00032463B46FBF7B5F8C4E9000117B001209B
:1057E000BDE8F08FFBF70CF8554506D0B44AB54B31
:1057F000FBF706F8C4E900010AE04FF0D352B14BC1
:10580000FAF7FEFF32463B46FAF7FAFFC4E9000119
:1058100017B04FF0FF30BDE8F08FAB49A9421599A2
:1058200078DB21F0004183468846A84AA84BFBF765
:105830008EF80022A74BFAF7E3FFFBF7B1F90990C6
:10584000FBF7F8FD06460F469C4A5346FBF77FF8E8
:1058500043465A46FBF778F880468A46984A994B61
:1058600030463946FBF773F82A0D01250B92424664
:105870005346FBF769F8032DC4E9000139D00B98B2
:10588000C1F30A51401A05EB45111139814230DA52
:105890009148C346784400EB0510CDF80CA00C905D
:1058A000D0E9002330463946FBF751F802460B4653
:1058B0000491069058460399FBF743F880468A46C0
:1058C00002460B4658460399FBF73BF8049B069AA1
:1058D000FBF737F883460C9803913946D0E9022349
:1058E0003046FBF734F85A46039BFBF72AF86D1C49
:1058F000BDE707980028A2BF099817B0BDE8F08F50
:10590000616881F000416160099817B04042BDE8CC
:10591000F08FFFE784461598C1F31301C0F30A50D6
:10592000A0F2F5304FEA601800F01F06C6F1200023
:10593000139000200690079041F4801E05206D46CC
:1059400076B1664A08EB00017A4452F8213002EB46
:105950008101B3404A68139922FA01F1194305E025
:105960005F4908EB0002794451F82210A1FB0E2791
:10597000A1FB0C131A449A4234BF0123002303EB0A
:10598000070A05EB8003D3E901B70F448F4234BF08
:105990000121002193448B4411B1934502D903E0C6
:1059A000934501D2012100E00021C3E901B7514430
:1059B00045F82010011EA0F10100C1DC0298059FEE
:1059C00000F10050800F12900298DDE9035680002C
:1059D000FBF730FD834628460D91FBF7A7F86FF0E3
:1059E0001D02FBF7BDFACDE90E013046FBF79EF82C
:1059F0006FF03D02FBF7B4FA80468A463846FBF763
:105A000095F86FF05D02FBF7ABFA07464246534646
:105A10001191FAF7F5FEDDE90E23FAF7F1FE5A4689
:105A20000D9BFAF7EDFE00250E465A4628460D9BC3
:105A3000FAF787FFDDE90E23FAF783FF4246534664
:105A4000FAF77FFF3A46119BFAF77EFFDFF898A03E
:105A5000244A5346FAF77BFF07468846234A244BDD
:105A600031462846FAF773FF3A464346FAF7C8FE2E
:105A7000074688464FF0A842534631462846FAF773
:105A800066FF3A464346FAF7BBFE159A12F0004FFE
:105A900004D0129A81F0004152421292C4E90001EE
:105AA000129817B0BDE8F08FFB21E93F7CD9024086
:105AB000FB21F93F7370032E8A19A33B0000405469
:105AC0003163621A61B4D03DFB21394183C8C96D8D
:105AD000305FE43F0000E03F202600009C250000EE
